S03C0000786E63702D636F6D6D736875622D756172742D6475616C5F65667233326D67317031333266323536676D34385F62726434313535612E733337A2
S1134000A05A0020554503003199000039410300AE
S1134010A70A0A010041000004180CACA067A7011C
S1134020000000000000000000000000000000008C
S113403000000000E84A0300000000000000000047
S11340400000000000000000FFFFFFFFFFFFFFFF74
S1134050FFFFFFFF00E0030000000000000000007D
S1134060FFFFFFFFFFFFFFFF100000000000000044
S1134070000000000000000000000000000000003C
S113408000000000000000006C7D00206C7D00201A
S1134090A05A0020BE6703006E4503004051002073
S10F40A09C12002000000400000000003E
S1134100A05A0020554503003199000039410300AD
S1134110C1F900003D4103004141030000000000DB
S1134120000000000000000000000000734A0000CE
S11341304541030053450000178400005BB30000B1
S1134140B9FB0000E9C80200554500007DC3020028
S113415025C90200EFC80200F1C80200EBC8020042
S113416031C80100B5CA01008152010071B80000D4
S11341704D4103004D4103002B4303004D41030017
S11341804D410300C3CA01004D4103004D410300EA
S11341904D4103004D4103004D4103004D410300D7
S11341A04D4103004D4103004D41030027C9020066
S11341B0EDC802007F1B020057C902004D410300F5
S11341C0B94403004D41030000420F48816B89B29A
S11341D001B1012141F67132826346F21A32036859
S11341E043F001030360C2644FF480734360426987
S11341F0D307FCD40022C264C9B203685B085B0025
S1134200036001B182630020704708000E40000083
S11342101421014800F004B87045030042DE7047E1
S113422038B504460D4600F059F900F0D0F900F015
S1134230F1F92946204600F018FA2B4622466D492A
S1134240012000F0F5FB29462046BDE83440E5E7AF
S113425069482DE9F843694E0168B1654FF4206857
S1134260026A6749F2650B68336649687166426A97
S1134270B266816AF166C26A3267016B7167806BEC
S113428096F83810B06748074CBF346CF46B00F0F4
S113429033FC002232658442DFF868E1014624BF22
S11342A0AEF12007A742A146716506F19002564B74
S11342B0DFF858C118D3A0697064E469B464B56DBB
S11342C0C5F30805062D13D1604511D398420FD2CA
S11342D000884DF64264A0420AD17068B468506008
S11342E0946040F2017803E000247464B46481466D
S11342F04748814238BF0146084670456AD20C6877
S1134300B4F1CD3F08BF091DF6D063E0062C09D1F6
S1134310C4B2002C0CBF0520401E06F17C04C5B2BB
S113432044F82510F14520D25EF8041D6145F9D307
S11343309942F7D2CC07F5D5002406F17C0555F84F
S113434024708F42E2D0641C062CF8D3DEE7F16FB0
S1134350002306F17C0506EB8304D4F8804045F87D
S113436023405B1C042BF6D911600146481EC9B2D8
S11343700029ECD1B06DC0F30800032810D0042844
S113438011D0052812D0062813D00C2817D01228D3
S113439018D120480268910719D540F2025816E056
S11343A040F6012813E040F6022810E040F6032806
S11343B00DE0B8F5206F0AD140F6042807E040F676
S11343C0052804E018B1322838BF40F607284046D3
S11343D0BDE8F2831049081AF0640021002006F1B8
S11343E07C04C5B2401CC7B244F82510062FF8D38C
S11343F0002097E78046030004ED00E00000002061
S113440000E300E0A05A00206E45030010420000C3
S11344109C0000201C200540A05A002001F033B865
S113442000F07ABE00F074BE10B5044601F05AF8EC
S11344302046BDE8104000F0DBBE02F095BF10B589
S1134440044602F0E0FFFF2804D12046BDE81040F6
S113445004F05BBA10BD10B5044605F0DDF8204643
S1134460BDE8104002F048BF04F03ABE04F055BE67
S113447010B5044604F01CFE2046BDE8104003F0CD
S1134480A2BA10B5044604F02FFE2046BDE8104041
S113449003F0A2BA04F02FBF04F080BE04F082BE81
S11344A004F0B7BC10B5044604F058FD2046BDE83E
S11344B0104003F089BE000010B5044604F0D8FE95
S11344C02046BDE8104003F0C9BB10B5044604F013
S11344D06DFE2046BDE8104003F06CBC80B504F0CE
S11344E0B7FBBDE8014003F071BC80B504F08FFC5C
S11344F0BDE8014003F01ABE80B504F04CF8BDE8F5
S1134500014003F027BF10B5044603F0D9FF20464D
S1134510BDE8104003F025BF38B5044604F015FA91
S11345200546204603F00EFF854288BF054628460F
S113453032BD04F097B904F099B938B5044604F0D3
S11345408DF80546204603F0D0F8FFE705B90020B2
S113455032BD704705F0ECB9F8B5274C27482268FE
S113456084B001210392012705F094FA012201216C
S1134570012005F0D7FC0421072005F01DFE204A88
S113458092E868006946032281E868000D218DF8ED
S113459008108DF809208DF800708DF807706946B1
S11345A0184D284605F084FE1749042008600222AD
S11345B016496A620860AA6A42F00202AA62039873
S11345C02168884201D0FFF723FE05B0F0BD0D48F5
S11345D005F062BEA52803D100210A4805F043BEB8
S11345E070470848006800F00100704708490868EF
S11345F00028FCD170470000E45A002030053E003A
S1134600144703000020054080E200E000E100E0E0
S113461008200540602080F31188704770B505F0CC
S11346206AFFDFF8D442204606F065FBE0B9204675
S113463006F02AFBFF28044616D0DFF8C002016802
S1134640085D851EE9B2204606F095FA0646E9B2F1
S1134650204606F07CF92146304600F0FDF820465D
S1134660BDE8704006F009B870BD03460A46A0A133
S11346700420FFE70CB41CB5A14C2368009304AAE2
S113468000F036F800982168884201D0FFF7C0FD99
S113469013BC5DF80CFB0A00034602D095A111205F
S11346A0E8E7704780B586B006F08AFDA022049240
S11346B00021944A0092672305910393029101918A
S11346C00246002393A10120FFF7D4FF8E4881798D
S11346D0028843790391029201930179C378827825
S11346E0009142208EA1FFF7C5FF07B000BD000076
S11346F02DE9F84F0F468249904686B00A68059224
S1134700054606F0FAFD0024F8B905F06FFEE0B1A5
S1134710012005F048FFFF28824616D0002105F04D
S11347203DFF294601A805F067FE002F054633D159
S113473000F08BF830B9504605F0D2FE10B10420D9
S113474006F0C3FD504605F098FF05986C490A68C9
S1134750904275D176E08DF8041001251BE067487E
S113476058F8046B006810F80A90F2B2FF2A12D0CD
S1134770F1B210F801B00BEB0901C9B2504606F0D2
S1134780E6F80028DED1CDF800B00023F2B24946A5
S1134790504606F020FA7F1C38780028C8D0A0F1D3
S11347A030010A2904D20A2101FB0404303CF2E757
S11347B000F04BF80028C5D139780025422901A81A
S11347C00ED044291AD0462925D057290DD0622964
S11347D0C5D066292AD06C2925D0702926D0BAE7FD
S11347E058F8040B8DF80400B7E758F8041B8DF84B
S11347F0041002250904090E4170CCE758F8041B83
S11348008DF804100B0A0A0C090E437082708DF89F
S113481007100425BFE758F8041B504606F04BF870
S11348200028B8D08EE758F8044BB4E758F8041BB6
S1134830E2B2504606F03DF8002808BF0024F0E735
S1134840FFF7E6FC07B0BDE8F08F2A4601A9504601
S113485006F02FB8000000002DE9F043122885B0BF
S113486080460D4609D03A281ED04FF6FE71884284
S113487004BF284606F073FD33E02048234F016847
S11348804E5D2846FF282CD0212EB4BF3446202468
S113489005F07EFE01462246002007F029F838681C
S11348A0455D203EF6B2ECE707F0CBFA8146FFF710
S11348B0F5FD0646FFF73FFE0746FFF73AFE0446BE
S11348C0FFF7EAFD12490B8817A1029302460D482F
S11348D00390CDF810900196009723463B20FFF7F4
S11348E0C9FE2946404605B0BDE8F04306F028BDA0
S11348F0574600006C700000C75F0020F05B00208A
S1134900E45A00208C740020CC4D0300F85B002096
S11349108C5F002042423870424242425742420079
S1134920424242425742000057424257573870426F
S1134930000000002DE9F043494D04468BB0914638
S113494028680A900126220088461F4606D0012CBA
S11349501FD0102C02D0202C1BD02BE0002120468D
S113496007F00EF80646012C18BF202C08D0022CA4
S113497018BF212C04D0032C1CBF222C232C19D1AA
S1134980012FCDF80480ADF80C9008D14FF480507D
S113499009E068463349282207F030FBE3E7022F99
S11349A003D14FF44050ADF80A006946204606F0A2
S11349B0E7FF06460A982968884208BFF0B201D08A
S11349C0FFF726FC0BB0BDE8F08380B507F098F83C
S11349D0C0B202BD80B507F0F3F8C0B202BD2DE944
S11349E0F84380460F4614461D461F4E02E03068C9
S11349F0C75D203CE0B22028F9DAE8B2B0B1C4F1D6
S1134A0020005FFA85F9C0B2814588BF81463846E7
S1134A1005F0BEFDE4B201194A464046FFF7DAFF4D
S1134A203068C75DA5EB09050024E6E7BDE8F2831D
S1134A300CB438B50A4C256800950A46014604AB07
S1134A400A4807F079FB00982168884208BF0020D3
S1134A5001D0FFF7DDFB32BC5DF80CFB0000000069
S1134A60E45A002004460300F85B00208BBC0000DD
S1134A707047FEE7890001EB401101F184410A60AF
S1134A807047000010B50446FFF7C4FD1E484AF6FF
S1134A90E8510160C162016B01F00F01022913D1D9
S1134AA01A4A01211160806B00F00300012818BF2D
S1134AB0022809D100221C211548FFF7DBFF002240
S1134AC000211448FFF7D6FF200A0028124808BF27
S1134AD024024FF20F0104804180BFF35F8FBFF3C4
S1134AE04F8F0E490E480A6802F4E06202430A60DE
S1134AF0BFF34F8F00BFFDE70A48704709482038CD
S1134B00704709487047000008300E404040084094
S1134B1060300E4074300E40000000200CED00E0C8
S1134B200400FA0540510020A000002080B507F0E1
S1134B3051FCDFF858291178484302BD80B5DFF8ED
S1134B405019096A05280BD8DFE800F003060608A7
S1134B5008086FF0004002BD086902BDC86802BDC4
S1134B60E82100F0F9F8002002BD10B50146DFF895
S1134B702009026A106993685468D2688842B4BFF5
S1134B80012000208B42B4BF022300238C42B4BF17
S1134B90042400248A42B4BF0821002118182018D4
S1134BA00818401CC0B210BDF8B5DFF8E458DFF8AF
S1134BB0E4682C6A002C1ABF30780028002706D03D
S1134BC061696A7A88188130FFF7CFFF0746287A2F
S1134BD0B84214D001226A74002C1ABF94F86400FD
S1134BE0401E02F0B5FB2A7A31783B46C0B207F08A
S1134BF039FD002169742F720628B8BF307002F0A5
S1134C00C7FEA0B1287A002450B1286A4169687AA5
S1134C100F183078FFF792FFFF1DB842B8BF012488
S1134C20E97A2046884202D003F0BAFAEC72F1BD68
S1134C302DE9F84FDFF85858AC7A064689460CB18E
S1134C400020A872286A10B96FF0004082E0FFF7D4
S1134C506DFFDFF844182B6ADFF83C28B0FBF1F84D
S1134C6001FB08F89969A8EB0100B0FBF2F04FF0E2
S1134C700D0CB8FBF2F2E646B2FBFEFE0CFB1E2E58
S1134C800D28774608D3002058613422002103F10F
S1134C901C0007F00EFE28E038B3DFF8FC77B1FB08
S1134CA0F7F1E246B1FBFAFA0CFB1A1C03F11C0201
S1134CB00CF1010C5FFA8CF10D2908BF4FF0000CC8
S1134CC05FFA8CF15F6952F821B0A7EB0B075F61C3
S1134CD0002742F82170401EEAD16746F8B27045B9
S1134CE003D040F2571100F037F8687A002E02DD45
S1134CF0801C861902E044BF361AB61E07F0F1FD87
S1134D0095F80CA000212973FFB207F0F0FD687A32
S1134D10C01D10FB0A66286A4169361B711841617F
S1134D2000F11C0200F11C0352F82710761843F816
S1134D302760C0F81880FFF737FFB9F1060F04BFEA
S1134D40DFF8500790F800904846FFF7F7FE2A6A0C
S1134D505169401ABDE8F28F0FF27470FFF760BA20
S1134D602DE9F041804602F0F3FADFF824470746C4
S1134D7004F1340504F13406002195F86400421E60
S1134D80BA4215D0002904BF00282946686972690F
S1134D909042B8BF2E46683504F582708542ECD344
S1134DA009B10D4604E06822304607F082FD35461D
S1134DB0B8F1000F05F1500602D1307D00285FD113
S1134DC03146384602F038FB002853D17F1C377532
S1134DD0608808B996216180DFF8B036B17B5878D5
S1134DE0DFF8B8264143B2FBF1F02860E08840B90F
S1134DF0307808B9012131702868327890FBF2F0DC
S1134E0005E0296842F2107391FBF3F35843E8601C
S1134E10A08840B9707808B9012171702868717848
S1134E2090FBF1F001E000F037F8E9688142C8BF77
S1134E3001466960208858B9B0780A2110FB01F056
S1134E4081B201B90120296880B291FBF0F001E040
S1134E5000F022F8286142F210722968608891FB00
S1134E60F2F14143E8688842C8BF0846A860F07B75
S1134E7060720AE0002060722062BDE8F04193E6AF
S1134E80206AA84206D0F17B617225620021BDE848
S1134E90F041F5E2BDE8F0812A6842F2107392FB1A
S1134EA0F3F3584370472DE9F04106460D460020C0
S1134EB0FFF756FFDFF8D875DFF8D885386A2C4637
S1134EC0062C08BF98F80040002818BF002C20D0FA
S1134ED031787A7AB0F85C005618B61C08B1B04242
S1134EE00ADB29460020FFF7A3FEB04207DA1DB90A
S1134EF04FF40071FFF730FF6FF0004020E0386A94
S1134F00062D50F8545F08BF98F800400DB1052CE9
S1134F1001DA002014E080882D1A012002F00BFB36
S1134F2004464FF47A72DFF87805DFF8781502FB4F
S1134F300505B5FBF1F10C19FFF7F8FD641C201A07
S1134F40BDE8F081DFF860251178002904BF002254
S1134F5007F016BDDFF85415012008707047DFF81C
S1134F60500508F043B810B50246DFF82415DFF801
S1134F7044350120C873186800F09CF8017E40692C
S1134F80DFF820454A43B4FBF0F0BDE8104042434B
S1134F90DFF82415012008F063B938B5DFF81C15D3
S1134FA00446087808B1002032BDDFF8E4146078C4
S1134FB08A7B1518A0788542A8BF054608F0E8F951
S1134FC0012194F90320237801FA05F5A918B0FB0F
S1134FD0F1F201FB12002179401810FB03F080B2BA
S1134FE032BD80B5DFF8A8240021D17300F083F826
S1134FF0BDE802408D20A5E72DE9F041DFF890548B
S11350000FF2CC46EA7B07461AB140F27B2100F04E
S113501075F9286A18B94FF41F7100F06FF9286AFE
S1135020046E1CB940F27E2100F068F9686A02F04F
S1135030EBFE804650B170280BD0012000F05BF8E5
S113504017B14046FFF77EFF404631E002F075FDA0
S113505001E003F06BF8DFF85C04006800F02AF864
S1135060E288017E4069DFF83C744A43B7FBF0F004
S113507000F0F3F928630021A97394F9050018B925
S113508040F2A32100F03AF994F90500010003D598
S113509049422974002003E028742046FFF77DFF6D
S11350A0A883202008F029FAA88BFFF75CFF0020D2
S11350B0BDE8F08118B9DFF8080481680868704712
S11350C070B5DFF8CC530446686A02F0BDFF0600F1
S11350D008D1002000F00FF8686A00780021FFF77B
S11350E0A7FD06E0012000F006F814B13046FFF7F2
S11350F029FF304670BDDFF898138A7B00F00F005B
S113510040EA021088747047DFF88403407B7047DC
S1135110DFF87C03007A70472DE9FC4D044600203B
S1135120FFF71EFEDFF86803056A45B92CB142F2A9
S1135130107020806080A080E08000204AE0407CE5
S113514010B90021FFF774FD002C42F210782FD023
S11351502E6806EBD6725210D317CDE900232869C6
S1135160C117A8FB007B18FB01BBB8184BEB03016C
S11351703246F31708F0E4F92080AA68D317A8FB95
S11351800201DDE9007218FB0311C01951413246D6
S1135190F31708F0D5F96080DDE9007B686800F05A
S11351A01BF8A080DDE9007BE86800F015F8E080DA
S11351B02A686C6902EBD270E517A8FB046AC11770
S11351C018FB05AA16EB60004AEB0101D31708F09F
S11351D0B7F980B2BDE8F68DC117A8FB002318FB10
S11351E00133D01943EB0B013246F31708F0A8B989
S11351F0E0B5010024D06846082206F0EFFEBDF8B1
S1135200020010B99621ADF8021000210022D3B299
S11352103DF8130030B142F21173984210DA88421B
S11352200EDB0146521CD0B20428F0D3DDE90001A4
S1135230974AC2E900010120FFF792FD00200EBD4C
S113524002200EBDF8B5924D0FF28426697B044608
S1135250686AFFF728FE0746012F23DB6FF0004042
S1135260874210D0FFF762FCA96A964A3818401AA0
S113527090420AD20320FFF73EFF14B18C20FFF7BF
S113528061FE8C20F2BD0220F5E7E87B18B140F204
S1135290733100F033F8394605F1140007F0B0FE1D
S11352A00020F2BD687B062801BF7A49087868733C
S11352B0002804D18449487808B104216973E87B43
S11352C018B140F2853100F019F8687B042811DB2D
S11352D0296A00291CBF086E002809D091F85300E0
S11352E0C10707D5012068732046BDE8F24083E674
S11352F0022068732046BDE8F240E1E63046FEF73E
S11353008FBFF8B506460F461446FFF70FFC604DF5
S11353106D496E623F18AF62487810B95D490878EC
S113532008B9062000E00120687368480168CA05CE
S113533005D005F1140007F059FE0020F2BD204607
S1135340BDE8F2407EE7000070B5514C5C4DE17B56
S1135350584E00200329207574D8DFE801F00206B6
S1135360173BBDE8704001206CE7306808B9A868B5
S11353700068216A4B4D0A6E017E128900F069F8BB
S1135380E0620220E0732B2008F0B7F802F0D5FBAE
S113539088B9A07B217C401CA073C0B2884205D28E
S11353A00320E073292008F0A8F821E0272008F062
S11353B0A4F804203CE007F039FFE16A07F038FF65
S11353C0B0B10020E073282008F097F8BDE87040E1
S11353D0012075E602F0B1FB80B907F027FF216BCD
S11353E007F026FF20B12A2008F087F806201FE0E6
S11353F004F11400BDE8704007F0F8BD206A006EA7
S1135400FFF7CBFD0146A183306808B9A86800689E
S1135410226A156E2A89234D5218017E00F019F86C
S1135420216B07F005FF30B12A2008F066F805204B
S1135430BDE87040D5E52C2008F05FF8A08BBDE8EE
S1135440704090E5BDE8704040F20C4120A0FEF7AA
S1135450E7BE40694A43B5FBF0F042430021012016
S113546007F0FEBE0A494A6A487A1378C3189B1C9F
S11354708B7270470648017B491C017370470021F9
S11354800020FFF7D5BB0248006A7047ED5F00209B
S113549004770020EC5F0020E093040000A493D67E
S11354A020A1070040420F00B760002009760020C9
S11354B018770020F47600205F4F00000676002065
S11354C0C84F030001000080685E002004ED00E086
S11354D0647574792D6379636C652E630000000034
S11354E0002070470020704738B51546104A51789F
S11354F00446222008F06AF9204603F00BFB044618
S11355006DB120000BD00B49087818B10A4801216D
S1135510017004E000220021204607F020FA204612
S113552032BD7047704770470449087070470000E7
S1135530605E0020B7600020B8600020517D00202C
S11355407FB5DFF8784B0FF240052268029201AB79
S11355502E681E608DF805008DF807106B46012239
S113556001A9042008F038FB18B140F2993101F088
S11355707DFA02982168884208BF9DF8000001D096
S1135580FEF746FE04B070BD120001002DE9F043A1
S1135590DFF8F87A85B03E6880460C461546994691
S11355A0049668460FF25801102206F027FD8DF884
S11355B0034029008DF801808DF80250DFF87C4B00
S11355C001D00C2D03D340F2A73102F0A2F92A46F0
S11355D0494601A807F026F92D1D6946E8B208F0EE
S11355E090FA18B140F2AB3102F093F9049839689B
S11355F0884201D0FEF70CFE05B0BDE8F083000040
S11356001100000000000000000000000000000085
S1135610FEB5DFF8A84A0FF23C06236802936D46F4
S1135620D6E90073C5E900738DF801008DF8031005
S11356308DF804206946052008F063FA18B140F299
S1135640B73101F013FA02982168884201D0FEF7BD
S1135650DFFDF7BD11000100000000003EB5DFF8DA
S11356605C4A0FF2440203462068019069461568BB
S11356700D600C22D878C0438DF801005879C043DE
S11356808DF80200D879C0438DF80300042008F097
S1135690A3FA18B14FF4717101F0E8F900F032FC8B
S11356A001D0FEF7B5FD37BD82000000FEB5DFF87E
S11356B00C4ADFF8446B21680191012305468DF8FB
S11356C000300922002106F10C0007F0F2F806F17F
S11356D00C03092202F09FFADFF8607A18B140F255
S11356E0CD3101F051F98DB10B22002106F11800E2
S11356F007F0DFF810208DF8000006F118030B22E4
S113570002F089FA98B14FF475710EE00A22002173
S1135710304607F0CEF8FE208DF8000033460A220A
S113572002F079FA18B140F2DB3101F02DF900F002
S1135730E9FB01D0FEF76CFDF7BDDFF8BC1A487E2B
S11357400A7E897E000440EA026040EA0120704734
S1135750DFF8A40AB0F80D1048BA80B2704710B54B
S1135760DFF8944AE07C227A904203D040F20C4164
S113577001F07CF9E07C10BDFEB5DFF840490FF282
S11357803C02054620680290D2E90037CDE9003793
S11357900E462F46052F03DB4FF4856101F066F9B1
S11357A069466D1CCE55E8B208F0ABF9029922683F
S11357B0914201D0FEF72CFDFEBD00001300000055
S11357C000000000FEB5DFF8C46814461D463268C8
S11357D00FF25C03019202001B88ADF8003018BF81
S11357E001220B0018BF01236F4643EA42037B707A
S11357F0DFF87C2B11B100219184916208B1002063
S113580050846B46022200F014F818B140F24F4164
S113581001F02CF914B19DF8000020700DB17878D6
S1135820287001993068814201D0FEF7F1FCF7BD80
S113583015006946022008F0CFB910B50446607916
S1135840E178002808BF002907D001B1012100B187
S1135850012000230022FFF7B5FF2046BDE81040D9
S1135860FCE670B50446DFF8D45812E0112803D0E2
S11358704FF48E6100F06EFDA678361D2146F0B21D
S113588008F03FF918B140F2734100F063FDF6B23D
S1135890344420780028E9D170BD2DE9F84FDFF8B1
S11358A0EC87DFF8CC9A044686B01F46D8F800008F
S11358B00590164699F8193099F81A200D469C421D
S11358C099F81C0099F81B1008BF954203D18E4229
S11358D008BF87423AD00FF288034FF0000ED3E995
S11358E000AB02AB7840CDE900AB7140F246D34641
S11358F083E8004C6A40384031402A408DF80F005C
S11359008DF80B108DF80D208DF804408DF805608E
S11359108DF806508DF8077002A8FFF79FFE6946C0
S1135920082008F0EEF818B140F2B64101F09EF8F4
S1135930DFF8400A89F81940847589F81A50C5754A
S113594089F81B60067689F81C7047760598D8F8A4
S11359500010884201D0FEF75BFC01F07DBA000024
S113596011630400000000001CB5DFF820470FF2AB
S1135970340220680190694612788DF800200120D5
S113598008F0BFF818B140F2DD4101F06FF8DFF81C
S1135990E0190020087300F0B5FA01D0FEF738FCD6
S11359A013BD00008C0030B50246DFF84C08816A54
S11359B039B10B789A4224BF4878904201D3084603
S11359C030BDDFF8843B9B79D8B280B1DFF8780B27
S11359D084685B1EDDB254F82500884218BF002895
S11359E0F2D00578AA4224BF44789442ECD330BD67
S11359F070B5044619B9FFF7D6FF010011D0CB6981
S1135A00002200E0521CC87E82420ADA1425554363
S1135A105819F7D05D5DAC4224BF4678A642F1D355
S1135A2070BD002070BD0021222089E52DE9F843D6
S1135A308146B9F5004FDFF8048703D140F24351A2
S1135A4000F086FD01F0C4F8FFF7EDFF4FF6FF719B
S1135A5089450746DFF8F44A0ED1FFF76EFEBE080B
S1135A60A04206F00F060CD2062E08BF082608D066
S1135A70082E06D1062604E00FF2001009F00301F7
S1135A80465CFFF765FE44F26541401A0ED0801E65
S1135A9004D0401E08D0401E08D00DE04FF6FC7024
S1135AA000EA0909062620E0062E01D0082E03D1BB
S1135AB0022060F301090126FFF73FFEB500A04272
S1135AC006D2062E08BF202502D0082E08BF1825AE
S1135AD007F03C00E9B2884207D007F0C3072F4320
S1135AE0FAB200212220FFF793FD0221FFF79CFF69
S1135AF00746BC09012E18BF022E04D0062E04D07E
S1135B00082E08D003E0002405E0032403E040F25B
S1135B10BB5100F01DFD07F03F0242EA8412974298
S1135B2003D002212220FFF773FDDFF81C1ACB6893
S1135B30002000E0401CCA79904218DA0C2242434B
S1135B401A441779B742F5D1DFF8700A0168914217
S1135B5011D0DFF820480260002194F91C0001F004
S1135B60EDFD94F91D00012101F0E8FD03E040F290
S1135B703E5100F0EDFC4846BDE8F2830608010200
S1135B80FEB5DFF80845DFF870562068DFF8B8394D
S1135B900190A86A18B9996809680E4601E001469F
S1135BA0064607690A7E7169DFF818CC5743BCFBC7
S1135BB0F1F14F436246B7FBF2F2120A8DF800206E
S1135BC018B9996809680A4601E001460246036962
S1135BD0097E50694B43BCFBF0F043436146B3FB81
S1135BE0F1F18DF801106B46022205216220FFF7C6
S1135BF0CDFC286BFF2700280CBFFF20408A00F053
S1135C0035F8022100F021FA286B00280CBF3A2055
S1135C10007800218DF800108DF801006B460222F7
S1135C20062100F012FA286B00280CBF0820008916
S1135C3000F01CF8122100F008FA286B00280CBFB1
S1135C403226467C687A00B9B600FF2E03DD4FF495
S1135C50C36100F00BFFF2B202216120FFF7D8FC10
S1135C6000F050F901D0FEF7D3FAF7BD010A8DF820
S1135C7001008DF800109DF80000102804DB0F21AE
S1135C808DF800108DF801706B460222704738B50C
S1135C907F28044604D140F2226100F0E7FE07E0C9
S1135CA07E2805D1DFF85005C06AB0B190F90440F0
S1135CB0DFF89408DFF8105B017908194004001438
S1135CC080F308042878A04207D000F081FFE2B2F4
S1135CD005216020FFF79CFC2C7031BD2DE9FC47A9
S1135CE0DFF8A8938A46D9F8001001910546FFF71A
S1135CF05AFE0027040008BF8A2079D0DFF8F86430
S1135D00DFF87086B06A844239D0BAF1000F18BF48
S1135D10FFF72AFE707A10B1206AFFF7A2FD4FF652
S1135D20FF70ADF800000223DFF8A00A01887F228B
S1135D30684607F0DCFFBDF80000010605D400F05A
S1135D407F0200210020FFF763FCB06A78B141694B
S1135D506269914202BF017E227E914207D1417E57
S1135D60627E914202BF807EA17E884200D00127DC
S1135D70B462B8F82800FFF759FEA8F828002146B5
S1135D802846FFF735FE050003D140F2796100F0A3
S1135D906DFEF06AEC68854226D0F562286908B188
S1135DA0FFF75FFD98F91B007E2804BF95F90400F6
S1135DB0FFF76DFF306B844216D0002C18BF00280B
S1135DC00FD001782278914202BF01892289914241
S1135DD007D1418A628A914202BF407C617C884239
S1135DE001D0346301E034630FB1FFF7C9FE002032
S1135DF00199D9F80020914201D0FEF709FABDE8D3
S1135E00F6877CB5A14CDFF868252068DFF82C53B1
S1135E100190117B19B140F2A26100F09BFADFF806
S1135E205465B07E0021FFF759FF18B140F2A56117
S1135E3000F090FA0FF254010A68B37E00928DF8D4
S1135E4002306946032007F05CFE18B140F2AC61F1
S1135E5000F080FA07F031FE18B140F2AD6100F0B5
S1135E6079FADFF89403806A01F0A0FE4069DFF854
S1135E705429B2FBF0F080006E3080B207F0B9FF15
S1135E8000F040F801D0FEF7C3F973BD87010000AC
S1135E90FEB500F0EAF919B140F2B66100F05AFA21
S1135EA0DFF82C79B87E0021FFF718FF18B140F213
S1135EB0B96100F04FFA0FF248010A68BB7EB07B6B
S1135EC000928DF8013008B10021B17369460320B6
S1135ED007F017FE18B14FF4D96100F03BFA012026
S1135EE07073307307F0E9FD18B140F2CE6100F031
S1135EF031FA00F007F801D0FEF78AF9F7BD000087
S1135F008100030001982168884270472DE9F04F11
S1135F105E48DFF8605B016885B00491687830B151
S1135F20FFF7F2F80146012918BF032901D1002027
S1135F3084E0B148006B002818BF02290AD195F902
S1135F40026095F80480E8786D798DF800004FF0D0
S1135F50000909E090F9056041788DF8001090F887
S1135F600280057990F90390DFF80474B978F0B2EF
S1135F70002E344648BF6442884202BF9DF80000A8
S1135F80F9788842E4B20DD13879804504BF797933
S1135F908D4207D197F91320914502BFB87C7978D7
S1135FA088424AD0052C03DD40F20A7100F05EFD00
S1135FB0B87C28B10A22002101A806F07AFC2BE063
S1135FC09DF800B0002E4FF0000A23D5ADF804A0D0
S1135FD04FF0010A1EE001A9012000FA0BF001F8BC
S1135FE01A5048440DF10502401E02F81A00C0B2CE
S1135FF011F81A10884203D24FF4E36100F036FD21
S11360005FFA8BF040450AF10100B8BF0BF1010BB8
S11360105FFA80FAA245DEDB620001ABD2B208214E
S113602000F013F89DF80000F870BE7087F8048043
S11360307D7187F81390B87C78702046049901F03C
S113604063FC01D0FEF7E4F8A0E36020FFF79EBAFA
S113605070B5DFF87C470546E07BA8430D40217C02
S113606005438D4210D006F03CFC01F024FE38B903
S113607000F0AEFD2A4600216120FFF7C9FA25741D
S1136080304606F034FCE57370BD0000E45A00208D
S113609038B5DFF83C570446A87CA0430C40E97CA3
S11360A004438C4208D000F093FD22460021622074
S11360B0FFF7AEFAEC74AC7431BD0000E45A002072
S11360C01CB5DFF8044B226801927F23ADF8003041
S11360D0C00744BF7D21ADF80010BDF8000040BAF0
S11360E0ADF800006B46022202216220FFF74EFA4F
S11360F0FFF708FF01D0FEF78BF813BD38B5DFF8C2
S1136100D0460546207DA8430D40617D05438D4260
S113611012D000F05DFD2A4601216220FFF778FAD3
S1136120617D05F0010001F0010188421CBF284691
S1136130FFF7C6FF6575257531BD0000D0830000EB
S113614038B5054600F08C000828894C08D006F0C4
S113615041F92063DFF81C19487808B1206B6063AB
S113616094F90F00032803D10021E173402509E0CD
S113617094F90F00012819DB00212806E1734CBFB4
S1136180882589257B49DFF8442A4FF0FF30C8620F
S1136190107810B10121617531BD02F05CF901463E
S11361A02846BDE83840002206F0EABB31BD70B590
S11361B004006F4D02D195F90F0018B9FFF7D4FB15
S11361C0012600E000260023002231460120FFF7CB
S11361D0F9FA7EB12046FFF7B3FF687B10B1BDE842
S11361E0704055E6DFF8E805417B022902D1BDE89D
S11361F0704006E670BD0000CC7600207CB500F04F
S113620034F819B140F2DE7100F0A4F8DFF8502C34
S1136210106800281AD496F91D00002809DD03210E
S1136220FFF7AAFA18B140F2F57100F093F80020D4
S1136230707769460FF2300000788DF80000012075
S113624007F05FFC48B14FF4026104E007F035FC4D
S113625018B140F6290100F07DF8FFF753FE01D094
S1136260FDF7D6FF73BD00008D00DFF85C49404E9A
S11362702068DFF84C530190317B70472DE9FC41D5
S1136280DFF844493A4D3B4E074620680190884662
S1136290002169730420FFF78AFFAA7F002F3FD0F3
S11362A0F77F22B900212020FFF74AF9A87707F0E9
S11362B0ACFB3A4606204243B01800210079C04D99
S11362C0FFF70CFD18B140F6430100F043F8B8F1B4
S11362D0000F14BF1322002200212020FFF798F999
S11362E00FF26C010A6800928DF80270B2A10220CC
S11362F007F0C5FB18B140F64D0100F02BF86946D4
S1136300042007F0FEFB18B140F64E0100F022F81D
S113631007F0D3FBA8B140F64F0100F01BF810E0E2
S113632000212020FFF774F90020A877717B21B1A8
S1136330022908BFFFF765FD01E0FFF7A9FD07F09B
S113634066FBFFF7DFFD01D0FDF762FFBDE8F381D7
S1136350800000002846FDF763BF0549087C4873A8
S113636008730028034914BF0020032048737047B2
S1136370F4750020CC5E00202DE9F0470446DFF8D8
S11363804082A078DFF8DC6A410625D596F90F0033
S11363900128A4BFB6F9240001281DDBA77AB16A3D
S11363A087420EDA384607F06AFB18B140F6AB01B3
S11363B000F0CEF8B08CB16AC01B3944B084B1622D
S11363C00AE0C0B207F05BFB18B140F6AF0100F081
S11363D0BFF80020B084B062A078C10702D502F0F3
S11363E03AF8F0624FF0FF35A078DFF8E473DFF895
S11363F0DC97810728D505F0EDFF306396F90F008F
S1136400012803DA4FF40C6100F0A2F896F90F00AA
S1136410022802D10321F17303E0FFF79EFF00205D
S1136420F073DFF85016487808B1316B716399F84E
S11364300000002804BF96F90F00002804D1FD6273
S11364400022F16A06F09CFAA07810F00C0F2DD00F
S1136450C10801F0010AFA7B317E02F0010201F069
S1136460010182F00102114304D0207940F00400BC
S1136470207102E000F0F300A07096F90F000228EA
S113648014DBBAF1000F07D00020787301214FF01C
S11364900A0A7173317301E0FFF75FFF0020F073A4
S11364A0FD625246F16A8F2006F06AFAA07801066E
S11364B03BD5207A81070DD596F90F00022809DB18
S11364C0FFF74BFF0020F073FD620022F16A4020C9
S11364D006F056FA207AC10717D596F90F0001285D
S11364E003DA40F6231100F033F8FFF736FF0020FB
S11364F0F073FD620420FEF7FEFD99F8000020B958
S1136500002200218D2006F03BFA207A10F08C0F37
S113651003D0FFF74CFE012013E010B110F0700F10
S113652003D040F64A1100F013F899F8000000284F
S11365301CBFA07810F0BE0F02D0FD620120707560
S11365400020BDE8F0870000C84F030000080006E3
S11365504046FDF765BEF0B59D4CDFF80839247D53
S11365605B8CDFF80459260611D5012B20DD2B782E
S11365706F7807EB0327C7F30A070780AD1C156084
S1136580E2070ED5DB0654BF042202220AE07BB1E7
S113659015F8013B03801560E20702D502230B7056
S11365A001E000220A70B0F900000978884201DA9B
S11365B00120F0BD0020F0BD0000000000770020A5
S11365C0D08300002DE9F84FDFF8FC85804ED8F821
S11365D00000DFF820AD84B00390F07BC20703D441
S11365E040F6DB1100F0D8F801AA69460DF102006B
S11365F0FFF7B1FF18B9BDF90200802808DB40F6A7
S1136600DF1100F0C9F80020FFF7D1FD0120B6E04A
S113661001984178027802EB0127BFB207F0270105
S1136620232940F0AB8017F4404F00F0A780F07BA3
S1136630810740F1A38000240225F9054FBF4FF0E4
S1136640FF09019991F80290032507F44051B1F52F
S1136650005FACBF0121002107F4404B07F4406008
S113666017F4406218BF01223F065200BF0F42EAEE
S1136670810207F00107174347F0080744F66C410D
S1136680F940CA0744BFAD1CEDB2A0B1B0F5806FAC
S113669006D0B0F5006F05D0B0F5406F04D006E029
S11366A06D1C02E0AD1C00E00835EDB203E040F6DD
S11366B0142100F071F84FF4B850F840C107019864
S11366C044BFAD1CEDB241195FEA0B002BD0BBF502
S11366D0804F18BFBBF5004F08D0BBF5404F1ED10B
S11366E0084607F033FC044608351CE00198405D79
S11366F0BBF5004F03BF497800EB0120AD1C6D1CB6
S113670080B207F0C9FEFF2807D0DFF8581C0A68DA
S113671032F8100010F4E66F05D0012403E040F6CF
S1136720342100F039F8BDF90200A84203DA40F63A
S1136730372100F031F8DFF82CB78BF81440F17BE7
S1136740490901F001018C4218D00FF248010A688E
S113675002A802AB026080F801908470012202A9B1
S1136760032007F039FA18B140F6762100F014F846
S11367709DF8080010B100218BF814100020039933
S1136780D8F80020914201D0FDF742FD05B0BDE8E4
S1136790F08F0000850000005046FDF741BD38B57C
S11367A0DFF8C0566A8C0446944206DADFF8B8066D
S11367B0121B92B2011906F035F8688C041B6C8424
S11367C031BD000040420F00EB5F0020B8650300BC
S11367D0CC5E00202DE9F84F0D46DFF8EC13DFF80E
S11367E0147B0A6884B0002303928046ADF8043019
S11367F002AA0DF1060101A8FFF7ADFE002840F042
S11368009880BDF90400802880F29380DDF8089018
S1136810DFF85446DFF84C661FFA80FBA9EB04044A
S11368209DF806A0B6F922005C4404F10801A1EB2E
S11368300A0109B2884200917BDB002903D540F6A6
S11368408C1100F0A1F8728C00980BF0010509EB93
S11368500B03083285F00105121A504640421918FC
S113686092B2581905F0DEFF718C05EB0A0041184D
S113687071842C190834708C21B2884203DA40F6F2
S11368809D1100F081F820B29E2803D340F69E119A
S113689000F07AF8BDF80420BDF904100298DFF87E
S11368A0945B02F0010282F00102511847187878D3
S11368B0010602D5287DC1075CD4DFF8880CBA78BC
S11368C090F90400C0EB5200B87040B201F06CF8CB
S11368D0F8707879002804BFB879002808D1F879CD
S11368E030B901F0B8FD010C020A7971BA71F8717E
S11368F010207870A98C397098F8020010F00C0FF1
S113690009D0029841780378DFF88C0C03EB01215D
S1136910014002292ED0287D010618D5BDF90400B6
S1136920802814DB029810F8021D41F080010170E8
S11369300FE01DB1BDF90400802806DB40F69C2160
S113694000F022F80020FFF732FC012016E0029844
S1136950401E0299BDF80430327D091A591803F01B
S1136960010383F0010841440831C9B206F037FA43
S11369700020307520B2FFF712FF002000F0C3FFA3
S113698001D0FDF745FC01E73846FDF749BCF8B5F1
S1136990DFF8D0540446688CE67A01468A199A2AAC
S11369A024BF0646C6F19906F0B270B1DFF8B80408
S11369B00144F0B207F05FF818B140F64B3100F033
S11369C055F8688C50FA86F068842079C10748BF6E
S11369D001F020FD2079810704D52046FFF7F2FD60
S11369E000283FD12079410713D5EF7F002601E02D
S11369F00127761C39462046FFF7ECFE0028F7D025
S1136A0027B1F6B2022E04DB012003E00020E87770
S1136A1028E00020E8772079010706D505F0DAFCA4
S1136A20286306F00AFAFEF725FD207901061BD536
S1136A30607A08B906216172607A810702D505F08F
S1136A40C9FC2863607A010604D500202873FFF787
S1136A50AEFB07E0400707D50023002200210120F8
S1136A60FEF7B0FE0120F2BD0020F2BDDFF884087D
S1136A70FDF7D6BB685E002070B5534C206886B025
S1136A806946059000220023002581E82C00DFF8E8
S1136A90A459287E697E8DF803008DF80710E87DDF
S1136AA08DF805006846FEF7D9FD9DF80410E87DD1
S1136AB001408DF80410287E9DF8021001408DF8E5
S1136AC00210687E9DF80610DFF8605C01409DF8B6
S1136AD000008DF8061018B940F6D631FFF73AFCDD
S1136AE09DF80000410706D59DF8060018B940F648
S1136AF0D831FFF72FFC9DF80000810706D59DF8DB
S1136B00040018B940F6DA31FFF724FC9DF80000C0
S1136B10C10706D59DF8020018B940F6DC31FFF72D
S1136B2019FC9DF80600002835D0000713D50FF294
S1136B30900203A9D2E90036C1E90036052203AB6D
S1136B40FEF778FE18B140F67201FFF703FC40F639
S1136B507401FFF7FFFB9DF80600810603D540F69C
S1136B607A01FFF7F7FB9DF80600410603D540F6CE
S1136B708601FFF7EFFB9DF80600810703D540F679
S1136B808A01FFF7E7FB9DF80600C10703D540F62D
S1136B908E01FFF7DFFB9DF8020010B16846FFF796
S1136BA0EBFB9DF8040010B16846FFF7F0FE059872
S1136BB02168884201D0FDF72BFB06B070BD0000B0
S1136BC023FF000000000000E45A0020B76000200A
S1136BD02DE9F04FDFF8588BA24DD8F8000087B0AC
S1136BE00690687C002840F03081DFF8480BDFF81D
S1136BF0049706F0C4FE18B14FF4436101F09FFB03
S1136C00DFF83078787B012803D040F6324101F078
S1136C1096FB387BDFF8204B00F03F0002282CD194
S1136C200020FEF743FD387B01062AD5FEF797FDC9
S1136C3006281FD1208A40BA80B248F203618842F4
S1136C4013DA0FF228263078D8B108223146684684
S1136C5005F0E8FD6946082006F053FF18B140F23C
S1136C607F4101F06CFB0836EDE7387B00F07F00D4
S1136C70387306E040F65B4101E040F6614101F003
S1136C805EFB0FF23C6104A8D1E90023C0E90023B4
S1136C90397B4170DFF8AC188E68326811690916C7
S1136CA0C1703268116909140171326811690912DD
S1136CB04171326811698171072004A906F021FF2E
S1136CC018B14FF4876101F03AFB0120FEF7EEFCA6
S1136CD0FEF73EFD44F26541401A06D0801E0228AC
S1136CE003D940F6684101F02AFB397B607F01F04B
S1136CF03F01884203D040F6694101F020FBFEF7D2
S1136D002EFD062803DA40F66A4101F018FBD4F898
S1136D101F0000BA18B940F66B4101F010FBDFF810
S1136D206CAC0AE01AF801BB514606F0EAFE18B151
S1136D3040F2674101F003FBDA449AF800000028AE
S1136D40F0D10021A162E0622163FF220FF27853A7
S1136D50BA76D3E90001CDE902014FF0000A062218
S1136D6002FB0AF002A9384405F05CFD07F11E019C
S1136D7007F1200001F80AA000F80AA00AF1010AAC
S1136D80BAF1010FEBDD0020E875532139741020AE
S1136D9078748021F97403207875002100206976C5
S1136DA06883A883A1845021DFF8F42B11706870E4
S1136DB06880A880E874607F002844D0284F386831
S1136DC0002840D5607A50B91E210120FEF7D4FC7A
S1136DD0012428B140F6A14101F0B1FA00E00324F6
S1136DE03868DFF8C01B4042884203DA40F6B141FC
S1136DF001F0A5FA3068016938684900491C91FB23
S1136E00F0F0404240B202280ED009D3042801D049
S1136E1003D305E044F0800406E044F0400403E0BA
S1136E2040F6C34101F08BFA22460A210020FEF706
S1136E30EFFB06F042FE18B140F6CA4101F07FFABA
S1136E40002006F0D6FF012068740698D8F80010D8
S1136E50884201D0FDF7DCF907B0BDE8F08F0000EF
S1136E60E04C0300F47500202C7600200422DF8916
S1136E700000CAAE056D0304175B9541E761C1DEEE
S1136E80FF838B32E7230654F151C542E2A0BB05D0
S1136E9029558281056A35D35AFA68E5E9D066C76F
S1136EA020EFEE320505550A8D3CE7E3ED3E68011F
S1136EB08FBAB8640501E53C7555E1E8E922386804
S1136EC0CE97B1D505559942C94D9ADAECE273696A
S1136ED0E5A2D6DC05080F8850AA4BF4E47C6D1FAC
S1136EE0B8C45091059E232E774555F6E18E2A6D40
S1136EF06EBD850F054DF6A14709134EEA9086A590
S1136F008DE7DCDB050D3FECAF5463EEE913A81706
S1136F10C16A6EDE05B3AD4D24836811ECBB37C482
S1136F20AF9B16C00532A6FF52D91631E1274AEDB0
S1136F30B06127960599DD6A5DF4C44DE49C81E255
S1136F405232C0DF052E1ED48F6F755CE10FD70F50
S1136F503AA9CBC305E8C600D534E705E945D51EF3
S1136F60976198E7058E72A8D413E753EA7B8D0BDB
S1136F70265D0C6B053ED33C71889D58EAF0DC67B6
S1136F8096545EED050964C5AE061DDAEAB2E70E55
S1136F90878277ED05D811DEE8248B2EE990555AC7
S1136FA050BFAFA60561780316205203E25C3EF1A0
S1136FB0FE18755A05B6D3ED8ED4FA8FE277AB6C12
S1136FC0A250167605951AE3680ABCC7EAEA52028B
S1136FD0B92D8C0705EFB786E410702BEAC27983CC
S1136FE0E20292C3054ADC6E96755025EAD3869771
S1136FF0AFBED59205C13C7F30F3BC4DE9ED4A41AB
S113700032914ED80534592FD6A086DBE9696C3409
S113701059B3821705D93803E0779371E45E1921D7
S11370209306423E05836DB475275102EF5AA1556C
S11370309FDFFDA2E78FAEC1C758F9CBEF146123E0
S11370407E1AE3ECE7947BE153C3ABDEE78F27A121
S1137050D26EDB3DEFC3292F477F0410E7677AB078
S1137060B4DAD7CAEF725C71A1CE8B44E790B50A4B
S1137070EF1514DFE7FC133460D4F6E9EFFFBD7CB1
S1137080DAF71CB7E7A307170065D183E76B3FA1C5
S1137090F2B62AD8E7386AED4911933AEFCCC3D354
S11370A045EFDA13EF050F782EAB9AA8EF44EFEA19
S11370B01D1FDB5FE735D1967EB7542FEFDF83A525
S11370C0028E0902EF62130C643559CEE7CF2C30DF
S11370D02900C625EF75DF0E7D8C13B5E7947194F6
S11370E08450983AE7CE9851F2108256E729A225A7
S11370F0CD9AAF5DE7F78FA3B3239BCFEFD10EB447
S1137100234DCE61E799871EE4E1E4AFEFF94BDE4E
S1137110161F7B3DE76173DAEC3807C2EF8C1D92D2
S11371204574E0C5E7D1DF878573BE89EF71BD374C
S1137130C13ADE50E7A0DAF6E9017C20E7FBC23071
S11371409083A204EF762C6F64146555E758B781D9
S1137150A1B5E25DE7D4E66E421E5C3AE78458EDE1
S11371606A616057E74EFB4FDE43292BE701B92ADA
S11371701A2EC773E76452D805252839E721B67F4C
S1137180917B7634EF4E6B6038769A53E734871EE2
S113719022ADE7D7EF80C451B617F208EF7DD2E0F5
S11371A01FFE9907EF1C6651AA4F8B2DEFBD4CB102
S11371B08B038783E7FDE3D32B3AD340EF3985254F
S11371C0BBA8C627E7D29F941B7560C8E7E442A614
S11371D0AFF6FF3EE79B64CE9DF9F3E8E76A7E973E
S11371E0AC7C7D4AE79889DB7FD13613E7C2E0E8BF
S11371F083A91C8BEFD03F969BC12DF7E78C57CA10
S1137200371F54CDEFD562E7A578F46FEFCD3DCFAE
S113721093E77948EF121C4A4FAEE679E717775F98
S1137220C63A90A9EFB87DC41980A1B5EFE024C097
S1137230508474DAE7F00624590B4B52EFCC5471A6
S1137240C8A30342EFADF3991D769094E7234B5501
S1137250F7F5A33CE7769F332A839BF3E71F622469
S1137260743BD6BBEF34388C3912442CEF40996B05
S1137270386222D5EF65F2AC001B2AD0EFC9F08C3E
S11372802206D65FEFDD04C3C200A85DEDF8D0840A
S1137290BB99126905F882D3C6B2AAE5E63BABC432
S11372A039B2E291057E643661D3B81EE92EC2EE8E
S11372B024A250FA05595B3F34978D00000000006A
S11372C00200000000000000FFFFFFFEFF000000BE
S11372D010B5DFF86414896A11B99A498A6811688B
S11372E00A7E4969DFF8144A5043B4FBF1F148437C
S11372F010BD0000D083000038B5040003D1FEF7B0
S1137300BEF806F082FB4B48C56A002D1AD405F07E
S113731054F8451BADB240F2E930854212DBDFF888
S11373203819DFF8085491F90F00002803DC40F6FF
S11373302651FFF70FF840F62751FFF70BF804200A
S1137340FEF7FEFE1CB9BDE8314006F060BB31BD5E
S11373503848C08CC0B27047DFF86C0A90F901005D
S113736070470000045C0020400918BF40F018007A
S113737070472DE9F04F4FEA501C0C4600F01F00F7
S11373800026DFF8C0812FE00EF1010EEF7E5FFAD8
S11373908EF0B84226D2E8695FFA8EF9142717FBFB
S11373A009F94844077A07F007076745ECD1477A9B
S11373B0B942E9DB90F801B090F8009007EB0B0AB2
S11373C0AAEB090A8A45DFDB14B1C91B49442170C1
S11373D00AB1017A117003B11860284600E0002058
S11373E0BDE8F08F0846761C98F80650F1B2A94221
S11373F0F5D2D8F808105FFA86FE51F82E504FF0F7
S1137400000E0146C2E71CB500F00CF800280CBFC2
S1137410FF209DF8000001992268914201D0FCF7F9
S1137420F7FE16BDC24C2168019100230022694673
S11374309FE70000CC5E0020FEB5BD4E0C463168CF
S1137440019100F01F021B2A0AD2002100916B4611
S11374500022FFF78EFF05001CBF0098002801D111
S11374608A205FE01CB940F6D351FFF7FFFA009879
S1137470417921700098817961700098C179A17077
S11374806869DFF87C190918B1FBF0F0A0736A7E13
S1137490A87E80180D30811000EB5170C010E0738D
S11374A00098C1682161009AD06828B90021E17070
S11374B060602181608133E011690FF27802214D0F
S11374C091420CBF01200020E0709B48806A002894
S11374D003D1A96809680F4601E001460746009AEE
S11374E0DFF818E8D3680A7EB3F80AC0796902FBAA
S11374F00CF2BEFBF1F101FB02F1616004BFA8686C
S1137500006801461A89007E4969754612FB00F03D
S1137510B5FBF1F110FB01F12181D88960819889D3
S1137520A081002001993268914201D0FCF770FEDD
S1137530FEBD00000000DFF8201708B1486B70475B
S1137540086B7047C84F030038B50D46022D04463A
S113755003DB40F60961FFF789FADFF8A81829442C
S1137560012091F91E2000FA02F2002CDFF8E8460F
S1137570A17DE37D14BF1046002021EA02020243EC
S1137580D0B29842A27506D0D2B200216420FEF790
S11375903FF8A07DE07531BDAFCFFFFF10B50446C5
S11375A00121FFF7D1FF2046BDE810400021CBE7C1
S11375B07FB55F4C0FF2680220680390694692E839
S11375C0680081E86800DFF87C1ACA798B79C8788A
S11375D08DF804208DF805308DF808004A790B7970
S11375E088788DF806208DF807308DF809004A78E0
S11375F009788DF80A208DF80B10FFF7E9FA69462F
S11376000C2006F07EFA18B140F63161FFF72EFA2D
S113761003982168884201D0FCF7FAFD7FBD000081
S11376201161080300000000000000002DE9FE4382
S11376303F4C07460D4620680190A846B8F1020F5A
S113764003DB40F65361FFF711FA07F01F001B2814
S113765007D200230DF1010269463846FFF789FE7F
S113766008B98A2039E0DFF89C67FFF7B1FA06EB26
S11376700809062099F91E109DF800C010FB01F2BC
S113768032441379634517D082F804C041439DF80E
S11376900020491DC9B26420FDF7BAFF99F91C0006
S11376A0294600F04BF89DF8010007F01F0706EB90
S11376B0480147EA40178F84012D0DD1B07E9DF813
S11376C00010884202BFDFF89025907B002803D089
S11376D0B1760420FEF76BFD0020019922689142E7
S11376E001D0FCF795FDBDE8FE8310B5FF280446E4
S11376F00AD1DFF8A40A81680A68D069447A017A59
S113770004F01F0444EA41140121E0B2FFF78EFFA4
S1137710010008D1DFF8EC06417F0177E0B2BDE853
S11377201040002182E710BD00000000D08300005B
S1137730E45A0020796A0000CC7600202DE9F84F45
S11377408246DFF8800ADFF8EC490D4684B0016810
S11377500391012D03DD40F6946100F0DAF80AF19B
S11377602B00412828BF8B2080F08E80DFF89466A0
S1137770701906F11E0180F81CA04FF0060811F9DB
S113778005B018FB0BF006EB0009002199F8040082
S1137790FEF72EF900281EBF96F8281001F0C0014C
S11377A080290CD0DFF8EC29117841B990F9021046
S11377B08A4503DB90F90310514500DC8A46DFF863
S11377C0DC79386818B940F60B4100F0A2F8396842
S11377D048798B68401EC0B200285CD013F91010A1
S11377E08A45BCBF401EC0B2F6DB54E018FB04F06F
S11377F0371817F8011C514569DA3044B91F0622BD
S113780004F0ECFB301906F1200190F91F0000F0A0
S11378106DF8641E64B258E0824558DA601C012891
S1137820DFBF18FB04F03718F97A8A454FDA304481
S1137830B91D062204F0D2FB301906F1200190F99B
S1137840210000F053F8641C64B2E7E718FB04F06D
S1137850304401A9062204F0C1FB06F1200006F120
S11378601E0105554C5518FB04F808F1010801AB3D
S113787006225FFA88F16420FDF788FE9DF8000077
S1137880DFF844154855002000F03DF801D0FCF71E
S1137890BFFCFEF77BBF13F910208DF8002003EB2B
S11378A0400090F801A0FFF793F999F805005045BE
S11378B0E4D001A84946062204F090FB8DF809A003
S11378C05C4699F805005045A6DA601E8ED55C45E5
S11378D0BCD118FB0BFB0BF1060B89F805A0524633
S11378E05FFA8BF16420FDF793FEC7E7085506F1B4
S11378F01E0218FB04F11454491C3B460622C9B26B
S11379006420FDF743BE0399DFF8B8281368994251
S113791070472046FCF784BC10B56FF07F0290429C
S11379200446DFF8741A0AD1152491F91C20A242E6
S113793013DA00212046FFF701FF70B108E0162892
S1137940F3DBA4F1640091F91D1042B28A4201DA1A
S11379508B2010BD002140B201E001212046BDE88A
S11379601040EBE6012100E000210120FEF786BC77
S1137970012100E000210020FEF780BCDFF8180A96
S1137980C17B11F0010018BF01207047005F002087
S1137990DFF87004C07B400800F00100704700006D
S11379A0EB5F0020001BB70010F1640FB8BF6FF04D
S11379B06300643040B28004000CB0F5807FA8BF3F
S11379C0FF20C0B27047022800DA08B1012100E0AC
S11379D040214120FEF73CBB002814BF02210021B6
S11379E00220FEF735BB2DE9FF41DFF8D847DFF869
S11379F0AC592168029195F9006080B3002E30D40F
S1137A00DFF8547297F91D1070B2884233D0002801
S1137A1029DD1D21FDF7B0FE18B140F6AF71FFF767
S1137A2025F80FF26401DFF87889D1E90023CDE964
S1137A300023B8F800108DF803106B46090A8DF87E
S1137A40041005220021F020FDF7A0FD7E77787F49
S1137A50DFF850292870B8F8001091840BE0002E4C
S1137A60CEDD7642CCE700220021F020FDF7D0FDE8
S1137A707E77787F287002992068814201D0FCF7D4
S1137A80C7FBBDE8FF8100008013880000000000F0
S1137A90010018BF01210120FEF730BB1FB5DFF83C
S1137AA02447DFF86013206803904A7B4AB1022A16
S1137AB004D1572005F0B8FF010024D16FF07F00F6
S1137AC02EE0FDF74CFE07280BDAFDF748FE0628EA
S1137AD0F4D1DFF8D008B0F81B1048BA80B20028FF
S1137AE0ECD00FF254000088ADF8000001AB052281
S1137AF0FDF79FFE18B140F6FE71FEF7B7FF9DF843
S1137B0008100029DAD0DFF89006007901EBD17172
S1137B10C0EB610001B211F17F0FB8BF6FF07E00BE
S1137B2003992268914208BF40B201D0FCF770FB70
S1137B3004B010BD0000000084FF38B5464890F939
S1137B400F1001292EDA90F8200058BBDFF8B41288
S1137B504C7B022C18BF002C13D0022000F0A2FA98
S1137B60DFF84018886A00F021F8644A0146496940
S1137B70007EB2FBF1F110FB01F0C004000C06F032
S1137B8038F9FFF78BFF012C054602D100F01EF9EE
S1137B9004E0032C1CBF204600F084FA00F00CF82B
S1137BA0A84201DA002032BD012032BD18B9DFF845
S1137BB0E805816808687047DFF8480290F91B00FF
S1137BC07E2807D1DFF8DC07C06A08B97F20704738
S1137BD090F904007047DFF8C007807B7047DFF836
S1137BE0B80790F91F10062211FB02F2104410F896
S1137BF0023F07E0834890F91F10062211FB02F2AE
S1137C0010440378407800EB032080B27047DFF81B
S1137C108807407B70476946012005F0DDBF0E48A8
S1137C2090F90F10002902D50022C2738284DFF874
S1137C306807817B012908BF00F0C8B8704710B5F8
S1137C40DFF86C470121A173FFF74FFD01001CBF52
S1137C500021A17310BD0000F47500207CB5DFF88D
S1137C6064550446286801907F2C0FD14FF6FF70AD
S1137C70DFF84047218800F0A3FBBDF80040640A08
S1137C8003D07F2CB8BF644200DB7E2404F029FEBD
S1137C9000F011F810B960B2FDF7F9FFDFF8F8064B
S1137CA0C476304604F023FE01982968884201D046
S1137CB0FCF7AEFA73BDDFF8F816064691F820001B
S1137CC0704780B5032801DB012002BDDFF8C81628
S1137CD08873497B88420ED0010018BF022803D064
S1137CE005D200F073F806E000F0DCF903E041F29D
S1137CF08511FEF7BBFE002002BD000040420F00CC
S1137D0070B50D46022D044603DB41F28E11FEF7D9
S1137D10ADFEFEF75DFF00F041F815FB01F31844DA
S1137D20220A8678964202BFC378E6B2B34207D0ED
S1137D3082706943C470831CBDE87040C91C34E080
S1137D4070BD10B504460121FFF7DAFF2046BDE8F7
S1137D5010400021D4E72DE9F0410D46012D0446E1
S1137D6003DD41F2A811FEF781FEFEF731FF00F0BA
S1137D7015F815FB01F6220A875D8319974202BFA5
S1137D805F785FFA84F8474506D05C708255694392
S1137D90BDE8F041491C08E0BDE8F081DFF8F805D2
S1137DA04119062591F91E1070470222C9B26420B8
S1137DB0FDF7ECBB10B504460121FFF7CCFF2046CC
S1137DC0BDE810400021C6E7965F002010B50D4CB9
S1137DD0607B012812D005F018FEDFF8D4150020CE
S1137DE04873FDF7C1FD0020FEF7AAF9FEF706FA75
S1137DF001206073BDE8104003F0D4B910BD000049
S1137E00FF117A00CC5E00202DE9F84F0646DFF81A
S1137E10B403DFF89C45016884B0039194F90F0022
S1137E2008B18C2006E1DFF87055EF7F3B4606224F
S1137E305343EA1801211079FDF750FF0100F1D1F5
S1137E404FF0FF30E0730021E162A87B401E8041C7
S1137E50C00F207480202072FEF758F86072A77259
S1137E60207C00280CBF0220032040EA0011E172AC
S1137E70DFF844058179287D400800F00100814243
S1137E8004D04906090E0220FEF738F9687B012860
S1137E9003D1032000F006F90AE00FF23C5191E807
S1137EA08C00684680E88C00FDF7C7FC05F0AFFD48
S1137EB096F80080287D0FF218575FEA08614FF0AA
S1137EC0000B28D54FEA0821727801F4FE41891885
S1137ED0000689B20ED508F07F003070C1F30A089D
S1137EE008F10200C90406F10209A08410D44FF07D
S1137EF0040A25E0C909C901B1F5805F18BF012052
S1137F0090D116F8018F08F1010006F10109A0844F
S1137F104FF0020A14E008F10101000606F101091C
S1137F20A1844FF0020A0BD505F13001012005F0C0
S1137F30A6FD18B141F25921FEF726FD4FF0010BC1
S1137F40B4F92400002807D4297D0A064CBF022175
S1137F5001217F31814203DA41F26121FEF714FDF0
S1137F60DFF85414887960B1B4F924108A4503DB2E
S1137F7041F26421FEF708FDA08CA0EB0A0AA4F8E4
S1137F8024A08449087888B9DFF82C14087868B1EB
S1137F90607A40F04000B8F1000F607206DD99F895
S1137FA00000810644BF6FF00100E073B4F92400BF
S1137FB00BEB00017F2931461ADDCBF17F00C0B203
S1137FC005F05DFD18B141F27921FEF7DDFCA18CCD
S1137FD0ABF17F00CBF1000B06EB0B03411803F16F
S1137FE07F07A184A7622A7E6B7E42F040020EE0E6
S1137FF0C0B205F044FD18B141F28321FEF7C4FC80
S11380000020A084A0622A7E6B7E02F0BF02E97D7C
S1138010A87DFDF742FC287D010606D5B01C8145EC
S113802003D1317841F080013170A07B08B1002187
S1138030A1730020FFF767FC01D0FCF7E9F8FEF715
S1138040A5BB00008C74002038B5DFF8644394F9B4
S11380500F1021B9FFF7D8FE010006D032BD94F904
S11380600F00012801DB8C2032BD94F90F000FF2C0
S113807060354042E07304F0A0F9C749C86204F1D6
S11380800801042005F03DFD18B141F2D121FEF7AD
S113809061F905F012FD18B141F2D221FEF75AF947
S11380A0002032BD7FB5474CBB4E05462068039087
S11380B0707BA84232D0032808BF75731ED0FFF727
S11380C085FE03F079F8B94875730168002908D46E
S11380D0B24890F900100029CCBF01200020FFF71E
S11380E082FC0FF2003191E84C00684680E84C00B5
S11380F0FDF7A3FB05F08EFC05F089FC25B1022DEC
S113810005D0032D0AD005E0FDF7C2FE06E0FDF719
S113811078FE03E041F20831FEF7A8FC03982168D9
S1138120884201D0FCF774F87FBD000000BF002036
S1138130B8E70000D083000010B59D4991F82030C5
S1138140020018BF012203B101239A4281F82000E2
S11381501ED0914C80B1FEF73BFD0020FDF797FD4A
S1138160227C900714D502F0FD0222740021BDE8A0
S113817010406120FDF74CBA94F91B00FFF76EFD27
S1138180E07BBDE81040400800F00100FFF724BC8C
S113819010BD0000B7600020C84F03000077002026
S11381A038B5044604F09DFB0546814890F820103C
S11381B04A086441E0B2FFF7BFFF2846BDE83240F9
S11381C004F095BBE45A00202DE9FF47764D0FF2E9
S11381D00029804628680390B8F1010F03DD41F2BD
S11381E0533100F0ACF86C4E707B012840F09F8056
S11381F0FEF7EEFC0FF2F810FDF733FB707DFDF790
S11382005FFF0221684600F028F90FF2FC1101A873
S1138210D1E90023C0E900230099090E41700099B7
S1138220090C817001A90098000A8DF807000098D4
S11382308DF80800052005F064FC18B140F2974160
S113824000F07DF8F17B5A4CFF20FDF701FF277EFB
S1138250717CBA468A4509D0FEF7BAFC5246002121
S11382606020FDF7D5F986F811A02776FF20B17CB0
S1138270FDF70EFF317DFF20FDF740FF737E327E58
S1138280F17DB07DFDF709FB05F017FC18B141F253
S11382907D3100F054F805F0BDFB308D00F061F83D
S11382A006F01EF9FFF784F9FFF768FBFFF78BFB75
S11382B0F07B400800F00100FFF78EFBF08CC0B2A9
S11382C0FFF713FA18B141F2B43100F038F896F917
S11382D01D00FFF721FBFFF782FCFFF732FDFFF7DC
S11382E089FCFFF767FDA07D400800F00100FFF75F
S11382F055F92A4890F900100129ACBF012000204B
S1138300FFF771FB96F91B00FFF7A8FC307D00F026
S11383100100FFF7BDFB4046012806D1FDF724FB11
S1138320FDF76CFF02F03EFF01E0FFF7BBFE039890
S11383302968884201D0FBF76BFFBDE8FF874846F8
S1138340FBF76EBF0FF2C8014008085C7047704726
S1138350C0B270471048C08CC0B270E40E48008DA3
S113836070473EB5104C21680191B0F5004F07D11C
S11383704FF6FF70114D298800F022F8BDF8000077
S1138380FDF754FB04490885FDF7BCFD01D100202D
S11383903EBDFBF73DFF00BFCC5E0020EA5F00203E
S11383A0985F0020CC760020E45A0020E04C0300C3
S11383B0F4750020B2650300685E0020AC6503001C
S11383C0ADF8000002237F22684605F090BC00004F
S11383D07068792E63000000000000FF00000000B8
S11383E000000000000000FF00FF00F70000000094
S11383F01102010005110201010611020102091115
S11384000201030A00000000F20000000000000066
S1138410847048007047FEE738B5044605F0D6F985
S11384200546DFF83C0A83780178994211D000F0C0
S113843043F8641E07D0641E08D0A41E06D0A41EF0
S1138440032C03D905E00022194600E0002206F0BF
S11384506FF8284632BD06F08FB910B5DFF8043A3C
S11384604C000146986A224606F06BF8A04201D0FF
S1138470002010BD012010BDDFF8E8290146107B63
S1138480002800D1704780B5906A06F0E2F928B15F
S1138490BDE8044040F29B1100F0C8BC01BD80B5AA
S11384A000F00AF806F046F800F00300032801D1B2
S11384B0012002BD002002BDDFF8A809806A7047D0
S11384C03EB5DFF8544A21680191B0F5004F08D158
S11384D04FF6FF70DFF8445A298800F005FFBDF815
S11384E00000DFF87C19488300F0CFFD01D10020A3
S11384F03EBDFBF78DFE00BF2DE9F04F4FEA501C47
S11385000C4600F01F000026DFF8148A2FE00EF15D
S1138510010EEF7E5FFA8EF0B84226D2E8695FFA68
S11385208EF9142717FB09F94844077A07F007075F
S11385306745ECD1477AB942E9DB90F801B090F88D
S1138540009007EB0B0AAAEB090A8A45DFDB14B19A
S1138550C91B494421700AB1017A117003B1186032
S1138560284600E00020BDE8F08F0846761C98F805
S11385700650F1B2A942F5D2D8F808105FFA86FE87
S113858051F82E504FF0000E0146C2E7400918BFC3
S113859040F01800704738B5DFF8C848A06A06F004
S11385A013FA0546E80744BFA06A06F012FAE80386
S11385B020D5E16ADFF89C59086A20B940F26621A7
S11385C02846FBF72DFEE06A016A486820B94FF49B
S11385D01A712846FBF724FEE26A136AA06A5A68F5
S11385E00021904730B12846BDE8344040F269216B
S11385F0FBF716BE31BD7FB5DFF81C492068039038
S1138600694600220023002581E82C00DFF8505839
S113861028788DF80000A87A002818BF022810D105
S1138620DFF8406800F014F858B1B06A0122002164
S113863005F082FF00F00CF818B140F29E2100F022
S113864047FC03982168884201D0FBF7E1FD7FBD18
S11386502979B06A6A4606F051B800002DE9F0475E
S1138660DFF8B49807468EB0D9F800000D90FF2FBC
S11386700AD1DFF8AC0881680A68D069477A017AC0
S113868007F01F0747EA4117FDB205F01F001B283A
S113869047D20021019101AB6A46F8B2FFF72CFFE3
S11386A05FEA00081CBF019800283AD0DFF8B067E1
S11386B0DFF8B0473179F8B2884231D00B3D102D44
S11386C039BFDFF8B8090568DFF8B4190D68002D63
S11386D01CBF2878032824D0606C854214D002A8DB
S11386E02946062203F07AFC656402A9A06A06F012
S11386F012F9B0B9A06A0BA906F021F9B6F918105D
S1138700A06A06F0CDF860B9C4F82C80206B0199FA
S1138710884208D19DF8000060733771FFF76BFF42
S11387207FE08A2085E0B57ADFF828A800F090FA87
S1138730206B38B1A06A06F0AAF918B140F2D3212F
S113874000F040FF019820630199C868606318B97C
S11387504FF4367100F036FFD8F82000A16C814246
S113876019D018B940F2DF2100F02CFFD8F82010FE
S1138770086818B940F2E12100F024FFD8F820106D
S1138780A06A0A68904718B140F2E22100F01AFF8B
S1138790D8F82000A0641C229DF800002AA1607370
S11387A0377104A803F02AFC606B418A0901C039BF
S11387B0ADF81610417C09011439ADF81E1004A956
S11387C0407C0001ADF82200F079401E8041C00FCA
S11387D08DF82900607C8DF82A00A06A06F024F93F
S11387E018B140F20D3100F0EDFEA06A0122012122
S11387F006F0D8F918B140F2323100F0E3FE00F08F
S113880090FCB08B00F0B4FCF08B00F0CFFC307A1D
S113881000F06AFC00F06FFD00F02AFD284600F02D
S11388207FFA94F90E10A06AC905091406F0D8FB62
S113883000200D99D9F80020914201D0FBF7E8FC03
S11388400EB0BDE8F0870000000000000100000049
S11388500101010164000000640000000000000048
S11388600B000000DFF8F00600797047DFF8E80637
S1138870B0F91800002854BF05216FF0040108184E
S11388800A2190FBF1F040B270470A2110FB01F07D
S1138890FFE7F8B500F5D77140F27722914201D392
S11388A08B20F2BDDFF8BC55DFF8AC462A6B0A26F4
S11388B0002A1EBFA17E01F0C001802911D0E97BEE
S11388C079B992F902100F4617FB06F7B842A1BF17
S11388D092F903100A4612FB06F28242B8BF11FB5A
S11388E006F0297B61B10146A86A05F0D9FF18B1E9
S11388F040F2853100F0ECFAA86A05F0F5FF01E0DA
S113890010FB06F020830020F2BD38B504460B3876
S1138910102839BFDFF864070068DFF864170868B7
S113892088B10023002200212046FFF7E5FD50B165
S113893004F01F051B2D06D22046FFF727FE10B9B1
S113894028460B2800DAFF2032BDDFF8181940084A
S1138950085C70477047C0B2704711F1630F01DAC9
S11389600020704711F1240F01DBFF2070476431B0
S11389700902481101EB90618904080E704770B533
S1138980DFF8E044DFF85C590020E064687830B137
S1138990FCF7A6FD0246012A18BF032A01D10020D4
S11389A070BD606BDFF8C038DFF8B46400281FBF07
S11389B0216B09690029022A17D1E364706900F563
S11389C0FA707061607D18B100200021642203E018
S11389D0E87829794FF4A0722070A2806170802118
S11389E0A878A070E180002031E0DFF88058726937
S11389F0A94214D1DFF84C19E16402F57A7272616C
S1138A00617D91B90179217001258278037990F90A
S1138A1003109540EB18CB185B1E63700DE0E36404
S1138A2002F5FA727261617D19B10022228064211B
S1138A3005E0417821708278627001780901A18093
S1138A404179A17002891201E280C0880001A0600E
S1138A5000F051FCE070A07841B2002948BF4042C8
S1138A60C0B270BD70B50446DFF8F863257896F996
S1138A70160008B18C2070BD3065FFF780FF30769A
S1138A806901DFF8DC23DFF85C385078107301F5F6
S1138A9080715161987910B1AD1EEDB203E0306D73
S1138AA040F002003065F17B81B9187870B16078CC
S1138AB081060BD5306D40F0010030656FF0010187
S1138AC0B175506900F50870506102E04FF0FF3055
S1138AD0B07506F094FA40B106F08FFA0128316DB2
S1138AE00CBF0820102008433065032000F018F95B
S1138AF06A1CB06A4FF4807392B2214606F08DFA74
S1138B006D1CA84203DA40F2055100F0E1F900209F
S1138B1070BD00002DE9FC41DFF8486396F916109A
S1138B200025091D04296FF0030419D8DFE801F0BA
S1138B300A0A1C1C0300FFF795FF050014D000F07F
S1138B40CFFE7DE096F91600A0420CBF0121002162
S1138B5000F0C7FEB575B06A05F0F2FC8E2070E037
S1138B6000F0BEFE8C206CE004F02EFEE0B1F06C50
S1138B70DFF8F416884217D1307EA8B1DFF88418E4
S1138B800868002810D5DFF88008C168C160012298
S1138B90006800F00F008240521E114204D100F020
S1138BA0BBFB642005F025F903F09BFE804696F993
S1138BB0160010F1010F1CBF96F9160010F1020FF8
S1138BC02DD196F91600DFF898724042B07503F083
S1138BD0F4FB38620022B06A00F00FF9F46CB06A5A
S1138BE03979326D002C07F10C0306D105F054FDE0
S1138BF0010005D1002125200EE000933346A04753
S1138C00D8B10020B0754FF0FF3139628C25B06ABD
S1138C1005F096FC00212620FFF7FEFB0DE096F9F7
S1138C201600A0420CBF0121002100F05AFE0020D2
S1138C30B0758E25B06A05F083FC404603F057FEFC
S1138C402846BDE8F681DFF81003408B704700002A
S1138C502DE9FC41B04C824E2068019003F041FEA6
S1138C600546B07A012803D1284603F040FE4DE0C2
S1138C707C4FDFF8A089B86A0122012105F05CFC71
S1138C8000F0B9F825A00188B86AADF8001069466B
S1138C9006F091F918B140F2EB5100F0F3F900F04D
S1138CA0AFF818B140F2ED5100F0ECF9B86A05F0F4
S1138CB0C9FC00212C20FFF7AFFB00210A20FFF79D
S1138CC0ABFB0120B07297F91610091D072914D8BF
S1138CD0DFE801F01717070B040F0F0F04F0ABF8D0
S1138CE00FE06FF00300B8750BE06FF00201B97587
S1138CF007E0892000F040FB03E040F2146100F03B
S1138D00C1F9284603F0F3FD02F04AFA00F0BDF978
S1138D1001D0FBF77DFABDE8F381000004010000F7
S1138D202DE9FC417C4D4E4E044628680190B17AF1
S1138D30A14256D02FA3DFF81C821888494FADF802
S1138D400000032949D8DFE801F04102362602F089
S1138D502AFAB86A694606F02EF918B140F2316170
S1138D6000F090F900F04CF818B140F2336100F0D3
S1138D7089F97079002814BF00220222B86A0221FE
S1138D8006F098F918B14FF4C76100F07BF903209D
S1138D90032CB07225D000F02EF80220B07200220D
S1138DA03179B86A05F0AAFC18B140F2456100F0C7
S1138DB069F9022C15D0200018BF032C11D1002012
S1138DC0B0720022B86A00F018F80AE0022C08D148
S1138DD000F011F80220B07203E040F25B6100F091
S1138DE051F901982968884201D0FBF711FABDE8CE
S1138DF0F38100000402B86A8022802106F05AB987
S1138E0002208DF800006946B86A06F0B3B8002065
S1138E1086E75148807A7047032805D8DFE800F0D8
S1138E200302030314E77BE740F27961DFF8E40708
S1138E30FBF7F6B910B50B4CA06A05F081FB94F969
S1138E4016000028444844BF0021A175417A012935
S1138E5002D1BDE81040FBE610BD3F48407A7047A0
S1138E607C5C0020A860002080B5032801DB012081
S1138E7002BD39494872897A884218BFFFF7CCFF8E
S1138E80002002BD2DE97C4FDFF8B86703EA010B2F
S1138E90D6E9088929EA010528EA000402EA000A59
S1138EA045EA0B0544EA0A044D4508BF44450DD084
S1138EB0CDE900230246B06A0B4606F083F818B1E8
S1138EC040F2A16100F004F8C6E90845BDE8738FDB
S1138ED02048FBF7A5B9DFF86C17087B002800D100
S1138EE0704710B5087D0022002318B1DFF8582719
S1138EF003230AE0C87C00B1402217480178807837
S1138F0081421CBF4CF648542243BDE81040DFF8B0
S1138F1038070321B6E70000E45A0020AC650300DB
S1138F20BC4D030038B5DFF8C4590446287B2C75C2
S1138F3078B1FFF7D0FF002C14BF00220822A86AE2
S1138F40082106F0B7F820B1BDE8344040F23F7183
S1138F506CE731BD189900007C5C00202DE9FC41D0
S1138F60DFF87849DFF8AC86054620680190022DC9
S1138F7003DB40F24B7100F085F8DFF87069307B59
S1138F80002870D1DFF86079B87A012803D040F264
S1138F90517100F077F8002107F1240005F0AFFAD1
S1138FA0B06218B940F2547100F06CF8012005F079
S1138FB017FB18B940F2577100F064F8B06A052144
S1138FC005F07BFE18B140F25C7100F05BF84FF0E5
S1138FD0FF30DFF81C29D0230146FFF753FFB06AA6
S1138FE04FF0011105F001FD18B140F2767100F067
S1138FF049F8B06A09224FF0FF3106F05BF818B166
S113900040F27C7100F03EF8B06ADFF8E81806F030
S113901022F8012030730223DFF8DC0801887F2264
S1139020684604F064FEBDF80000C10548BF002096
S1139030B07304F0C9FBFFF775FF788BFFF740FAB4
S113904005F04EFA3879FFF709FB18B14FF4F261D5
S113905000F018F8FFF73FFFB7F91800FFF719FC05
S1139060B87900F0F2F82846FFF7D6FE00F00DF8C4
S113907001D0FBF7CDF8BDE8F38100005C5C002073
S1139080605C00204046FBF7CBB801982168884219
S1139090704780B5FFF710FA012105F03BFB10F58E
S11390A0007F02D16FF07F0002BD8005001602BD73
S11390B010B5DFF890250446107B50B1611E89413C
S11390C0906AC90F05F05EFD18B140F2C771FFF751
S11390D0FFFE2000DFF8101818BF0120C87110BD72
S11390E0DFF80408C079704738B5044603F0F9FB8B
S11390F00546DFF8F407DFF84C250472D07D38B953
S1139100107B28B1611E8941906AC90F06F02DF8C1
S11391102846BDE8324003F0EABBDFF8CC07007A0A
S11391207047DFF82035187B002800D1704780B5E0
S1139130986ADFF8C817002205F007FD20B1BDE8E2
S1139140044040F2F37171E601BDDFF8A027014647
S1139150107B5174002800D1704780B5906A05F0E7
S113916003FD20B1BDE8044040F2FE715EE601BD9E
S11391700146DFF87407DFF874378183187B002811
S113918000D1704780B5986A002205F0CFFC20B169
S1139190BDE8044040F60F0148E601BDDFF848078A
S11391A0808B7047DFF84007C08B70470146DFF8BB
S11391B03807DFF83837C183187B002800D170479F
S11391C080B5986A002205F0A2FC20B1BDE80440F5
S11391D040F625012AE601BD10B500F02EF8DFF8AF
S11391E008070179A06A012205F079FA20B1BDE8E7
S11391F0104040F6470119E610BD80B5DFF8EC16C3
S1139200886A05F076FA18B140F64C01FFF760FE63
S1139210BDE80140FFF7EFB910B500F00EF8DFF834
S1139220C8060179A06A002205F059FA20B1BDE808
S1139230104040F65701F9E510BDDFF8B046A06ACA
S11392400122012105F078B9D7E710B5DFF8F4233E
S11392500446906A214605F09BFFDFF88C168C715A
S113926010BD00001C5E0020ABE600002C9900003D
S1139270FEB5DFF868460546206801907F2D0CD1C5
S11392804FF6FF70DFF87866318800F02DF8BDF8EE
S113929000007E25C10558BF054603F022FBDFF818
S11392A0A4730646F87D68B9284641B27E2903D1E5
S11392B0386B38B190F9040041B27E29BCBF40B28A
S11392C0FFF7DAF8787B00B10120DFF838160D5487
S11392D0304603F00CFBFFF7D8FE01D0FAF798FFF5
S11392E0F7BD0000605E0020ADF8000002237F227D
S11392F0684604F0FCBCDFF84C13487B00B1012045
S1139300DFF8002610567E2805D1086B08B97F20A7
S1139310704790F90400704700212320FFF77CB8C0
S1139320DFF8200390F9161003290AD10022DFF890
S1139330B83582754FF0FF311962816B402003F01C
S11393400EBB7047BDE6000038B50446DFF89C55F7
S113935003F040F8E863FFF7A2F801462046FFF760
S11393605BF8062C02D0FCF7DDF801E00020A874BD
S1139370BDE8314003F05FBD38B50446DFF8681539
S1139380DFF8C0524FF0FF30086203F023F8E863BF
S113939095F91600012823DBDFF86C15487808B12D
S11393A0E86B286495F9160002280CBF01210021FE
S11393B00020A8758D2C16BF872C26202720FFF7A8
S11393C02BF8E87B28B1A86A05F0BAF801202874C4
S11393D031BD2046BDE838400022002103F0BFBA69
S11393E031BD80B5FFF75BF801460120FFF714F8A3
S11393F0DFF8F814C87C18B1BDE8014000F097BA52
S113940001BD0000044008404C5008402DE9F847D5
S1139410DFF8C8948B4ED9F800000FF2FC4A8BB0E9
S113942006AA0A900321B06A05F011FE5FEA00085B
S113943003D14FF4396100F0C5F89DF81800DFF846
S1139440A854BDF81A4007281CBF6879002818D111
S1139450062C16DB04F108008B2812D200200090A1
S11394602346DFF8A874B06A3A46414605F0FBFD8E
S1139470A04203D040F6AA3100F0A4F838780106DF
S113948006D5FFF70CF801460420FEF7C5FF8EE071
S1139490B06A01AA414605F0E2FD18B14FF43C61FF
S11394A000F090F8787800F00700022831D1FEF738
S11394B0F6FF01460920FEF7AFFF95F8078096F9FD
S11394C01600032821D19DF81100F0B10021B175D7
S11394D04FF0FF302862B97801F0300120290FDA0B
S11394E0062C0DD17878000900F0010841462920A6
S11394F0FEF792FFB16B42468F2003F030FA56E03C
S1139500B16B0022402003F02AFAB8F1000F4ED1CB
S113951005E09DF8110010B10020FFF701FF7978F4
S1139520E87998B18A0611D5287A78B1B06A05F03D
S113953025FE20B1FEF7B3FF0146062003E0FEF747
S1139540AEFF01460520FEF767FF0BE001F00701BF
S1139550022905D0FEF7A3FF01460920FEF75CFFB0
S11395600020B0743978491CA14203D040F61B4155
S113957000F028F838192979017000224270FF227E
S11395809DF81210817008349DF81310C170027197
S11395900199090C41710199090A81710199C171FB
S11395A0E1B2B27C384603F006FC0020B0740A989D
S11395B0D9F80010884201D0FAF72AFE0CB0BDE8B1
S11395C0F08700005046FAF72BBE0FF25430FAF73A
S11395D027BE0001704710B5DFF80C03046A002CA5
S11395E015D402F0EAFE041B40F2E930A4B284422E
S11395F00DD3DFF8F81291F91600032803D1BDE862
S1139600104000208CE6BDE810408920B4E610BD6F
S1139610000000001899000010B558B9FBF783FF4B
S113962003F05FF9044600210020FEF7F5FEFFF782
S1139630D2FF02E0BDE81040CDE72046BDE810406F
S113964003F055B9A8600020408D01402DE9F04F8A
S1139650DFF888A2804685B0DAF80000049014464A
S11396606206994648BF002002D4200602D5012094
S1139670FFF7B7FEE0029C4D9C4FCDF800802AD541
S11396800021B974287A30B3009805F077FD10BB37
S1139690009801A905F09DFAE8B99DF80C0002288C
S11396A00DD1BDF8040004F0F7FEFF280DD0984951
S11396B00A6832F8100010F4E66F06D10BE00328B4
S11396C009D101A804F042FC28B1B86A05F07FFA78
S11396D008B90120B874E00305D5FEF7E0FE0146A1
S11396E00320FEF799FE97F916000FF22C280128A3
S11396F006DB60024FF0FF3637D597F916100129C3
S113970078DB97F91600032874DAB86A07F138028F
S1139710002105F01CF902F05DFEF8637A494878EF
S113972008B1F86B386497F91600012806D00228AE
S113973016D10321B9752820002159E00020B875FD
S11397402E6200212B20FEF767FEF87B28B1B86A51
S113975004F0F6FE012038744CE0B96B002222E0DC
S113976040F66C11FFF78EFC44E014F0044F1DD05A
S113977097F9160002280CBF4FF0010B4FF0000BB5
S11397800020B8750420FBF7CFFE2E62594600F086
S1139790A8F8F87B0028DAD1F87D002814BF8E20C1
S11397A08D200022002103F0DAF823E0E00148BF15
S11397B0892002D4E00003D58820FFF7DDFD19E0FD
S11397C009F002010023994218BFFFF7A5FD09F033
S11397D001010023994207D04E480168890B01F02A
S11397E001012420FEF718FE600003D50021252086
S11397F0FEF712FE200744BF0098FFF707FEE005BE
S113980005D5FEF74CFE01460420FEF705FE14F4D0
S11398100C4F05D0FEF743FE01460220FEF7FCFD87
S1139820200244BF0820FFF78FFD14F0085F1CBF1F
S11398300720FFF789FD200144BF0620FFF784FDC0
S1139840A00744BF0098FFF76BFD09F01001002347
S1139850994211D000210A20FEF7DEFD0098FFF79F
S11398605FFDD7E90801002601F02003B3465B45FC
S11398701CBF002005F08FFC09F020010023994251
S11398801CBF012005F087FC09F040010023994228
S113989012D0009804F04AFE70B1022802D00328C6
S11398A002D005E0892000E08720FFF765FD03E092
S11398B040F6DD11FFF7E6FB09F080010023994231
S11398C018BF01F0A7FD0498DAF80010884201D00F
S11398D0FAF79EFC05B0BDE8F08F0000E45A0020C2
S11398E000212620FEF798BD7C5C0020A8600020A3
S11398F00A00D0BF5B890000B06503008C740020AF
S1139900B2650300785F0020605E00206868002074
S1139910045C0020044008407068792E6300000055
S11399206C69627261696C2E61000000000070470E
S113993005F032BC890001EB401101F184410A6059
S11399407047890001EB401101F1844108687047B8
S11399500122DFF8BC1510B5884232BF0022DFF8BF
S1139960B415884201D2144600E002241021DFF825
S1139970A805FFF7DFFFDFF8F406016821F0807126
S113998041EA0461016010BDDFF89015DFF89035FD
S11399900A6802F04072984238BF002204D3DFF80C
S11399A0D036984238BF0122086820F0407040EA5F
S11399B002600860704738B500F013F841F6713062
S11399C0286005F02EFC002105E038B500F009F808
S11399D041F671322A60FFF7D7FF0CB100202860EE
S11399E031BDDFF824572C6804B101247047C01C32
S11399F00F2801D2000770474FF0704070470000F5
S1139A0038B50446002500F053F9DFF86826DFF87E
S1139A101816944208D0DFF86026944206D0DFF886
S1139A200C26944204D006E0086802E0486800E08E
S1139A30886800F00700401E03281BD8DFE800F008
S1139A4002050C0805F033FC04E005F036FC01E0E7
S1139A5005F030FC05460DE005F0E5FBDFF80C16DB
S1139A600968090E01F001010122491C02FA01F101
S1139A70B0FBF1F5284632BDDFF8D4164A68D307A7
S1139A8002D40A680242FCD1704780B500F0D0F8D5
S1139A90401C02BD70B50C460246110A01F00F01CC
S1139AA00020491E0929DFF8D45613D8DFE801F055
S1139AB005131212071518121B1FDFF85C54C2F3AA
S1139AC0043608B1FFF7D8FF224631462846BDE8E0
S1139AD070402FE770BD1035F1E730350120EEE717
S1139AE038351020EBE740354FF48030E7E7DFF8F6
S1139AF09056E4E7F8B50646DFF85806DFF8742513
S1139B000768DFF87415DFF82405DFF860450125E0
S1139B1016F4781365D0B3F5003F2BD0B3F5802F3E
S1139B2024D0B3F5202F5CD0B3F5402F28D0B3F563
S1139B30602F4ED0B3F5801F77D0B3F5A01F2AD085
S1139B40B3F5B01F2FD0B3F5D01F35D0B3F5F01F48
S1139B501FD0B3F5001F2DD0B3F5101F36D0B3F5C9
S1139B60481F41D0B3F5781F55D05DE005F05BFB8D
S1139B70E16802E005F057FBA168C1F3082104E0A5
S1139B8005F051FB6169C1F30421491CB0FBF1F7F5
S1139B904BE010461AE0FFF733FF0746206B00F056
S1139BA00F00C74041E01046FFF72AFF216A01F089
S1139BB00F0107E0084609E00846FFF721FFA16A04
S1139BC001F003018D40B0FBF5F72EE0FFF718FF1D
S1139BD01FE0DFF8B00500F06BF8072825D009284E
S1139BE022D105F020FB14E0DFF89C0500F060F8BA
S1139BF004280CD0072818D0082815D105F013FB29
S1139C0007462068C0F30420401C47430DE005F0DC
S1139C1026FB074609E005F006FB04463046FFF73D
S1139C2034FFB4FBF0F700E000273846F2BD000033
S1139C3001460B0903F00F0301205B1E092BDFF81B
S1139C402C2432D8DFE803F005070B113131131748
S1139C501F29106800E05069C0F3042070471168A0
S1139C60090E01F00101491C14E0D06800E090687D
S1139C70C0F308207047DFF81435994215D1116AF2
S1139C8001F00F0106E0DFF8083599420DD1916A21
S1139C9001F003018840401E7047DFF8F804814258
S1139CA003D1106B00F00F007047002070470000D4
S1139CB0014601F00F010120491E0729DFF8D824CD
S1139CC049D8DFE801F0040F1348202E4836506AC3
S1139CD000F0070002283AD002D3042804D01CD391
S1139CE00520704711690FE002207047516901F0A7
S1139CF00701491E03292FD8DFE801F00F020311E1
S1139D00F2E706207047916901F00701012904D0A8
S1139D100229E9D0042902D07047032070470A20A1
