S041000044796E616D69634D756C746970726F746F636F6C4C696768745F65667233326D673132703433326631303234676C3132355F62726434313631612E733337DC
S113000040330320136E0500FDE20100255705006F
S1130010A70A02020002000004180FACA067A7019F
S113002000000000000000000000000000000000CC
S11300300000000084A4050000000000000000008F
S11300400000000000000000FFFFFFFFFFFFFFFFB4
S1130050FFFFFFFFFFFFFFFFFFFFFFFFFFFFFFFFAC
S113006000700F000000000000000000FFFFFFFF11
S1130070FFFFFFFF1C000000000000000000000064
S11300800000000000000000B0DF0320B0DF032008
S113009040330320658706002C6E050040310320A1
S10F00A08412002000001000000000008A
S113020040330320136E0500FDE20100255705006D
S113021009550500295705002D5705000000000069
S1130220000000000000000000000000E3230000C4
S113023031570500B30E0000D36E05009B25000066
S1130240A5B40200D5A90300D98D000039570500D3
S11302508DA4030011AA0300DBA90300DDA9030098
S1130260D7A90300CBD0030039D303003F5B0200BE
S113027001A602003957050039570500BF6505007E
S1130280395705003957050047D30300395705008E
S11302903957050039570500395705003957050006
S11302A039570500395705003957050039570500F6
S11302B013AA0300D9A90300450B030043AA0300B2
S11302C039570500C9670500395705003957050036
S11302D039570500395705003957050039570500C6
S11302E039570500395705003957050039570500B6
S11302F039570500395705003957050039570500A6
S11303003957050039570500000000000012034862
S1130310016830BF41F000410160704700BF4C31BB
S11303200E40000080B54549454A0988002000F088
S1130330DDFB5328A8BF522002BD2DE9FE4300F087
S113034071F800F08CFD0646019400963AA3412210
S113035000F05DF800F060F8FFF7E4FF8146E0B2DA
S1130360B04216DA3888C01C814512DB6A46E1B215
S1130370404600F072FD50B1BDF8000000F0C0FD31
S11303809DF8020000F0ADFD2878401C2870641C24
S1130390E5E737E02DE9FE4300F044F800F05BFDAB
S11303A006460194009624A3422200F030F800F09F
S11303B033F8FFF7B7FF8146E0B2B04222DA38885B
S11303C0083081451EDB6A46E1B2404600F041FD3B
S11303D0B0B1BDF8000000F093FD9DF8020000F0FC
S11303E080FDBDF8040000F08BFDBDF8060000F0B0
S11303F087FD9DF8080000F074FD2878401C2870E3
S1130400641CD9E700F009FB0120BDE8FE834FF42A
S11304108051092000F0BBBE39880A4845180020E5
S113042000F05FBD04460848084F01680A6892F866
S113043005804046704700007575000066D30320B0
S1130440804603208C46032064470320E0DE03201B
S113045080B501F09DFAFF2805D0022803D2DFF809
S11304602C18085C02BD002002BDE0B502210091F9
S113047001AB0022032101F075FC20B9BDF8040092
S113048010B1012000E00020C0B20EBDF8B5069FF7
S113049000240025092F064602D300200021F4BDC4
S11304A0A4460DE0A7EB000EB6442D021EF8010C85
S11304B045EA1465002110EB04244D410CF1010CB4
S11304C05FFA8CF0B842EDD39D4206D828BF94421F
S11304D003D2101B63EB0501F4BDA01A65EB030105
S11304E0F4BD10B50268DFF8A81713880B80548890
S11304F04C8052790A7103681A794A714FF4825315
S1130500CB80026893799A06DFF8882744BF4FF4BA
S11305108353CB801378816939B9C088DFF87817A1
S1130520088003F0FD03137010BD43F00203137041
S113053016228169DFF86447204601F0F3FE0022A9
S1130540227010BD80B5002001F051FFFF2001F0A2
S113055078FA01F05AFF00F0E6FE02460121DFF8C6
S11305602C0701F026FFDFF82837DFF83427DFF8FF
S11305703407522100F0F3FD01F07FFF02F00EF882
S113058002F02FF902F03CFA03F0ECF903F0DAFE82
S113059003F022FF03F069FF03F0A8FF03F0B4FFA8
S11305A0BDE8014000F096BF03F017BF80B504F02A
S11305B08AF820B905F06AFB08B903F049FC00F099
S11305C062FCBDE8014000F06EBC70B5034600203B
S11305D04FF6FF72DFF8D04634F8305095420ED013
S11305E09D4209D1B3F57C4F0ADB04EBC0056E884C
S11305F08E4205D00D0003D0401C80B2ECE71046BB
S113060070BD10B50446FFF7E0FFDFF8A0160B88B5
S11306104FF6FF72904203D12246DFF8941606E0AB
S1130620DFF8841601EBC000DFF888164268BDE8E5
S11306301040184605F007BCDFF87C06006800B1DE
S1130640008A70471CB5DFF8741604460878002841
S11306503CD005F0D1FC0246DFF86416022005F018
S1130660F2FB2068418800914379A289DFF854168F
S1130670022005F0E8FB022005F0A0FB20B1206871
S1130680218A4088FFF7BDFFE07B28B1228ADFF88A
S11306903816022005F0D7FBE07CDFF83016009016
S11306A0A0680278A37C022005F0CDFB217DA289FD
S11306B0A468521A012392B22144022005F0B4FC2A
S11306C0BDE81C40AFA1022005F0B7BB13BD10B5B7
S11306D004462168487901F05BF9FF281DD0DFF852
S11306E0F01501EB0010217F027B8A4215D12268AC
S11306F040881188884206D04FF6FF7399420CD186
S1130700B0F5004F09DA2079022818BF032806D172
S11307101189507905F0E4FE08B9002010BDA07BD2
S11307200028204602D005F029FF01E005F056FF1D
S113073000B1012010BD7CB51446227855074CBF8A
S1130740052203229342DFF88C5504D200922A46F4
S1130750DFF8841533E0089E069A30603171F28028
S1130760B460B381207800F00100B0732178890867
S113077001F00101F173012120783175C00800F006
S113078001007075F07B30B11A46204600F016FC6B
S1130790317D891C31753082307DB389411C3175BE
S11307A0205CB074481CC9B23075615CF174C4B289
S11307B0A34209D2C0B200902A46DFF820150220D5
S11307C005F03BFB002076BD0798B06106F067FAA0
S11307D03077012076BD2DE9F14F84B00F46924663
S11307E00E9EDDF83C80DFF8F854DFF8F8149B46E1
S11307F02846202206F052FB0295CDF8048000968C
S11308005B46049852463946FFF795FF00240028BA
S1130810DFF8A49469D0C9F80050A87CDFF8C814A4
S113082008702846FFF70EFF2846FFF75AFE2846B1
S113083006F08AFB30BBB8F1000F25D1042F18BF96
S1130840052F03D0022F18BF032F01D1012200E08E
S113085000222868E98801910121438800930388D4
S1130860E87C00F020F998B12868817988060FD4D3
S1130870DFF87844012121700022284600F0D3F8E3
S113088000202070012430E098F8140081072CD552
S113089028684179FF2924D10026DFF8F48300F089
S11308A042FDF1B2814220D2F0B201F073F8074662
S11308B0F0B200F03CFD90B1286841882A8A38469D
S11308C000F0AEFF58B12846FFF70BFE28684771C9
S11308D088F804702846FFF7FAFE00B10124761C5C
S11308E0DDE72846FFF7F3FE044600F0E3FA16229C
S11308F00021DFF8A80301F05CFD0020C9F8000026
S113090005B02046BDE8F08FDFF8E4130878401CFA
S11309100870FFE700F07F007047DFF878130A786B
S1130920002814BF42F0010202F0FE020A70704770
S1130930DFF8C0130870704780B1DFF8B813097886
S1130940012904D1018841F0400101807047022946
S113095004D102884FF6BF710A400280704778B113
S1130960DFF894130A78012A04D1DFF8902313786E
S11309700B7001E0022A03D1017841F010010170EB
S1130980704700005D000000FEB5C24D2B78D9070A
S113099001D50020FEBDDFF82013BD4C096871B1FC
S11309A009688A79960603D5E28842F02002E2803B
S11309B089794A0603D5E18841F04001E180B94ACA
S11309C011784E07C84947BF0F78D7700E78567014
S11309D09B0709D5B2480188B04806F022FD297862
S11309E001F0FD012970FEBDAB4B1D8829464FF671
S11309F0FC76B14208DA019000922246A8480388A6
S1130A00002006F0F9FEFEBD00901346A4480288BB
S1130A102146284606F0BFFEFEBD0020B4E701468D
S1130A20A5480068002270B504460E4620790028C7
S1130A3018BF012815460BD1A0680178CA0601D554
S1130A40300005D0A07B002804BFE07C0B2801D136
S1130A50002070BD924A00211180607DE17B002856
S1130A600CBF0820002011B900F03BFA06E040F06A
S1130A70040000F036FA208A00F042FAA07C00F06C
S1130A8030FA0B2000F02DFAE07C00F02AFA304610
S1130A9000F027FA2046FFF724FD2846BDE8704001
S1130AA072E70022BFE770B51D46954B8F4E1C7848
S1130AB0012C01D0337813B10020307070BD0B00CD
S1130AC002D10AB1002070BD002C1EBF049C4FF659
S1130AD057439C4206D003460A462146284600F066
S1130AE073F900B1012070BD0000000038B5D28850
S1130AF05224950648BF4924550548BF083C1505AE
S1130B0048BF083C1204034648BFA41E0846032BF2
S1130B104FF6FD710ED8DFE803F00902060BC0B2F0
S1130B2007F05AFA02E0C0B207F06CFC014601E09B
S1130B30641EE4B2084607F00EFE241AE0B232BD89
S1130B4042540844120A427070470844110A027061
S1130B50130C120E41708370C270704770B5054655
S1130B600C00164608BF002003D02178FF2902D1CB
S1130B70FF20287070BD204600F042FA864288BFEC
S1130B8006463246611C681C01F0CCFB2E7070BD19
S1130B9070B50C000546164603D100206870297014
S1130BA070BD2078FF2804BF6078FF2802D1287028
S1130BB0687070BD204600F028FA864288BF064659
S1130BC03246A11CA81C01F0ADFB2E70360A6E70D3
S1130BD070BD2DE9F041541E0BB3042A46DC0023FA
S1130BE0002698465FFA88F5954225D2651B0028B1
S1130BF014BF10F805C04FF0000C571EA7EB0807F0
S1130C004D5DFF000CFA07FC05FA07F74CEA0303F5
S1130C103E4308F10108E5E7AE4224DB5B1CDDB28C
S1130C20954223D2651B00280CBF0026465D4D5D0E
S1130C30B542F1DA01201AE0042A10DAD5000120C5
S1130C40D2006D1E00FA02F2524243FA05F1CC07BB
S1130C5048BF134346FA05F0C00748BF16439E42F7
S1130C60E8DBB34202DA4FF0FF3000E00020BDE8D9
S1130C70F0810021234A01E0891CC9B2535C8342FC
S1130C80FAD350184078704700000000E6DE0320D5
S1130C908046032034DF032066D303206847032003
S1130CA0E0DE03208C460320C48C0500E4DE032030
S1130CB0108C0500288C0500644703208C3F03201A
S1130CC0308C0500388C0500588C0500648C0500B8
S1130CD030460320A08C0500848C0500A88C0500F8
S1130CE044470320048D0500913F032030DF032097
S1130CF0923F032031DF032032DF032033DF032060
S1130D00903F0320248D0500283808288041C00F17
S1130D10704710B500F009F8FF2801D1A32010BDD9
S1130D20002104F83010002010BD0446084600F0ED
S1130D302FBE38B500F00BF8FF2801D1A32032BD37
S1130D40294604EBC000BDE8344001F0C6BB0446AC
S1130D500846154600F01CBE40B11C280BD01D28C7
S1130D600CD01E2818BF1F2805D009E00B39102904
S1130D7006D2002070471B29FBDB01E00929F8DBC0
S1130D808A20704710F0E00011D0802806D0A028F7
S1130D9006D0C02806D0E02806D007E01C20704703
S1130DA01D2070471E2070471F207047FF2070478A
S1130DB000F01F0070477047704701207047012002
S1130DC0704701207047704700207047002070472B
S1130DD000207047002070470020704700207047B3
S1130DE00120704701207047B520704700207047EC
S1130DF000207047002070470020704770477047FC
S1130E000020704770470020704784207047704767
S1130E1070477047704770470020704770477047AD
S1130E200120704700207047704707F0D3BC0320AF
S1130E3070477047002070474FF6FE72C28101214F
S1130E408181016100220270012070477047704760
S1130E507047002070470020704700207047002032
S1130E60704770470020704770470020704700208B
S1130E707047002070470020704700207047002012
S1130E807047002070477047B520704700207047B6
S1130E9000207047704700207047704770477047C4
S1130EA07047B520704770477047002070477047FF
S1130EB07047704780B54C490020087007F034FD36
S1130EC04A4A108052220021494801F072FA4949E5
S1130ED0002008800C22BDE808400021464801F0AB
S1130EE068BA10B543490A88522A07DA404CA0541C
S1130EF0521C0A8092B2A018401E10BD002010BDE2
S1130F0038B50546C0B2FFF7ECFF0446280AFFF7E0
S1130F10E8FF002C18BF002801D0204632BD002075
S1130F2032BDF8B50746C0B2FFF7DBFF064638040A
S1130F30000EFFF7D6FF05463802000EFFF7D1FF7B
S1130F400446380EFFF7CDFF002E18BF002D05D044
S1130F50002C18BF002801D03046F2BD0020F2BD9D
S1130F60F8B5244D2B880C462646F718522F0CDA78
S1130F701F4F01462246F81801F0D4F92B88E418D3
S1130F802C80A4B2A41B3819F2BD0020F2BD30B5E8
S1130F9004460020CD18AA4208DA30BD51FA83F283
S1130FA022445B1E12F8015C05EB0020DAB2002A31
S1130FB0F4D130BD0423EAE70323E8E780B5022334
S1130FC0FFF7E5FF80B202BD034691420B4800D310
S1130FD0704710B55C5CFF2C08BF00240C19641C1E
S1130FE0A242A8BF581810BD34DF032066D30320E3
S1130FF08C460320E0DE032080460320E2DE03204B
S11310000078FF2808BF0020704780B50222002125
S1131010FFF7D4FF4FF6FF72904208BF002002BDD5
S11310202DE9F24F022940F39580190005D0BDF84F
S113103000100529F7DB42F004028246012618005D
S11310408AF8002005D08AF8013003261B0A8AF8A2
S113105002304FF0000B0A9CFFF756FC0AF806001A
S1131060761CB0B2761C0AF80040DDF8309007E038
S1131070BAB24146504401F055F9BE190BF1010BC7
S11310800B985FFA8BF1405C002865D000250024A2
S11310907328A04634DC4C2859F8048B1CBF532811
S11310A0622811D159F8047B4C2806D1BDB24FF601
S11310B0FF70854236D0022434E0532832D1FDB289
S11310C0FF2D2FD001242DE06C2804D14046FFF7DA
S11310D09CFF871C26E0732804D14046FFF790FF4D
S11310E0471C1FE0A0F130010A2938BFA0F13007E6
S11310F018D3A0F1410107292CD2A0F1370711E040
S11311000027752808BF01240AD0762808BF0224C6
S113111006D0782808BF032402D077281AD10424E3
S113112059F8045BB9B2BDF8000011FA86F1091947
S1131130884205DA0EE00AF80050761C2D0A641E77
S1131140E1B20029B0B2F6D1B9B2002996D0B8F113
S1131150000F8DD1002000E0B0B2BDE8F28F10B5D1
S11311604A4C20604A4801804A490A604A4A13604E
S113117010BD7FB50C4609AD089902950093019105
S11311801346434D414E2988024630680BE07FB533
S11311900C4608A9009202913D4D3C4E0193024633
S11311A0298830680023FFF73BFF3A493A4B0A6825
S11311B010804FF4825219684C80CA8004B070BD0C
S11311C038B5344C256829880346304802683248CB
S11311D0006801B0BDE8304006F03ABB0020EFE7FC
S11311E07FB500F028F806F080FA04B070BD002343
S11311F0F6E7284B254810B51C6802682188264864
S11312000068BDE8104006F08DBA7CB50192214D0E
S11312101E4A2E68146800941F4C3388226806F016
S1131220EBFA76BD0022F0E77FB500F004F806F093
S1131230C7FA04B070BD009102930192154C134992
S113124025680B68144E2A88316870470023EBE741
S1131250F8B50E4D0F4F2E6884B00A9C03963E6875
S11312603588019402950C4C26687588009506F023
S113127023FB05B0F0BD084800687047064A1368B0
S11312801871106841717047000000002445032064
S11312908AD20320784603207C4603207FB5DFF8FA
S11312A0A829DFF8A80913680088ADF8060003A987
S11312B0DFF89C090568DFF89C0900880B60ADF82D
S11312C0020002ACDFF89019DFF890090988ADF844
S11312D004100222002102702560ADF8001003AE54
S11312E0DFF87C090DF10604DFF87829655C02EB70
S11312F0011202AC157036F81130538034F81130F5
S1131300938001AC0DF10203655C95715C5C00EBAC
S1131310C405956001251DF801401473491C022978
S11313205573DFDB7FBDDFF8340900787047DFF8E1
S1131330341901EB0010407B00F001007047412894
S113134018BF422803D0432818BF442801D10120E4
S1131350704700207047412818BF422801D101205E
S1131360704700207047432818BF442801D101204A
S1131370704700207047F8B515461E46069A079B2D
S1131380044600F062FA60B1042100F0E8FB0700B3
S113139007D0204601F030F8324629462046B847A7
S11313A094E0F1BD2DE9FC4714001CBF0A9D002DFB
S11313B0814688461F461FD0F7B128780C9B010749
S11313C0618820794CBF4022802200F03EFA98B117
S11313D0082100F0C4FB824670B10B9E207901F015
S11313E00BF8019600953B46224641464846D047B5
S11313F0BDE8F34701F009B8BDE8F387F8B5164630
S1131400069C1A460546234600F01FFAD0B1210077
S11314100BD1022100F0A3FB040013D0284600F0F6
S1131420EBFF31462846A0470BE0102100F097FB64
S1131430070007D0284600F0DFFF22463146284641
S1131440B84743E0F1BD2DE9F8439046089C1A469D
S11314500646234600F0F9F908B9862016E000256F
S11314609CB9202100F07BFB814670B10B9F0A9C44
S1131470099D304600F0C0FF009723462A464146A6
S11314803046C847054600F0C0FF2846BDE8F28351
S1131490F8B50446A568207800F0AEFF002611E0F8
S11314A02868F1B214225143471820783988FFF78D
S11314B08AFC0121384600F052FB01001CBF207851
S11314C08847761C2979F0B28842E9D3BDE8F14017
S11314D000F09BBF38B50024DFF880570AE0DFF83E
S11314E08407210600EB1150427BD10748BFFFF768
S11314F0CFFF641C2978E0B28842F0D331BD5CB5DB
S113150085B00A9C8DF80800ADF80A108DF80C30EF
S1131510ADF80E2000260196ADF810400096002389
S1131520002201A902A800F084F8019807B050BD78
S11315307CB5069D96781C462B0008BFD378412EB7
S113154018BF422E06D0432E09D19A1E92B2FFF73D
S11315501FFB16E05A1ED2B2FFF700FB11E0442E27
S1131560F3D034B92C0004D0D278954201D289202A
S113157076BD00291A4602D100F01BFF01E000F0FD
S1131580D1FE002076BD10B5002301E0001D5B1CD8
S11315909CB28C4204D204889442F7D1408810BD96
S11315A0002010BDDFF8C016401A0C2290FBF2F2A6
S11315B092B20021DFF8B406E5E70288B2F57C4F69
S11315C0A8BF00F002B80846ECE7DFF8A416401AFA
S11315D0142290FBF2F292B20021DFF89806D2E7CF
S11315E010B50C460188628891420DD1037B2279A3
S11315F0134209D0B1F57C4F04DBFFF7E6FF2189E4
S1131600884201D1012010BD002010BD10B5144640
S11316100A88E3889A420AD10288B2F57C4F04DA38
S1131620FFF7CBFF2189884201D1012010BD0020A2
S113163010BD2DE9F74F82B00446984600250027D7
S113164004E08068C1886D187F1CFFB2DFF80C16B7
S11316500A78974280F0A880DFF80806237800EB28
S1131660071002789A42ECD181680091407BC1074F
S1131670EAD5002603E0B9F80A002D18761C009973
S11316800A79F0B29042DFD20A685FFA86FC14202D
S113169010FB0CFC02EB0C0921464846FFF7A0FFA7
S11316A00028E8D04FF0000B09E09AF8040010F08D
S11316B0300F04BF9AF803002D180BF1010BB9F891
S11316C008101FFA8BF08842D8D2D9F804001FFA08
S11316D08BF20C214A4300EB020A2246514648464B
S11316E0FFF794FF0028E0D027460398544600B142
S11316F004602079810611D5DFF86C05002105E02E
S11317000279930644BFC27889180C30A042F7D3FB
S1131710DFF8640589B200EB010B04E0DFF85C1527
S1131720ADB201EB050B0E9E049D3046CEB12146B1
S11317304846FFF742FF0246238879883878FFF746
S113174040FBAA46E0B12079C10624D5002E2146EB
S1131750484617D0FFF731FF00F02AF8FFF742FBA5
S113176023E015B321464846FFF727FF02462388A6
S113177079883878FFF723FBDA460028AB46E2D1B4
S11317807E2012E0FFF719FFE178019100F010F8D4
S1131790FFF726FB09E0CDF8008033462246514688
S11317A05846FFF7C5FE00E0862005B0BDE8F08F7F
S11317B00095034679883878224670472DE9F84326
S11317C0044688461646994600252179E8B288429F
S11317D021D22068EAB214235A4387183888404536
S11317E017D131000AD0802E03D1397B0A0605D4E3
S11317F00FE0402E0DD1397B4A060AD5B0F57C4F57
S11318000CDB3846FFF7E1FE484518BF5FEA0900E4
S113181004D06D1CD9E70020BDE8F2833846FBE70D
S113182080B5134607E080B51346402204E080B536
S11318301346802200E0002200F007F800B10120E6
S113184002BD80B500234022F6E770B50C4615466C
S11318501E4600F09DF8FF2801D1002070BD2146EE
S1131860DFF8004404EB0010334680682A46BDE8E4
S11318707040A3E770B50C4615461E46002100F0E3
S11318802FF8022800DAEAE7002070BD1346402250
S113189001E00022FAE72DE9F84F82468B46904694
S11318A09946FFF7D2FF002608B9FF2016E000276B
S11318B0DFF8B043DFF8A4532978F8B288420CD299
S11318C00001205C504508D04B4642465946FFF77C
S11318D0D1FF00B1761C7F1CEEE7F0B2BDE8F28FB9
S11318E070B50022DFF87C33DFF870532E78D4B261
S11318F0B4420BD224011D5D854205D10D0007D0F1
S11319001C44647BE50703D4521CEDE7FF2070BD43
S1131910D0B270BD80B50021FFF7E2FFFF2801D1EE
S1131920002002BD00F061F8407B00F0010002BD20
S113193070B50E4604460021FFF7D2FFFF2801D1FF
S1131940002070BDDFF81C1301EB00153200687B2A
S113195000F0010114BF40F001000020B14268739F
S113196014D076B12846FFF793FD0FE000681422E7
S113197051430844027B0188D209204600F000FE4E
S1131980761CA8680279F1B29142EFD3012070BDB0
S11319900121A5E7DFF8CC120001085C7047F8B517
S11319A00C46FFF7F5FF01460020FF291FBFDFF8B3
S11319B0B42202EB01118968002915D000221427F2
S11319C00D79D3B2AB420ED20B68D6B27E43334408
S11319D0451C1B7B260001D11B0600E05E0648BFA8
S11319E02846521CECE7C0B2F2BD9E4901EB001040
S11319F07047F8B50C461546FFF7CAFF01460022AA
S1131A00FF291CD000234FF0140C01E0521C5B1C76
S1131A10944800EB0116DFB2B0680679B7420ED2E3
S1131A2000681CFB07F73844067B15B1760602D420
S1131A30EDE73706EBD5D6B2A642E7D1F2BD0020DA
S1131A40F2BD002109E010B50446012100F005F8BB
S1131A502046BDE8104005F076BA2DE9F84F86B06F
S1131A60814605F01CF97D49DFF8F8A10A78059054
S1131A7004924FF0000B07E00AEB0010017B05987D
S1131A8081420FD00BF1010B04995FFA8BF088426D
S1131A9046DAB9F1FF0FEFD04846FFF779FFFF2888
S1131AA083463DD000273FE00328ACBFA26804F181
S1131AB00802012000900023002101A8FFF7B9FDCE
S1131AC0761C2989B0B288422DD26868B2B20C2142
S1131AD04A4384182379D906F2D41AF808208DF8D9
S1131AE004202988ADF80610207941064CBF8021D6
S1131AF040218DF8081028462188ADF80A102146A7
S1131B00FFF75BFDADF80C002179E0784A07CBD5EF
S1131B10A2680328CDDB1268CBE7B9F1FF0FB1D07F
S1131B2007B0BDE8F08F7F1C4FEA0B604FEA1058F6
S1131B300AF10800F9B250F8080002799142ECD297
S1131B400168FBB214204343CD1840F22D112A89B9
S1131B508A42A8BF07F072F90026B2E7704730B591
S1131B60047B012200230C4205D1002030BD144225
S1131B7018BF5B1C5200D5B28D42F8D30069DBB2AA
S1131B8050F8230030BD3E49401A8003020C002166
S1131B903C48F8E42DE9FE4F00270028487D4FF02B
S1131BA0010806D008B9022407E0012804D1012461
S1131BB003E008B9082400E004240C9D0E980D9E4F
S1131BC0DDF83CB0ADF80020B9468A460193ADF883
S1131BD030508DF838002A4800EB8905BDF8000024
S1131BE02988814224D1E978214221D0A9789DF81D
S1131BF0380081421CD3E9789AF80F00CA0608D548
S1131C00B0B12846FFF7BFFFBAF81010814201D0E7
S1131C100EE068B9BB4513D0BDF8300087420FDA37
S1131C200198A978C1557F1C3288521C3280BFB2FA
S1131C3009F10109B9F13C0FCDDB4046BDE8FE8F47
S1131C404FF00008F9E70000E47B05001A5E060087
S1131C50E87B0500D25F0600CE5F0600FBDA0320B6
S1131C60607F050030460320947D0500747F0500E5
S1131C70C07E0500707F0500504603207444032095
S1131C80A07C0500907D05002DE9F84785B00F9FE5
S1131C90109D0E9C0295019706468A4690469946E9
S1131CA00094FFF78AF8010003D0022803D002D37E
S1131CB010E001200EE00CBF01200020002104915F
S1131CC003900295019700944B4642465146304694
S1131CD000F0F5F906B0BDE8F087F0B585B00A9DCF
S1131CE00B9C00F021F8009617E078B585B000F061
S1131CF00BF8802304E078B585B000F005F84023A4
S1131D0000F0DDF906B070BD0A9C019300250126A0
S1131D100495039602940095704700F0D0F905B03D
S1131D20F0BD0A9D0B9C009300260127049603979F
S1131D30029401957047F0B585B0012704970A9D78
S1131D400B9E0C9C00270397029401960095E4E7F0
S1131D507FB5099C089D0A9E029403960024019570
S1131D60009410E038B584B000F006F84023FFE793
S1131D7000F07DFA05B030BD089C01930025039561
S1131D8002940095704700F072FA04B070BD2DE91A
S1131D90F84F84B09046DDF838901C4605468A46D4
S1131DA04B4622460026ADF80060FFF74EFD0700C3
S1131DB0B3468DF80450ADF806A08DF80840ADF890
S1131DC00A80ADF80C904FD001A9FFF709FC002858
S1131DD04AD0ADF80280DDF83C90DDF840A0BDF8B3
S1131DE00080002415E0B1B249450FD2FFF788F80E
S1131DF0A878FFF776F85FEA0A0006D02879C107C9
S1131E0054BF05200720FFF76CF8761C08F1010881
S1131E10641C3989A0B288421ED27868A2B20C210F
S1131E204A433B888518B3F57C4F09DA2888ADF816
S1131E300A0001AA29463846FFF7E8FB0028E7D044
S1131E402888BDF802108842CDD20BF1010BDDE7E2
S1131E50002005B0BDE8F08F1FFA8BF111FA86F06F
S1131E601FFA88F18842F3D10120F2E72DE9F04FFF
S1131E708FB0DFF84C14DFF84C24DFF84C84059164
S1131E804FF0000A049201E00AF1010AFFF74BFA4D
S1131E905FFA8AF1814280F099804FEA0A604FEA42
S1131EA0105BDFF8281418F80B2000F0CDF9DFF8E8
S1131EB0201400F0C6F900278CE0E07808E0A07850
S1131EC0FFF751FA0028F8D006A8FFF79EF8801C07
S1131ED082B2012306A9042004F0A6F82888494602
S1131EE0FEF773FB4FF6FF71884207D0DFF8E42357
S1131EF0DFF8E41352F8302000F0A6F9761C2989A3
S1131F00B0B2884265D26868B2B20C214A438418E0
S1131F1006F094FF207941062088049900904CBF74
S1131F20DFF8B833DFF8B8332A88042003F08BFFD6
S1131F3021462846FFF741FB814620B90599042034
S1131F4003F081FF04E04A4658A1042003F07BFF1C
S1131F502079810748BFDFF88C1305D4C1064CBF34
S1131F60DFF88413DFF88413C00754BF50A051A0D6
S1131F7001910090E378A278DFF87413042003F051
S1131F8062FF2079CDF8009041064CBF80234023A6
S1131F9006AA002021210192039002912288298817
S1131FA018F80B0000F063F9862804D1DFF8441315
S1131FB000F047F9A2E7A078FFF7CDF900283FF435
S1131FC07EAF06A8FFF71CF8401C81E70FB0BDE800
S1131FD0F08F7F1C08F10800F9B250F80B00027969
S1131FE09142BFF451AF0168FBB214204343CD18B2
S1131FF0002684E72DE9FE498EB0199D052D46DBA8
S1132000189C1E46174688468346029401960097FC
S113201043465A46DFF8E01200F04EF804A92120A6
S113202005AA039102900192009433463A46414630
S1132030584600F01CF904002CD19DF81000212210
S113204005A906F02DFF040021D02D1FA5421EDB9B
S11320503846FEF755FF0020FEF743FF9DF81000B9
S1132060A64DFEF73EFF2888C0F152018C4208DAE3
S1132070A34B224605A9184400F054F928882018D7
S1132080288000943B4642469E4900F015F811B062
S1132090BDE8F0893846FEF733FF2046FEF721FFFE
S11320A000943B4642469849EFE700002532780009
S11320B0524F000052570000042003F0BEBE2DE929
S11320C0F84F88B082460020129D049000900F467D
S11320D0904699468DF814A0ADF816708DF81890B6
S11320E0ADF81A80ADF81C500023002204A905A8FD
S11320F0FFF79FFA0498854A40B9CDF80480009709
S113210053468349FFF7D8FF862097E0159890B986
S113211004999DF850008B78984204D07D4900F0D2
S113212093F88D208AE00979C80704D47A4900F02D
S11321308BF8882082E004980179139E480726D5FD
S113214004998868416804980291816888680499B0
S113215001908878FEF7D8FD83460498C1788DF8FD
S1132160001002290A465B4631461EDC02A8FEF72F
S113217030FD04469DF800205B46314601A8FEF779
S113218028FD012C1CBF4FF0FF3188421CD016984B
S113219000284FD1049880784FF6FF72314606F03C
S11321A07FFE040012D1012048E00298FEF711FDE1
S11321B0012809D09DF8002001985B463146FEF7BE
S11321C008FD10F1010FE2D1872037E00396C0B279
S11321D000F043F8FEF749FE01002FD10396E0B268
S11321E000F03BF8FFF72FF9010027D10120009000
S11321F000233246002105A8FFF71BFA01001DD178
S1132200049B3A4651463046FFF7A8FC029600F07C
S113221025F801F035FE0396E4B29DF850000190D4
S1132220029400F014F8FEF71FFE00F010F8FFF718
S1132230E5F802E0394900F004F8002009B0BDE8EF
S1132240F08F042003F0F9BD042003F0F6BD0095DF
S11322504B464246394650467047029000954B46DD
S11322609DF8500001904246394650467047F0B5FB
S113227085B01C460A9E0B9D0C9B002701978DF888
S11322800800ADF80A108DF80C40ADF80E20ADF83A
S1132290106000972A4601A902A8FFF7CAF90400B2
S11322A005D10D9840B101998A78027004E089281B
S11322B002D11B49FFF7C5FF204605B0F0BD000061
S11322C0F07F0500CC7F050030460320807F0500A9
S11322D08C7F0500C88C0500787F0500E07F050031
S11322E0E87F0500108005001880050020800500A7
S11322F0F87F05002880050034800500E0DE032017
S11323008C4603208C80050068800500E080050071
S1132310B8800500EC8005000081050014810500EB
S11323203481050070B5814224D210441144401E0A
S1132330491E10E011F8013900F80139121F11F893
S1132340014900F8014911F8015900F8015911F83F
S1132350016900F8016993B2042BEBDA93B2002B04
S11323601EBF11F8013900F80139521EF6D170BDB3
S113237000F00DF893B2042BFADA93B2002B1EBFCF
S113238011F8013B00F8013B521EF6D170BD11F863
S1132390013B00F8013B121F11F8014B00F8014BFF
S11323A011F8015B00F8015B11F8016B00F8016B97
S11323B07047130003D00A46194606F097BD7047CC
S11323C010B5034600E0521E90B218B100F003F8B5
S11323D0F9D0001B10BD13F8010B11F8014BA042FA
S11323E07047FEE70C490D4808600020704700B1B3
S11323F0702070470020704780B500F013F8FF2864
S113240001D1A32002BD002002BD00207047704707
S113241000BF034800787047E04603206880060048
S11324203046032080B5FFF7B3FAFF2818BF002019
S113243002BD00210170704700F05DB870B504461C
S113244016460D463046FFF7D7FF00202070304671
S1132450A847BDE87040FFF7D8BF01223D493E4878
S1132460ECE701223D493E48E8E701223D493E4868
S1132470E4E7F2223B493D48E0E780B5012006F05D
S1132480B7FE3B4806F048FE3A49087001BD80B5E6
S113249006F0C2FE012805D036480078BDE80240A7
S11324A006F025BE01BDF0B5002400E0641C324DE9
S11324B02E88E3B2B3420ED2E7B20C252F4B6F4302
S11324C03B441E78864201BF5D888D421E79964248
S11324D0ECD11846F0BD0020F0BD80B519B906F066
S11324E087FD002002BDB1F1004F02D206F08AFD43
S11324F0F7E7022002BDB1F5000F3CBF0902FFF768
S1132500ECBF0220704770B505461E46FFF7CBFFAF
S113251004000ED02846FFF7FDF950B1A0683146FB
S1132520FFF7DBFF28B905980499A07161710020B9
S113253070BD022070BD1CB500931346049C019429
S11325400022FFF7E0FF16BD80B500230093FFF7DC
S1132550F2FF02BDDBAA0200C04503208BAE0200DD
S1132560C84503201DAC0200D0450320D8450320F4
S1132570C077050043D103201C3F032068330320A8
S113258080B5FFF790FF20B1806800210170002022
S113259002BD022002BD0022F2E7FEE736E0DFF8CA
S11325A018010178022901DB0120704700207047DF
S11325B038B5DFF8045104462878A04203D02146F8
S11325C0FEF727FC2C7031BD10B5DFF8F040207801
S11325D060B900F01BF806F03BFE0121217028B120
S11325E00288B2F5817F24BF007D2070207810BD61
S11325F0DFF8C4100978012803D10129D8BF0220CB
S113260002DD10B9012900DDD2E770472A480178BC
S1132610022900DB704710B506F006FE0246284981
S1132620284C012003F009FC0120FFF7E1FF20788A
S1132630FF281BD106F00CFEB8B140880006400EFE
S113264000F0010020701822FF211F48FFF7B1FE9F
S1132650207801280AD1FFF7B7FF052806DBBDE87B
S11326601040D921194806F049BE207010BD80B52C
S1132670FFF7CCFFBDE8014006F0EABD70B50446A3
S11326800D461646FFF7C2FF0420FFF791FF3246BE
S11326902946204606F00EFE044600F003F82046C4
S11326A070BD8146022083E780B5FFF7AFFFBDE828
S11326B0014006F00EBE000067DF032068DF032040
S11326C0D4B50500A63F032024930320C8B5050014
S11326D080B5A749022003F0B0FBFF20FFF7B3F950
S11326E0FF2003F0FEFEFF2007F0B8F906F00EF815
S11326F000F077F8FEF7ABFB9E490020088001BD8F
S1132700F8B500F0A4F8009800F0010005B000BD91
S113271018B587B001A9684606F0C0FA964C9DF832
S11327200F00A0700822BDF80C00208001A9201D14
S1132730FFF7F8FD9DF81400607300220021204685
S1132740FEF786FB8B490020088008B010BD80B5D9
S1132750684606F0ADFA932809D1884801680A78DA
S11327608DF80020012A04BF02218DF800109DF885
S1132770000002BD70B590B004460D4616462C22EA
S1132780002105A8FFF715FE8DF81640ADF814607A
S113279006A8FEF733FB01A807F0F2FE0198ADF896
S11327A03A00FFF7D4FF8DF83C0000F053F82946B7
S11327B005A807F088FB04469DF83C00704A71495F
S11327C000902346012003F038FB200004D169481F
S11327D0018841F480710180204610B070BD07F07B
S11327E0EDBE1FB507F080FF032400B1072407F0F6
S11327F07DFF08B144F00804204607F0E2FE624879
S113280007F0E9FE614807F0E9FE00F020F80098BF
S1132810C1071BD55E49022003F00FFB574801682E
S11328200878012808BF022007F0D1FB07F060FFF9
S113283000F00DF8009840F080000090684607F022
S1132840AAFE00F007F8032003F08CFA1FBD6846C7
S113285007F096BE78B58FB005A84E49282204F03B
S11328601DFB06F065F808B100201BE001A803F089
S11328706AFA0400484D494E03D000903246484B52
S11328800BE005A8FEF7E2FA05A901A807F06BFB27
S1132890040006D000903246424B2946022003F041
S11328A0CCFA204610B070BD10B5324C208840F4EC
S11328B00070208003F0EAF9034622883A49012097
S11328C003F0BBFA03F0E2F901280CBF0124002451
S11328D007F0D8FF28B102463449022003F0ADFACC
S11328E000E024B107F020FEBDE81040F0E610BD82
S11328F058B5204E224A33882D4984B004460093AB
S11329000120234603F099FA3088810504D5912CDF
S11329102BD1FFF7DDFE28E010F08F0F11D0902CA3
S113292002D1FFF7F5FE20E0912C1ED00290019415
S11329302048214B194A21490090022003F07DFAD6
S113294013E0FFF784FF902C0FD10098C1070CD53A
S1132950420852000092002101910291ADF80C103E
S1132960684607F018FE08F0FAF905B050BD0000FB
S11329700C73050056CA03200C430320E0460320D1
S1132980B874050028730500008810020070EF0574
S1132990DC72050060730500887305009C730500F4
S11329A0A4730500BC730500D473050010740500FE
S11329B040740500A8740500907405007074050047
S11329C080B5FFF70CFFBDE8024000F0FE0007F001
S11329D0F8BD10B5FFF703FF40F0010407F084FED3
S11329E008B144F0040407F081FE08B144F008047F
S11329F02046BDE8104007F0E4BD002000217047E8
S1132A001CB5DFF8B44A0A2200212046FFF7D1FCA6
S1132A1060220021DFF8C80CFFF7CBFCA020608007
S1132A20052120208DF80410009001AB10222121F3
S1132A30F220FFF75AF913BDDFF87C1A002000B525
S1132A4008704FF0FF3187B0002304918DF818000F
S1132A500021039002900191009304AA08F0E9FC7C
S1132A6007B000BD18B5DFF8504A207AC10787B017
S1132A7012D54FF0FF32002104928DF8181009F09E
S1132A805FF800200021002320720391029001903E
S1132A90009304AA08F0CDFCDFF8481C002008705D
S1132AA008B010BD80B5FFF7C7FFDFF83C1C00205D
S1132AB0087001BD2DE9F04700F00108C0F342049D
S1132AC0894692460609450900F0C3F806F0010656
S1132AD005F0010526D1DFF8E079387820B109F056
S1132AE076FBF98888421DD1B8F1000F18D009F09F
S1132AF06EFBF880A0210120387079807C70E20799
S1132B007D7146BF4FF47A7101FB09F1DFF8DC1BDC
S1132B10DFF8D40B06F076FA26B187F804A001E0BA
S1132B20FFF78AFF0120BDE8F087002070472DE9F8
S1132B30F34F8FB00746DDF884901546984600F0B1
S1132B4084F8780A00F0030AC7F341108DF81800DE
S1132B500024F80A00F0070BDFF8940B384008282B
S1132B60DFF8A00B01680A7908BFA146042A08BF50
S1132B7001242B001A9D08BF0AAB05B90AAD1F9E9C
S1132B8006B90AAE109ACDF8008007F0070107A82D
S1132B9009F0D6FB002854D0DFF86C1B012003F0A9
S1132BA052F900F056F84CD1BAF1010F49D09DF812
S1132BB02400C0B1022844D10022082107A803F050
S1132BC0B3F800283DD107F01800182839D0ABF12C
S1132BD00500022835D39DF8180068B9F8060BD40F
S1132BE07CBB85202BE0079858B310F1070FEAD37C
S1132BF010F1010F25D1E6E71E9A20981C991B9B22
S1132C00049201900091CDF814900396029507A9BF
S1132C109DF81820384609F018FF38B1DFF89808F5
S1132C20417888070DD5FFF707FF0AE0380708D574
S1132C3009F029FCFF2808BF002C02D18920FDF7E8
S1132C40EEFE012011B0BDE8F08F0AA8142109F0AE
S1132C50ABBFDFF8B00A01680A685079F228704700
S1132C602DE9F0438FB081468846169C16461D46D2
S1132C70FFF7EBFF04B90AACFFF7EBFF4ED1189F47
S1132C80179A2946199DF02F49D0F32F61D10022BC
S1132C9000298DF8242007923CD10AF00BF98045D5
S1132CA03AD1DFF8405ADFF81048287810B1207A7A
S1132CB0810764D505F03EFE0B3840F0100004AAED
S1132CC001238DF8100000210192009303910291D9
S1132CD0F32307AA012008F0ACFB0120207205F0C1
S1132CE029FE06F10B0188420BD001200B3600FAB5
S1132CF006F10022032008F06AFE207A00F0FD00AD
S1132D0002E0207A40F00200207241F28831284625
S1132D1006F078F9012033E0FFF7A4FE2FE019F064
S1132D2007008DF8180008BF049101D000F02BF8BB
S1132D300AF0C0F8804503D100F02FF8F0231AE020
S1132D40002000210023039002910190009304AA23
S1132D5013E0F72F03DAA7F1B003102B0FD219F009
S1132D6003008DF8180008BF049101D000F00BF89F
S1132D7000F013F83B4604AA012008F05AFB002097
S1132D800FB0BDE8F08302218DF818108DF81920DA
S1132D902146082204A8FFF7C5BA002000216A1CB6
S1132DA00390029101922B780093704700207047A2
S1132DB02DE9F04704468846626892B200214046F5
S1132DC0FDF7BEFE207C08F1020520B9A26800F0E0
S1132DD0A2F82D1D07E0022805D1082204F10801FC
S1132DE000F09FF80835207C022804BF607C05F8B9
S1132DF0010B6168880403D5A28A00F097F8AD1C22
S1132E00606841040ED5A07D05F8010B0021A2697C
S1132E1000F082F82D1D102204F11C0100F081F84D
S1132E20103505E0800603D5A26900F074F82D1D65
S1132E30207941064FF00C0A0ED500F05EF800F040
S1132E4061F805D100F06BF800F06EF800F04EF870
S1132E507F1CF9B20229F2DB6068C10517D500F0C6
S1132E604CF8FAB204F12C011AFB02F28E183378F2
S1132E70022B08D1728800F059F8AD1CB28800F01A
S1132E8055F800F033F87F1CF9B20229E9DB04F1AC
S1132E904400017805F8011B227902F01802182A6F
S1132EA01CBF407805F8010B6268100403D5120CAE
S1132EB000F03CF8AD1C6068C10312D500F01DF8A9
S1132EC000F020F809D100F02AF800F02DF899F864
S1132ED000000A30AD1C89F800007F1CF9B20229F9
S1132EE0EEDBA5EB080188B2BDE8F08799F8000095
S1132EF0401CAD1C89F8000070470027A94605F85E
S1132F00017B7047FAB204F12C011AFB02F28E180D
S1132F103378032B704700212846FDF716BE08229C
S1132F20B11C2846FFF7FEB90835728900212846EE
S1132F30FDF706BE2DE9F84FB6B00F4600F00701C5
S1132F40C0F3C1008DF8041000909346984607A87A
S1132F50FFF77CFEDFF8AC17096800260025BBF1FB
S1132F60000F087908BF0DF11C0B00284DD109682A
S1132F704879F2283CD10FA9E8B209F010FA0028E8
S1132F8036D19DF83C00FF2818BF761C6D1CE8B2B2
S1132F900428F0DD9DF80001DFF84459DFF8449976
S1132FA0DFF844A90690F4B2009860BB9DF80410C1
S1132FB0CDF800803A465B460CA809F0C1F9002818
S1132FC000F07F800CA809F040FAFF28064622D0C2
S1132FD000200122FF2305900490039202930194A0
S1132FE0009000F074F80FA9304609F0D8F90028D1
S1132FF06BD1288809EB00010FA8FFF7D9FE2988B7
S1133000401828805BE0009801285AD19DF80001FF
S1133010F6B2B04209D300210591049103918B22A9
S1133020069902910194009247E000200590002146
S113303006980491FF22039202900194009100F0FB
S113304046F800279DF800B10024B8460FA95FFA9E
S113305088F009F0A4F9002837D19DF83C00FF2836
S113306015D07F1CFAB2934511D221A90FA8FFF7FE
S11330709FFE06462888811952290ED2324621A97C
S11330804844FFF74FF9288836182E80641C08F14D
S113309001085FFA88F10429D8DD89F80640FDF7B4
S11330A0BCFC74280DD100200590039000210698E3
S11330B00491FFB202900197009100F008F8FDF727
S11330C0ACFC012037B0BDE8F08F0020FAE753468E
S11330D00B2221210120FEF75AB82DE9F04F0024DC
S11330E0F22808BF2129A7B04FF0000A4DD1112AB8
S11330F002BF802B3098002847D1DDF8C480B8F196
S1133100050F42DD1120FDF7FBFEDFF8D457DFF891
S1133110D4972E88361DB6B2B34600276946F8B256
S113312009F03DF930BB9DF80000FF280FD012A92B
S11331306846FFF73DFE0446301980451CDB2246F5
S113314012A909EB0600FFF7EDF8A619B6B27F1C29
S1133150F8B20528E2DB5FEA0A00A6EB0B060ED103
S11331600020FDF7BEFE4320FDF7BBFEB0B2FDF725
S1133170C7FE06E0002009E04FF0890AEBE7FDF7FF
S1133180B0FE288836182E800124204627B0BDE8DA
S1133190F08F2DE9F04FC84E8BB0307868B10A93A8
S11331A0187A002804BF1B68002B06D0199CE02C59
S11331B018BFE22C01D0179B0BB1012018E1DDF8F8
S11331C074901C9DDDF868A0DDF85480149F8DF880
S11331D024208DF82510834609F06CFE0690CDF866
S11331E020A09DF82510189807910290CDF814900E
S11331F09DF824100A9804950394019700910246BF
S1133200437A01684BEA071040EA881444F40060EA
S113321009F03DF8FEF72FF80446F22020716071A2
S1133220052009F075FF707910B100F012F80DE077
S11332309DF82400A0F10C05E088A57240F002007E
S1133240E0800A980BF0F0FB00F08CF800F03AF9FB
S1133250B3E7F1880020FDF7E5BF2DE9F84F1C46E0
S11332608AB00546207A002804BF2368002B77D053
S113327030B9236813F1070F02D313F1010F6FD193
S113328002280AD10023D8B2205C18B95B1CDEB234
S1133290082EF8DBDBB2082B62D0169800285FD129
S11332A0179E237A300018BF43F008037E2D15982B
S11332B018BF7F2D03D143F4007300B10420149D83
S11332C0DFF8F491DDF868A0DDF87080DDF874B003
S11332D08DF824202F0143EA801347F400673B4311
S11332E099F80500ADF826300F4698B109F0E2FDD3
S11332F000F03EF8002E14BF2020052009F008FF3E
S1133300FDF7B9FF00F0DAF80020B9F80610FDF770
S113331089FF23E009F0CEFD00F02AF8FDF7ABFFAA
S113332000F0CCF89DF82410A1F10C05C188857239
S113333041F00201C1804EB17F0907F00607C7F1D1
S113334003077F073F0E2037B8B200E0052009F0DD
S1133350DFFE20460BF068FB00F004F800F0B2F842
S1133360012045E00146EAB24FF6FD70FDF76EBF5D
S11333700690CDF820A00797CDF814B0CDF81080B2
S1133380019522469DF864001899039002919DF8D6
S113339024000090637A2168BDF8260008F077BF06
S11333A001E0000000BF2DE9F84F8AB0DDF854E0D9
S11333B0DDF858C0DDF85080179FDDF86090199E45
S11333C0DDF868A01B9D1C9CDDF874B0CDF808C026
S11333D0CDF804E0CDF824B008940795CDF818A0F2
S11333E00596CDF810900397CDF80080FFF735FFD0
S11333F00BB0BDE8F08F2DE9F84F2F4E8AB034782A
S1133400002C1EBF347A04F00304012C52D008258A
S11334107E281598149CDDF860B0DDF86480DDF832
S113342068A0DDF874908DF8242008BF4FF402756D
S1133430800140EA041040F400602843ADF82600FF
S11334400F461C9D707968B109F034FD00F03DF819
S1133450FDF711FF00F032F8202009F059FEFFF7C4
S1133460F8FE25E01E4609F025FD00F02EF8FDF7D4
S113347002FF00F023F87F0907F006079DF82410E7
S1133480C7F103077F07A1F10C04C18841F00201D1
S11334903F0E8472C1802037B8B209F039FE30463D
S11334A00BF0C2FA0146E2B24FF6FD70FDF7CEFE14
S11334B000F008F801209BE7648F0320F2210171DA
S11334C041717047002009F023BE0690CDF820A07A
S11334D00797CDF814900495CDF80C80CDF808B07A
S11334E0019400239DF8240000900022BDF82600DA
S11334F0002108F0CCBE2DE9F84F9AB091462B98E4
S11335000246FF2A0C461F4600F0E5804821DFF8FA
S1133510DC334A4319680D1D091DAB5843F400738D
S11335208B5008A943F48063AB5008F038FF00289F
S113353040F0D180079700213E7A4FF00C0808A88C
S113354008FB01F2104490F82C00002814BF032853
S113355046F0080603D0022808BF46F02006491C9E
S11335600229ECDB9DF82400299DDDF89CA00106CE
S11335702499259848BF46F0100646EA811646EA83
S11335800026E02D46F4A04618BFE12DB6B203D1C3
S1133590DFF85C23107820B15FEA0A0018BF46F414
S11335A000668DF81890289F01B94F46DDF8B4B035
S11335B0DDF8B09009F07EFC05940490CDF80CB0D1
S11335C0CDF808900195009764090798437A01683B
S11335D004F006040246C4F103043046640708F00C
S11335E019FE240E2034ADF800409DF81850DDF883
S11335F01C9000244FF6FC7B08A808FB04F1471834
S113360007F12C063078002818BF032818D1FDF7DD
S113361032FEFFF753FF5FEA0A0014BF20200520A3
S113362009F076FD7089584506DB07F12E0009F094
S1133630CDFB5845B8BF70817189FFF70BFE1FE0C1
S113364002281FD1FDF717FEFFF738FFA5F1090780
S1133650877200F04FF85FEA0A0014BFBDF800005B
S1133660052009F055FDB0884FF6FF71884204BF6C
S113367048460BF0D9F901467088FAB2FDF7B7FD58
S1133680FFF720FF641C022CB6DB9DF82400010622
S113369021D5FDF7F0FDFFF711FF8572BAF1000F98
S11336A000F028F814BFBDF80000052009F030FD33
S11336B00998810448BFBDF8348003D448460BF010
S11336C0B3F9804648460BF0AFF92A464146FDF768
S11336D08EFDFFF7F7FE01201BB0BDE8F08F000060
S11336E0708F0320D88F0320D08F03200071020035
S11336F008000200C18841F00201C1809DF86410F5
S1133700C172704764470320BC9D050001207047C7
S11337102DE9F84F064676480C46017AC8079EB054
S1133720154603D59DF8B410E32972D19DF8A00085
S11337300B93002802BF6E490878002810D1184660
S113374008F083FEFF280BD00CA908F028FE0028FF
S11337505FD10D9841045CD49DF84600002858D1EF
S1133760002E18BF7C2E8DF8286005D07F2E50D1F6
S11337705F49087800284CD05D498DF82A408DF8BF
S113378029500878299C2A9D2B9EDDF8B090DDF8FD
S1133790B8A02F9FDDF8C080DDF8C4B0002863D046
S11337A0280003D000F079F8FFF7F3FC9DF8280017
S11337B07F2804BF9DF8A000032805D19DF8B4001C
S11337C000F05DF8032145E09DF8B400E02836D010
S11337D02AD3E2281ED002D3E32820D024E09DF887
S11337E0A0100B9B9DF829200091E1200590CDF8B5
S11337F024B09DF82A109DF82800CDF82080079762
S1133800CDF818A0CDF81090039602950194FFF717
S1133810C7FD31E000F043F8FFF7C4FD2CE000F0F1
S11338203EF8FFF7E8FD27E09DF828107C2909D130
S1133830A0F1E4020C2A24BFB038102818D200F0FA
S11338402CF80EE07F2913D19DF8B4009DF8A01048
S113385000F015F800910B9B9DF829209DF82A1083
S11338607E20FFF7FAFC07E09DF8B400E22803D0BD
S113387000F013F8FFF73FFE1FB0BDE8F08FCDF85E
S113388024B0CDF820800797CDF818A00590CDF886
S1133890109003960295019470479DF8B4009DF82A
S11338A0A010059000910B9B9DF829209DF82A10EB
S11338B09DF82800CDF824B0CDF820800797CDF8E6
S11338C018A0CDF81090039602950194704728B97A
S11338D00748017AC80748BFFFF7C4B8704700001B
S11338E0E0DE03208C460320C89D0500D83B03205E
S11338F0648F0320912800D0704780B500F0E3FE68
S113390018B9BDE801400BF0B7B901BD1CB5059C61
S11339101CB1049C009403F093FF13BD30B5024620
S1133920DFF8B408DFF8B458002303E0D45C604047
S113393068435B1C8B42F9DB30BD02460846142306
S113394024210BF09DBA0A460146142324200BF0CF
S1133950CABA902800D0704780B50BF067FBBDE869
S113396001403CE330B585B00024DFF87458694663
S1133970E0B2FFF7E2FF9DF8010038B19DF80000C6
S113398020B918206043284401210174641C062CCA
S1133990EDDB00F024FB05B030BD2DE9F04F002431
S11339A097B0A046A146A346002505A9E8B2FFF7B3
S11339B0C4FF0BF0A7FB1822DFF824186A438E1803
S11339C03268821A9DF81500002836D09DF814102C
S11339D0002928D1BDF820104FF47A7359438A4244
S11339E007D3317C39B9BDF82210002925D04B43C7
S11339F09A42C0F0B38004A903912122BDF81C109F
S1133A0002920EAB019300919DF81A30BDF8182074
S1133A10BDF81610FEF72BFC002804D19DF8100009
S1133A20FDF7A1FC002840F099809DF810002122A8
S1133A300EA905F035FA5FEA000A00F08F800AF15A
S1133A400302DCB120799DF815306188834204BFFC
S1133A50BDF816308B420FD19DF81A30DB094B4567
S1133A6004BFBDF81C30434506D1DFF878371F8802
S1133A70D2B2D21993453FDA00F07EF8FDF7FBFB92
S1133A8004469DF81A00BDF81C2098A100915FEA35
S1133A90D01914BF00200820BDF816100A23FDF722
S1133AA068FB9DF8150020714FF48251E1804FF0BE
S1133AB0FF0BBDF81C8000270AA9F8B204F0A8FC8B
S1133AC0002802BF9DF829009DF81510884202BF06
S1133AD0BDF82A00BDF81610884209D19DF83510AA
S1133AE09DF828002246FDF701F8584598BF834603
S1133AF07F1CF8B20228DFDDBDF81800FDF700FADC
S1133B009DF81000FDF7EDF951460EA8FDF728FACF
S1133B10002030740BF0F6FA30600EAB00200090F9
S1133B2052469DF81000412818BF42280AD1AAF134
S1133B300101C9B20DF13900FFF7F0FE00906B46A8
S1133B40042202E0D0B2092808D20020C6E902000B
S1133B50D2B2194606F10800FEF7E4FB6D1C062DEF
S1133B60FFF623AF1CB16188207900F005F800F05E
S1133B7036FA17B0BDE8F08F10B50C46FCF768FCB8
S1133B8008B9032C0BD1DFF86006FDF719FBB42844
S1133B9008BFFDF723FBBDE81040FDF72ABB10BDAD
S1133BA02DE9F04F054687B02C7D687D00264FA196
S1133BB00028009107BF08204FF0400800204FF074
S1133BC080082F682A8A79880723FDF7D2FA8DF8AE
S1133BD00580AA89A1B2C81C90427DDAA868415C1C
S1133BE08DF80610641CA1B2FDF7E8F980469DF833
S1133BF00600A41C10B1012853D05DE0A868A1B24E
S1133C00641C425C8DF80420A1B2AA89FDF7D6F9A0
S1133C100746A41C00F06CF881469DF80400FDF7EB
S1133C2028F84FF0000AA41C60B99DF8040005F0C0
S1133C3025F98346AA89A8685B46A1B2FDF7A7F9CE
S1133C4082465C442868298A9DF8053000914246E2
S1133C5041884079FDF753FC00281FBF80789DF808
S1133C60041088428D2728D1286841798DF80910DD
S1133C70286841889DF80500ADF80A10ADF80C805D
S1133C808DF80E0002A8298AADF81010ADF8147052
S1133C90ADF81690CDF818A000F0FBF9070098D005
S1133CA00BE000F025F803469DF805204146284620
S1133CB000F09EFAA41CF1E785273846FDF711F9B8
S1133CC09DF80600FDF70DF94046FDF719F90126A8
S1133CD0852F7FF47EAF03E016B90020FDF701F9CC
S1133CE0FCF79BFE012007B0BDE8F08F0000000048
S1133CF0AA89A868A1B2FDF761B92DE9F047064683
S1133D0086B0357D707D91A10028009107BF082001
S1133D104FF0400A00204FF0800A3468328A6188EC
S1133D200923FDF726FA08E08620FDF7DAF8204695
S1133D30FDF7D7F84846FDF7E3F8B289A9B2CB1CE2
S1133D409A4257DBB068445C6D1CA9B2FDF736F9A2
S1133D50AD1C012C814648D83068318A0091534605
S1133D60418840794A46FDF7CAFB5FEA0008DBD088
S1133D70002701A9F8B2FFF7E0FD9DF80400A04276
S1133D8001BF31689DF805004A7990421FD1BDF802
S1133D9006004A88904204BFBDF80800484516D181
S1133DA09DF80A00504502BFBDF80C00328A9042CB
S1133DB00DD19DF80400002820D0BDF81000F28831
S1133DC0904202BF9DF812000979884216D07F1CE8
S1133DD0F8B20628CDDB8B20A7E75FFA89F0FDF760
S1133DE080F84FEA1929641E2EE085209DE7BDF86E
S1133DF01400A0E7FCF711FE01202FE10020FDF7DD
S1133E0070F82046FDF76DF84846FDF779F814B1CF
S1133E10012CECD091E798F80200FDF762F8BDF8A8
S1133E201000FDF76DF8BDF81200FDF769F898F879
S1133E300200FCF71EFF002809D198F8020005F0E3
S1133E401DF8DDF814900446E0B20028C5D174E7EB
S1133E5010B50024E0B200F004F9641CE0B20628B6
S1133E60F8DBDFF8880300210170002010BD80B565
S1133E70B121062802DA00F006F90021084602BD45
S1133E802DE9F04387B006460E9C0F4690469946AE
S1133E90002502A9E8B2FFF750FD9DF808000028AC
S1133EA004BF9DF80900B0420FD1BDF80A00B84222
S1133EB004BFBDF80C00404507D19DF80E004845ED
S1133EC004BFBDF81000A04206D06D1CEAB2062A59
S1133ED0DFDB07B0BDE8F08300202C460F9F109D68
S1133EE00190384604F0CAFF412F014618BF422F03
S1133EF0284608D1FDF784F80146681CFFF70EFD3B
S1133F000190042101A8E4B21825B54E00916C4338
S1133F102644D6E90223FCF7B9FA04460D4638468E
S1133F20FCF7A7FE012804D10022954208BF944261
S1133F3007D10028CDD1002106988D4201D88442B2
S1133F40C7D30122327400F04AF8C2E7000000002F
S1133F5010B542784B789A4202BF42884B889A4205
S1133F601AD182888B889A4202BF82798B799A42CD
S1133F7012D102890B899A4202BF02780C78A242BC
S1133F800AD13AB182898B899A4202BF807B897BAC
S1133F90884201D1012010BD002010BD30B585B08C
S1133FA00446002500F093F921466846FFF7D0FF48
S1133FB078B900F088F9F5DB002500F088F99DF860
S1133FC0010030B16D1CE9B20629F6DBFF2005B013
S1133FD030BD2146E8B2FFF7B6FCE8B2F7E72DE9B9
S1133FE0F8474FF0FF3985B0C8460025DFF8F0A147
S1133FF04FF47A7700F06BF99DF8010008B39DF84F
S11340000000F0B9BDF80C60BDF80E400BF07AF872
S1134010EBB218214B437E435AF803105344411A20
S1134020187C7C434A4618B18E4204D3721A05E0C8
S113403024B18C4201D2002200E0621A424598BFAA
S1134040904600F040F9D5DB18F1010F674803D022
S11340504146FEF742FA01E00021017006B0BDE8D6
S1134060F08718B585B004466946FFF766FC002260
S11340708DF8012069462046FFF765FC6846FCF789
S1134080D9FE06B010BD80B5FFF7EBFFBDE80140D7
S1134090A5E72DE9F041054686B028890090AB7963
S11340A0AA8869886878FDF72AFAFF26012708B9E3
S11340B086208EE0E88920B1A989884238BF87200C
S11340C0F7D3002401A9E0B2FFF737FC9DF80410F0
S11340D09DF80500002904BF6978884213D1BDF812
S11340E006106A88914202BFBDF80810AA8891425E
S11340F009D19DF80A10AA79914202BFBDF80C10AB
S11341002A89914214D0002802BFF0B2FF28264623
S1134110641CE0B20628D5DB3446E8894FF6FF710B
S1134120884207D117B9E0B2FFF7ADFF002050E095
S11341300027F2E70026002804BFA88988420AD194
S11341401422294601A8FEF7EDF801A80AF079FF28
S113415008B101270126E0B2FF2808BF892038D022
S113416017B300208DF80400E7B269788DF80510C4
S1134170062F6888ADF80600A888ADF80800A8796D
S11341808DF80A002889ADF80C000DDA1820474391
S1134190DFF84C800AF0B6FF48F8070008F108027F
S11341A03A440020C2E900003EB9A889ADF81000E5
S11341B0E889ADF812002869059001A8FCF73AFED9
S11341C0050005D101A9E0B2FFF7BDFBFFF707FF2A
S11341D0284606B0BDE8F081C59D1C81930100010D
S11341E038430320E0DE03200D390000845303200C
S11341F02DE9F84785B007469A46FF260124002595
S11342008846914600F063F89DF80000012801BF3C
S113421038689DF80110427991421BD1BDF8021013
S11342204288914204BFBDF80410414512D19DF863
S11342300610494502BFBDF808103A8A914209D1D7
S1134240BDF80C10FA88914202BF9DF80E10007957
S113425081420FD09DF80100002802BFF0B2FF2870
S11342602E4600F030F8CDDB3546E8B2FF2803D106
S1134270892027E00024F8E7C4B101208DF800006C
S1134280396848798DF8010039684A88ADF8022008
S1134290ADF804808DF80690398AADF80810F888D6
S11342A0ADF80C00396808798DF80E00ADF810A04F
S11342B06846FCF7BFFD040003D16946E8B2FFF786
S11342C042FB2046CAE66D1CE8B2062870476946E0
S11342D0E8B2FFF732BB30B585B004460025FFF7DE
S11342E0F6FF21466846FFF733FE38B9FFF7EBFFC8
S11342F0F5DB2046FFF752FE05B030BD0020FBE79A
S1134300826900211172FF2182695172BF21826981
S113431011708F2381694B70AF2281698A707F226B
S11343208169CA70372281698A710F228169CA71D1
S1134330872281690A71002281694A7101200F492B
S113434001F07BBD80B5FF208DF800004B218DF876
S113435002108DF8011068460BF090FC00280CBF89
S113436007490849012001F068FD01BD002814BF78
S1134370054806480168491C01607047D4BE050021
S1134380FCBE050024BF05005C930320609303205A
S113439010B51F4C2046FFF7B3FF05202072032100
S11343A0617241F63840208220461A49E16010BD0E
S11343B019487047E0B502A800210190009148F225
S11343C008030022102115480CF054F99DF8080048
S11343D0401E8041C00F0EBD70473EB502A801903B
S11343E000250E4C009548F20813002210212046A7
S11343F00CF040F99DF8080048B9094908680CF028
S11344004DFE02AB0022202120460CF023FA37BDDA
S1134410BC3A032064960320AC3A0320B0C70320BF
S11344209CB2032080B5A0B080787D22694604F058
S113443084FB01001CBF694602F0BDFE21B000BD33
S113444038B50A46014610460DF0A0FBFF28044685
S113445001D1182032BD012201210EF0C1FA054616
S113446020460DF010FB284632BD80B502F0A4FDB5
S1134470BDE80240012010B5040014BF0848002024
S11344800EF080FB50B1002CBDE8104014BF054A6B
S1134490054A03460549022001F0CFBC10BD0000C7
S11344A0509A0500389A0500449A05000C9A0500B4
S11344B038B50EF0CFFC0EF0D4FC78B1FCF7B0FCAC
S11344C060B1094C207804F04BFE0546207804F0D6
S11344D088FE3DB1BDE83140FCF7A1BCBDE83140E8
S11344E00EF012BD31BD000043D103207047826835
S11344F0521C8260426832B10268531C036011701E
S11345004168491E4160704780B5522200214F48DE
S1134510FDF74FFFBDE808408FE0FEB5054601F00A
S11345204BFB0646284601F057FB9DF800102A462F
S11345304FF6FF7416B3019B1B78212A1EDA422022
S1134540022B434E09DA4343F01830F81230A342E9
S113455014D05B1C20F8123010E00FD1002306EBBE
S1134560420700FB03F637F806E0A6451CBF0EF130
S1134570010E27F806E05B1C022BF2DB354F334EAD
S113458037F8123036F812C09C458041C043C00F42
S1134590A4451CBF0CF1010C26F812C0092D18BF4C
S11345A00B2D0AD1B6F814C0BF8A01EB0C0EBE4520
S11345B0AEBFB7826144B1820CE01D2D0AD1B6F8BA
S11345C03AC07F8F01EB0C0EBE45BDBF491E61444E
S11345D07187778736F81210994203D310B92846A9
S11345E0FCF716FC00201C49C6B28A5DAA4204D01E
S11345F0401CC6B2112EF7DBF7BD112E15DA02F0FE
S113460050FB0546154801788D4203DBDD21144833
S113461004F074FE222013494543481930F816105B
S1134620A1421CBF491C20F81610F7BD52220021DC
S11346300648FDF7BEBE000000BF5222FF21054818
S1134640FDF7B7BE034A22F810107047C493032045
S11346509094032018940320D4C20500B83F03208B
S1134660C4C205006C940320DFF82C1BC873704788
S113467010B5DFF8284B2068427B112A04D0B02102
S1134680DFF81C0B04F03AFE20684121417310BD91
S113469080B5022002F00BFB02F012FBDFF8FC1ADB
S11346A0DFF8F40A0A68137B042B03D1017C491D4B
S11346B0017404E04FF47A71183004F0A3FCBDE8EF
S11346C0014002F0FEBADFF8D40A0168487B3328BF
S11346D01CBF4328532801D1012070470020704794
S11346E02DE9FF410EF024FC08F0F2FC002851D023
S11346F0DFF8A44A00202076DFF8A80A01790C30FC
S113470001F0ACF8607D18B10EF0A6FD00206075D4
S113471000212173002500F03FF80FF04CFD0EF04E
S113472059FCDFF8848ADFF8746ADFF8FC7B397897
S1134730E8B288422ED202F0C3FA306841884FF6BC
S1134740FF72914218BF012007D100220821001DE9
S113475001F0EAFA401E8041C00F94F8281001F0DD
S11347600101014212D030684188ADF808100822D6
S1134770011D6846FDF7D6FD0A230A2201F0B6F8AA
S113478002230B22414600200FF012FF02F099FA97
S11347906D1CCCE7BDE8FF8110B5DFF8000A0068A6
S11347A0017B032918BF042906D141884FF6FF7203
S11347B0914208BF032008D001F01DFA044601F01D
S11347C01EFA214603F0ADFD022001F020FA0FF09D
S11347D09FFF00F00FFFBDE810400FF017BD38B584
S11347E0DFF8B449DFF8B459E0732968487B03283B
S11347F018BF00281ED0332818BF432814D101F055
S1134800F1F82868017B032918BF042906D1032184
S11348104173E07BBDE8324002F0B9BAE07B02F0BC
S1134820B6FABDE83140B7E721204873BDE831400E
S113483006F084B831BD10B5DFF86019DFF85849C7
S11348400A68002050734FF6FE7008F037FB4FF6ED
S1134850FF7008F03BFB01F0C5F8E07BBDE81040B9
S113486002F095BA7FB504461522E07ADFF82C5998
S11348700290032094F90A10019123892FA1009337
S1134880234610F0C4F82968487B70B9208901F0E8
S113489023F90AD0DFF8942A10780B2805D102F006
S11348A011FA10B902F010FA10B1702004B070BD02
S11348B02868017D880708D508F0FCFA4FF6FE72D7
S11348C0904203D110F0DBF800E00020214600F014
S11348D073FF06000DD12868017D88074CBF0220B4
S11348E0012000F041FF0021012010F00BFB060025
S11348F001D03046DAE7DFF8381A087808B111F049
S11349006EFC00220821204601F00EFA30B1042189
S1134910204611F0D3FC08B1A520C7E7DFF8140A3C
S1134920DFF84C2C017821740020E081626120467C
S113493000F06BF9064602F080F9DAE74238705766
S11349404242000070B506463346182201F04CF886
S1134950DFF84408DFF84428002180F8201070258F
S11349601368197B032918BF042911D000253100CD
S113497008BF05750CD0FF2E02D10121017507E097
S11349800122B4000275641C2102203004F03AFBB9
S113499000F030FE284670BDDFF8FC07007D70474C
S11349A0DFF8F417002081F82000CBE738B50D4676
S11349B088B00446686907901622297C0691E88924
S11349C00590297B0491E87A0390032095F90A1055
S11349D002912B890BA101930095234610F017F83F
S11349E001200EF062FC287B00280CBF4FF6FE70FD
S11349F008F060FA2B46224609B0BDE83040014673
S1134A00012097E0424238705742424257424400E4
S1134A102DE9F041DFF884570E4629688046487B2B
S1134A20002814461F464BD1200049D0042C47DCF3
S1134A30DFF8F80801780B2942D102F043F9002885
S1134A403ED102F041F908B1042C39DB387B03284C
S1134A5016D14FF6FE718E4214D1012C08BF0026E8
S1134A6010D0022C2CD108F025FA4FF6FC718842A4
S1134A7002DA08F01FFA01E010F001F8064601E03E
S1134A80012C1DD0B8F1000F0CD0387B03280CBFCB
S1134A90012100212046012C18BF002010F032FA19
S1134AA001002BD13946304600F086FE010025D1A5
S1134AB002F002F902F0E7F820B102F005F908B1BA
S1134AC070201BE02868407B332818BF532803D08C
S1134AD0DFF8C41600208873204600F045FE00214C
S1134AE04FF6FF7000F0DBFFDFF84418087820B1C0
S1134AF002F0EAF808B911F072FB0020BDE8F08179
S1134B0038B50446DFF8905608222146281DFDF7E3
S1134B1009FC207B0328A8BF00209421E973287096
S1134B20DFF8781628780A6800280CBF01203120A5
S1134B30507331BD10B51C46FFF76AFF01002BD13D
S1134B40207B0328204602D1BDE810405DE0FFF73A
S1134B50D7FFDFF84406DFF84446002181814FF097
S1134B6001032068817B480905D1DFF8F80B02783E
S1134B7003FA01F108E001F01F0140F0180003FA04
S1134B8001F1052241EAC061052006F020FF010081
S1134B9002D022680021517310BD38B5DFF8FC55EE
S1134BA004462868007B032818BF042806D1E0794E
S1134BB0C10744BF94F9050011F0D8FB2868217897
S1134BC0817302F03AF82968DFF8440C0A7B825CAE
S1134BD02189608911F0A5FE040004D09420FFF718
S1134BE0FEFD204632BDDFF8B0459420E07302207C
S1134BF002F05CF800F004F803202074002032BDB9
S1134C00C82104F1180004F0FDB910B504460022CF
S1134C10082101F089F808B1012010BD08F04AF913
S1134C2000224FF6FF7100F0F5FD217C204600F0D4
S1134C3015FE6269E189207C0FF09AFDDFF85C05BE
S1134C4001680A7B012A08BF10F0F6FEFFF7A4FDF5
S1134C50002010BD7CB5DFF8445529680446487B24
S1134C60002802BFDFF8C41608780B2801D0702092
S1134C7076BD0EF023FBDFF820652CB1022221461D
S1134C8006F12800FDF74EFB684600F0E0FE08B18F
S1134C90932076BD9DF80030142200F0A5FE00F0AC
S1134CA029FE010061D19DF8000000F05DFD286837
S1134CB0007B012818BF022807D0032818BF042846
S1134CC038D1002000F00CFFA0B300F02AFE2868C1
S1134CD0007B032814BF042811F0F1FEFFF75CFDEC
S1134CE0012011F00DFF01003FD12868007B03284B
S1134CF018BF04280ED196F828108A0708D5052273
S1134D00DFF86C18012000F045F801002CD076BDC6
S1134D10032801D0042827D1DFF88C4402230B2276
S1134D20214601200FF044FC207841071CD50EF0E9
S1134D3049FA19E0296813204873002272734FF06E
S1134D4001022868817B480908BF02FA01F107D0F3
S1134D5001F01F0140F0180002FA01F141EAC061BC
S1134D600522072006F033FE002076BD10E0000087
S1134D7038B504461046032818BF04280D4601D050
S1134D80022032BD00F0F0FC29462046BDE8384040
S1134D90FF2200BF2DE9FC418046DFF800040068D3
S1134DA00D46017B0129164640D0477B022F07D0D0
S1134DB0032F3BD15FEA080102D1007D810735D47E
S1134DC0332000F024FF0EF0B3F815F0784F12BF33
S1134DD00522DFF8900902782946052006F0F7FD40
S1134DE00446A8B9DFF8B073387301200EF05DFAF9
S1134DF008F068F878805FEA080014BF02200120F8
S1134E003870381D00F03AFE00207873BE7302E05B
S1134E10384600F0FCFE5FEA08003146284602D01E
S1134E2011F08DFE03E011F089FE00E0702401947E
S1134E30009543465FF02C0203A103200FF0E7FD29
S1134E402046BDE8F68100004242444200000000D2
S1134E5038B504460CF0A2FD0546204611F097FE35
S1134E602C18204611F0B0FF4FF6FF5101402046A8
S1134E70BDE8344011F0AFBFFEB5054608F01AF89E
S1134E80C64C06462068007B032818BF042806D1B8
S1134E90E879C10744BF95F9050011F067FA216864
S1134EA02878887301F0C9FE6889002100F0F7FDB5
S1134EB000F04CFF60B1300003D04FF6F8718E4221
S1134EC006DB0FF0DCFD21684A8890420646F8D0E4
S1134ED0304607F0F3FF288907F0F8FF06208DF825
S1134EE00800DFF82C192068027B8B5C8DF80930F0
S1134EF00021019100910223408802AA012112F0AD
S1134F00B8F8FF28064604D11820FFF768FC1820DB
S1134F10FEBD2068A04D4188304611F079FE287806
S1134F2002281CBF3046FFF793FF00F063F80746E2
S1134F3030460CF0A8FDCFB19420E873022001F0B4
S1134F40B5FE2068017B042908D1C82105F11800A9
S1134F5004F058F8032028740020FEBD4FF41671A5
S1134F6005F1180004F04EF80020F4E79420FFF750
S1134F7036FC0120FEBD78B587B00C4616461D46AA
S1134F8030B9204612F064FA03A911F033F803A8EB
S1134F90019007230C998DF8096001208DF80830E1
S1134FA08DF80B100090360A8DF80A60042302AACB
S1134FB00121204612F05DF8FF28064618D021464C
S1134FC011F026FE15B93046FFF742FF0D9808B9D7
S1134FD030460DE0204611F048F818B1304612F082
S1134FE065FA01E000F006F830460CF04CFDFF20B5
S1134FF008B070BD00220021304612F099BD2DE9A1
S1135000F34F824685B014469DF818001D4603A947
S113501012F06AF80027002C14BF4FF0010BBB46B6
S11350200026BBF1000F4FF6FF79B84607D008B150
S11350300DF10C086678760806F0010604E09DF888
S1135040180011F04EFE804600F005FC087B032892
S11350501CBF0428B8F1000F00F09B806D1C9DF864
S11350601800E9B20CF0B0FE0546400800F001005B
S11350708DF809008DF808A0280600F0ECFB4A7BA7
S113508058BF45F08005022A04D1434A107D50EAF6
S11350900A0101D1022729E0404607F097FEADF846
S11350A0000003219DF8180011F06BFD814608B93A
S11350B04FF0010930000CBF4FF0050A4FF0010A10
S11350C0BBF1000F03D0201D11F07EFE01E0BDF8FE
S11350D000000146CDF8009053462A46404610F0A1
S11350E0A5FE00F0F9FC814608BF0127DCB19DF85C
S11350F0080018B9484600F0EFFC02D1201D11F059
S113510063FE012101910097014633464A46404619
S1135110FFF731FF9DF8090050B94FF6FF71404683
S113512012F0E7FF04E03A464946404611F0D2FB4C
S11351307FBB9DF8090028B14146484612F0FDFFA7
S113514013F04AF830001EBF48464FF6FF718842FC
S11351500DD012F07DF9FF2809D0DFF8001A0A6893
S113516032F810304BF6FF710B4022F8103084B146
S113517007F0A0FE0EB1002405E09DF808100029F8
S113518014BF03240124014643464A46204613F033
S1135190C9F907B0BDE8F08F3CC9032024CA032035
S11351A09C5B000074C90320A6CB03202DE9FF47B4
S11351B080460C46914602A9204611F095FF05460B
S11351C001AA00201060204611F0EBFC5FEA080100
S11351D00746DFF88CA907D0002D14BF02AE0026C5
S11351E011F077FF054604E0204611F07AFD0646EB
S11351F055460020009004234A46214601A80CF09D
S1135200E1FC0DF1050011F0DFFD81465FEA0800C5
S11352109DF8074018BF002D06D0082251462846A5
S1135220FDF7CEF800287AD11CB94FF6F8718945FC
S113523021DADFF830592968C87E10B178788207FE
S113524013D55FEA080010D0487B022808BF002C61
S11352500BD1484607F032FE0EF0ADFF992300F063
S1135260C2FB992001F093FD59E000F06FFD002886
S113527018BF002C03D09420FFF7B1FA4FE000F0E0
S113528065FD00284BD0304612F0C0FDFF2818BF42
S11352905FEA080104D128684088314612F04DFFC6
S11352A012F09AFF2868DFF8C04841883246484621
S11352B000F0B0FADFF8B40890F902100902618531
S11352C02868417B012916BF3129112143214173EB
S11352D0022001F0EBFCDFF898080168FFF791FC6D
S11352E011F0EDFB002020742968C87E20B904F178
S11352F0180003F07DFE10E0B8F1000F05D07878B7
S1135300820702D5FFF7ECF907E0087B042804D1F3
S11353100521FFF776FC09202074AD21E17301F02B
S11353208CFCBDE8FF870000B83F0320E23F032068
S1135330D23F03208CDF03202DE9F04F8DB081464E
S113534011F02FFC074611F077FC0190484611F04C
S1135350C8FC824602AB052205A9484613F01EFC90
S11353600228804621D0484611F011FC01999DF88D
S11353700820DFF8F06708188518681C8DF800000D
S113538000F0F8F8EC1C01284FF6FF7B0ED0022841
S113539013D0042800F0C88006281CD0072876D033
S11353A0082829D07C2800F08980DDE0EBB20022B7
S11353B049460020FFF723FED6E03068417B0129EF
S11353C002BFDFF8A4271078002803D1EAB24946C7
S11353D0FFF7ECFEC8E0504610F0F2FD01465845D8
S11353E01CBF504611F042FA3068417B022902D1B9
S11353F0504611F096FBB7E09DF8001048460CF0BB
S113540097FD0746E1B248460CF092FD0446AD1DF7
S1135410E9B248460CF08CFD58450546EBD011F036
S11354204EFB3068417B132908D100F07AFA4846D4
S113543011F057FC0146204612F07FFE3068407B95
S1135440022818BF13281CD1284607F037FD384618
S113545007F03CFD0021002000F000FA51462046F0
S113546000F01DFBDFF80407DFF80817C0780F28E9
S1135470B4BF401C0F20087000F0BCF83068417BBA
S1135480132971D12322427306F064FB6CE0019866
S1135490012138440CF07AFB044600230022214603
S11354A0012011F047FB002820465BD00CF0EBFAFA
S11354B005AA414648460DF00EFF55E09DF8001040
S11354C000F059F80746AD1C00F054F8652F08BFEA
S11354D06D2849D1DFF8A0160A6812F80970E0B205
S11354E0B84241D20822514603A8FCF71BFF6B4681
S11354F00022E1B2484611F097FCA8BB9DF80000D9
S1135500FF2831D0DFF874460120207001F0D3FB6E
S11355109DF8001003A811F0F9FA01F0D2FB002065
S113552020709DF800001DE0484611F0F8FB044689
S11355300FF278600088ADF80A0000210191009113
S113554002230DF10A020121204611F092FDFF28E9
S1135550054609D0214611F05BFB002128460CF0DA
S113556057FF28460CF08FFA0DB0BDE8F08F00000D
S113557000F8FF07E9B248460CF026BC38B5022013
S113558001F095FB01F09CFBDFF8DC45DFF8D45516
S11355900020207607F09CFD28B12968C87E10B948
S11355A0FFF79EF820E007F093FD10B900F0CEFB62
S11355B048B1207C38B1FFF723FB207C411E2174C5
S11355C00DF015F810E02868417B132909D000F08C
S11355D0BDFB30B92868407B11281CBF43284128F3
S11355E002D1E07BFFF7FBF8F8E1DFF87C1500203F
S11355F00874704710B501F07BFBFF28DFF868459D
S113560003D0207D10B1012000E0002011F036F815
S1135610002060800822201DBDE810400021FCF716
S1135620C8BE2DE9F8438946DFF83C45DFF83C85E0
S113563001210546617384B0174640460DF017FEFC
S113564004F0F4FD00281ED1012D01D028001BD147
S113565000974B46262297A103200FF0D8F901F0BA
S11356602AFBDFF81C0504683CB1012D08BF06F0D5
S11356701DFC39464846A04703E03946484603F036
S11356807AFB01F01EFB5FE0DFF8D8643068407BF2
S113569023280DD100F0AFFA044600F0B0FA2146F9
S11356A002F03FFE022000F0B2FA0DF093FC4BE052
S11356B0002F49D121281CBF0428532802D105F00A
S11356C03DF941E000F042FBF0B10DF0EAFD28B9EC
S11356D0207B00280CBFAB2094202AE00AF04DFA6E
S11356E040460DF0C4FD28B140F2CC610FF2AC404D
S11356F003F004FE20780028404602D1FFF74DFA5B
S113570022E0FFF7B9FB1FE03068417B132916D173
S113571000F0E8F8BDF8000007F0D8FB00F001F94C
S11357203068017B032918BF042905D13321417353
S11357309620FFF754F807E0FFF72EF804E0042D55
S113574004BF484613F096FB4FF4006010F0B2FA21
S113575010B912F04BFA08B10CF08EFE05B0BDE89A
S1135760F0830000D33F032038B5DFF8F853044634
S11357702868017BA14203D00473204601F000FB9A
S113578004F05BFC40B11CB9002004F052FC0EE0B4
S1135790012004F04EFC00E01CB12868017B0429C0
S11357A005D101F057FAFF2808BF012000D00020DE
S11357B0BDE832400DF048B938B50C460546E07AEC
S11357C009F064FFFF2801D18A2032BD94F90A0050
S11357D000F0C8FA08B18B2032BDDFF888030268F4
S11357E0E17A91730068A17AC173284607F066FBD9
S11357F04FF6FE7085420CBF4FF6FF70208907F00C
S113580065FB2089DFF860134880002032BD00006A
S1135810B462010038B50C46154607F04FFB0FF093
S1135820FDF82946204600F03AF90DF03AFD38B16A
S1135830DFF83803C0780F28ACBF0F20401C06E007
S113584000F009F80A7B012A0CBF00200120DFF8D0
S11358502413087031BDC348016870477FB50446FE
S11358600D4600F03FF8BF4E94B1134A002128467C
S11358700EF07EFF306801788DF804100822007B5A
S11358808DF80500214602A8FCF74CFD13F06FFCCF
S11358903068817B8DF80310C17B8DF8021007F00E
S11358A011FBADF8000007F005FBADF8060000F0B1
S11358B01BF87FBD4242420000F8FF071FB50446B3
S11358C000F010F81CB100208DF8050007E007F087
S11358D0F1FAADF8060007F0F5FAADF8000000F0B3
S11358E003F81FBD684647E01023072269460020DD
S11358F00EF05EBE80B58AB0FFF7F4FFBDF800007D
S1135900ADF8180004A99DF803008DF81B009DF85C
S113591002008DF81A00BDF80600FFF74DFF0BB02A
S113592000BD70B586B0012000F0DAF80FF28021D6
S11359300400D1E90023CDE900234FF6FF752E467C
S113594007D0884800684688011D08226846FCF78D
S1135950E9FC13F017FC02A800F00EF8002C0EBFAF
S113596000226A463546BDF80E002946FFF752FF6D
S113597006F041FF06B070BD014610230722012046
S11359800EF016BE38B5082001F091F9054601F075
S113599097F9744C7B4822680178917301F08EF971
S11359A0A84208BF01F01EF900210020FFF756FFAE
S11359B02068007B032818BF042802D110F0D7FC0C
S11359C001E010F02AFC9B2300F00DF89B2001F06D
S11359D0DEF92068002120F8441F4180BDE83140F1
S11359E001F06FB9E37B13225BA103200FF00FB822
S11359F010B5044609F04AFEFF2801D18A2010BDE3
S1135A00FFF729FF487B022818BF032801D0702024
S1135A1010BD5C480470082001F048F95A48017828
S1135A200B2901D03D2010BD58480CF0A8FC08B942
S1135A30A12010BD002010BD53490A780B2A01D0C3
S1135A403D20704747490A68907301F0CBB81FB5F1
S1135A5004466846FFF790FF9DF8050040B104280E
S1135A6006DC40490A689DF8041013788B4201D083
S1135A70932001E02070002004B010BD1FB504463F
S1135A806846FFF779FF082202A92046FCF74AFC82
S1135A901FBD34493E480A68137BC05C704710B58B
S1135AA0304C2368588029B9BDE810400822181DDD
S1135AB0FCF77FBC0822181DFCF734FC21684888D9
S1135AC04FF6FF72904204D0BDE81040091D11F05A
S1135AD039B810BDBDF808004FF6FF718842704711
S1135AE01FB50446204890F82810C80707D500F0D1
S1135AF016F8FFF7EFFF02D000F00CF808B1002011
S1135B0006E024B1BDF808006946FFF7C8FF01208C
S1135B1004B010BD0822FF21684600F005B90A232D
S1135B200A22694601200EF043BD1A4A107000286B
S1135B301EBF19490988002905D04FF47A704143E2
S1135B40101D03F05FBA704712480078704711487F
S1135B50002101710170704742420000A03B032004
S1135B6038CA032024CA03203CC9032074C9032073
S1135B70643C03209DDF03208C3B03202CCA0320BC
S1135B80F0CB03208DDF0320E23F03208559000082
S1135B90B462010068C903206A3F03206173736F14
S1135BA063696174696F6E2E630000000460000015
S1135BB0FFFFFFFFFFFFFFFF20B500217BA2CBB259
S1135BC0D35C834205D0491CCDB2082DF7D3002005
S1135BD020BD012020BD000020B5002175A2CBB25C
S1135BE0D35C834205D0491CCDB2082DF7D30020E5
S1135BF020BD012020BD6A48016848887047684874
S1135C000168081D704766480168C87E704738B54A
S1135C10634C644D216848730228634915D1206898
S1135C20027B042A1CBF084603F0E2F92068007BCB
S1135C3003281EBF0428284603F0DAF920684169C6
S1135C40C80054BF9024BC2410E0002008702870C1
S1135C5013F025FD2068007B032818BF042802D117
S1135C6010F085FB01E010F0D8FA9124204604F0EE
S1135C70CFF850B92346132248A103200EF0C7FEE3
S1135C802046BDE8324001F082B831BD4448016885
S1135C90487B00F00F007047414801684A7B02F0DE
S1135CA00F02022A01D1012070470020704738B545
S1135CB00446FFF7F1FF3A4D28B92868417B0329D0
S1135CC001D0932032BD07F0FDF820812868C17B04
S1135CD0A1722868817BE1722046FFF7CFFE002085
S1135CE0207304F1140104F110000EF019FDE08199
S1135CF0002032BD70B52A4D2E680C46FFF7CCFF4C
S1135D0020B9707B032801D0932070BDF07B2070F4
S1135D102968887B09F010FB60702868817B01F09A
S1135D201F01A170002070BD10B5002300E05B1CB2
S1135D30DCB28C4205D210F8014B9442F7D000201B
S1135D4010BD012010BD082110F0B8BA1448016834
S1135D50487B01281CBF3128332801D1012070471A
S1135D600020704710B5044609F050FC010002D130
S1135D700B490A68D47310BD0948016891F90F00F2
S1135D80704707480168887B7047012070470448C2
S1135D9001688A7B500918BF012070474242000005
S1135DA024CA0320A4D2032048D203200001020302
S1135DB004051D200203040508090A0B4FF6FF72AF
S1135DC09042014608D0000A01D0002070473A48AA
S1135DD0027811EA020000D001207047020A07D1BC
S1135DE0354A1378002914BF184323EA00001070C1
S1135DF0704710B5830800EB5374C108E40801220E
S1135E00A0EBC40002FA00F000EB012080B210BD48
S1135E10F8B504460D4616461F46FFF7CFFF58B1A6
