S042000044796E616D69634D756C746970726F746F636F6C5377697463685F65667233326D673132703333326631303234676C3132355F62726434313632612E73333761
S113000028CA032061450300FDBE0100813F0300AF
S1130010A70A02020002000004180FACA067A7019F
S113002000000000000000000000000000000000CC
S1130030000000004C8003000000000000000000ED
S11300400000000000000000FFFFFFFFFFFFFFFFB4
S1130050FFFFFFFFFFFFFFFFFFFFFFFFFFFFFFFFAC
S113006000700F000000000000000000FFFFFFFF11
S1130070FFFFFFFF1C000000000000000000000064
S11300800000000000000000F0FF0320F0FF032048
S113009028CA0320C5DB03007A450300C8C0032037
S10F00A0401100200000100000000000CF
S113020028CA032061450300FDBE0100813F0300AD
S113021009620200853F0300893F030000000000DB
S11302200000000000000000000000008F18000023
S11302308D3F03009B0C0000AB1C0000F730000056
S1130240116302001BF30200F9740000953F0300E0
S1130250DDED020057F3020021F3020023F3020054
S11302601DF30200630F0300D1110300E37C0200BD
S1130270893C0200953F0300953F030003420300BD
S1130280953F0300953F0300DF110300953F0300F2
S1130290953F0300953F0300953F0300953F0300FE
S11302A0953F0300953F0300953F0300953F0300EE
S11302B059F302001FF30200CDD4020089F30200B7
S11302C0953F03000D440300953F0300953F030051
S11302D0953F0300953F0300953F0300953F0300BE
S11302E0953F0300953F0300953F0300953F0300AE
S11302F0953F0300953F0300953F0300953F03009E
S1130300953F0300953F03000000000000120348DE
S1130310016830BF41F000410160704700BF4C31BB
S11303200E40000080B5002000F0EBFA012002BD71
S11303301E482DE9F04100688189007D091A1446A0
S11303409846CE1E0027002506E0B2B2B9B2404658
S113035000F028FDFF1C6D1CE8B2A042F5D300207C
S113036000F0CFFA0120BDE8F0812DE9F8430F4EEB
S113037030688189007D091A90469946CF1E002471
S1130380002509E000F014F8E41C00F011F8A41CA6
S113039000F00EF8E41C6D1CE8B24045F2D330685E
S11303A0002100F0F0FA0120BDE8F28324D90320F3
S11303B0BAB2A1B2484600F0F5BC704780B501F06E
S11303C08CF8FF2805D0032803D2DFF8A417085CB3
S11303D002BD002002BD10B50268DFF8981713882B
S11303E00B8054884C8052790A7103681A794A71D7
S11303F04FF48A53CB80026893799A06DFF8782702
S113040044BF4FF48B53CB801378816939B9C088CA
S1130410DFF86817088003F0FD03137010BD43F084
S11304200203137016228169DFF85447204601F055
S1130430CFF90022227010BD80B5002001F02DFA02
S1130440FF2001F0A3F801F036FA00F026FD024681
S11304500121DFF81C0701F002FADFF81837DFF892
S11304602427DFF82407522101F0DDFA01F08FFB85
S113047001F01CFC01F041FD01F052FE02F0F9FD17
S113048002F038FE02F038FEBDE8014000F0DCBDA9
S1130490704780B502F00FFF20B904F0A9F908B93C
S11304A004F046FA04F09BFABDE8014004F0A6BA51
S11304B070B5034600204FF6FF72DFF8D04634F8DB
S11304C0305095420ED09D4209D1B3F57C4F0ADBE2
S11304D004EBC0056E888E4205D00D0003D0401C8D
S11304E080B2ECE7104670BD10B50446FFF7E0FF9C
S11304F0DFF89C160B884FF6FF72904203D1224618
S1130500DFF8901606E0DFF8841601EBC000DFF890
S113051088164268BDE81040184604F0BABADFF8FD
S11305207C06006800B1008A70471CB5DFF87016BD
S11305300446087800283CD004F084FB0246DFF827
S11305406416022004F0A5FA2068418800914379DA
S1130550A289DFF85416022004F09BFA022004F06A
S113056053FA20B12068218A4088FFF7BDFFE07B61
S113057028B1228ADFF83416022004F08AFAE07CDB
S1130580DFF82C160090A0680278A37C022004F007
S113059080FA217DA289A468521A012392B22144CF
S11305A0022004F067FBBDE81C40AFA1022004F068
S11305B06ABA13BD10B504462168487900F08DFF6E
S11305C0FF281DD0DFF8EC1501EB0010217F027B22
S11305D08A4215D1226840881188884206D04FF695
S11305E0FF7399420CD1B0F5004F09DA2079022843
S11305F018BF032806D11189507904F0ABF908B962
S1130600002010BDA07B0028204602D004F0C8FBC7
S113061001E004F0F5FB00B1012010BD7CB51446E7
S1130620227855074CBF052203229342DFF88855F0
S113063004D200922A46DFF8841533E0089E069A15
S113064030603171F280B460B381207800F0010031
S1130650B0732178890801F00101F1730121207838
S11306603175C00800F001007075F07B30B11A4696
S1130670204600F097FB317D891C31753082307D36
S1130680B389411C3175205CB074481CC9B2307503
S1130690615CF174C4B2A34209D2C0B200902A468C
S11306A0DFF81C15022004F0EEF9002076BD07984F
S11306B0B06104F0BAFE3077012076BD2DE9F14F28
S11306C084B00F4692460E9EDDF83C80DFF8F45469
S11306D0DFF8F4149B462846202204F0A5FF029577
S11306E0CDF8048000965B46049852463946FFF7DD
S11306F095FF00240028DFF8A49469D0C9F80050BD
S1130700A87CDFF8C81408702846FFF70EFF2846B7
S1130710FFF761FE284604F0DBFF30BBB8F1000FA1
S113072025D1042F18BF052F03D0022F18BF032F84
S113073001D1012200E000222868E9880191012109
S1130740438800930388E87C00F01FF998B1286877
S1130750817988060FD4DFF87844012121700022C2
S1130760284600F0D2F800202070012430E098F8E8
S1130770140081072CD528684179FF2924D100264B
S1130780DFF8F08300F089FBF1B2814220D2F0B2AD
S113079000F0A5FE0746F0B200F083FB90B1286894
S11307A041882A8A384600F0DCFD58B12846FFF714
S11307B012FE2868477188F804702846FFF7FAFE8D
S11307C000B10124761CDDE72846FFF7F3FE04465A
S11307D000F064FA16220021DFF8A40301F03FF8C8
S11307E00020C9F8000005B02046BDE8F08FDFF80E
S11307F0E4130878401C0870FFE700F07F0070479E
S1130800DFF874130A78002814BF42F0010202F0E2
S1130810FE020A707047DFF8C0130870704780B199
S1130820DFF8B4130978012904D1018841F04001AB
S113083001807047022904D102884FF6BF710A4033
S11308400280704778B1DFF894130A78012A04D142
S1130850DFF88C2313780B7001E0022A03D10178AE
S113086041F01001017070475D000000FEB5C24DFB
S11308702B78D90701D50020FEBDDFF82013BD4C2D
S1130880096871B109688A79960603D5E28842F04D
S11308902002E28089794A0603D5E18841F04001CB
S11308A0E180B94A11784E07C84947BF0F78D7701D
S11308B00E7856709B0709D5B2480188B04805F0F8
S11308C064F9297801F0FD012970FEBDAB4B1D8848
S11308D029464FF6FC76B14208DA0190009222468E
S11308E0A8480388002005F03BFBFEBD009013469A
S11308F0A44802882146284605F001FBFEBD0020DD
S1130900B4E70146A5480068002270B504460E46C7
S11309102079002818BF012815460BD1A06801785A
S1130920CA0601D5300005D0A07B002804BFE07CB6
S11309300B2801D1002070BD924A00211180607DF6
S1130940E17B00280CBF0820002011B900F0BDF99C
S113095006E040F0040000F0B8F9208A00F0C4F981
S1130960A07C00F0B2F90B2000F0AFF9E07C00F0BD
S1130970ACF9304600F0A9F92046FFF72CFD2846D3
S1130980BDE8704072E70022BFE770B51D46954B85
S11309908F4E1C78012C01D0337813B100203070B5
S11309A070BD0B0002D10AB1002070BD002C1EBF27
S11309B0049C4FF657439C4206D003460A46214600
S11309C0284603F0B9FF00B1012070BD000000000B
S11309D038B5D2885224950648BF4924550548BFE6
S11309E0083C150548BF083C1204034648BFA41E32
S11309F00846032B4FF6FD710ED8DFE803F0090219
S1130A00060BC0B205F0A2FE02E0C0B206F0B4F8D4
S1130A10014601E0641EE4B2084603F0ACFF241A68
S1130A20E0B232BD42540844120A4270704708448E
S1130A30110A0270130C120E41708370C270704759
S1130A4070B505460C00164608BF002003D0217877
S1130A50FF2902D1FF20287070BD204600F0C4F9A0
S1130A60864288BF06463246611C681C00F0B0FE10
S1130A702E7070BD70B50C000546164603D10020DB
S1130A806870297070BD2078FF2804BF6078FF2843
S1130A9002D12870687070BD204600F0AAF9864221
S1130AA088BF06463246A11CA81C00F091FE2E7099
S1130AB0360A6E7070BD2DE9F041541E0BB3042A42
S1130AC046DC0023002698465FFA88F5954225D235
S1130AD0651B002814BF10F805C04FF0000C571E0A
S1130AE0A7EB08074D5DFF000CFA07FC05FA07F7B2
S1130AF04CEA03033E4308F10108E5E7AE4224DB78
S1130B005B1CDDB2954223D2651B00280CBF002676
S1130B10465D4D5DB542F1DA01201AE0042A10DA8F
S1130B20D5000120D2006D1E00FA02F2524243FAAF
S1130B3005F1CC0748BF134346FA05F0C00748BF88
S1130B4016439E42E8DBB34202DA4FF0FF3000E086
S1130B500020BDE8F0810021234A01E0891CC9B2CC
S1130B60535C8342FAD35018407870470000000069
S1130B7000D903203CD803208EFF032066FC032009
S1130B8028D9032054FF032048D8032060680300B9
S1130B9058FF0320AC670300C467030024D9032073
S1130BA0D2D40320CC670300D4670300F4670300A6
S1130BB00068030064D703203C6803002068030036
S1130BC04468030004D90320A0680300D6D403209A
S1130BD08AFF0320D7D403208BFF03208CFF03203C
S1130BE08DFF0320D5D40320C068030028380828CB
S1130BF08041C00F704710B500F009F8FF2801D1FB
S1130C00A32010BD002104F83010002010BD0446BC
S1130C10084600F062BC38B500F00BF8FF2801D19B
S1130C20A32032BD294604EBC000BDE8344000F0E7
S1130C30DEBF04460846154600F04FBC40B11C28F0
S1130C400BD01D280CD01E2818BF1F2805D009E082
S1130C500B39102906D2002070471B29FBDB01E069
S1130C600929F8DB8A20704710F0E00011D08028B1
S1130C7006D0A02806D0C02806D0E02806D007E079
S1130C801C2070471D2070471E2070471F2070478E
S1130C90FF20704700F01F007047704780B54C4933
S1130CA00020087006F0C2F94A4A1080522200213E
S1130CB0494800F0D4FD4949002008800C22BDE8D1
S1130CC008400021464800F0CABD10B543490A88CF
S1130CD0522A07DA404CA054521C0A8092B2A0183F
S1130CE0401E10BD002010BD38B50546C0B2FFF748
S1130CF0ECFF0446280AFFF7E8FF002C18BF002881
S1130D0001D0204632BD002032BDF8B50746C0B23E
S1130D10FFF7DBFF06463804000EFFF7D6FF054653
S1130D203802000EFFF7D1FF0446380EFFF7CDFF5F
S1130D30002E18BF002D05D0002C18BF002801D0AC
S1130D403046F2BD0020F2BDF8B5244D2B880C4688
S1130D502646F718522F0CDA1F4F01462246F81880
S1130D6000F036FD2B88E4182C80A4B2A41B38199B
S1130D70F2BD0020F2BD30B504460020CD18AA42D1
S1130D8008DA30BD51FA83F222445B1E12F8015C8A
S1130D9005EB0020DAB2002AF4D130BD0423EAE7DF
S1130DA00323E8E780B50223FFF7E5FF80B202BD25
S1130DB0034691420B4800D3704710B55C5CFF2C8E
S1130DC008BF00240C19641CA242A8BF581810BD07
S1130DD08EFF032066FC032048D8032054FF032021
S1130DE03CD8032056FF03200078FF2808BF0020CA
S1130DF0704780B502220021FFF7D4FF4FF6FF723F
S1130E00904208BF002002BDF0B5DFF88419DFF876
S1130E1084490A68DFF8801988B003A80260D1E920
S1130E20002704A8D4E90056C0E9002706ABDFF880
S1130E306C19C3E9005601A80A68DFF86449DFF8B1
S1130E4064192568026002AB0320002408701D6049
S1130E5000940021DFF8500906AE03ACDFF84C29FA
S1130E60655C02EB011204AC157036F81130538046
S1130E7034F81130938002AC01AB655C95715C5C15
S1130E8000EBC405956001251DF801401473491C4D
S1130E9002295573E1DD08B0F0BDDFF808090078D8
S1130EA07047DFF8081901EB0010407B00F00100E7
S1130EB07047412818BF422803D0432818BF44284C
S1130EC001D10120704700207047412818BF4228F3
S1130ED001D10120704700207047432818BF4428DF
S1130EE001D10120704700207047F8B515461E4611
S1130EF0069A079B044600F04DFA60B1042100F005
S1130F00D3FB070007D0204600F0CCFC324629462C
S1130F102046B84794E0F1BD2DE9FC4714001CBFFE
S1130F200A9D002D814688461F461FD0F7B12878B8
S1130F300C9B0107618820794CBF4022802200F07D
S1130F4029FA98B1082100F0AFFB824670B10B9EDC
S1130F50207900F0A7FC019600953B4622464146C5
S1130F604846D047BDE8F34700F0A5BCBDE8F38789
S1130F70F8B51646069C1A460546234600F00AFABA
S1130F80D0B121000BD1022100F08EFB040013D05C
S1130F90284600F087FC31462846A0470BE0102184
S1130FA000F082FB070007D0284600F07BFC2246B5
S1130FB031462846B84743E0F1BD2DE9F843904651
S1130FC0089C1A460646234600F0E4F908B9862030
S1130FD016E000259CB9202100F066FB814670B123
S1130FE00B9F0A9C099D304600F05CFC0097234649
S1130FF02A4641463046C847054600F05CFC284670
S1131000BDE8F283F8B50446A568207800F04AFCF0
S1131010002611E02868F1B21422514347182078C1
S1131020398803F088FC0121384600F03DFB0100BB
S11310301CBF20788847761C2979F0B28842E9D30E
S1131040BDE8F14000F037BC38B50024DFF8545750
S11310500AE0DFF85807210600EB1150427BD10764
S113106048BFFFF7CFFF641C2978E0B28842F0D371
S113107031BD7CB5069D96781C462B0008BFD378FD
S1131080412E18BF422E06D0432E09D19A1E92B289
S1131090FFF7F0FC16E05A1ED2B2FFF7D1FC11E0C4
S11310A0442EF3D034B92C0004D0D278954201D226
S11310B0892076BD00291A4602D100F0D0FB01E058
S11310C000F086FB002076BD10B5002301E0001D72
S11310D05B1C9CB28C4204D204889442F7D14088B1
S11310E010BD002010BDDFF8C816401A0C2290FB7A
S11310F0F2F292B20021DFF8BC06E5E70288B2F50D
S11311007C4FA8BF00F002B80846ECE7DFF8A81649
S1131110401A142290FBF2F292B20021DFF89C06EE
S1131120D2E710B50C460188628891420DD1037B49
S11311302279134209D0B1F57C4F04DBFFF7E6FFB7
S11311402189884201D1012010BD002010BD10B5B5
S113115014460A88E3889A420AD10288B2F57C4F81
S113116004DAFFF7CBFF2189884201D1012010BDA9
S1131170002010BD2DE9F74F82B0044698460025A3
S1131180002704E08068C1886D187F1CFFB2DFF877
S113119014160A78974280F0A880DFF810062378A6
S11311A000EB071002789A42ECD181680091407BF1
S11311B0C107EAD5002603E0B9F80A002D18761C09
S11311C000990A79F0B29042DFD20A685FFA86FC8D
S11311D0142010FB0CFC02EB0C0921464846FFF7D7
S11311E0A0FF0028E8D04FF0000B09E09AF80400B3
S11311F010F0300F04BF9AF803002D180BF1010B07
S1131200B9F808101FFA8BF08842D8D2D9F8040034
S11312101FFA8BF20C214A4300EB020A2246514684
S11312204846FFF794FF0028E0D027460398544629
S113123000B104602079810611D5DFF8740500211E
S113124005E00279930644BFC27889180C30A042A5
S1131250F7D3DFF86C0589B200EB010B04E0DFF88B
S11312606415ADB201EB050B0E9E049D3046CEB164
S113127021464846FFF742FF02462388798838789A
S113128003F053FBAA46E0B12079C10624D5002E11
S11312902146484617D0FFF731FF00F02AF803F043
S11312A05DFB23E015B321464846FFF727FF0246BE
S11312B023887988387803F036FBDA460028AB4671
S11312C0E2D17E2012E0FFF719FFE178019100F0EE
S11312D010F803F041FB09E0CDF8008033462246C4
S11312E051465846FFF7C5FE00E0862005B0BDE82C
S11312F0F08F0095034679883878224670472DE9A7
S1131300F843044688461646994600252179E8B2F2
S1131310884221D22068EAB214235A4387183888B5
S1131320404517D131000AD0802E03D1397B0A06FB
S113133005D40FE0402E0DD1397B4A060AD5B0F50D
S11313407C4F0CDB3846FFF7E1FE484518BF5FEAE7
S1131350090004D06D1CD9E70020BDE8F2833846AB
S1131360FBE780B5134607E080B51346402204E04E
S113137080B51346802200E0002200F00BF800B193
S1131380012002BD80B500234022F6E780B500238A
S11313908022F2E770B50C4615461E4600F09DF813
S11313A0FF2801D1002070BD2146DFF8004404EB82
S11313B00010334680682A46BDE870409FE770B548
S11313C00C4615461E46002100F02FF8032800DACB
S11313D0EAE7002070BD1346402201E00022FAE74C
S11313E02DE9F84F82468B4690469946FFF7D2FF87
S11313F0002608B9FF2016E00027DFF8B043DFF825
S1131400A4532978F8B288420CD20001205C5045DC
S113141008D04B4642465946FFF7D1FF00B1761C2F
S11314207F1CEEE7F0B2BDE8F28F70B50022DFF862
S11314307C33DFF870532E78D4B2B4420BD224013B
S11314401D5D854205D10D0007D01C44647BE50772
S113145003D4521CEDE7FF2070BDD0B270BD80B53F
S11314600021FFF7E2FFFF2801D1002002BD00F0B8
S113147061F8407B00F0010002BD70B50E460446E1
S11314800021FFF7D2FFFF2801D1002070BDDFF853
S11314901C1301EB00153200687B00F0010114BF3E
S11314A040F001000020B142687314D076B12846A0
S11314B0FFF7A8FD0FE00068142251430844027BA3
S11314C00188D209204600F0E3FB761CA868027963
S11314D0F1B29142EFD3012070BD0121A5E7DFF8FD
S11314E0CC120001085C7047F8B50C46FFF7F5FF15
S11314F001460020FF291FBFDFF8B02202EB0111D3
S11315008968002915D0002214270D79D3B2AB4283
S11315100ED20B68D6B27E433344451C1B7B260097
S113152001D11B0600E05E0648BF2846521CECE7CA
S1131530C0B2F2BD9D4901EB00107047F8B50C46EE
S11315401546FFF7CAFF01460022FF291CD00023DD
S11315504FF0140C01E0521C5B1C944800EB011684
S1131560DFB2B0680679B7420ED200681CFB07F7F9
S11315703844067B15B1760602D4EDE73706EBD581
S1131580D6B2A642E7D1F2BD0020F2BD002109E0A7
S113159010B50446012100F005F82046BDE81040CE
S11315A004F095B82DE9F84F86B0814603F03DFF6D
S11315B07C49DFF8F8A10A78059004924FF0000BFB
S11315C007E00AEB0010017B059881420FD00BF174
S11315D0010B04995FFA8BF0884246DAB9F1FF0FE8
S11315E0EFD04846FFF779FFFF2883463DD0002718
S11315F03FE00328ACBFA26804F108020120009078
S11316000023002101A8FFF7B5FD761C2989B0B29B
S113161088422DD26868B2B20C214A4384182379D7
S1131620D906F2D41AF808208DF804202988ADF8D8
S11316300610207941064CBF802140218DF8081006
S113164028462188ADF80A102146FFF757FDADF86A
S11316500C002179E0784A07CBD5A2680328CDDBBA
S11316601268CBE7B9F1FF0FB1D007B0BDE8F08F36
S11316707F1C4FEA0B604FEA10580AF10800F9B2D8
S113168050F8080002799142ECD20168FBB21420B0
S11316904343CD1840F22D112A898A42A8BF05F090
S11316A05DFF0026B2E7704730B5047B01220023BA
S11316B00C4205D1002030BD144218BF5B1C5200FF
S11316C0D5B28D42F8D30069DBB250F8230030BDA7
S11316D03D49401A8003020C00213C48F4E42DE902
S11316E0FE4F00270028487D4FF0010806D008B9B6
S11316F0022407E0012804D1012403E008B90824E6
S113170000E004240C9D0E980D9EDDF83CB0ADF86D
S11317100020B9468A460193ADF830508DF8380060
S1131720294800EB8905BDF800002988814224D1AD
S1131730E978214221D0A9789DF8380081421CD350
S1131740E9789AF80F00CA0608D5B0B12846FFF721
S1131750BFFFBAF81010814201D00EE068B9BB4552
S113176013D0BDF8300087420FDA0198A978C1552B
S11317707F1C3288521C3280BFB209F10109B9F1D1
S1131780320FCDDB4046BDE8FE8F4FF00008F9E78D
S1131790BC590300C0590300C8590300D4590300BD
S11317A0D059030085FF0320D45C030064D70320D1
S11317B0C45A0300F05C0300E45B0300EC5C030028
S11317C0C4D7032094D70320F8590300C05A030058
S11317D070B5814224D210441144401E491E10E0C9
S11317E011F8013900F80139121F11F8014900F804
S11317F0014911F8015900F8015911F8016900F87B
S1131800016993B2042BEBDA93B2002B1EBF11F8DB
S1131810013900F80139521EF6D170BD00F00DF8FF
S113182093B2042BFADA93B2002B1EBF11F8013BDA
S113183000F8013B521EF6D170BD11F8013B00F8CF
S1131840013B121F11F8014B00F8014B11F8015B29
S113185000F8015B11F8016B00F8016B704713008D
S113186003D00A46194605F099BE704710B50346E1
S113187000E0521E90B218B100F003F8F9D0001B3A
S113188010BD13F8010B11F8014BA0427047FEE79D
S11318900C490D4808600020704700B17020704763
S11318A00020704780B500F013F8FF2801D1A32071
S11318B002BD002002BD00207047704700BF0348EE
S11318C0007870479CD80320CEBB030064D7032064
S11318D080B5FFF702FEFF2818BF002002BD0021DB
S11318E00170704700F091B92DE9F24F022940F3DD
S11318F09580190005D0BDF800100529F7DB42F0EA
S113190004028246012618008AF8002005D08AF8CD
S1131910013003261B0A8AF802304FF0000B0A9CA0
S1131920FEF765FF0AF80600761CB0B2761C0AF8CA
S11319300040DDF8309007E0BAB241465044FFF76A
S113194047FFBE190BF1010B0B985FFA8BF1405C5A
S1131950002865D0002500247328A04634DC4C28D8
S113196059F8048B1CBF5328622811D159F8047B01
S11319704C2806D1BDB24FF6FF70854236D0022402
S113198034E0532832D1FDB2FF2D2FD001242DE0B5
S11319906C2804D14046FFF72CFA871C26E07328F4
S11319A004D14046FFF720FA471C1FE0A0F13001A4
S11319B00A2938BFA0F1300718D3A0F14101072943
S11319C02CD2A0F1370711E00027752808BF0124A5
S11319D00AD0762808BF022406D0782808BF03243A
S11319E002D077281AD1042459F8045BB9B2BDF89F
S11319F0000011FA86F10919884205DA0EE00AF8A6
S1131A000050761C2D0A641EE1B20029B0B2F6D152
S1131A10B9B2002996D0B8F1000F8DD1002000E0B2
S1131A20B0B2BDE8F28F10B5454C20604548018046
S1131A3045490A60454A136010BD7FB50C4608A9A4
S1131A40009202913F4D3E4E019302462988306830
S1131A500023FFF749FF3C493C4B0A6810804FF4D0
S1131A608A5219684C80CA8004B070BD38B5364CAF
S1131A70256829880346324802683448006801B062
S1131A80BDE8304004F098BA0020EFE77FB500F0DD
S1131A902BF804F0DEF904B070BD0023F6E77CB542
S1131AA00192294D264A2E6814680094274C3388E5
S1131AB0226804F055FA76BD0022F0E738B500F04C
S1131AC003F804F01CFA32BD00911F4C1C490B684A
S1131AD025681E492A88096870477FB500F004F814
S1131AE004F022FA04B070BD009102930192164CE6
S1131AF0134925680B68154E2A88316870470023FE
S1131B00EBE70021DAE7F8B50D4D0F4F2E6884B0EE
S1131B100A9C03963E683588019402950B4C26680E
S1131B207588009504F07CFA05B0F0BD074800689C
S1131B307047064A136818711068417170470000B5
S1131B4030D803204AFC032034D8032038D803209B
S1131B5070B5044616460D463046FFF7A3FE002036
S1131B6020703046A847BDE87040FFF7A4BE0122AC
S1131B703D493E48ECE701223D493E48E8E7022260
S1131B803B493D48E4E7F22239493C48E0E780B567
S1131B90012005F065FE3A4805F0F6FD3949087064
S1131BA001BD80B505F070FE012805D035480078E8
S1131BB0BDE8024005F0D3BD01BDF0B5002400E04E
S1131BC0641C314D2E88E3B2B3420ED2E7B20C2529
S1131BD02E4B6F433B441E78864201BF5D888D4285
S1131BE01E799642ECD11846F0BD0020F0BD80B5B8
S1131BF019B905F035FD002002BDB1F1004F02D244
S1131C0005F038FDF7E7022002BDB1F5000F3CBF37
S1131C100902FFF7ECBF0220704770B505461E4667
S1131C20FFF7CBFF04000ED02846FFF718FC50B195
S1131C30A0683146FFF7DBFF28B905980499A07125
S1131C406171002070BD022070BD1CB50093134665
S1131C50049C01940022FFF7E0FF16BD80B5002329
S1131C600093FFF7F2FF02BD8B410200F4D603207C
S1131C70CD420200FCD6032004D703200CD7032056
S1131C80A054030083FF0320A2D4032050CA0320DE
S1131C9080B5FFF792FF20B1806800210170002019
S1131CA002BD022002BD0022F2E7FEE736E0DFF8C3
S1131CB018010178022901DB0120704700207047D8
S1131CC038B5DFF8045104462878A04203D02146F1
S1131CD002F05CFE2C7031BD10B5DFF8F0402078C6
S1131CE060B900F01BF805F0EBFD0121217028B16B
S1131CF00288B2F5817F24BF007D2070207810BD5A
S1131D00DFF8C4100978012803D10129D8BF0220C3
S1131D1002DD10B9012900DDD2E770472A480178B5
S1131D20022900DB704710B505F0B6FD02462849CC
S1131D30284C012002F0A7FE0120FFF7E1FF2078E4
S1131D40FF281BD105F0BCFDB8B140880006400E49
S1131D5000F0010020701822FF211F48FFF77FFDCB
S1131D60207801280AD1FFF7B7FF052806DBBDE874
S1131D701040D921194805F0F9BD207010BD80B577
S1131D80FFF7CCFFBDE8014005F09ABD70B50446ED
S1131D900D461646FFF7C2FF0420FFF791FF3246B7
S1131DA02946204605F0BEFD044600F003F820460F
S1131DB070BD8146022083E780B5FFF7AFFFBDE821
S1131DC0014005F0BEBD0000B5FF0320B6FF0320AF
S1131DD09C910300DCD4032000F5032090910300C0
S1131DE080B5AF49022002F04EFEFF20FFF7D0FB82
S1131DF0FF2002F09CFDFF2002F09CFD05F05AF844
S1131E0000F07BF802F0D9FDA6490020088001BD4E
S1131E10F8B500F0A0F8009800F0010005B000BD8E
S1131E2018B587B001A9684605F0CEFA9E4C9DF816
S1131E300F00A0700822BDF80C00208001A9201D0D
S1131E40FFF7C6FC9DF81400984960732046097892
S1131E5000290CBF0022964A06F0F2F991490020AD
S1131E60088008B010BD80B5684605F0B7FA93281D
S1131E7009D1904801680A788DF80020012A04BF2E
S1131E8002218DF800109DF8000002BD70B590B0DD
S1131E9004460D4616462C22002105A8FFF7DFFC58
S1131EA08DF81640ADF8146006A802F063FD01A891
S1131EB006F094FF0198ADF83A00FFF7D4FF8DF8CF
S1131EC03C0000F04BF8294605A806F0FEFA04464B
S1131ED09DF83C00784A794900902346012002F09D
S1131EE0D2FD200004D16F48018841F48071018043
S1131EF0204610B070BD06F08FBFF8B5012006F083
S1131F008EFF6F4806F0A1FF6E4806F0A1FF00F0B7
S1131F1022F80098C1071CD56B49022002F0B3FDDA
S1131F20644801680878012808BF022006F01AFCFA
S1131F30022006F078FF00F00EF8009840F08000D0
S1131F400090684606F055FF00F008F8032002F000
S1131F50BBFC05B000BD684606F040BF78B58FB045
S1131F6005A85A49282203F05FFB05F063F808B17D
S1131F7000201BE001A802F098FC0400544D554ECB
S1131F8003D000903246544B0BE005A802F014FD38
S1131F9005A901A806F0B2FB040006D00090324661
S1131FA04E4B2946022002F06EFD204610B070BD53
S1131FB010B53C4C208840F40070208002F018FCDE
S1131FC0034622884649012002F05DFD02F010FC20
S1131FD001280CBF0124002406F086FF28B1024624
S1131FE04049022002F04FFD00E024B106F0CAFE91
S1131FF0BDE81040F4E610BD38B52A4C2E4A2388BB
S1132000394984B00546009301202B4602F03BFD7C
S11320102088810504D5912D40D1FFF7E1FE3DE0F4
S113202010F08F0F26D0902D02D1FFF7F9FE35E086
S1132030912D33D0029001952C482D4B254A2D49E2
S11320400090022002F01FFD2078010626D404F03F
S1132050F1FF03280AD128480178042906DA491C2B
S113206001700120002101F036FC17E0022007F086
S1132070CCFB13E0FFF76FFF902D0FD10098C10741
S11320800CD5420852000092002101910291ADF852
S11320900C10684606F0ADFE07F051FE05B030BDE9
S11320A01C4903000AF90320DCD50320BBFA0320F2
S11320B0DCD603209CD80320C84A03003849030017
S11320C0008810020070EF05EC480300704903001B
S11320D098490300AC490300B4490300CC49030008
S11320E0E4490300204A0300504A0300B84A0300AD
S11320F0A04A0300804A0300E3FE032080B5FFF7F3
S1132100FAFEBDE8024000F0FE0006F088BE80B58D
S1132110FFF7F1FEBDE8024040F0010006F07FBE8B
S11321201CB5DFF8B44A0A2200212046FFF797FBCA
S113213060220021DFF8C80CFFF791FBA02060802B
S1132140052120208DF80410009001AB10222121DC
S1132150F22007F030FE13BDDFF87C1A002000B532
S113216008704FF0FF3187B0002304918DF81800F8
S11321700021039002900191009304AA08F0AFFBA0
S113218007B000BD18B5DFF8504A207AC10787B000
S113219012D54FF0FF32002104928DF8181008F088
S11321A025FF00200021002320720391029001905A
S11321B0009304AA08F093FBDFF8481C0020087081
S11321C008B010BD80B5FFF7C7FFDFF83C1C002046
S11321D0087001BD2DE9F04700F00108C0F3420486
S11321E0894692460609450900F0C3F806F001063F
S11321F005F0010526D1DFF8E079387820B109F03F
S11322003CFAF98888421DD1B8F1000F18D009F0C2
S113221034FAF880A0210120387079807C70E207BC
S11322207D7146BF4FF47A7101FB09F1DFF8DC1BC5
S1132230DFF8D40B05F01EFA26B187F804A001E0FC
S1132240FFF78AFF0120BDE8F087002070472DE9E1
S1132250F34F8FB00746DDF884901546984600F09A
S113226084F8780A00F0030AC7F341108DF81800C7
S11322700024F80A00F0070BDFF8940B3840082814
S1132280DFF8A00B01680A7908BFA146042A08BF39
S113229001242B001A9D08BF0AAB05B90AAD1F9E85
S11322A006B90AAE109ACDF8008007F0070107A816
S11322B009F09CFA002854D0DFF86C1B012002F0CE
S11322C0E8FB00F056F84CD1BAF1010F49D09DF863
S11322D02400C0B1022844D10022082107A802F03A
S11322E0D5FA00283DD107F01800182839D0ABF1F1
S11322F00500022835D39DF8180068B9F8060BD4F8
S11323007CBB85202BE0079858B310F1070FEAD364
S113231010F1010F25D1E6E71E9A20981C991B9B0A
S1132320049201900091CDF814900396029507A9A8
S11323309DF81820384609F0DEFD38B1DFF898081A
S1132340417888070DD5FFF707FF0AE0380708D55D
S113235009F0EFFAFF2808BF002C02D18920FEF70C
S1132360D0FA012011B0BDE8F08F0AA8142109F0B9
S113237071BEDFF8B00A01680A685079F228704724
S11323802DE9F0438FB081468846169C16461D46BB
S1132390FFF7EBFF04B90AACFFF7EBFF4ED1189F30
S11323A0179A2946199DF02F49D0F32F61D10022A5
S11323B000298DF8242007923CD109F0D1FF8045F3
S11323C03AD1DFF8405ADFF81048287810B1207A63
S11323D0810764D504F030FE0B3840F0100004AAE5
S11323E001238DF8100000210192009303910291C2
S11323F0F32307AA012008F072FA0120207204F0E6
S11324001BFE06F10B0188420BD001200B3600FAAB
S113241006F10022032008F030FD207A00F0FD00D0
S113242002E0207A40F00200207241F2883128460E
S113243005F020F9012033E0FFF7A4FE2FE019F0A6
S113244007008DF8180008BF049101D000F02BF8A4
S113245009F086FF804503D100F02FF8F0231AE03D
S1132460002000210023039002910190009304AA0C
S113247013E0F72F03DAA7F1B003102B0FD219F0F2
S113248003008DF8180008BF049101D000F00BF888
S113249000F013F83B4604AA012008F020FA0020BB
S11324A00FB0BDE8F08302218DF818108DF81920C3
S11324B02146082204A8FFF78BB9002000216A1CDA
S11324C00390029101922B7800937047002070478B
S11324D02DE9F04704468846626892B200214046DE
S11324E0FEF7A0FA207C08F1020520B9A26800F0EA
S11324F0A2F82D1D07E0022805D1082204F10801E5
S113250000F09FF80835207C022804BF607C05F8A1
S1132510010B6168880403D5A28A00F097F8AD1C0A
S1132520606841040ED5A07D05F8010B0021A26965
S113253000F082F82D1D102204F11C0100F081F836
S1132540103505E0800603D5A26900F074F82D1D4E
S1132550207941064FF00C0A0ED500F05EF800F029
S113256061F805D100F06BF800F06EF800F04EF859
S11325707F1CF9B20229F2DB6068C10517D500F0AF
S11325804CF8FAB204F12C011AFB02F28E183378DB
S1132590022B08D1728800F059F8AD1CB28800F003
S11325A055F800F033F87F1CF9B20229E9DB04F195
S11325B04400017805F8011B227902F01802182A58
S11325C01CBF407805F8010B6268100403D5120C97
S11325D000F03CF8AD1C6068C10312D500F01DF892
S11325E000F020F809D100F02AF800F02DF899F84D
S11325F000000A30AD1C89F800007F1CF9B20229E2
S1132600EEDBA5EB080188B2BDE8F08799F800007D
S1132610401CAD1C89F8000070470027A94605F846
S1132620017B7047FAB204F12C011AFB02F28E18F6
S11326303378032B704700212846FEF7F8B90822A7
S1132640B11C2846FFF7C4B8083572890021284612
S1132650FEF7E8B92DE9F84FB6B00F4600F00701D0
S1132660C0F3C1008DF8041000909346984607A863
S1132670FFF77CFEDFF8AC17096800260025BBF1E4
S1132680000F087908BF0DF11C0B00284DD1096813
S11326904879F2283CD10FA9E8B209F0D6F800280D
S11326A036D19DF83C00FF2818BF761C6D1CE8B29B
S11326B00428F0DD9DF80001DFF84459DFF844995F
S11326C0DFF844A90690F4B2009860BB9DF80410AA
S11326D0CDF800803A465B460CA809F087F800283C
S11326E000F07F800CA809F006F9FF28064622D0E6
S11326F000200122FF230590049003920293019489
S1132700009000F074F80FA9304609F09EF80028F4
S11327106BD1288809EB00010FA8FFF7D9FE29889F
S1132720401828805BE0009801285AD19DF80001E8
S1132730F6B2B04209D300210591049103918B2292
S1132740069902910194009247E00020059000212F
S113275006980491FF22039202900194009100F0E4
S113276046F800279DF800B10024B8460FA95FFA87
S113277088F009F06AF8002837D19DF83C00FF285A
S113278015D07F1CFAB2934511D221A90FA8FFF7E7
S11327909FFE06462888811952290ED2324621A965
S11327A04844FFF715F8288836182E80641C08F171
S11327B001085FFA88F10429D8DD89F80640FEF79C
S11327C09EF874280DD100200590039000210698EE
S11327D00491FFB202900197009100F008F8FEF70F
S11327E08EF8012037B0BDE8F08F0020FAE7534699
S11327F00B2221210120FFF720B92DE9F04F0024FD
S1132800F22808BF2129A7B04FF0000A4DD1112AA0
S113281002BF802B3098002847D1DDF8C480B8F17E
S1132820050F42DD1120FEF75FFADFF8D457DFF819
S1132830D4972E88361DB6B2B34600276946F8B23F
S113284009F003F830BB9DF80000FF280FD012A94F
S11328506846FFF73DFE0446301980451CDB2246DE
S113286012A909EB0600FEF7B3FFA619B6B27F1C46
S1132870F8B20528E2DB5FEA0A00A6EB0B060ED1EC
S11328800020FEF722FA4320FEF71FFAB0B2FEF74B
S11328902BFA06E0002009E04FF0890AEBE7FEF787
S11328A014FA288836182E800124204627B0BDE863
S11328B0F08F2DE9F04FC84E8BB0307868B10A9391
S11328C0187A002804BF1B68002B06D0199CE02C42
S11328D018BFE22C01D0179B0BB1012018E1DDF8E1
S11328E074901C9DDDF868A0DDF85480149F8DF869
S11328F024208DF82510834609F032FD0690CDF88A
S113290020A09DF82510189807910290CDF81490F6
S11329109DF824100A9804950394019700910246A7
S1132920437A01684BEA071040EA881444F40060D3
S113293008F003FFFFF7FAF80446F22020716071F3
S1132940052009F03BFE707910B100F012F80DE09B
S11329509DF82400A0F10C05E088A57240F0020067
S1132960E0800A980BF0B6FA00F08CF800F03AF91F
S1132970B3E7F1880020FFF79FB82DE9F84F1C4614
S11329808AB00546207A002804BF2368002B77D03C
S113299030B9236813F1070F02D313F1010F6FD17C
S11329A002280AD10023D8B2205C18B95B1CDEB21D
S11329B0082EF8DBDBB2082B62D0169800285FD112
S11329C0179E237A300018BF43F008037E2D159814
S11329D018BF7F2D03D143F4007300B10420149D6C
S11329E0DFF8F491DDF868A0DDF87080DDF874B0EC
S11329F08DF824202F0143EA801347F400673B43FA
S1132A0099F80500ADF826300F4698B109F0A8FCF6
S1132A1000F03EF8002E14BF2020052009F0CEFD62
S1132A20FFF784F800F0DAF80020B9F80610FFF791
S1132A3043F823E009F094FC00F02AF8FFF776F855
S1132A4000F0CCF89DF82410A1F10C05C188857222
S1132A5041F00201C1804EB17F0907F00607C7F1BA
S1132A6003077F073F0E2037B8B200E0052009F0C6
S1132A70A5FD20460BF02EFA00F004F800F0B2F8A1
S1132A80012045E00146EAB24FF6FD70FFF737B882
S1132A900690CDF820A00797CDF814B0CDF810809B
S1132AA0019522469DF864001899039002919DF8BF
S1132AB024000090637A2168BDF8260008F03DBE2A
S1132AC001E0000000BF2DE9F84F8AB0DDF854E0C2
S1132AD0DDF858C0DDF85080179FDDF86090199E2E
S1132AE0DDF868A01B9D1C9CDDF874B0CDF808C00F
S1132AF0CDF804E0CDF824B008940795CDF818A0DB
S1132B000596CDF810900397CDF80080FFF735FFB8
S1132B100BB0BDE8F08F2DE9F84F2F4E8AB0347812
S1132B20002C1EBF347A04F00304012C52D0082573
S1132B307E281598149CDDF860B0DDF86480DDF81B
S1132B4068A0DDF874908DF8242008BF4FF4027556
S1132B50800140EA041040F400602843ADF82600E8
S1132B600F461C9D707968B109F0FAFB00F03DF83E
S1132B70FEF7DCFF00F032F8202009F01FFDFFF71C
S1132B80F8FE25E01E4609F0EBFB00F02EF8FEF7F8
S1132B90CDFF00F023F87F0907F006079DF8241005
S1132BA0C7F103077F07A1F10C04C18841F00201BA
S1132BB03F0E8472C1802037B8B209F0FFFC304662
S1132BC00BF088F90146E2B24FF6FD70FEF797FF6D
S1132BD000F008F801209BE72CF10320F221017199
S1132BE041717047002009F0E9BC0690CDF820A09F
S1132BF00797CDF814900495CDF80C80CDF808B063
S1132C00019400239DF8240000900022BDF82600C2
S1132C10002108F092BD2DE9F84F9AB091462B9807
S1132C200246FF2A0C461F4600F0E5804821DFF8E3
S1132C30DC334A4319680D1D091DAB5843F4007376
S1132C408B5008A943F48063AB5008F0FEFD0028C4
S1132C5040F0D180079700213E7A4FF00C0808A875
S1132C6008FB01F2104490F82C00002814BF03283C
S1132C7046F0080603D0022808BF46F02006491C87
S1132C800229ECDB9DF82400299DDDF89CA00106B7
S1132C902499259848BF46F0100646EA811646EA6C
S1132CA00026E02D46F4A04618BFE12DB6B203D1AC
S1132CB0DFF85C23107820B15FEA0A0018BF46F4FD
S1132CC000668DF81890289F01B94F46DDF8B4B01E
S1132CD0DDF8B09009F044FB05940490CDF80CB0F5
S1132CE0CDF808900195009764090798437A016824
S1132CF004F006040246C4F103043046640708F0F5
S1132D00DFFC240E2034ADF800409DF81850DDF8A7
S1132D101C9000244FF6FC7B08A808FB04F147181C
S1132D2007F12C063078002818BF032818D1FEF7C5
S1132D30FDFEFFF753FF5FEA0A0014BF20200520C1
S1132D4009F03CFC7089584506DB07F12E0009F0B8
S1132D5093FA5845B8BF70817189FFF70BFE1FE0E5
S1132D6002281FD1FEF7E2FEFFF738FFA5F109079D
S1132D70877200F04FF85FEA0A0014BFBDF8000044
S1132D80052009F01BFCB0884FF6FF71884204BF90
S1132D9048460BF09FF801467088FAB2FEF77DFEB4
S1132DA0FFF720FF641C022CB6DB9DF8240001060B
S1132DB021D5FEF7BBFEFFF711FF8572BAF1000FB4
S1132DC000F028F814BFBDF80000052009F0F6FB58
S1132DD00998810448BFBDF8348003D448460BF0F9
S1132DE079F8804648460BF075F82A464146FEF7C6
S1132DF054FEFFF7F7FE01201BB0BDE8F08F000082
S1132E0038F10320A0F1032098F10320007102009F
S1132E1008000200C18841F00201C1809DF86410DD
S1132E20C172704724D90320BC7903000120704784
S1132E302DE9F84F064676480C46017AC8079EB03D
S1132E40154603D59DF8B410E32972D19DF8A0006E
S1132E500B93002802BF6E490878002810D1184649
S1132E6008F049FDFF280BD00CA908F0EEFC00285F
S1132E705FD10D9841045CD49DF84600002858D1D8
S1132E80002E18BF7C2E8DF8286005D07F2E50D1DF
S1132E905F49087800284CD05D498DF82A408DF8A8
S1132EA029500878299C2A9D2B9EDDF8B090DDF8E6
S1132EB0B8A02F9FDDF8C080DDF8C4B0002863D02F
S1132EC0280003D000F079F8FFF7F3FC9DF8280000
S1132ED07F2804BF9DF8A000032805D19DF8B40005
S1132EE000F05DF8032145E09DF8B400E02836D0F9
S1132EF02AD3E2281ED002D3E32820D024E09DF870
S1132F00A0100B9B9DF829200091E1200590CDF89D
S1132F1024B09DF82A109DF82800CDF8208007974A
S1132F20CDF818A0CDF81090039602950194FFF700
S1132F30C7FD31E000F043F8FFF7C4FD2CE000F0DA
S1132F403EF8FFF7E8FD27E09DF828107C2909D119
S1132F50A0F1E4020C2A24BFB038102818D200F0E3
S1132F602CF80EE07F2913D19DF8B4009DF8A01031
S1132F7000F015F800910B9B9DF829209DF82A106C
S1132F807E20FFF7FAFC07E09DF8B400E22803D0A6
S1132F9000F013F8FFF73FFE1FB0BDE8F08FCDF847
S1132FA024B0CDF820800797CDF818A00590CDF86F
S1132FB0109003960295019470479DF8B4009DF813
S1132FC0A010059000910B9B9DF829209DF82A10D4
S1132FD09DF82800CDF824B0CDF820800797CDF8CF
S1132FE018A0CDF81090039602950194704728B963
S1132FF00748017AC80748BFFFF7C4B87047000004
S113300054FF032048D80320C8790300F8D10320D3
S11330102CF10320912800D0704780B500F04BF9C3
S113302018B9BDE801400BF07DB801BD80B5A0B072
S113303080787D22694604F016F901001CBF6946B8
S113304002F06DFC21B000BD38B50A4601461046B9
S11330500BF086F9FF28044601D1182032BD012265
S113306001210CF0A7F8054620460BF0F6F8284697
S113307032BD80B502F054FBBDE80240012010B51A
S1133080040014BF084800200CF066F950B1002C6D
S1133090BDE8104014BF054A054A0346054902200D
S11330A001F0F1BC10BD00008C76030074760300BF
S11330B0807603004876030038B50CF0B5FA0CF0BE
S11330C0BAFA78B101F069FC60B1094C207804F0D7
S11330D07FFB0546207804F0BCFB3DB1BDE83140E0
S11330E001F05ABCBDE831400CF0F4BA31BD000027
S11330F083FF03207047FEE780B5522200214F482A
S1133100FEF7ADFBBDE808408FE0FEB5054601F0D3
S113311005FB0646284601F011FB9DF800102A46DF
S11331204FF6FF7416B3019B1B78212A1EDA422046
S1133130022B434E09DA4343F01830F81230A3420D
S113314014D05B1C20F8123010E00FD1002306EBE2
S1133150420700FB03F637F806E0A6451CBF0EF154
S1133160010E27F806E05B1C022BF2DB354F334ED1
S113317037F8123036F812C09C458041C043C00F66
S1133180A4451CBF0CF1010C26F812C0092D18BF70
S11331900B2D0AD1B6F814C0BF8A01EB0C0EBE4544
S11331A0AEBFB7826144B1820CE01D2D0AD1B6F8DE
S11331B03AC07F8F01EB0C0EBE45BDBF491E614472
S11331C07187778736F81210994203D310B92846CD
S11331D001F0DBFB00201C49C6B28A5DAA4204D080
S11331E0401CC6B2112EF7DBF7BD112E15DA02F022
S11331F01EF90546154801788D4203DBDD2114488C
S113320004F0B4FB222013494543481930F8161042
S1133210A1421CBF491C20F81610F7BD5222002100
S11332200648FEF71CBB000000BF5222FF210548E0
S1133230FEF715BB034A22F81010704738F5032037
S113324004F603208CF503209C9A0300EBD403209E
S11332508C9A0300E0F50320DFF8A41AC8737047C2
S113326010B5DFF8A04A2068427B112A04D0B021AF
S1133270DFF8940A04F07AFB20684121417310BD01
S113328080B5022002F0D9F802F0E0F8DFF8741AF1
S1133290DFF86C0A0A68137B042B03D1017C491DF7
S11332A0017404E04FF47A71183004F0E3F9BDE8D6
S11332B0014002F0CCB8DFF84C0A0168487B33289F
S11332C01CBF4328532801D10120704700207047B8
S11332D02DE9FF410CF012FA09F050F9002851D001
S11332E0DFF81C4A00202076DFF8200A01790C3030
S11332F001F066F8607D18B10CF094FB0020607555
S113330000212173002500F03FF80DF064FB0CF060
S113331047FADFF8FC89DFF8EC69DFF8747B397869
S1133320E8B288422ED202F091F8306841884FF614
S1133330FF72914218BF012007D100220821001D0D
S113334001F0A4FA401E8041C00F94F8281001F047
S11333500101014212D030684188ADF808100822FA
S1133360011D6846FEF734FA0A230A2201F070F8B8
S113337002230B22414600200DF02AFD02F067F8DB
S11333806D1CCCE7BDE8FF8110B5DFF87809006853
S1133390017B032918BF042906D141884FF6FF7227
S11333A0914208BF032008D001F0D7F9044601F088
S11333B0D8F9214603F06FFB022001F0DAF90DF091
S11333C0B7FD00F0C9FEBDE810400DF02FBB38B5C5
S11333D0DFF82C49DFF82C59E0732968487B03286F
S11333E018BF00281ED0332818BF432814D101F079
S11333F0ABF82868017B032918BF042906D10321EF
S11334004173E07BBDE8324002F087B8E07B02F014
S113341084F8BDE83140B7E721204873BDE8314066
S113342005F0BEBD31BD10B5DFF8D818DFF8D048BF
S11334300A68002050734FF6FE7008F095FF4FF6AF
S1133440FF7008F099FF01F07FF8E07BBDE81040C1
S113345002F063B870B506463346182201F076F8D8
S1133460DFF89C08DFF89C28002180F820107025E4
S11334701368197B032918BF042911D000253100D2
S113348008BF05750CD0FF2E02D10121017507E09C
S11334900122B4000275641C2102203004F0EAF811
S11334A000F05AFE284670BDDFF85408007D7047CE
S11334B0DFF84C18002081F82000CBE738B50D4622
S11334C088B00446686907901622297C0691E88929
S11334D00590297B0491E87A0390032095F90A105A
S11334E002912B890BA10193009523460DF09DFEBB
S11334F001200CF0E9FA287B00280CBF4FF6FE707F
S113350008F02EFF2B46224609B0BDE830400146A4
S1133510012097E0424238705742424257424400E9
S11335202DE9F041DFF8DC570E4629688046487BD8
S1133530002814461F464BD1200049D0042C47DCF8
S1133540DFF8500901780B2942D101F081FF0028EE
S11335503ED101F07FFF08B1042C39DB387B03280E
S113356016D14FF6FE718E4214D1012C08BF0026ED
S113357010D0022C2CD108F0F3FE4FF6FC718842D7
S113358002DA08F0EDFE01E00DF087FE064601E0E8
S1133590012C1DD0B8F1000F0CD0387B03280CBFD0
S11335A0012100212046012C18BF00200EF0B8F89C
S11335B001002BD13946304600F0B0FE010025D180
S11335C001F040FF01F025FF20B101F043FF08B1F5
S11335D070201BE02868407B332818BF532803D091
S11335E0DFF81C1700208873204600F06FFE0021CE
S11335F04FF6FF7001F005F8DFF89C18087820B149
S113360001F028FF08B90FF0F8F90020BDE8F081B7
S113361038B50446DFF8E85608222146281DFEF78F
S1133620D7F8207B0328A8BF00209421E9732870D1
S1133630DFF8D01628780A6800280CBF0120312052
S1133640507331BD10B51C46FFF76AFF01002BD142
S1133650207B0328204602D1BDE810408AE0FFF712
S1133660D7FFDFF89C06DFF89C46002181814FF0EC
S113367001032068817B480905D1DFF84C0C0278EE
S113368003FA01F108E001F01F0140F0180003FA09
S113369001F1052241EAC061052007F0EEFB0100BB
S11336A002D022680021517310BDF8B586B00646D9
S11336B00C4617461D46082204F10C016846FEF725
S11336C087F82189ADF808108DF80A700022217856
S11336D08DF80B108DF80C206B4632464FF6FE71B8
S11336E00120FFF71DFF01000AD16846FFF790FF94
S11336F0204600F007F8010004BFDFF804164D75FA
S113370007B0F0BD38B5DFF8FC5504462868007BE7
S1133710032818BF042806D1E079C10744BF94F9EF
S113372005000FF0E5F928682178817301F04BFE5C
S11337302968DFF8400C0A7B825C218960890FF0DC
S1133740B2FC040004D09420FFF741FE204632BDB1
S1133750DFF8AC459420E073022001F06DFE00F028
S113376004F803202074002032BDC82104F118009D
S113377003F080BF10B504460022082101F086F84A
S113378008B1012010BD08F0EBFD00224FF6FF71D7
S113379000F0F2FD217C204600F012FE6269E1890E
S11337A0207C0DF0F5FBDFF85C0501680A7B012A3B
S11337B008BF0EF04FFDFFF7E7FD002010BD7CB5FC
S11337C0DFF8405529680446487B002802BFDFF82B
S11337D0C41608780B2801D0702076BD0CF07DF952
S11337E0DFF81C652CB10222214606F12800FDF702
S11337F0EFFF684600F0DDFE08B1932076BD9DF82A
S11338000030142200F0A2FE00F026FE010061D177
S11338109DF8000000F05AFD2868007B012818BFBD
S1133820022807D0032818BF042838D1002000F04C
S113383009FFA0B300F027FE2868007B032814BF0B
S113384004280FF0FEFCFFF79FFD01200FF01AFD86
S113385001003FD12868007B032818BF04280ED13B
S113386096F828108A0708D50522DFF86818012081
S113387000F044F801002CD076BD032801D00428C0
S113388027D1DFF88C4402230B22214601200DF0BE
S11338909FFA207841071CD50CF07AF819E02968C2
S11338A013204873002272734FF001022868817B51
S11338B0480908BF02FA01F107D001F01F0140F0E6
S11338C0180002FA01F141EAC0610522072007F05D
S11338D0D4FA002076BD0FE038B50446104603281C
S11338E018BF04280D4601D0022032BD00F0EEFCC2
S11338F029462046BDE83840FF2200BF2DE9FC419F
S11339008046DFF8000400680D46017B0129164655
S113391040D0477B022F07D0032F3BD15FEA080139
S113392002D1007D810735D4332000F022FF0BF053
S1133930E5FE15F0784F12BF0522DFF88C090278F6
S11339402946052007F099FA0446A8B9DFF8B073B0
S1133950387301200CF0B8F808F00AFD78805FEAAB
S1133960080014BF022001203870381D00F038FE12
S113397000207873BE7302E0384600F0FAFE5FEA76
S113398008003146284602D00FF09EFC03E00FF0F9
S11339909AFC00E070240194009543465FF02C02E9
S11339A003A103200DF041FC2046BDE8F681000090
S11339B0424244420000000038B504460AF0D8FBF5
S11339C0054620460FF0A7FC2C1820460FF0C0FD3A
S11339D04FF6FF5101402046BDE834400FF0BFBD13
S11339E0FEB5054608F0BCFCC64C06462068007BC4
S11339F0032818BF042806D1E879C10744BF95F904
S1133A0005000FF075F821682878887301F0DBFC55
S1133A106889002100F0F5FD00F04AFF60B1300034
S1133A2003D04FF6F8718E4206DB0DF036FC2168A8
S1133A304A8890420646F8D0304608F095FC28891A
S1133A4008F09AFC06208DF80800DFF82819206891
S1133A50027B8B5C8DF809300021019100910223D7
S1133A60408802AA01210FF0C8FEFF28064604D1AF
S1133A701820FFF7ACFC1820FEBD2068A04D41883B
S1133A8030460FF089FC287802281CBF3046FFF727
S1133A9093FF00F063F8074630460AF0DEFBCFB12F
S1133AA09420E873022001F0C7FC2068017B0429FC
S1133AB008D1C82105F1180003F0DCFD03202874A7
S1133AC00020FEBD4FF4167105F1180003F0D2FD7D
S1133AD00020F4E79420FFF77AFC0120FEBD78B5BE
S1133AE087B00C4616461D4630B9204610F074F8CF
S1133AF003A90EF08DFE03A8019007230C998DF8FD
S1133B00096001208DF808308DF80B100090360AFA
S1133B108DF80A60042302AA012120460FF06DFEED
S1133B20FF28064618D021460FF036FC15B930465A
S1133B30FFF742FF0D9808B930460DE020460EF01D
S1133B40A2FE18B1304610F075F801E000F006F856
S1133B5030460AF082FBFF2008B070BD002200212D
S1133B60304610F0A9BB2DE9F34F824685B01446C8
S1133B709DF818001D4603A90FF07AFE0027002CBB
S1133B8014BF4FF0010BBB460026BBF1000F4FF6EC
S1133B90FF79B84607D008B10DF10C0866787608AD
S1133BA006F0010604E09DF818000FF05EFC804664
S1133BB000F003FC087B03281CBF0428B8F1000FA5
S1133BC000F09B806D1C9DF81800E9B20AF0E6FC39
S1133BD00546400800F001008DF809008DF808A0A2
S1133BE0280600F0EAFB4A7B58BF45F08005022A0C
S1133BF004D1434A107D50EA0A0101D1022729E089
S1133C00404608F039FBADF8000003219DF8180088
S1133C100FF07BFB814608B94FF0010930000CBF5F
S1133C204FF0050A4FF0010ABBF1000F03D0201D2D
S1133C300FF08EFC01E0BDF800000146CDF80090C5
S1133C4053462A4640460EF0FFFC00F0F7FC81463E
S1133C5008BF0127DCB19DF8080018B9484600F0F8
S1133C60EDFC02D1201D0FF073FC0121019100979E
S1133C70014633464A464046FFF731FF9DF80900A6
S1133C8050B94FF6FF71404610F0F7FD04E03A4694
S1133C90494640460FF0E0F97FBB9DF8090028B182
S1133CA04146484610F00DFE10F05AFE30001EBF8B
S1133CB048464FF6FF7188420DD00FF08DFFFF2864
S1133CC009D0DFF8FC190A6832F810304BF6FF719E
S1133CD00B4022F8103084B108F042FB0EB10024EE
S1133CE005E09DF80810002914BF032401240146AF
S1133CF043464A46204610F0D9FF07B0BDE8F08F8E
S1133D0020F80320E4F803200047000058F80320BB
S1133D105AFA03202DE9FF4780460C46914602A932
S1133D2020460FF0A5FD054601AA0020106020469C
S1133D300FF0FBFA5FEA08010746DFF888A907D00D
S1133D40002D14BF02AE00260FF087FD054604E0E7
S1133D5020460FF08AFB06465546002000900423B7
S1133D604A46214601A80AF017FB0DF105000FF0A1
S1133D70EFFB81465FEA08009DF8074018BF002D5D
S1133D8006D0082251462846FDF770FD00287AD156
S1133D901CB94FF6F871894521DADFF82C592968E6
S1133DA0C87E10B17878820713D55FEA080010D076
S1133DB0487B022808BF002C0BD1484608F0D4FAEF
S1133DC00CF009FE992300F0C0FB992001F0A5FB3B
S1133DD059E000F06DFD002818BF002C03D094209A
S1133DE0FFF7F5FA4FE000F063FD00284BD03046B2
S1133DF010F0D0FBFF2818BF5FEA080104D128683F
S1133E004088314610F05DFD10F0AAFD2868DFF807
S1133E10BC4841883246484600F0AEFADFF8B008A4
S1133E2090F90210090261852868417B012916BFB7
S1133E303129112143214173022001F0FDFADFF8F9
S1133E4094080168FFF792FC0FF0FBF9002020743E
S1133E502968C87E20B904F1180003F001FC10E0C1
S1133E60B8F1000F05D07878820702D5FFF730FA51
S1133E7007E0087B042804D10521FFF777FC09201B
S1133E802074AD21E17301F09EFABDE8FF870000C4
S1133E90EBD4032008D5032005D503202DE9F04FEA
S1133EA08DB081460FF041FA07460FF089FA019070
S1133EB048460FF0DAFA824602AB052205A94846C5
S1133EC011F030FA0228804621D048460FF023FA38
S1133ED001999DF80820DFF8F06708188518681C18
S1133EE08DF8000000F0F8F8EC1C01284FF6FF7B79
S1133EF00ED0022813D0042800F0C88006281CD055
S1133F00072876D0082829D07C2800F08980DDE0B5
S1133F10EBB2002249460020FFF725FED6E03068C8
S1133F20417B012902BFDFF8A4271078002803D1C0
S1133F30EAB24946FFF7EEFEC8E050460EF04EFCEA
S1133F40014658451CBF50460FF052F83068417B7B
S1133F50022902D150460FF0A7F9B7E09DF80010EE
S1133F6048460AF0CFFB0746E1B248460AF0CAFBCE
S1133F700446AD1DE9B248460AF0C4FB584505465F
S1133F80EBD00FF05EF93068417B132908D100F0C3
S1133F907AFA48460FF069FA0146204610F091FC7F
S1133FA03068407B022818BF13281CD1284608F02B
S1133FB0DBF9384608F0E0F90021002000F000FAAF
S1133FC05146204600F01DFBDFF80407DFF8081710
S1133FD0C0780F28B4BF401C0F20087000F0BCF854
S1133FE03068417B132971D12322427307F008F80A
S1133FF06CE00198012138440AF0B2F90446002328
S11340000022214601200FF05AF9002820465BD0F7
S11340100AF023F905AA414648460BF06BFD55E02A
S11340209DF8001000F059F80746AD1C00F054F854
S1134030652F08BF6D2849D1DFF8A0160A6812F869
S11340400970E0B2B84241D20822514603A8FDF7F4
S1134050BFFB6B460022E1B248460FF0A9FAA8BBA9
S11340609DF80000FF2831D0DFF87446012020704D
S113407001F0E7F99DF8001003A80FF009F901F029
S1134080E6F9002020709DF800001DE048460FF07E
S11340900AFA04460FF278600088ADF80A0000219D
S11340A00191009102230DF10A02012120460FF033
S11340B0A4FBFF28054609D021460FF06DF9002125
S11340C028460AF08FFD28460AF0C7F80DB0BDE86F
S11340D0F08F000000F8FF07E9B248460AF05EBA24
S11340E038B5022001F0A9F901F0B0F9DFF8DC4598
S11340F0DFF8D4550020207608F040FA28B129686A
S1134100C87E10B9FFF7E4F820E008F037FA10B9D8
S113411000F0CEFB48B1207C38B1FFF726FB207CB1
S1134120411E21740AF04DFE10E02868417B1329DA
S113413009D000F0BDFB30B92868407B11281CBFB2
S11341404328412802D1E07BFFF741F9F8E1DFF889
S11341507C1500200874704710B501F08FF9FF2812
S1134160DFF8684503D0207D10B1012000E0002075
S11341700EF046FE002060800822201DBDE810409D
S11341800021FDF76CBB2DE9F8438946DFF83C4577
S1134190DFF83C8501210546617384B0174640462B
S11341A00BF04BFC04F070FC00281ED1012D01D053
S11341B028001BD100974B46262297A103200DF01F
S11341C034F801F03EF9DFF81C0504683CB1012D18
S11341D008BF07F0C1F839464846A04703E039460E
S11341E0484603F058F901F032F95FE0DFF8D8648B
S11341F03068407B23280DD100F0AFFA044600F06C
S1134200B0FA214602F047FC022000F0B2FA0BF0AB
S1134210C7FA4BE0002F49D121281CBF042853289A
S113422002D104F0BDFE41E000F042FBF0B10BF01E
S113423047FC28B9207B00280CBFAB2094202AE03F
S113424011F05BFD40460BF0F8FB28B140F2CC6165
S11342500FF2AC4003F08AFB20780028404602D1DC
S1134260FFF750FA22E0FFF7BBFB1FE03068417B09
S1134270132916D100F0E8F8BDF8000008F07CF826
S113428000F001F93068017B032918BF042905D126
S1134290332141739620FFF79AF807E0FFF774F88B
S11342A004E0042D04BF484612F06CFB4FF4006098
S11342B00EF00EF910B910F05DF808B10AF0C6FC62
S11342C005B0BDE8F083000006D5032038B5DFF85B
S11342D0F85304462868017BA14203D004732046A6
S11342E001F014F904F0D7FA40B11CB9002004F02D
S11342F0CEFA0EE0012004F0CAFA00E01CB12868EE
S1134300017B042905D101F06BF8FF2808BF0120C7
S113431000D00020BDE832400AF080BF38B50C461A
S11343200546E07A11F072FAFF2801D18A2032BDE5
S113433094F90A0000F0C8FA08B18B2032BDDFF806
S113434088030268E17A91730068A17AC1732846F0
S113435008F00AF84FF6FE7085420CBF4FF6FF7066
S1134360208908F009F82089DFF8601348800020CC
S113437032BD0000D02A010038B50C46154607F0BE
S1134380F3FF0CF059FF2946204600F03AF90BF0F0
S113439097FB38B1DFF83803C0780F28ACBF0F2083
S11343A0401C06E000F009F80A7B012A0CBF00203B
S11343B00120DFF82413087031BDC3480168704739
S11343C07FB504460D4600F03FF8BF4E94B1134A42
S11343D0002128460CF0DCFD306801788DF80410CB
S11343E00822007B8DF80500214602A8FDF7F0F9AC
S11343F012F045FC3068817B8DF80310C17B8DF889
S1134400021007F0B5FFADF8000007F0A9FFADF802
S1134410060000F01BF87FBD4242420000F8FF078F
S11344201FB5044600F010F81CB100208DF80500FB
S113443007E007F095FFADF8060007F099FFADF827
S1134440000000F003F81FBD684647E01023072270
S1134450694600200CF0BCBC80B58AB0FFF7F4FFBD
S1134460BDF80000ADF8180004A99DF803008DF80C
S11344701B009DF802008DF81A00BDF80600FFF736
S11344804DFF0BB000BD70B586B0012000F0DAF826
S11344900FF280210400D1E90023CDE900234FF677
S11344A0FF752E4607D0884800684688011D0822FB
S11344B06846FDF78DF912F0EDFB02A800F00EF846
S11344C0002C0EBF00226A463546BDF80E00294670
S11344D0FFF752FF07F0E5FB06B070BD014610235D
S11344E0072201200CF074BC38B5082000F0A5FFA9
S11344F0054600F0ABFF744C7B4822680178917349
S113450000F0A2FFA84208BF00F032FF0021002003
S1134510FFF756FF2068007B032818BF042802D148
S11345200EF0E7FA01E00EF086FA9B2300F00DF896
S11345309B2000F0F2FF2068002120F8441F4180F6
S1134540BDE8314000F083BFE37B13225BA103206D
S11345500CF06BBE10B5044611F058F9FF2801D1D8
S11345608A2010BDFFF729FF487B022818BF0328C3
S113457001D0702010BD5C480470082000F05CFF7E
S11345805A4801780B2901D03D2010BD58480AF043
S1134590E0FA08B9A12010BD002010BD53490A78E3
S11345A00B2A01D03D20704747490A68907300F0F8
S11345B0DFBE1FB504466846FFF790FF9DF805006F
S11345C040B1042806DC40490A689DF804101378B9
S11345D08B4201D0932001E02070002004B010BD74
S11345E01FB504466846FFF779FF082202A9204652
S11345F0FDF7EEF81FBD34493E480A68137BC05CE2
S1134600704710B5304C2368588029B9BDE8104074
S11346100822181DFDF723B90822181DFDF7D8F844
S1134620216848884FF6FF72904204D0BDE81040DC
S1134630091D0EF04CBE10BDBDF808004FF6FF7109
S1134640884270471FB50446204890F82810C807D0
S113465007D500F016F8FFF7EFFF02D000F00CF8D2
S113466008B1002006E024B1BDF808006946FFF750
S1134670C8FF012004B010BD0822FF21684600F0E5
S113468005B90A230A22694601200CF0A1BB1A4A83
S1134690107000281EBF19490988002905D04FF45D
S11346A07A704143101D02F0E5BF7047124800784C
S11346B070471148002101710170704742420000A7
S11346C0C0D10320ECF80320E4F8032020F80320F1
S11346D058F8032070D20320E7FF0320ACD1032055
S11346E08CF80320C0F80320D6FF032008D503204C
S11346F0E9440000D02A01004CF80320B6D403207A
S11347006173736F63696174696F6E2E6300000077
S113471004600000FFFFFFFFFFFFFFFF20B5002143
S11347207BA2CBB2D35C834205D0491CCDB2082D09
S1134730F7D3002020BD012020BD000020B50021BA
S113474075A2CBB2D35C834205D0491CCDB2082DEF
S1134750F7D3002020BD012020BD6A4801684888A5
S1134760704768480168081D704766480168C87E3C
S1134770704738B5634C644D216848730228634917
S113478015D12068027B042A1CBF084602F068FF8A
S11347902068007B03281EBF0428284602F060FF1F
S11347A020684169C80054BF9024BC2410E0002054
S11347B00870287012F027FD2068007B032818BFBA
S11347C0042802D10EF095F901E00EF034F9912499
S11347D0204603F01FFE50B92346132248A10320AC
S11347E00CF023FD2046BDE8324000F096BE31BDFA
S11347F044480168487B00F00F0070474148016855
S11348004A7B02F00F02022A01D1012070470020E6
S1134810704738B50446FFF7F1FF3A4D28B92868C8
S1134820417B032901D0932032BD07F0A1FD2081F3
S11348302868C17BA1722868817BE1722046FFF75A
S1134840CFFE0020207304F1140104F110000CF0D9
S113485077FBE081002032BD70B52A4D2E680C46EE
S1134860FFF7CCFF20B9707B032801D0932070BDE3
S1134870F07B20702968887B10F01EFE6070286829
S1134880817B01F01F01A170002070BD10B50023D1
S113489000E05B1CDCB28C4205D210F8014B944260
S11348A0F7D0002010BD012010BD082112F0ADBCCE
S11348B014480168487B01281CBF3128332801D1E2
S11348C0012070470020704710B5044610F05EFFC9
S11348D0010002D10B490A68D47310BD094801686C
S11348E091F90F00704707480168887B70470120E1
S11348F07047044801688A7B500918BF012070473B
S113490042420000E4F803200CFC032004FC0320D2
S11349100001020304051D200203040508090A0B13
S1134920704701207047012070470120704770478D
S1134930B5207047704770470020704700207047CB
S11349400020704700207047002070470020704707
S113495000207047002070470120704701207047F5
S1134960B520704700207047002070470020704732
S113497000207047704700207047002070470020D7
S11349807047842070477047704770477047012014
S11349907047704770477047704701207047002088
S11349A0704700207047034801680878012808BF51
S11349B0022070479CD8032070477047704700203E
S11349C07047002070470020704700207047002087
S11349D070470020704700207047002070477047E0
S11349E0B52070470020704700207047704770471B
S11349F0704770477047B5207047704770477047DD
S1134A0000207047704770474FF6FF72904201468E
S1134A1008D0000A01D0002070473A48027811EA11
S1134A20020000D001207047020A07D1354A1378EA
S1134A30002914BF184323EA00001070704710B512
S1134A40830800EB5374C108E4080122A0EBC400FE
S1134A5002FA00F000EB012080B210BDF8B5044664
S1134A600D4616461F46FFF7CFFF58B13A4631466A
S1134A70202012F029FD1DB11FA1202012F01CFDE1
S1134A8021480480F1BD0CB480B50A4602AB012173
S1134A9004E00CB480B50A4602AB0021FFF7DEFF48
S1134AA001BC5DF80CFB2DE9FC410024174DDFF837
S1134AB0608012A712A6A0B2FFF7C1FFFFF7A4FF00
S1134AC0002814BF304638460090224658F8243057
S1134AD02946202012F0DDFC202012F040FD641C49
S1134AE0052CE8DBBDE8F3810122FF2101E001226E
S1134AF000210448FCF7B3BE0D0A00006E6F0000ED
S1134B0059455300D4D4032058FF0320886403007C
S1134B10B4CA032080B5FFF792FFBDE80440012129
S1134B2082E780B5FFF78BFFBDE8044000217BE7F7
S1134B30F0B50A463F4C3F49B0FBF4F401FB1400C6
S1134B404FF46165B0FBF5F515714FF461611579AA
S1134B504D43411B3C26B1FBF6F656713C21577977
S1134B6011FB0755401B907101234FF4FA6010802C
S1134B709370D37000262E4D03E0002300E0012340
S1134B80761CA64235D29078190003D0022808BFBB
S1134B901D2102D0291811F8011CD778B94203BF8E
S1134BA0401C907001277F1C9078D7700D28E7D1A6
S1134BB013885B1C1380012090709BB25F0803EB89
S1134BC097708008B3EB8001D7D1642093FBF0F099
S1134BD0642101FB10300028D1D14FF4C87093FB3D
S1134BE0F0F04FF4C87101FB10335B1E9B41DB0FE7
S1134BF0C6E7F0BD18B587B0044605A9FFF798FFCE
S1134C009DF81A009DF819109DF817309DF816208C
S1134C100390029104949DF81800BDF814100190BB
S1134C200091054805490088FFF72DFF08B010BD25
S1134C304C6703008051010058FF032028670300DC
S1134C40FFF7D8BEFFF78EBE2DE9F04104460D46AE
S1134C5016469846FFF7D8FE50B1002705E02A5CB7
S1134C6041462046FFF715FF7F1CB8B2B042F6D389
S1134C70BDE8F081002B14BF3FA340A3E4E738B59F
S1134C8004460D462846FCF7AFF80246691C07E0C7
S1134C9038B504460D462846FCF7ABF80246A91C75
S1134CA0204601B0BDE8304035A3CDE718B587B044
S1134CB001783A4C06914278059281780491C27841
S1134CC0039201790291427901923E228179009105
S1134CD0C37920883049FFF7DCFE08B010BD0146D7
S1134CE000220220FFE72DE9F84F8846924600266D
S1134CF025A726A40FF28C09284D8DF800009DF8F5
S1134D0000B05E4515DA28880123082208EBC601A5
S1134D10FFF7B0FF5FEA0A0004D1701C584518BFC2
S1134D204A4600D1224628883946FFF7B2FE761C4F
S1134D30E5E7BDE8F18F2DE9F041184D04462888D8
S1134D40FFF762FEB0B10120002611A70FF244085C
S1134D50E1070AD518B928884146FFF79AFE288842
S1134D60F2B23946FFF795FE0020761C6408F1B2D2
S1134D701B29EDDBBDE8F0812578200025780000B3
S1134D802563000000000000202570000D0A0000CB
S1134D90256400002C2000001864030058FF032041
S1134DA01CB5044621684879FBF708FB88B92068DC
S1134DB0418803290DD0E27C0192009143790A4A8B
S1134DC00A490120FFF75FFE01212046FBF7DBFDC6
S1134DD007E0204612F0E7FB01001CBF2046FBF76A
S1134DE0D2FD012016BD00BFC46403009864030013
S1134DF00098002100E0491C8AB28242FBD370472C
S1134E002DE9F04F044687B02168E07CB1F80290A8
S1134E100490607DD4F80880A689277D002807BF08
S1134E2040228DF80C2080238DF80C304879FBF754
S1134E30C5FA88B90498002818BF02280CD00328A2
S1134E401CBF0528B9F1030F06D0DFF83814012080
S1134E50FFF719FE0121E8E1E07B18B1218A00295E
S1134E6000F03081DFF8203400221A80617D0029AF
S1134E700CBF0821002108B141F004010846FBF7EA
S1134E8024FFE07B10B1208AFBF72EFFA07CDFF823
S1134E90FCB3FBF71AFF049AF51B791C162A88B297
S1134EA008EB070A00F20A81DFE812F01700140188
S1134EB07B0034003F017B00030144010E014901E2
S1134EC04E015301CB006A010801080108017B016E
S1134ED0A4017B01B101CB006A010120FBF7F5FEBF
S1134EE09DF80CA0DFF8A053B8B2801C8642C0F233
S1134EF0A5803246B9B24046FBF754FF834600F022
S1134F00E7F900F0E9FB18B900F0E2F905F061F8FF
S1134F10BF1CE9E70420FBF7D8FE0025ADF80E908E
S1134F201FE09DF80D000290CDF804B05246218A8E
S1134F309DF80C3000912068BDF80E10407904F003
S1134F4060FF834650B15846FBF7BFFE5046FBF75F
S1134F50CBFE6D1CBBF1800F00F072814F44FF1C2F
S1134F60BFB2F01E874280F26B8100F0ACF982463A
S1134F7008F1020008F10302C15D8DF80D1002EB87
S1134F80070BF21BD21E9DF80D0092B2594612F087
S1134F90B9FE5FEA0009C4D14FF0800BD3E7BA49E8
S1134FA008800420FBF791FE4FF0000AADF80E9044
S1134FB0CDF81880D346254605960598FA1C8242FA
S1134FC080F2528182B206983946FBF7EBFE8046A6
S1134FD00698059A811CD21B11F80790C11CCE19A2
S1134FE0D21E92B23146484612F08CFE04000AF1F9
S1134FF001008DF80D0000F02F81CDF80890019686
S11350004246288A9DF80C30BDF80E10009028689E
S1135010407904F0A1FE010007D09DF80DA0FBF734
S113502054FE4046FBF760FE01E00BF1010BE7196B
S1135030FF1CBFB2C1E70020FBF747FEFBF75FFC94
S1135040F6E00C2A0CBF0D201620FBF73EFE00F004
S11350503AF9054608F10200049910F807800C2972
S113506005D1B8F11A0F09DB4FF0190806E015292C
S113507004D1B8F1140FA8BF4FF013088248018877
S11350800BEB01070020FBF720FE04989DF80C3081
S1135090CDF8048015280CBF0120002002902A4678
S11350A0208A009049462468607904F0C5FE38706F
S11350B0C4E72046FFF742FC0028C1D1E07B00286A
S11350C000F0BC808421B0E02046FFF784FC002877
S11350D0B6D1F3E7B9F10A0F22D1DFF8B4B19BF8E6
S11350E00000E8B1E07B002804BFF01B082817D1BA
S11350F000F0E9F8002802BF08F10201C85D0028A9
S113510004BF9AF80300E2280AD13F1D3246B9B21F
S11351104046FBF743FEFFF793FD00208BF80000A9
S113512000F0C5F800F0EBFA7DE000F0C0F8FFF7FE
S113513067FC78E000F0BBF8FFF702FC73E000F0D6
S1135140B6F8FFF74AFC6EE000F0B1F800F0D9FAC7
S113515069E089B29AF8007018F80150208A9DF825
S11351600C10019000912B46246860793A46494618
S1135170FBF7BBFE2A4639464846FFF7E3FB57E0F8
S11351809AF8001001B10121162A0CBF0122002255
S11351900092361A08EB0002B3B24846FFF7D4FB7C
S11351A041E09AF800809AF80170112A04D1122083
S11351B0FBF78BFD002003E01420FBF786FD0120A4
S11351C0314D298803970E46CDF80880C1F151016D
S11351D0019589B200914A460BEB06014B1C21460E
S11351E0FCF77DFA00B101200BF806002888401C6A
S11351F0288023E700F04EF81EDB00F05CF8002066
S1135200FFF7F6FD00F04CF8FFF7A2FB0BE000F00F
S113521041F811DB00F04FF80120FFF7E9FD00F041
S11352203FF8FFF793FB18B900212046FBF7ABFBCF
S1135230012007B0BDE8F08F0020FAE78221F4E7EF
S1135240EDB2BDF80E90002DD3D1E07B277D002870
S113525014BF04200220A2E69DF80DA08720FBF7CE
S113526034FD4046FBF740FD04980528E0D0BAF130
S1135270000FBED15FFA8BF000287FF4DCAE8021F2
S11352802846D3E7CC64030054FF032048D8032006
S113529088FF03209AF8007007B1012786427047FF
S11352A0B6B200964346218A3A4648467047AAB2A7
S11352B05146484670478044361AB0B2009043467F
S11352C03A4649467047324639464046FBF76ABD7E
S11352D02888C0F1520080B201905346218A00917F
S11352E05A46D4F800C09CF805004946704700208F
S11352F00021704738B57848784C006820606060B9
S113530048220021FCF7ABFA754A2168107808702E
S11353104FF6FF71206800224180027323685A739C
S11353200B222068827314232268D3734FF6FE7312
S113533020680382418212F021FD2168087612F070
S11353401DFD2168487612F019FD2168654B8876A9
S1135350654821680278CA76644920680A6840F87A
S1135360282F1D780571624822680168116331BDD8
S113537010B510F0F8F9594C6168897B884203D064
S1135380084610F0F5F850B910F0F1F9616891F998
S11353900F10884205D0084610F0F8F908B1012032
S11353A010BD6068008A10F020FE6068408A10F02A
S11353B03AFE6068017B01290CBF0120002010F037
S11353C001FE002010BD10B54A4C0020207009F0E9
S11353D03EFF20B92046BDE8104002F041B970E01C
S11353E080B5002000F015F828B1002000F005F881
S11353F008B1002002BDFF2002BD38480168487B87
S113540002281CBF1128432801D101207047002025
S1135410704732480168087B01281CBF0228032812
S113542001D1012070470020704700207047002000
S11354307047314908707047704700207047012059
S113544070477047002070470020704770477047CE
S11354500020704780B50020FFF7CFFF20B1002067
S1135460FFF7D7FF00B1012002BD80B50020FFF790
S1135470C4FF08B1002002BDFF2002BD80B500209A
S1135480FFF7BBFF30B1154801680A7B032A01DA34
S1135490002002BDFF2002BD10B5040000F005800D
S11354A040F27D1151A002F061FA1349087808B95D
S11354B0702010BD0849094B0A684820444310195C
S11354C05860BDE8104053E704484168088A7047B3
S11354D002484168488A7047E4D10320E4F8032075
S11354E0F9D40320ECD40320FAD40320E8D1032018
S11354F0ECD10320D4F803200BD5032070470020FF
S113550070470020704709F05CBC7047002818BF42
S113551012F058BC704701F0EDBF01F099BE82B0A3
S11355208DF80010DDE9002311461A4602B0FDF79C
S1135530ECBD33B585B005468DF80420FFF7EEF8D1
S113554004462846FFF7FAF87CB10028BDF8180095
S11355500FD1FFF7CEF98DF80000FF2804BF00211A
S11355608DF80010CDF808D016E0A8B106A8029076
S113557012E0FFF7BEF98DF80000FF2804BF0021F8
S11355808DF800109DF80000BDF818108DF80C007F
S113559003AAADF80E100292DDE901010A460146A4
S11355A02846FDF7B2FD07B030BD000073B582B0E8
S11355B004461546FFF7B2F806462046FFF7BEF844
S11355C02EB120B903A98DF80050019105E04FF4E4
S11355D0057100BF05A002F0C9F9DDE900010A4622
S11355E001462046FDF791FD7FBD0000656D6265B3
S11355F0722D6D756C74692D6E6574776F726B2D79
S1135600737475622E63000062B38B0708D0521E58
S113561011F8013B00F8013B00F024808B07F6D120
S1135620830740F0208000BF103A07D330B4B1E8BC
S11356303810103AA0E83810F9D230BC530724BF10
S1135640B1E80810A0E8081044BF51F8043B40F842
S1135650043BD20724BF31F8022B20F8022B44BFAD
S11356600B7803707047121F17D35B0009D151F8F0
S1135670043B20F8023B1B0C121F20F8023BF6D21D
S11356800BE051F8043B00F8013B1B0A20F8023BF5
S11356901B0C121F00F8013BF3D238BF121D521E1F
S11356A024BF11F8013B00F8013BF8D8704780B5DE
S11356B002F0DDFDBDE80140FAF7BEBE80B502F0A0
S11356C0D5FDFAF7E5FEBDE80140FDF7F5BC7047EE
S11356D0FFF779B902F00ABE3EB5069D079C019416
S11356E00095FDF78AF83EBD38B504460D46FFF730
S11356F089F929462046BDE8344012F064BCFFF71E
S113570068B902F0C1BD8268521C8260426832B13D
S11357100268531C036011704168491E4160704760
S1135720DFF8EC14012008707047DFF8E4140A78FD
S113573082421CBF0870FDF7A2BC70470170090AC1
S11357404170801C704710B504460822FCF740F8ED
S113575004F1080010BD2DE9FF4104460F46207DE9
S11357600A9E810720781D464CBF4CF601484CF632
S11357700108002833880CBF1E21202103EB010CF3
S1135780624508DA009202200A46DFF88814FFF71F
S113579080F9742045E008B948F0200801A801F018
S11357A00FFE41463846FFF7C9FFA189401CFFF7A9
S11357B0C5FF217D8A0703D5611CFFF7C4FF02E002
S11357C06189FFF7BBFF804601F032FC0146404689
S11357D0FFF7B4FF01A9FFF7B6FF0B21FFF7AEFFF8
S11357E0217841F0030100F8011B22780C2A04BF40
S11357F0618AFFF7A3FF218AFFF7A0FFE189FFF782
S11358009DFF328880462946FBF7E2FF207DC107D1
S113581048BFB72005D431880B984144CF1B07807B
S1135820002004B0BDE8F081F8B504460E461546E4
S1135830162200212846FCF712F86178227802EB40
S113584001214FF6DF7001404CF6014399421AD111
S113585004F10D00871C41780278A88A02EB01222A
S113586040F00200AA81A88208223946681CFBF78E
S1135870AFFF07F108003278011BC9B2511ACAB24E
S1135880072A06DA45E04CF60100814241D1E01DC9
S1135890E0E74278037803EB02230B2B39D18378BA
S11358A0DFF874238E1EC11C23F02C000328F6B2EB
S11358B018BFDFF8681329D113F00C0018BF0828AB
S11358C0287002D00C2803D01EE0052E08DA20E050
S11358D0072E1EDB487811F8026B06EB00266E8259
S11358E048780E7806EB0026881C2E8241780678CC
S11358F006EB01269906EE810DD5A88AC84940F029
S11359000100A882B52301E00346C6490220FFF73F
S1135910BAF80020F2BD801C041BE0B2F2BD71B5E0
S11359208BB00E4602AA0BA93046FFF77DFF040098
S11359307DD002A800F0D5F89DF82C502D1B3444DE
S11359402246E9B202A8FFF72AF880B92246E9B252
S113595002A803F0A6FF50B9BDF816004CF25E0190
S1135960884204BFBDF81800B0F5805F01D1012062
S113597051E02246E9B202A800F05BF8002856D0B4
S11359809DF81C0081070DD54FF6FF70ADF812008D
S11359900822A5490DF10900FBF768FF411E894162
S11359A0C90F07E001F042FBBDF8121088420CBF9A
S11359B001210021BDF81600BDF81820ADF8200023
S11359C0ADF822200123994802789DF81C008DF837
S11359D025208DF82430C2074CBF20200020ADF8CC
S11359E026000023BDF81A209DF80800ADF82820F1
S11359F08DF82A3020B108280FD00C2812D016E0D8
S1135A000021BDF81220009202A80190EBB22246B8
S1135A1008A8FAF753FE0CB070BD00290CBF04218E
S1135A200521EEE700290CBF02210321E9E700204C
S1135A30F1E7FEB50025144602290346764A07DC41
S1135A400323009302200B467949FFF71CF846E034
S1135A50187DC60743D42678B00703D5754900F0EE
S1135A6091F83CE016F0040018BF0825F70758BF6A
S1135A7045F0040536074CBF02260126354338B1EC
S1135A80042903DC6C4900F07DF828E0217900E06A
S1135A90A178D889002401E0641CE4B20627674E8B
S1135AA017FB04F73E444FF6FF7C378867450ED05A
S1135AB0874202BF7788B3F810C0674504BF3779BF
S1135AC08F42E9D176792E42E6D00120FEBD0191C4
S1135AD0198A009103465A490220FEF7D4FF002098
S1135AE0FEBD38B5044657490220FEF7D2FF2078A0
S1135AF008B945A106E0082808BF534902D00C287C
S1135B0003D152490220FEF7C4FF514900F037F88F
S1135B10A289504900F036F8207D81073BA509D5BC
S1135B204D490220FEF7B5FF601CFFF7BFF800F0F7
S1135B3025F803E06289494900F024F8E2894849DC
S1135B4000F020F8228A47490220FEF7A2FF022033
S1135B50FEF75AFF28B1FAF7E2FC0146208AFAF769
S1135B60C3FC00F00BF820780C2806D1628A3E4969
S1135B70BDE838400220FEF786BF31BD2946022029
S1135B80FEF781BF0220FEF77EBF33B5A3B00178D4
S1135B901F4B1446002919780CBF1E22202209B974
S1135BA070202CE0BDF8901089187E2929DA24ABE6
S1135BB0009302AD019523467D2203A9FFF7CBFD97
S1135BC0010005D1BDF8080003A9C0B2FDF73CFAF5
S1135BD0010014D1FFF736F8BDF89030234902468E
S1135BE00220FEF756FFBDF8902001232146022033
S1135BF0FFF740F800221E49FFF7C4FF002025B03C
S1135C0030BD7420FBE70000756E690000000000E1
S1135C10A0FF0320A8760300F8760300D8760300DB
S1135C202477030008770300ECF8032064D70320EB
S1135C30447703006477030084770300A8780300A3
S1135C409C770300D8770300F0770300F87703000C
S1135C5000780300087803001C7803002C78030004
S1135C6044780300587803007078030084780300B4
S1135C70A078030001E0000000BF0021017070471C
S1135C8010B50020DFF8E418FF22002441F830406A
S1135C9001EBC003401C0A281A71F7DB10BD2DE983
S1135CA0FC4F82468FB0FF27BDF840008DF811707D
S1135CB002288B4605DD1A9E31784B0707D5042848
S1135CC003DC012011B0BDE8F08F307900E0B0783A
S1135CD0DFF898888DF80800002108F10403C8B2A1
S1135CE013F83040FF2C00F0B280491CC8B20A28D7
S1135CF0F5DBDDF878905FEA090003D0FF2F08BFD9
S1135D00B420DFD000208DF8120014460AAA2079AE
S1135D100DF11201FEF72CFE58B1BDF834002080BD
S1135D209DF81200FBF7B9FD00288DF810003DD155
S1135D3013E02079FBF7D1FB0546FF2D08BFA32014
S1135D40C0D02079FBF7AEFD8DF8100070BBDFF8F2
S1135D50201801EB051042882280BAF1000F0CBF15
S1135D6058464FF6FF700190002160881B9D0090FB
S1135D702A4623889DF80800FAF707FE18B1E08840
S1135D8040F02000E080CDF8149006940796ADF81A
S1135D9020B08DF824A08DF8255004A9BDF840004A
S1135DA0ADF8220005A8FEF712FE10B19DF8100010
S1135DB088E73046FAF746FDA01DFAF730FD224683
S1135DC059465046FAF704FEBDF84010884224D3E1
S1135DD01D981C99BDF84030039002910DF11100FB
S1135DE001900096DBB222465946504601F0A2FAD1
S1135DF08DF810005FEA090013D09DF8100080B9F7
S1135E009DF81100FF281CD00A2F1ADA08F10401AA
S1135E1001F8370048F8379013E074208DF810002B
