S00F00006E6F6465746573742E7333377F
S31500004000306201208DCE0100BDAA000001CD010065
S31500004010A70A0A010042000004180FACA067A70116
S31500004020000000000000000000000000000000008A
S315000040300000000060E90100000000000000000030
S315000040400000000000000000FFFFFFFFFFFFFFFF72
S31500004050FFFFFFFF00400F0000000000000000000F
S31500004060FFFFFFFFFFFFFFFF8000000000000000D2
S31500004070000000000000000000000000000000003A
S315000040800000000000000000747D0120747D012006
S31500004090306201200E150200A6CE0100D058012084
S311000040A05411002000E00F00000000009A
S31500004200306201208DCE0100BDAA000001CD010063
S315000042102DED000005CD010009CD010000000000D4
S31500004220000000000000000000000000AB56000087
S315000042300DCD0100735600009B5B00005B9E0000E5
S31500004240FDCD0100FDCD0100FDCD0100FDCD01003C
S31500004250FDCD010079EE0000C5020100FDCD010093
S31500004260FDCD0100FDCD01009D520100FDCD0100F7
S31500004270FDCD010011A20000FDCD0100FDCD010024
S31500004280FDCD0100FDCD0100FDCD0100A3A900007B
S31500004290FDCD0100434A0100FDCD0100FDCD010029
S315000042A0FDCD0100D54C0100C54C0100FDCD01003E
S315000042B0FDCD0100FDCD0100FDCD010073770100AC
S315000042C02F7701002D770100DD7101007177010064
S315000042D0317701003577010033770100BBAA000072
S315000042E0A5770100FDCD0100FDCD01009D5B00001D
S315000042F0FDCD0100FDCD0100FDCD0100FFB20000A6
S31500004300FDCD0100FDCD0100FDCD0100FDCD01007B
S31500004310FDCD0100FDCD0100FDCD0100FDCD01006B
S31500004320FDCD0100FDCD0100FDCD0100FDCD01005B
S31500004330FDCD0100102510B5494A494C4A4B1B6872
S31500004340234207D103408B420DD0521EF6D16FF0A7
S31500004350020010BD4548034202D06FF0010C201642
S315000043604FF0FF3010BD002010BD70B5404D6860A5
S31500004370E8680E46410702D518200870BD56F804B5
S315000043800B141F02E008101D241FA86044B1082169
S315000043900820FFF7CFFF0100F4D00421296070BD8B
S315000043A0042028600021211612C4162304D10C1003
S315000043B005BDE87040BCE77054301341F671312AF0
S315000043C04C01222A4BE568E1621A606060022626EB
S315000043D030300B2D0CFFF7ABFF05F0010501000394
S315000043E036201CFFF7A3FF0121204A11600DB10002
S315000043F021E16270BD2DE9F843184F3D68894614E6
S31500004400464A200A80462D0C39620122164B0020AE
S315000044103A100B1A6009E0324649464046FFF79FBC
S315000044207E501F0DD1B044B144A41B4CB108F50019
S3150000443056760B7603A6EB0806B442ECD22646EA7D
S31500004440E70121095C10133962BDE8F283000080A0
S31500004450969800060001001C00034002081210088E
S31500004460130C1004000120034000000070470000F8
S315000044702DE9F0470646DFF82848207822A10027D4
S3150000448000F04CFEADA50FF250590FF25C5ADFF862
S31500004490148812E0294600F041FE0CE09368126889
S315000044A0494600F03BFE306800F0A6FAF2D00FF263
S315000044B0305100F033FE7F1CBFB2306800EB0712AC
S315000044C02078516849B14145E8D15169002918BFA2
S315000044D04145F0D012685146EBE700BF29A100F034
S315000044E01DFE207831A100F019FE20783BA100F0D6
S315000044F015FE207844A100F011FE29462078BDE87B
S31500004500F04700F00BBE0000434F4D4D414E442096
S315000045105B504152414D45544552535D205B2D2021
S315000045204445534352495054494F4E5D0D0A20208D
S3150000453077686572653A20623D6275666665722CBB
S315000045402073313D696E74385F742C2073323D6977
S315000045506E7431365F742C2075313D75696E743812
S315000045605F742C2075323D75696E7431365F742C1C
S315000045702075343D75696E7433325F740D0A0D0A09
S315000045800000000020202120202D20526563616C50
S315000045906C73207468652070726576696F75732018
S315000045A0636F6D6D616E640D0A00000020205B7400
S315000045B061625D202D20417474656D707473207482
S315000045C06F2074616220636F6D706C657465206323
S315000045D06F6D6D616E640D0A0000000020202020C2
S315000045E02A2A204E4F54453A20616C6C20696E7021
S315000045F075742076616C7565732061726520696ECD
S3150000460020686578210D0A00202020202A2A2043D0
S315000046106F6D6D616E647320617265204E4F54201C
S31500004620636173652073656E7369746976650D0AD7
S3150000463000000000A0F141011A293CBF2030C0B2A1
S31500004640704700002DE9F84F8046D8F80800DFF8DB
S3150000465058160A68006800240025C3B212F80390B1
S31500004660DFF83C66B9F1200F07DD30785FF02002F5
S3150000467033A1BDE8F84F00F051BDC0B200F06EFDA9
S315000046808246A34607E01AF80B00FFF7D3FF0AF8A5
S315000046900B000BF1010BCB45F5DB4A4639A1504621
S315000046A000F0D5FF38B9012505E030784FEA07025A
S315000046B036A100F033FDD8F800202101101D405826
S315000046C0002839D0641CDFF8DCB5A4B25845F2D115
S315000046D05758002DE9D1384600F0CCFF4845EAD1BD
S315000046E04A465146384600F0A7FF0028E3D1404627
S315000046F025460FF2D8280FF2E8290FF2980A044649
S3150000470021682F01081DC059B0B1584514D0C819E9
S31500004710836802683078514600F000FD2068C019B1
S31500004720C268307812B900F07FFB02E0494600F01B
S31500004730F5FC6D1CADB2E3E7BDE8F18F0D0A000094
S315000047404572726F723A206C697374206172677574
S315000047506D656E7420746F6F206C6F6E672C20779A
S3150000476065206F6E6C7920737570706F727420752A
S315000047707020746F2025752062797465732E0D0A7A
S31500004780000000006D6F64756C65730025700D0A7E
S3150000479000000000257020257000000070B588B06C
S315000047A00446A068016801B10121DFF800552970AF
S315000047B0406800B10120DFF8F864307015A001F000
S315000047C077F9A068C16801B10121DFF8E82411700A
S315000047D0006900B10120DFF8E0140870127808784B
S315000047E016A30592CDF8103016A1327817A30790BC
S315000047F006910093012076A12B78039002910192F5
S315000048000FF2500204F1110114A001F051F908B0A1
S3150000481070BD00005475726E696E67206F66662003
S3150000482074616773206E6F74207965742073757078
S31500004830706F727465640D0A0000000064656C692F
S315000048406D0000007465787400000000636F6D6D84
S31500004850616E640068656164657200007B264E20A7
S31500004860566572626F73697479206F7074696F6EC2
S31500004870732073657420746F3A0D0A2674750D0AD9
S315000048802674750D0A2674750D0A2674750D0A268A
S3150000489074757D0D0A000000007CDFF80434DFF833
S315000048A01C1451F82020187801A100F037BC000034
S315000048B04349204572726F723A2025700D0A000036
S315000048C038B5DFF8DC43207840A5294600F026FC01
S315000048D094F800000CA100F021FC2078294600F095
S315000048E01DFC207811A100F019FC207839A100F0F8
S315000048F015FC207810A100F011FC207811A1BDE86C
S31500004900344000F00BBC0000456D626572204E6FAE
S3150000491064652054657374204170706C69636174BA
S31500004920696F6E2076312E300000000041756720D9
S31500004930313820323032310031333A33363A333778
S31500004940000000000D0A0D0A000000002DE9F24FDC
S31500004950054692462E6B002712E01CA100F0DEFBF6
S315000049600BE08B681CA1CE4C00F0D8FB286800F049
S3150000497043F8F2D01AA100F0D1FB7F1CBFB210366B
S31500004980706808B3D6F80080DDF8009000240BE0CC
S3150000499019F8010BFFF74EFE834618F8010BFFF7D7
S315000049A049FE8345E9D1641CA0B25045F0D328687E
S315000049B0BB4B00EB07111878BA4B4C680A689C424F
S315000049C0CFD100BF08A1D6E7BDE8F18F0D0A0000E0
S315000049D0746167002C2000002020257020257000BF
S315000049E0202D2025700D0A002D2D2D2D202570201F
S315000049F02D2D2D2D0D0A000000EB0710C268207822
S31500004A00002A70472DE9F043ADF5017D0DF1040054
S31500004A10ABA14FF4807201F07DF84FF000098DF8DC
S31500004A200190A52001F0E4F801F032F900F0EDF96B
S31500004A30002001F063FA804628B100F0E1F9002079
S31500004A4001F05CFA804600F0E0F9012001F056FA28
S31500004A50070005D000F0D4F9012001F04FFA07460F
S31500004A6000F0D3F9022001F049FA060005D000F063
S31500004A70C7F9022001F042FA064601F0D5FA884D40
S31500004A80B8F1000F0AD0002F6ED0002E00F0718012
S31500004A904FF40171CAA001F0CDFA03E0002F18BF50
S31500004AA0002E62D085F80090281D01F0F8FB281D25
S31500004AB0FFF706FF95F80000C5A600F0B1F92878C3
S31500004AC00FF2843173A700F029FB287839460FF2DC
S31500004AD0083800F023FB281D01F078FF28783146BE
S31500004AE041AC00F01BFB28780FF2683100F016FB92
S31500004AF000F09DF9281D03F095FD00F090F9287847
S31500004B000FF25C3100F00AFB00F091F9281D03F06A
S31500004B10A7FD00F084F928780FF2503100F0FEFA74
S31500004B2000F085F9281D03F0BDFD00F078F928781E
S31500004B300FF2443100F0F2FA00F079F9281D03F083
S31500004B40C6FD2878314654A600F0E8FA95F800002C
S31500004B50A3A100F0E3FA2878394650A700F0DEFA60
S31500004B60281D04F03BFD91E0002E64D00120287042
S31500004B709AE70221297097E728780DF10103FF22B1
S31500004B8041A901F00EFA002846D001F02EF801F0F6
S31500004B9070F904F065F99DF8010010B341A90844C5
S31500004BA010F8011C09291CD100F041F99DF80100FB
S31500004BB0411E8DF801109DF8012041A9281DFFF71F
S31500004BC0C5FE9DF801100020605400F02CF900206D
S31500004BD004E000F01FF99DF80000401C00F008F901
S31500004BE0F7D39DF804012128C6D100F020F94A46E2
S31500004BF001A941A800F0D2FCA9F101008DF801003D
S31500004C0000F011F9002000F0F3F8B5D200F002F937
S31500004C109DF80000401CF6E700218DF800109DF875
S31500004C200020A05C511C0A2818BF0D2818BF0028B8
S31500004C30F3D116E02E702878FF289CD1002669460D
S31500004C40F0B201F0A9F938B99DF800000D2818BF97
S31500004C500A2818BF2A28EDD0761CF1B20329EEDB0C
S31500004C60E9E70D20A0548DF800109DF8002041A919
S31500004C70281D01F021FB9DF8002041A901A800F0A4
S31500004C808DFC00219DF800908DF8011000F0CBF806
S31500004C9072E700005D0D0A00256300000D0A0000A2
S31500004CA0746301206D44000028640120EE67012032
S31500004CB0EF670120F0670120F16701204C650120B4
S31500004CC00D000000000000000000000000000000D1
S31500004CD000000000000000000000000000000000CE
S31500004CE000000000000000000000000000000000BE
S31500004CF000000000000000000000000000000000AE
S31500004D00000000000000000000000000000000009D
S31500004D10000000000000000000000000000000008D
S31500004D20000000000000000000000000000000007D
S31500004D30000000000000000000000000000000006D
S31500004D40000000000000000000000000000000005D
S31500004D50000000000000000000000000000000004D
S31500004D60000000000000000000000000000000003D
S31500004D70000000000000000000000000000000002D
S31500004D80000000000000000000000000000000001D
S31500004D90000000000000000000000000000000000D
S31500004DA000000000000000000000000000000000FD
S31500004DB000000000000000000000000000000000ED
S31500004DC0706C6174666F726D746573742E63000027
S31500004DD05B494E49542000000D0A3E2000000000A9
S31500004DE073657450657254657374547800000000DE
S31500004DF08DF800009DF800009DF80110884270476C
S31500004E00012300224FF416417047012300224FF47C
S31500004E10E1317047225C2878314600F07FB9287866
S31500004E20314600F07BB92878414600F077B92878FA
S31500004E30394600F073B980B504F04AFD0020BDE89C
S31500004E400240DFE500207047696E6974546F6B6538
S31500004E506E7300006372617368696E666F000000AE
S31500004E607265736574737472696E6700696E6974CE
S31500004E70526164696F00000073656564506E726705
S31500004E800000000070B513461044DCB264B101F0B6
S31500004E900F060909451E0A2E2846ACBF37243024C2
S31500004EA0A4192C705B1EF0E7104470BDF0B500230A
S31500004EB041B1002806D52D2313700123B0F1004F10
S31500004EC018BF4042002100249BA5002601E0C01B1C
S31500004ED0761C55F82470B842F9D2F7B20FB90F0014
S31500004EE004D03036D9B256545B1C0121641C092CFF
S31500004EF0EBDB3030D9B250545B1CD8B2F0BD2DE993
S31500004F00F84F824696B04FF0000914A88846174617
S31500004F101D4604ACCB46019014E04FF0010B07464A
S31500004F2000E00446019884420BD39DF8002004A9B2
S31500004F304046A41AE2B2D047002862D159FA84F951
S31500004F4004AC7F1C04A88DF800009DF80000397899
S31500004F50201A00290FD0252905D05FEA0B0208BFC9
S31500004F6004F8011BDED05FEA0B0114BF4FF0000B03
S31500004F707F1C39780A0000F0A980B1F1250216D00D
S31500004F800B3A092A40F28280283A77D00A3A12D0A0
S31500004F90521E3CD0521E59D0083A57D0121F39D053
S31500004FA0D21E37D0921E51D0D21E67D0BAE7252026
S31500004FB004F8010BB6E729686A68204608350391AC
S31500004FC002920024029A9442ABD203990222095D0E
S31500004FD0FFF758FF0199884206D300F085F80028AC
S31500004FE00FD159FA86F904A80299491E8C423CBF92
S31500004FF0202200F8012B0199884206D300F074F8AC
S3150000500000286DD159FA86F904A8641CDAE755F828
S31500005010040BCDE7044655F8046BE2B204A94046FA
S31500005020D04700285CD159FA84F9314604AC0646CB
S3150000503000E0761CF0B2085C0028FAD1F2B24046D5
S31500005040D04700284CD159FA86F96BE76C290AD16A
S315000050507A7855F8040B752A0EBF00210121642ABF
S3150000506007D17F1C05E0752955F8040B0CBF0021FC
S3150000507001212246FFF71AFF241853E755F8041BAF
S3150000508002222046C9B2FFF7FDFE4AE778784FF0C4
S31500005090010B782818BF5828EFD17F1C781E4FF0D7
S315000050A0000B322905D155F8040B042281B22046A3
S315000050B0E9E734297FF431AF55F8046B0422204622
S315000050C0310CFFF7DFFE0422B1B2DCE70546EAB297
S315000050D004A94046D04718B9A9445FFA89F000E010
S315000050E0002017B0BDE8F08F9DF8002004A9861AAD
S315000050F0F2B24046504708A110E00CB438B5044659
S3150000510004AA00F013F8054603A1204600F006F8AD
S31500005110284632BC5DF80CFB0D0A00000CB480B5C5
S3150000512002AA00F003F802BC5DF80CFB80B505F09E
S31500005130D5FAC0B202BD000000CA9A3B00E1F505EF
S315000051408096980040420F00A086010010270000BC
S31500005150E8030000640000000A000000DFF80C14F9
S315000051600A6802EB40107047DFF8042413681954EC
S3150000517070472DE9F0415FEA000831D005F0CDFB1C
S31500005180DFF8F0231678FF23DFF8EC13DFF8EC5393
S31500005190FE2E19D100271770DFF8E4633478DFF8A4
S315000051A0E4C32C7007E07C1C0EF80740DCF800E036
S315000051B00EF80730E7B23478D1F800E0A742F2DB08
S315000051C00EEB040606F8013C2E7846450AD205F099
S315000051D0AAFB052005F0B2FB00211B2005F030FCE0
S315000051E0FF2020E0A6EB08062E701578DFF89863FE
S315000051F01778D6F800E00124A8F101080EF8074058
S31500005200D1F800C01CF8074014705FFA88F4002C2F
S31500005210EED10CF80730DFF85823136800215955F2
S3150000522005F081FB2846BDE8F081F8B5044600F09C
S3150000523031F8054605F071FBDFF83833DFF83C73CB
S31500005240DFF834C3DFF840E301E02C46FF25FF2CEE
S315000052501CD022460FE0DCF800100026895CA6541C
S315000052603C78641C3C701C78DCF80060FF29B45460
S315000052701A70EAD00A46DEF800108C5C661E8E5460
S31500005280DEF80040A15C11F07F0FE4D0BDE8F240EB
S3150000529005F049BB10B5DFF8F0120A68145C210668
S315000052A005D5DFF8C82213684001185C10BDFF2041
S315000052B010BD7CB504460D4605F11F000004400DE7
S315000052C0C0B2FFF756FF0646FF280CD000F07AF86A
S315000052D08D553CB1012000902B46002231462046D8
S315000052E000F002F8304676BDF3B5054681B01746A4
S315000052F000F068F89DF808201E46F4198B5CA3425E
S3150000530003DA4FF4B77100F0E3F830000CD0089CD4
S31500005310394602A800F0E0F89DF80810024600940D
S315000053203346284600F001F8F7BD2DE9F0478046E0
S31500005330894614461F46089DDFF83C62DFF82CA21A
S315000053400DE02900224612BF41460146404600F0C4
S3150000535025F930683F1BA04410F809900024F8B2E4
S3150000536070B1DAF80000214600EB4913581851FADB
S3150000537087F12029B2BFFCB2C4F12004E4B2E0E711
S31500005380BDE8F0872DE9FC410746884600F01AF88B
S3150000539015461E46CC5D2919CBB2A34206DB280072
S315000053A00DD0C9B2384600F05FF808B1182007E002
S315000053B000962B46224639464046FFF795FF0020C9
S315000053C0BDE8F681DFF8A801016870470123D9E737
S315000053D00A4600E0521C1378002BFBD1521A012317
S315000053E0D2B2CFE72DE9F041804601F11F0402F168
S315000053F01F00E404C004240E000E04B9012400B901
S31500005400012084422AD0DFF8705119DA001BC0B29D
S31500005410FFF7AFFEFF28074608BF00201FD0641E17
S3150000542000F01FF82E68305CFF2804D000F019F851
S31500005430305CFFF7FAFE00F014F829680F540DE00F
S315000054408A420BD2411EC9B200F00CF80446286805
S31500005450005DFFF7EAFE2968FF2008550120BDE838
S31500005460F081E1B2404610E070B5DFF804613368C0
S3150000547005460C46595D2246FFF7B4FF18B1306861
S315000054804455002070BD182070BD04E0DFF8E82008
S315000054901368491E185CCAB2002AF7D1704731B5A5
S315000054A00C46DFF8CC100A68155CAC4203D340F218
S315000054B0052100F00DF82146684600F00DF8DFF8EA
S315000054C0AC100A689DF8003002EB4311084432BD67
S315000054D00FF2B80000F0AEBD38B504460D46207890
S315000054E0C904090EFFF7D1FF207005F01F0032BD79
S315000054F080B5FFF7D4FF007802BD10B51446FFF75C
S31500005500CEFF047010BDFDB5089C0D461E4620005A
S315000055101BD1F7BD154B1B689DF80400C2F1200294
S31500005520D2B203EB4010BA42B8BF174681199DF8B4
S3150000553000003A46E41B03EB4013BE19581900F06D
S315000055402DF87D19A0B200B9F7BDA9B26846FFF7DC
S31500005550C3FF0546B1B201A8FFF7BEFF0646B54236
S31500005560A7B2B4BF32462A46D4E70000246401201D
S3150000557028640120FC67012030640120F8670120BF
S31500005580F7670120346401202C6401207061636B8D
S3150000559065742D6275666665722E630070B581420C
S315000055A024D210441144401E491E10E011F801395E
S315000055B0121F00F8013911F8014900F8014911F8E4
S315000055C0015900F8015911F8016900F8016993B20F
S315000055D0042BEBDA93B2002B1EBF11F8013900F849
S315000055E00139521EF6D170BD00F00DF893B2042BAE
S315000055F0FADA93B2002B1EBF11F8013B00F8013B0B
S31500005600521EF6D170BD11F8013B121F00F8013B86
S3150000561011F8014B00F8014B11F8015B00F8015B32
S3150000562011F8016B00F8016B7047130003D00A46AE
S31500005630194605F00FBA704710B5034600E0521E32
S3150000564090B218B100F00FF8F9D0001B10BD10B5DC
S31500005650034600E0521E90B220B100F004F8F9D0E3
S31500005660001B40B210BD13F8010B11F8014BA0420C
S315000056707047704700F10103810704D010F8011B41
S31500005680820781B1FAD10268A2F10131914311F08A
S31500005690803104BF50F8042FF6E709BAB1FA81F158
S315000056A000EBD100401CC01A7047FEE738B504462F
S315000056B0206A651D2368451B2079EAB2611D98475B
S315000056C008B1002032BD94F82900611D21622D1811
S315000056D084F82950012032BD38B50446002500E083
S315000056E06D1CE8B2085C0028FAD120792368EAB27A
S315000056F0984710B994F82900E9E7002032BD2DE952
S31500005700FF4B07460C46781D386207F11501796292
S315000057100020904687F82900DFF8C85314E02AB124
S31500005720791D396201E01100F9D104461EB1396ACA
S315000057307D2000F0A6F9386A796A884203D300F022
S3150000574095F9002867D0641C2178002900F06A8149
S315000057502529687818BF26290ED07B291CBF7D29EC
S31500005760232907D10028E6D03A6A521C3A6202F889
S31500005770011DE0E7A878F5E714F8013F252B18BFCF
S31500005780262B05D1396A491C396201F8013DD2E759
S3150000579026290AD148B101266E2B18BF4E2B10D0F0
S315000057A0396A7B2000F06DF900E00026217800229E
S315000057B04E2906D0542923D06E2902D074291FD031
S315000057C031E0287858F804BB0028B4D036B1386ADE
S315000057D07B210170821C3A622823437000F046F94F
S315000057E0002818D000F035F9002814D0002EA2D0D9
S315000057F0386A29210170821C3A627D2343709AE738
S3150000580000F032F9002806D000F023F9002802D073
S3150000581000F02CF9002800F08180396A3A20012234
S3150000582000F02FF9641C207894F801E0A0F1300311
S31500005830DBB2981E052835D2BEF1640F18BFBEF143
S31500005840750F2FD158F8040B01214FF0000C80B2D0
S315000058508146BEF1640F06D15FEA004E03D5C04310
S31500005860401C8C4680B248B14FF00A0E90FBFEF009
S315000058700CF1010C80B20028F6D10BE00CF1010C02
S3150000588008E0D7F820E020200EF1010EC7F820E04E
S315000058900EF8010D604600F1010CC0B29842F0DB33
S315000058A0641C00E0002194F800C0601EBCF1000FEB
S315000058B03FF439AFBCF1320F18BFBCF1340F00F022
S315000058C08D80BCF1480F0AD0BCF1580F16D0BCF140
S315000058D0630F15D0BCF1640F24D0BCF1680F72D0F1
S315000058E0BCF16C0F50D0BCF1700F18BFBCF1730F38
S315000058F00DD0BCF1750F15D0BCF1780F65D00EE751
S31500005900386A411C396258F8041B01700EE700F032
S31500005910ABF818B100F09DF80028F7D1002004B0CC
S31500005920BDE8F08B002912BF1FFA89F058F8040B66
S3150000593080B220B9396A302000F0A3F8F6E60023D9
S31500005940BCF1640F0ED101040CD53A6A2D21521C0C
S315000059503A6202F8011DB0F5004F03D0404280B212
S31500005960002867D04FF00A0C90FBFCFC0A2101FBD3
S315000059701C00D9B25B1C0DF801001FFA8CF0EFE792
S31500005980D8B200F075F855E058F8040B0028D1D0CD
S31500005990002200280BD5396A2D23491C396201F8EB
S315000059A0013DB0F1004F02D04042002848D00A2302
S315000059B0B0FBF3F30A2101FB1300D1B2521C0DF820
S315000059C001001846F1E700F047F858F8041B0222D8
S315000059D0386AC9B2FFF756FA3862A7E614F8010F1B
S315000059E0682818BF48280BD100F036F814F8011CB7
S315000059F0386A32290AD158F8041B042289B2E9E729
S31500005A00782818BF5828F1D0641E8FE658F804BBD2
S31500005A1004224FEA1B41FFF735FA386204221FFAC7
S31500005A208BF1D7E700F022F800283FF477AF97F81C
S31500005A30290074E71846431EC0B20028A0D175E6B7
S31500005A401046421EC0B20028F9D0D0B200F010F8BD
S31500005A50F6E7594638463FE6386A30210170821C1F
S31500005A603A6278234370704758F804BB38461DE6FF
S31500005A70396A1DF80000491C3962303001F8010D01
S31500005A807047491C396201F8010D70470EB4014692
S31500005A90154A10B510788BB0002440B1134A13781C
S31500005AA000F018F8FFF72BFE00B9012420460DE0A0
S31500005AB00EB40E4A10B5014613788BB000F00AF802
S31500005AC00024FFF71CFE00B9012420460BB010BCD1
S31500005AD05DF810FB064800908DF804300DAA684664
S31500005AE070470000EF670120EE6701207463012014
S31500005AF00DA7000062B38B0708D0521E11F8013BB8
S31500005B0000F8013B00F024808B07F6D1830740F0B4
S31500005B10208000BF103A07D330B4B1E83810103AED
S31500005B20A0E83810F9D230BC530724BFB1E80810FA
S31500005B30A0E8081044BF51F8043B40F8043BD207E4
S31500005B4024BF31F8022B20F8022B44BF0B780370D8
S31500005B507047121F17D35B0009D151F8043B20F898
S31500005B60023B1B0C121F20F8023BF6D20BE051F849
S31500005B70043B00F8013B1B0A20F8023B1B0C121FDA
S31500005B8000F8013BF3D238BF121D521E24BF11F894
S31500005B90013B00F8013BF8D87047FEE704F08EBFE2
S31500005BA07FB500BF37A191E81C006846032180E855
S31500005BB01C0001250D268DF807108DF800508DF874
S31500005BC006600821232005F0B3F86946254805F04C
S31500005BD05BFB4FF40060244908600222234B1A60E5
S31500005BE0234C206023490A607FBD1E4805F03BBB5D
S31500005BF0A52803D100211B4805F024BB70471E4889
S31500005C0000682BE01D4908680028FCD1704738B5AC
S31500005C1004460D4600F017F804F00F01034624056C
S31500005C202A46200E01B0BDE8304005F0BABB0000A0
S31500005C3001460B051B0E30204343114A01F00F01AC
S31500005C40D018406909E001460B051B0E302043437E
S31500005C500B4A01F00F01D0180069C84000F001009E
S31500005C60704700000080014A84E200E018A0014A63
S31500005C7004E100E01C90014A0480014A2480014AA4
S31500005C8000C003400100000000000F0000000000FB
S31500005C9080B50121824A1160002005F053FB0123E3
S31500005CA004220321002005F07CFB012004F03EFEC7
S31500005CB000F00FF804F03DFE05F069FC01234022D8
S31500005CC0DFF8E01189A005F02DFC77490860C00FC8
S31500005CD002BD70B575480168754C764D41F00101FD
S31500005CE00160C2680021744E42F08072C26073483F
S31500005CF0206029603160022371490B600C2004F09A
S31500005D00E1FE70490818704AB0FBF2F06F4B0021B3
S31500005D10401E186029646E4820656E4931604FF454
S31500005D2080726D4802602B6843F480732B6070BDEF
S31500005D3080B561480168CA070ED568490B6823F427
S31500005D4040630B600168490849000160026811025E
S31500005D50FCD4642005F037FC0021594801605E4BF5
S31500005D6019605248016001BD5048006800B1012029
S31500005D70C0B27047D12202704170090A8170584939
S31500005D800A78C270521C0A700420704755492DE9E2
S31500005D90F14F0A6882B00090145C05F0A3FC002560
S31500005DA0641DE4B201904FF6FF79DFF83CA1DFF8FD
S31500005DB004813E4E1FE09DF80800A91EC9B2FFF7F8
S31500005DC097FB0746494605F0BBFC81465D463A48C7
S31500005DD00168CA070FD5F06840F08070F060D8F807
S31500005DE0001041F48071C8F80010DAF800000028AD
S31500005DF0F1D08AF800703168EFB249B3A74227DACA
S31500005E0005F070FC019940F2F512401A80B29042FA
S31500005E101EDAE8B210B95B270125D8E7012805D1BB
S31500005E2030480168009A02258F5CD0E7E01E874261
S31500005E3005F1010B08BF4F46C8D0A11E8F4208BF0F
S31500005E404FEA1927C2D0601E8742B4D15D27BDE74D
S31500005E50A7420CBF00200120BDE8FE8F10B52149E6
S31500005E600A68145C042C01DA012010BDBDE810405C
S31500005E708CE70D4B10B5186890B04022694605F0C6
S31500005E803BFB58B1C1B26846FFF713FA04462146F8
S31500005E90122005F023FD2046FFF7C7F910B010BD0C
S31500005EA044D40340C876012020640120F0ED00E0D0
S31500005EB0B00F00E0000E00E0800E00E055CEACC54D
S31500005EC0F00004E0FCAC0600F8590D00100004E0F8
S31500005ED0FF0300400D000100040304E0001000E091
S31500005EE06E7D012028640120200000E073696C614A
S31500005EF062737675617274646F776E002DE9F8418E
S31500005F0004469046012593B00F461E46220006D051
S31500005F10022C1DD0102C02D0212C19D029E00021F2
S31500005F2004F0D1F90546012C18BF202C08D0022C0C
S31500005F3018BF212C04D0032C1CBF222C232C25D1C6
S31500005F400197ADF81080012E15D14FF4805016E060
S31500005F500DF128002BA12422FFF7DCFD68460AA9D3
S31500005F602422FFF7D7FD1021ADF82410ADF8261036
S31500005F70D9E701200BE0022E03D14FF44050ADF8D3
S31500005F800E006946204604F09EF90546E8B214B0B4
S31500005F90BDE8F08104F05ABA80B504F062FAC0B2E6
S31500005FA002BD80B504F0A6FAC0B202BD7CB50446B7
S31500005FB000200D4616468DF8000001E0FFF715FE9D
S31500005FC06B46324629462046FFF7EBFF0028F5D1FF
S31500005FD076BD80B504F018FBC0B202BD80B504F0F2
S31500005FE033FCC0B202BD0CB40A4680B5014602AB12
S31500005FF00348FEF784FF002002BC5DF80CFB00009E
S31500006000D9A7000000C0054000C201000000050637
S315000060100100001000000000000000000000000069
S315000060200000000000000000002080F31188704787
S3150000603042DE704738B504460D46FFF7D6FD05F03B
S31500006040ADFC2946204605F08DFB2B464FEA04029F
S3150000605076A10120FFF7C7FF29462046BDE8344058
S31500006060E6E769482DE9F8430168684E4FF4206871
S31500006070B165026A6649F2650B68336649687166FE
S31500006080426AB266816AF166C26A3267016B7167FB
S31500006090806B96F83810B06748074CBF346CF46BC9
S315000060A005F09CFCDFF86CE1002284420146326573
S315000060B0A14624BFAEF12007A742716506F1900202
S315000060C0554BDFF858C118D3A0697064E469B4640D
S315000060D0B56DC5F30805062D13D1604511D3984259
S315000060E00FD200884DF64264A0420AD17068B468A7
S315000060F040F201785060946003E000247464B46454
S3150000610081464748814238BF0146084670456AD2F3
S315000061100C68B4F1CD3F08BF091DF6D063E0062C2C
S3150000612009D1C4B2002C06F17C040CBF0520401E28
S31500006130C5B244F82510F14520D25EF8041D61452C
S31500006140F9D39942F7D2CC07F5D5002406F17C05A0
S3150000615055F824708F42E2D0641C062CF8D3DEE793
S31500006160F16F002306F17C0506EB8304D4F880402A
S3150000617045F823405B1C042BF6D911600146481EE6
S31500006180C9B20029ECD1B06DC0F30800032810D0C5
S31500006190042811D0052812D0062813D00C2817D0B1
S315000061A03B2818D11F480268910719D540F20258BA
S315000061B016E040F6012813E040F6022810E040F60B
S315000061C003280DE0B8F5206F0AD140F6042807E051
S315000061D040F6052804E018B14D2838BF40F60728D8
S315000061E04046BDE8F2831049081AF06400200021F9
S315000061F006F17C04C5B2401CC7B244F82510062F30
S31500006200F8D3002097E7000004ED00E0000000202E
S3150000621000E300E030620120A6CE01006C440000DD
S315000062209C0000201880014A306201200D0A5B4163
S3150000623053534552543A25703A25645D0D0A0000C1
S315000062402DE9F8438146DFF8C403016800260027DC
S3150000625011F80950E90748BF00201ED400240FF2A8
S31500006260D448E0B2A84213DAE1B24846FFF740F953
S3150000627018F80020E00702F00F0258BF170105D5F5
S315000062803A43F1B24846FFF738F9761C641CE8E752
S31500006290F1B24846FEF768FF0120BDE8F28300F13F
S315000062A02401FF228A700023C373C3830B70837398
S315000062B00068C860704700002DE9F74F054682B0B8
S315000062C000208DF8010005F1240608E0687B012214
S315000062D07072EA739DF80000294600F0A9F9039848
S315000062E00027002460BB9DF810006946FFF754FEA6
S315000062F0002839D0262826D00121284600F08AF920
S3150000630078208DF80000A046102700218DF8011096
S31500006310E97B0829E3D8DFE811F00A004B008E007C
S31500006320EB00EB0042014E01AD009E00D7E7102FB7
S31500006330CCD09DF80000232836D10821E973CEE79A
S315000063409DF8100020B99DF8010005B0BDE8F08F5A
S315000063500398401C039010F8011D9DF810008DF85D
S315000063600010411E8DF810109DF80000A046672809
S315000063700FD29DF800100FF2BC30405C00F03007E1
S3150000638000F00F08400607D5717A884504DA012423
S3150000639002E07B2838BF10279DF800000A2818BFA6
S315000063A00D28B2D10121B1E7202F98D0032028E192
S315000063B0102F1CBF9DF800005F2800D01CB130785C
S315000063C00C28F3DA86E7202F18BF302F3FD132781A
S315000063D0002005F111018854F0684FF00009019082
S315000063E00DE01AF8010B00F01CF91BF8011B8142A5
S315000063F00CD0019809F1010900F1100101910199F0
S31500006400486820B3D1F800A005F1110B9BF80000F5
S315000064100028E6D19AF800100029EAD1A5F81E90C6
S31500006420F068E98B00EB011200219068A973022243
S3150000643028623170EA73687B002C70722FD02B2093
S315000064403072C6F80480687B0421707276E70321F7
S31500006450284600F0DFF89DF80100002809D0287CC6
S3150000646020B1696828468847002028742846FFF727
S3150000647016FF34E79DF8010018B1284600F0E4F84D
S31500006480F4E79DF80000232805D1284600F0DCF843
S315000064900820E87323E7202FFCD00420B1E09DF804
S315000064A000002D2818BF2B2805D1002130727160FD
S315000064B0687B0321C9E722280AD10120FEF759FE8D
S315000064C0B070FF280BD00021FEF74EFE0520E0E756
S315000064D07B28CFD10120FEF74CFEB070FF2800F0DC
S315000064E08F800021FEF740FE10207072062125E7FE
S315000064F044B17068717A0422EA7301FB0088C6F819
S315000065000480ECE69DF80000782818BF582804D1CE
S31500006510706810B910217172E1E69DF800007428C8
S3150000652018BF542803D1706808B90A21F3E7032974
S3150000653056D0202F18BF302F52D1296A337A0878C7
S315000065404A7871682D2B08BF4942752808D1342A2C
S315000065501AD00020312A14BF4FF6FF72FF220FE037
S31500006560732808D1312A07BF6FF07F007F222848A1
S3150000657047F6FF7204E00421284600F04BF86AE76C
S315000065808142A8BF8A4208DB0222284600F07BF837
S315000065900028F4D00220E8734DE70621ECE79DF8C9
S315000065A0000022281ED10021284600F081F800288C
S315000065B0B2D002206DE79DF800007D280DD1B0789D
S315000065C0FFF73EFE04460121284600F071F808B1A7
S315000065D00220E873002C9FD102E0202F9CD00CB93A
S315000065E007200EE00949B0780A68145CFF2C08BF42
S315000065F0082006D001226946FEF7E8FE00288BD067
S3150000660002208DF800009DF8001021E72864012083
S315000066100080FFFF027C1AB90823C37301745DE092
S315000066207047A0F141011A293CBF2030C0B2704723
S3150000663038B50C4694F82450FFF7F3FF61194874F7
S315000066406D1C84F8245031BD10B50446216A0878C3
S3150000665030B162280CBF01200220085C2A2807D12D
S31500006660216BE28B204601EB02135968884706E04E
S315000066700420616820742046884700202074204644
S31500006680BDE810402AE010B5837B047BA34201D10C
S3150000669005211FE0846844F82310817B491C81731F
S315000066A0016A8B5C2A2B1CBF89180162012010BD70
S315000066B010B500F1200213681C78622C01D0042169
S315000066C008E09379FF24947103EB01210122BDE8D0
S315000066D01040D8E7FFF79EFF002010BD70B50446B6
S315000066E0206BE18B002600EB01129568A17BF0B2CE
S315000066F0884212D22878622818BF022007D1A168E2
S31500006700F2B251F82200C0B2FEF78FFD0120295CDB
S315000067102A2918BF2D18761CE8E70020A07394F8E4
S315000067202600FF2804D0FEF780FDFF2084F826000F
S3150000673070BD0000000000000000000000202020C6
S315000067402020000000000000000000000000000003
S315000067500000000020003030000000000000003083
S315000067600030000040414243444546474849000046
S3150000677000000000005A5B5C5D5E5F101010101098
S3150000678010101010101010101010101010101030E3
S3150000679000000000005A5B5C5D5E5F004EF2231154
S315000067A0401A52D0401E65D0401E66D0401E67D0AB
S315000067B0401E68D0401E69D0401E6AD0393850D07D
S315000067C0AE3869D0401E6AD0401E6BD0401E6CD0D9
S315000067D0401E6DD0401E6ED00B386FD0401E70D05C
S315000067E0373800F08680401E00F08680401E00F09C
S315000067F08980401E00F08380401E00F08680C01F06
S3150000680029D0113860D04FF4F171401A62D01F3888
S315000068101ED08B3861D0401E65D0401E66D0401E0B
S315000068205ED060381AD040F21661401A1CD040F291
S31500006830EB21401A1BD041F29D01401A02D00C38C0
S3150000684045D065E0DFF8B0097047DFF8B00970475A
S31500006850DFF8AC097047DFF8AC097047DFF8A80924
S315000068607047DFF8A8097047DFF8A4097047DFF81A
S31500006870A4097047DFF8A0097047DFF8A009704740
S31500006880DFF89C097047DFF89C097047DFF8980924
S315000068907047DFF8980970474FF480307047DFF88B
S315000068A090097047DFF88C097047DFF88C0970474C
S315000068B04FF481307047DFF884097047DFF88009AC
S315000068C07047DFF880097047DFF87C097047DFF80A
S315000068D07C0970474FF483307047DFF874097047BE
S315000068E0DFF870097047DFF870097047DFF86C0948
S315000068F07047DFF86C097047DFF868097047DFF802
S31500006900680970474FF482307047DFF860097047B6
S315000069104FF6FF707047000010B5DFF85449207835
S3150000692004A1FEF7FBFB207806A1BDE81040FEF7A8
S31500006930F5BB0000286C6974746C6520656E64692B
S31500006940616E00002C20616C6C20646174612072A1
S315000069506570726573656E74656420617320627913
S315000069607465206172726179290D0A000146087802
S31500006970A0F130030A2B38BF30380AD3A0F1410307
S31500006980062B38BF373804D3A0F16102062A02D29B
S315000069905738000100E000204978A1F130030A2BA6
S315000069A002D2401830380EE0A1F14103062B02D284
S315000069B04018373807E0A1F16102062A39BF4018AE
S315000069C057380006000FC0B27047000010B505F03A
S315000069D00FF802001AD0042ADFF89448207808BF7E
S315000069E00FF22C0107D0062A08BF0FF2700102D061
S315000069F0072A03D12AA1FEF791FB03E00FF2E80173
S31500006A00FEF78CFB20780FF214118EE710BD000004
S31500006A1068616C537461636B496E6974546F6B651E
S31500006A206E73204641494C45442077697468204579
S31500006A304D4245525F454550524F4D5F4D46475F6B
S31500006A40535441434B5F56455253494F4E5F4D4950
S31500006A50534D415443480D0A0000000068616C53D1
S31500006A607461636B496E6974546F6B656E7320460F
S31500006A7041494C4544207769746820454D4245524A
S31500006A805F454550524F4D5F4D46475F5645525301
S31500006A90494F4E5F4D49534D415443480D0A00003E
S31500006AA068616C537461636B496E6974546F6B658E
S31500006AB06E73204641494C454420776974682045E9
S31500006AC04D4245525F454550524F4D5F53544143E9
S31500006AD04B5F56455253494F4E5F4D49534D4154B6
S31500006AE043480D0A0000000068616C537461636BD3
S31500006AF0496E6974546F6B656E73204641494C4507
S31500006B0044207769746820456D62657253746174B8
S31500006B1075733A2025580D0A00000000546F6B6506
S31500006B206E7320617265207374696C6C2061637486
S31500006B30697665207768656E207573696E6720745F
S31500006B40686973206170706C69636174696F6E2E19
S31500006B500D0A00002DE9F84FC0B080684FF6FF76A9
S31500006B60DFF80C770568FFF7D7FEA8B205F089F8BD
S31500006B708246A8B205F075F98046A8B205F0F2F98A
S31500006B808346ACB2B24526D100F0BCFB034638784A
S31500006B904FEA04022AA1FEF7C1FA00F0B3FB05F0A2
S31500006BA049FA82463878524632A1FEF7B7FA00F023
S31500006BB0A9FB05F0D5FA80463878424631A1FEF7A2
S31500006BC0ADFA00F09FFB05F040FB834638785A4645
S31500006BD030A1FEF7A3FAB8F1000F387814BFB2451A
S31500006BE00FF294612AD0434622460FF27821FEF72F
S31500006BF095FA00240FF26829CDA509E01DF80020BA
S31500006C003878494601F06FFAF0B24045F6DB641C6D
S31500006C10E0B2584510DABBF1010F434603D17F229B
S31500006C2001F0F8F906E0E2B201F0F4F93878294605
S31500006C30FEF774FA0026E7E7294638789AE000005E
S31500006C404D617920626520696E204E564D33204392
S31500006C50524541544F52203D203078253478204EFD
S31500006C60564D334B4559203D2030782534780D0A52
S31500006C700000000041646472657373203D20256442
S31500006C80200D0A0053697A65203D202564200D0AEF
S31500006C900000000041727261792073697A65203DB7
S31500006CA0202564200D0A00002DE9F84FC0B00546E6
S31500006CB0A9684FF6FF760F68B8B205F0D2F800F073
S31500006CC06DF88046B8B205F04DF98346B0450DD152
S31500006CD000F033F905F0AEF900F02EF905F040FAB0
S31500006CE0044600F02AF905F0B0FA8346DFF880750D
S31500006CF090A034B905F11101FEF7DAFE0FF2283142
S31500006D0037E0B04505F1110104D1FEF7D1FE0FF2CF
S31500006D103C312EE0FEF7CCFE3878224618A1FEF76D
S31500006D20FDF900250FF238190FF2042A09E01DF8C3
S31500006D3000203878494601F0D6F9F0B2A042F6DBD9
S31500006D406D1CE8B2584512DABBF1010F234604D197
S31500006D507F22414601F05FF907E0EAB2414601F0C1
S31500006D605AF938785146FEF7D9F90026E5E700BF0B
S31500006D7008A13878FEF7D2F941B0BDE8F08F0000DF
S31500006D807B73697A653A25647D7B76616C75653AB5
S31500006D90000000007D7D0D0A000000000446B8B228
S31500006DA004F06FBF2DE9F047C0B0806807684FF662
S31500006DB0FF794468FFF7B0FDB8B205F052F8804697
S31500006DC0FFF7EDFF00F0BEF80546CA450CD100F00E
S31500006DD0B4F805F02FF900F0B2F805F0C1F900F0AB
S31500006DE0ABF805F032FA0546B8F1000FDFF880641B
S31500006DF0307814BFCA450FF280412BD0A5F10109A6
S31500006E0015B1E1B2894508DA0FF27841FEF786F945
S31500006E1030784B4600F05EFA1EE04FEA0803BAB23D
S31500006E2010A1FEF77BF9012D4346514608BF7F248A
S31500006E30E2B201F0F0F830783DA52946FEF76EF98A
S31500006E40002407A701E000F015F8E1B230784145CB
S31500006E50F9DB2946FEF762F940B0BDE8F08700008D
S31500006E60202558005B2532785D28256429203D00C1
S31500006E70E1B228781DF801203946641CFEF74EB9A8
S31500006E802DE9F847C1B080684FF6FF750768FFF730
S31500006E9043FDB8B204F0E5FFFFF780FF00F052F8BB
S31500006EA08146AA450DD100F048F805F0C3F800F078
S31500006EB046F805F055F9044600F03FF805F0C5F927
S31500006EC08146002CDFF8A87318BFAA4505D138788B
S31500006ED00FF2A431FEF722F928E000250FF2DC3884
S31500006EE020E019FB04F304FB056238785B1E41467B
S31500006EF0FEF714F9387803226946FFF757F8684613
S31500006F00FFF734FD01A98855761CA642E9DBB9F1E5
S31500006F10010F234601AA14BFE9B27F21504604F0AF
S31500006F2076FE6D1C4D45B8BF0026EEDB5FE1000026
S31500006F300D0A00007B264E008046B8B22EE482463B
S31500006F40B8B22BE48246B8B205F00CB82DE9F84F7A
S31500006F50C2B00646B068C7490A68076840684FF677
S31500006F60FF7B8DF804009DF80430B8B2D45C04F0C1
S31500006F7078FF0546FFF713FFFFF7E4FF8146DA4582
S31500006F800DD1FFF7DAFF05F055F8FFF7D8FF05F04A
S31500006F90E7F80546FFF7D1FF05F057F98146B44FEC
S31500006FA00FF25028280003D100F0B8F81EA134E0F3
S31500006FB0DA4503D100F0B2F824A12EE0EA2D05DD72
S31500006FC000F0ACF85FF0EA022AA106E0AC4208D075
S31500006FD000F0A4F84FEA050239A13878FEF79EF8CA
S31500006FE01EE000209DF8041000902B46002202A807
S31500006FF0FEF77AF90024E0B248450BDAB9F1010F41
S315000070002B4602AA14BFE1B27F21504604F0FFFDD1
S31500007010641CF0E700F082F83CA13878FEF77EF8B1
S3150000702043B0BDE8F08F00007B72657475726E3AEE
S31500007030317D7B746F6B656E2073697A6520697329
S31500007040207A65726F7D7D0D0A0000007B72657483
S3150000705075726E3A317D7B696E76616C69642074F7
S315000070606F6B656E20616464726573737D7D0D0A56
S31500007070000000007B72657475726E3A317D7B6F1D
S315000070806E6C7920746F6B656E73206F6620736902
S315000070907A6520757020746F2025644220617265C0
S315000070A020737570706F72746564206279207468DD
S315000070B0697320636F6D6D616E647D7D0D0A0000DE
S315000070C07B72657475726E3A317D7B746865206576
S315000070D06E74657265642062756666657220646F9B
S315000070E06573206E6F74206D6174636820746869BF
S315000070F07320746F6B656E27732073697A65202819
S31500007100256442297D7D0D0A000000007B726574AE
S3150000711075726E3A307D7D0D0A00000006F1110190
S315000071204046FEF7C5BC00002DE9F847C1B08068AF
S3150000713005684FF6FF774668FFF7EEFBA8B204F046
S3150000714090FE0446A8B204F09CFD8246A8B204F064
S3150000715009FF8146BA450ED100F0D4F804F06AFF63
S31500007160824600F0CFF804F0FBFF044600F0CAF8B0
S3150000717005F06BF88146002C3D4D287818BFBA45BE
S3150000718004D100BF3CA1FDF7C9FF30E0A9F101071A
S31500007190B9F1000F02D0F1B28F4207DA39A1FDF73B
S315000071A0BDFF28783B4600F095F820E000270FF257
S315000071B00C1810E02878631E3A464146FDF7AEFFEC
S315000071C0287803226946FEF7F1FE6846FFF7CEFBF4
S315000071D001A9C8557F1CA742ECDBB9F1010F234674
S315000071E001AA08BF7F26F1B2504604F010FD42B056
S315000071F0BDE8F0877B264E0001FF010023E1010078
S3150000720075E4010063E2010063E5010062E101004B
S3150000721079EB010064EE010024E1010025E10100A3
S3150000722026E1010027E1010028E1010029E1010032
S3150000723080000100000101008001010080020100C0
S3150000724020E20100000301000005010080050100A5
S31500007250800601000007010001E5010002E50100CA
S3150000726058E201008003010080040100800701004C
S3150000727074630120286401206E6F7420666F756E3A
S31500007280640D0A004552524F523A204465736972A2
S31500007290656420696E646578206973206F75742053
S315000072A06F662072616E676520666F72207468690A
S315000072B07320746F6B656E0D0A0000006461746163
S315000072C020627974655B2564206F662025645D3ACB
S315000072D0000000005FF0000201A1FDF71FBF0000E3
S315000072E02020202020202056616C69642072616E67
S315000072F067652069732025582074687275202558A3
S315000073000D0A0000A8B2FFF749BA00002DE9F043C4
S31500007310DFF8005CA5B0FFF7FFFA2878DFF8F89BE6
S315000073204EF2455200F080FE2878DFF8F01B00246C
S31500007330FEF74FFEDFF8E80B0188082300F070FE29
S31500007340DEA7FFF795FDE0B20828FAD328780FF2FA
S31500007350703800F078FE28784EF2453200F064FE70
S315000073602878DFF8C01B0024FEF733FEDFF8B80BE1
S315000073700188082300F054FEFFF77AFDE0B20828E2
S31500007380FAD300F05AFE28784CF2563200F04CFE42
S3150000739028780FF6A431FEF71CFEDFF8900B00F0FC
S315000073A03DFE00F044FE9DF8012000F042FE641E02
S315000073B0F3D100F047FE28784EF6735200F034FE03
S315000073C028780FF68831FEF704FEDFF8640B018893
S315000073D0102300F025FEFFF74BFDE0B21028FAD38C
S315000073E000F034FE28784CF24E2200F01DFE28787C
S315000073F00FF66431FEF7EDFDDFF8380B0188102338
S3150000740000F00EFEFFF734FDE0B21028FAD300F0CC
S3150000741014FE28784CF6441200F006FE28780FF683
S315000074204831FEF7D6FDDFF8300C00F0F7FD00F02E
S31500007430FEFD9DF8012000F0FCFD641EF3D100F076
S31500007440FCFD28784DF2430200F0EEFD28780FF699
S315000074502831FEF7BEFDDFF8040C00F0DFFD00F07A
S31500007460E6FD9DF8012000F0E4FD641EF3D100F076
S31500007470E9FD28784CF2431200F0D6FD28780FF685
S315000074800831FEF7A6FDDFF8D80B01880223E2B229
S3150000749000F0C1FD9DF800202878FFF7EDFC9DF86F
S315000074A0012000F0C6FD60B21428ECDB00F0C5FD3B
S315000074B028784DF2463200F0B7FD28780FF6D8212D
S315000074C0FEF787FDDFF89C0B00F0A8FD00F0AFFD8E
S315000074D09DF8012000F0ADFD641EF3D100F0ADFD76
S315000074E028784CF2433200F09FFD28780FF6C02131
S315000074F0FEF76FFDDFF8700B00F090FD00F097FDD2
S315000075009DF8012000F095FD641EF3D100F09AFD70
S3150000751028784CF6535200F087FD28780FF6A42100
S31500007520FEF757FDDFF8440B0188082300F078FDCD
S31500007530FFF79EFCE0B20828FAD300F07EFD28781B
S315000075404DF6540200F070FD28780FF68C21FEF7F8
S3150000755040FDDFF81C0B00F061FD00F068FD9DF8B2
S31500007560012000F066FD641EF3D100F06BFD287863
S315000075704DF6432200F058FD28780FF66821FEF7F5
S3150000758028FDDFF8F00A0188012300F049FD00F02C
S315000075904EFD00F057FD28784DF6482200F044FDD8
S315000075A028780FF65821FEF714FDDFF8CC0A01887B
S315000075B0012300F035FD00F03AFD00F043FD287888
S315000075C04DF6522200F030FD28780FF62031FEF7F6
S315000075D000FDDFF8A80A0188102300F021FDFFF75F
S315000075E047FCE0B21028FAD300F030FD28784DF2BF
S315000075F04E3200F019FD28780FF61031FEF7E9FC3F
S31500007600DFF87C0A0188102300F00AFDFFF730FC42
S31500007610E0B21028FAD300F010FD28784CF6544258
S3150000762000F002FD28780FF6F821FEF7D2FCDFF80D
S31500007630540A0188012300F0F3FC00F0F8FC00F086
S3150000764001FD28784CF2543200F0EEFC28780FF653
S31500007650E021FEF7BEFCDFF8300A00F0DFFC00F0A8
S31500007660E6FC9DF8012000F0E4FC641EF3D100F076
S31500007670E9FC28784DF2570200F0D6FC28780FF680
S31500007680BC21FEF7A6FCDFF8040A0188102300F0EF
S31500007690C7FCFFF7EDFBE0B21028FAD300F0D6FCEA
S315000076A028784CF2573200F0BFFC28780FF6A0215C
S315000076B0FEF78FFCDFF8D80904E000BF202558004C
S315000076C00D0A00000188042300F0AAFCFFF7D0FB96
S315000076D0E0B20428FAD300F0B9FC28784CF65752E9
S315000076E000F0A2FC28780FF67C21FEF772FCDFF88A
S315000076F0A4090188042300F093FCFFF7B9FBE0B26C
S315000077000428FAD300F0A2FC28784DF2575200F074
S315000077108BFC28780FF66021FEF75BFCDFF8780912
S315000077200188042300F07CFCFFF7A2FBE0B20428EA
S31500007730FAD300F08BFC28784CF2574200F074FC28
S3150000774028780FF64821FEF744FCDFF85009018837
S31500007750042300F065FCFFF78BFBE0B20428FAD3A4
S3150000776000F074FC28784CF2423200F05DFC287878
S315000077700FF62C21FEF72DFCDFF8240901885C2387
S3150000778000F04EFCFFF774FBE0B25C28FAD300F081
S3150000779054FC28784DF2433200F046FC28780FF668
S315000077A01021FEF716FCDFF8FC0800F037FC00F0AD
S315000077B03EFC9DF8012000F03CFC641EF3D100F075
S315000077C041FC28784CF6431200F02EFC28780FF680
S315000077D0F411FEF7FEFBDFF8D0080188142300F051
S315000077E01FFCFFF745FBE0B21428FAD300F02EFC8D
S315000077F028784DF2423200F017FC28780FF6DC119B
S31500007800FEF7E7FBDFF8A4080188102300F008FC68
S31500007810FFF72EFBE0B21028FAD300F017FC287809
S315000078204CF2453200F000FC28780FF6CC11FEF73A
S31500007830D0FBDFF87C080188942300F0F1FBFFF70A
S3150000784017FBE0B29428FAD300F000FC28784CF23B
S315000078504B2200F0E9FB28780FF6B011FEF7B9FBD2
S31500007860DFF850080188102300F0DAFBFFF700FB71
S31500007870E0B21028FAD300F0E9FB28784DF258322E
S3150000788000F0D2FB28780FF69C11FEF7A2FBDFF87A
S3150000789028080188202300F0C3FBFFF7E9FAE0B2CD
S315000078A02028FAD300F0D2FB28784DF2593200F0A6
S315000078B0BBFB28780FF68811FEF78BFBDFF8FC0779
S315000078C00188202300F0ACFBFFF7D2FAE0B22028B3
S315000078D0FAD300F0BBFB28784CF64B2200F0A4FB51
S315000078E028780FF67811FEF774FBDFF8D4070188C5
S315000078F0222300F095FBFFF7BBFAE0B22228FAD369
S3150000790000F0A4FB28784CF64B6200F08DFB28783B
S315000079100FF65C11FEF75DFBDFF8A8070188102360
S3150000792000F07EFBFFF7A4FAE0B21028FAD300F0CD
S315000079308DFB28784DF6502200F076FB28780FF65E
S315000079404411FEF746FBDFF880070188202300F08C
S3150000795067FBFFF78DFAE0B22028FAD300F076FB3A
S3150000796028784DF6552200F05FFB28780FF6201197
S31500007970FEF72FFBDFF854070188202300F050FBA9
S31500007980FFF776FAE0B22028FAD300F05FFB2878FA
S315000079904DF6512200F048FB28780FF60011FEF74D
S315000079A018FBDFF82C0701885A2300F039FBFFF794
S315000079B05FFAE0B25A28FAD300F048FB28784DF671
S315000079C0492200F031FB28780FF6E001FEF701FBB3
S315000079D0DFF800070188012300F022FB00F027FBF7
S315000079E000F030FB28784BF2346200F01DFB28785B
S315000079F00FF6CC01FEF7EDFADFF8DC060188082366
S31500007A0000F00EFBFFF734FAE0B20828FAD300F0D4
S31500007A1014FB28784FF6017200F006FB28780FF663
S31500007A20AC01FEF7D6FA02237F22002100F0F3FA1A
S31500007A3000F0FDFA9DF8012000F0FBFA641EF2D179
S31500007A4000F000FB28784EF2231200F0EDFA2878B9
S31500007A500FF69001FEF7BDFA04237F22012100F004
S31500007A60DAFAFFF705FAE0B20428FAD300F0EEFAE4
S31500007A7028784EF2754200F0D7FA28780FF67C0186
S31500007A80FEF7A7FA11237F22022100F0C4FAFFF7BE
S31500007A90EFF9E0B21028FAD900F0D8FA28784EF2B9
S31500007AA0632200F0C1FA28780FF66401FEF791FA16
S31500007AB004237F22032100F0AEFAFFF7D9F9E0B2E2
S31500007AC00428FAD300F0C2FA28784EF2635200F086
S31500007AD0ABFA28780FF64C01FEF77BFA04237F22D7
S31500007AE0042100F098FAFFF7C3F9E0B20428FAD3AC
S31500007AF000F0A3FA28784EF2621200F095FA287880
S31500007B000FF63401FEF765FA02237F22052100F005
S31500007B1082FA00F08CFA9DF8012000F08AFA641EC1
S31500007B20F2D100F08FFA28784EF6793200F07CFA1E
S31500007B3028780FF61C01FEF74CFA11237F22062146
S31500007B4000F069FAFFF794F9E0B21028FAD900F0CC
S31500007B507DFA28784EF6646200F066FA28780FF20D
S31500007B60FC71FEF736FA10237F22072100F053FA44
S31500007B70FFF77EF9E0B21028FAD300F067FA28780A
S31500007B804EF2241200F050FA28780FF2E071FEF758
S31500007B9020FA1A237F22082100F03DFAFFF768F940
S31500007BA0E0B21A28FAD300F051FA28784EF22512DC
S31500007BB000F03AFA28780FF2C871FEF70AFA08239D
S31500007BC07F22092100F027FAFFF752F9E0B20828D0
S31500007BD0FAD300F03BFA28784EF2261200F024FA87
S31500007BE028780FF2B871FEF7F4F90A237F220A21EA
S31500007BF000F011FAFFF73CF9E0B20A28FAD300F0D8
S31500007C001CFA28784EF2271200F00EFA28780FF2A6
S31500007C10A071FEF7DEF902237F220B2100F0FBF9AB
S31500007C2000F005FA9DF8012000F003FA641EF2D177
S31500007C3000F008FA28784EF2281200F0F5F92878B4
S31500007C400FF28C71FEF7C5F918237F220C2100F084
S31500007C50E2F9FFF70DF9E0B21828FAD300F0F6F9C9
S31500007C6028784EF2291200F0DFF928780FF27C719D
S31500007C70FEF7AFF901237F220D2100F0CCF900F0C9
S31500007C80D6F900F0DFF928784EF2102200F0CCF990
S31500007C9028780FF27071FEF79CF900F0D3F9287876
S31500007CA04EF2112200F0C0F928780FF27471FEF737
S31500007CB090F900F0C7F928784EF2122200F0B4F9D4
S31500007CC028780FF27C71FEF784F900F0BBF928786A
S31500007CD04EF2132200F0A8F928780FF28871FEF709
S31500007CE078F900F0AFF928784EF2142200F09CF9EA
S31500007CF028780FF29471FEF76CF900F0A3F9287852
S31500007D004EF2152200F090F928780FF2A471FEF7D2
S31500007D1060F900F097F928784EF2202200F084F9F5
S31500007D2028780FF2AC71FEF754F904237F22142150
S31500007D3000F071F9FFF79CF8E0B20428FAD300F0DE
S31500007D4085F928784EF2212200F06EF928780FF294
S31500007D50A471FEF73EF900F075F928784EF2742208
S31500007D6000F062F928780FF2B871FEF732F900F0E8
S31500007D7069F928784FF60D7200F056F928780FF257
S31500007D80B471FEF726F90B23E2B2172100F043F98E
S31500007D90002600F0A3F9F0B20A28FAD9641C61B2F1
S31500007DA00529F0DD00F052F928784EF2564200F02F
S31500007DB03BF928780FF29071FEF70BF900F042F9C3
S31500007DC028784FF4654200F02FF928780FF2887171
S31500007DD0FEF7FFF800F036F928784EF2035200F06D
S31500007DE023F928780FF28871FEF7F3F80123E2B23F
S31500007DF01A2100F010F99DF800202878FFF73CF8CA
S31500007E0060B20528F2DD00F021F928784EF2015221
S31500007E1000F00AF928780FF27471FEF7DAF81023E9
S31500007E207F221B2100F0F7F8FFF722F8E0B21028B6
S31500007E30FAD300F00BF928784EF2025200F0F4F86B
S31500007E4028780FF25871FEF7C4F828237F221C21E8
S31500007E5000F0E1F8FFF70CF8E0B22828FAD300F0BA
S31500007E60F5F828784EF2582200F0DEF828780FF25E
S31500007E704071FEF7AEF812237F221D2100F0CBF8E9
S31500007E80FEF7F6FFE0B21128FAD900F0DFF82878FD
S31500007E904EF2592200F0C8F828780FF22471FEF746
S31500007EA098F83423E2B21E2100F0B5F8002600F05F
S31500007EB015F9F0B23428FAD3641C61B20529F0DB57
S31500007EC000F0C0F828784EF25B2200F0ADF8287872
S31500007ED00FF20471FEF77DF800F0B4F828784EF240
S31500007EE05A2200F0A1F828780FF20471FEF771F813
S31500007EF000F0A8F828784EF25C2200F095F8287871
S31500007F000FF20071FEF765F800F09CF825B0BDE8A9
S31500007F10F083000074630120F8E8010000E9010025
S31500007F207813020014E901007A1302007C130200A0
S31500007F307E130200801302004D46475F435553549B
S31500007F404F4D5F56455253494F4E00004D46475FD1
S31500007F50535452494E4700004D46475F424F4152E7
S31500007F60445F4E414D4500004D46475F4D414E55DD
S31500007F70465F4944000000004D46475F5048595F40
S31500007F80434F4E46494700004D46475F4153485FC1
S31500007F90434F4E46494700004D46475F53594E549E
S31500007FA0485F465245515F4F4646534554000000D0
S31500007FB04D46475F4343415F5448524553484F4CF3
S31500007FC0440000004D46475F455A53505F53544F97
S31500007FD052414745000000004D46475F584F5F54E9
S31500007FE0554E45004D46475F5A574156455F434FEC
S31500007FF0554E5452595F4652455100004D46475F13
S315000080005A574156455F48575F56455253494F4E5A
S31500008010000000005146684603F0C8BD01880223EF
S315000080207F22684603F0C2BD4946FDF777B89DF842
S31500008030002028783946FDF771B828784146012492
S31500008040FDF76CB828784146FDF768B828784146B0
S315000080500024FDF763B800008213020084130200B7
S3150000806086130200881302008A1302008C13020092
S315000080708E13020090130200921302009413020062
S3150000808096130200981302009A1302009C13020032
S315000080909E130200A0130200A2130200A413020002
S315000080A0A6130200A8130200AA130200AC130200D2
S315000080B0AE130200B0130200B2130200B4130200A2
S315000080C0B6130200B8130200BA130200BC13020072
S315000080D0BE130200C0130200C2130200F1B22878D8
S315000080E01DF801203946761CFDF718B84D46475F46
S315000080F05A574156455F50534555444F5F52414E7E
S31500008100444F4D5F4E554D42455200004D46475F28
S3150000811053455249414C5F4E554D42455200000071
S315000081204D46475F4C46584F5F54554E450000003C
S315000081304D46475F4354554E450000004D46475F48
S315000081404C4F434B424954535F504C57000000007C
S315000081504D46475F4C4F434B424954535F434C5740
S31500008160300000004D46475F4C4F434B4249545345
S315000081705F4D4C57000000004D46475F4C4F434B48
S31500008180424954535F554C57000000004D46475F27
S315000081904C4F434B424954535F444C570000000038
S315000081A04D46475F43424B455F4441544100000002
S315000081B04D46475F53454355524954595F434F4EC9
S315000081C0464947004D46475F494E5354414C4C4142
S315000081D054494F4E5F434F44450000004D46475FAC
S315000081E05345435552455F424F4F544C4F414445CA
S315000081F0525F4B45590000004D46475F43424B4591
S315000082005F3238334B315F44415441004D46475F3E
S31500008210424F4F544C4F41445F4145535F4B455984
S31500008220000000004D46475F5349474E45445F42B4
S315000082304F4F544C4F414445525F4B45595F580090
S315000082404D46475F5349474E45445F424F4F544C56
S315000082504F414445525F4B45595F59004D46475F74
S315000082605448524541445F4A4F494E5F4B45590079
S315000082704D46475F4E564D335F43525950544F5FFC
S315000082804B4559004D46475F5A575F50524B0000C9
S315000082904D46475F5A575F50554B00004D46475F66
S315000082A05A575F51525F434F444500004D46475F62
S315000082B05A575F494E495449414C495A4544000072
S315000082C04D46475F4555495F363400005354414398
S315000082D04B5F4E56444154415F56455253494F4EAB
S315000082E000000000535441434B5F4150535F4652D8
S315000082F0414D455F434F554E5445520053544143FB
S315000083004B5F414C5445524E4154455F4B455900D5
S31500008310535441434B5F424F4F545F434F554E5466
S3150000832045520000535441434B5F4E4F4E43455F09
S31500008330434F554E54455200535441434B5F414EB3
S31500008340414C595349535F5245424F4F5400000028
S31500008350535441434B5F4B455953000053544143DB
S315000083604B5F4E4F44455F44415441005354414393
S315000083704B5F54525553545F43454E54455200008B
S31500008380535441434B5F4E4554574F524B5F4D41FB
S315000083904E4147454D454E5400000000535441435D
S315000083A04B5F504152454E545F494E464F000000C8
S315000083B0535441434B5F504152454E545F414444F0
S315000083C04954494F4E414C5F494E464F000000000C
S315000083D0535441434B5F4D554C54495F5048595F88
S315000083E04E574B5F494E464F0000000053544143E1
S315000083F04B5F4D494E5F52454345495645445F5292
S31500008400535349004D554C54495F4E4554574F52AE
S315000084104B5F535441434B5F4B455953000000009B
S315000084204D554C54495F4E4554574F524B5F53542C
S3150000843041434B5F4E4F44455F4441544100000069
S315000084404D554C54495F4E4554574F524B5F53540C
S3150000845041434B5F414C5445524E4154455F4B4559
S31500008460590000004D554C54495F4E4554574F52E4
S315000084704B5F535441434B5F54525553545F4345EE
S315000084804E544552000000004D554C54495F4E4530
S3150000849054574F524B5F535441434B5F4E455457CD
S315000084A04F524B5F4D414E4147454D454E5400009E
S315000084B04D554C54495F4E4554574F524B5F53549C
S315000084C041434B5F504152454E545F494E464F0023
S315000084D04D554C54495F4E4554574F524B5F53547C
S315000084E041434B5F4E4F4E43455F434F554E5445B8
S315000084F0520000004D554C54495F4E4554574F525B
S315000085004B5F535441434B5F504152454E545F417C
S3150000851044444954494F4E414C5F494E464F000032
S31500008520535441434B5F42494E44494E475F544181
S31500008530424C4500535441434B5F4348494C445FCA
S315000085405441424C45000000535441434B5F4B4558
S31500008550595F5441424C4500535441434B5F434598
S315000085605254494649434154455F5441424C4500A3
S31500008570535441434B5F4144444954494F4E414C47
S315000085805F4348494C445F4441544100535441437E
S315000085904B5F5A4C4C5F4441544100005354414395
S315000085A04B5F5A4C4C5F5345435552495459000052
S315000085B0535441434B5F47505F44415441000000D0
S315000085C0535441434B5F47505F50524F58595F5485
S315000085D041424C4500000000535441434B5F475015
S315000085E05F494E434F4D494E475F464300000000EA
S315000085F0535441434B5F47505F53494E4B5F544181
S31500008600424C4500535441434B5F47505F494E43EC
S315000086104F4D494E475F46435F494E5F53494E4B68
S315000086200000000010B540F2A17403F0EDFEC44056
S31500008630E0070BD5064C207803F004FF207803F002
S31500008640A9FF2078BDE8104004F074B810BD00BF43
S31500008650746301205FF02A010AA0FDF7EBBC00005D
S3150000866010B501F0B7FB044601F0AAFB0246044828
S315000086700078234607A1BDE81040FCF74FBD000077
S315000086807463012072657365742D746573742E634B
S315000086900000000052455345543A25702D25700DB3
S315000086A00A00000010B50446002005F08CF90020F1
S315000086B005F0A4F902F076F9012005F0FBF8204652
S315000086C006F01CF82046BDE8104000F091BF80B5CA
S315000086D0022100F02FF9009806F062F901BD8068CA
S315000086E0DFF8C01402680A7008780228A8BF0FF2E3
S315000086F0FC4305DA002814BF0FF2FC430FF20053C7
S31500008700DFF8A414D1F810130FF2D0420FF2C040D4
S31500008710FDF7CEB9F8B505F02AF8DFF8904404EB7A
S315000087208000C368DFF88004D0F850130FF264525B
S315000087300FF24450FDF7BCF9DFF87404006806F048
S3150000874073F90546052814D8DFE800F003100E0972
S315000087500C060FF2F8420EE00FF2E4420BE00FF2C5
S31500008760D44208E079A206E079A204E00FF2BC4206
S3150000877001E00FF2E4420FF2F8410FF2EC40FDF790
S3150000878097F900260FF2D847F0B254F8201005F0FA
S3150000879001023846FDF78CF9761C6D08F0B2022806
S315000087A0F2D96CA0BDE8F240FDF782B938B50446AF
S315000087B0A068DFF8F423D2F8601305680FF2E040F2
S315000087C0FDF776F9EDB215B1012D07D00CE00FF2E9
S315000087D0D840FDF76DF904F0F9FE05E00FF2DC4034
S315000087E0FDF766F904F0C1FF0FF2E040FDF760F90E
S315000087F02046BDE832408DE7F8B507460D4684B001
S31500008800284604F085FB0446284604F032FD064659
S315000088100FF234523CB92B4607F111010FF21050FA
S31500008820FDF746F910E00FF25450029005F01F00D4
S315000088300FF240510190009103942B4607F111016C
S315000088400FF20C50FDF734F90FF2B444AE4205D0E6
S3150000885032460FF230512046FDF72AF9284604F039
S31500008860EFFC0FF270430FF2744110F1010F02D1C9
S315000088700FF2704202E018B90FF2704218460BE090
S31500008880DFF83023B0FBF2F2DFF8281301FB120108
S3150000889029B90FF274412046FDF70AF913E0DFF813
S315000088A0182313784FF47A74B0FBF4F2214601FBD7
S315000088B0120100290EBF0FF2584102460FF2604125
S315000088C01846FCF72BFC05B022A0BDE8F040FDF7EA
S315000088D0EFB810B5044604F075FC01462046BDE825
S315000088E0104089E738B5054604F041FF0400DFF87B
S315000088F0B802D0F8301318BF01240FF29040FDF7EC
S31500008900D7F804F032FFA8680068C0B204F062FB32
S3150000891002460FF210310FF2A840FDF7C9F80CB16C
S3150000892004F054FE04F04EFC01462846BDE83440EF
S3150000893062E70121684604F048BA10B5044605F01E
S3150000894004F900F001F993A238E100005478000020
S31500008950527800007D0D0A002DE9F84F84B00746D5
S315000089600C4615461E4604F002FF010018BF012101
S315000089708DF8031004F01FFF8DF80200002D16D1AC
S315000089800125022004F01AFF642002F01CFE04F008
S3150000899019FC8DF800000397029664B99DF80060F3
S315000089A00120002106F01F0400FA04F409E0E8D5CE
S315000089B06D420020E6E7E00E4601F6B224F0784468
S315000089C00121019115E0039833464A4600F1110151
S315000089D00FF22440FDF76CF804E0FDF769F86EA08D
S315000089E0FDF766F89DF8010001218140641A761CA6
S315000089F0F6B2002C69D006F01F008DF8010024FAAB
S31500008A0000F2D007F3D504F0DDFB0FF26839864299
S31500008A1004D0304604F0DEFA0028D4D14FF07F0AA5
S31500008A206FF07F080027AB460DE0802002F0CBFDFB
S31500008A3004F0BAFFC7198045ABF1010BB8BF8046F9
S31500008A405045B8BF8246BBF1000FEEDC9DF84000F2
S31500008A5097FBF5F758B1504604F02EFC824678B2E3
S31500008A6004F02AFC0746404604F026FC804603989C
S31500008A7000F1110149A0FDF71BF8019828B1324613
S31500008A8049460FF2DC10FDF713F802980FF244394D
S31500008A9020B1014652464846FDF70AF80E9820B125
S31500008AA001463AB24846FDF703F80F9820B1014651
S31500008AB042464846FCF7FCFF9DF84000002814BFDC
S31500008AC00FF218300FF2283087E79DF80000864233
S31500008AD018BF04F07FFA9DF8020004F06FFE9DF8BF
S31500008AE0030020B105B0BDE8F04F04F06FBD05B03E
S31500008AF0BDE8F08FE0B500210291019100910FF2DF
S31500008B001833012208E0E0B501210022029101920A
S31500008B10009223A301220021FFF71EFF07BD3EB5E9
S31500008B20847B00218368022C1A680FF204340FF24A
S31500008B30F825A8BF596800230293019400950FF207
S31500008B40E023FFF709FF37BD034604F11101704723
S31500008B5080B505F071F803461348D0F8B0130FF24C
S31500008B60E8220FF2D420BDE80050FCF7A1BF0E4A60
S31500008B7010B5D2F8C01304460FF2DC20FCF798FFBC
S31500008B80A068016848B205F027F82046BDE8104005
S31500008B90DEE70000434341007D0D0A007B264E00C0
S31500008BA045440000F267012084E20100AC63012025
S31500008BB02869012040420F007463012082A0BDE8AD
S31500008BC01040FCF775BF81680968C9B214E6000059
S31500008BD07B264E202674737D0D0A000050455220D8
S31500008BE054657374204D6F6465000000656E6162A4
S31500008BF06C65642D6E657700656E61626C656400F8
S31500008C0064697361626C65640000000061736C6581
S31500008C10657000006177616B65000000656E6572C6
S31500008C2067790000737461747573000049646C653C
S31500008C300000000052784163746976650000000008
S31500008C40547841637469766500000000496E61637B
S31500008C507469766500000000556E6B6E6F776E0066
S31500008C6020267468000000002026747300000000AF
S31500008C7052665374617465007B264E2052616469A6
S31500008C806F20706F77657220737461746520267427
S31500008C9073000000706F77657220737461746500ED
S31500008CA07B264E2000000000536C656570696E6778
S31500008CB020726164696F2E2E2E00000057616B6969
S31500008CC06E6720726164696F2E2E2E00646F6E656A
S31500008CD07D0D0A0020267470000000006672657122
S31500008CE000000000696C6C6567616C00506572522B
S31500008CF0616D526164696F436F6E6669670000005B
S31500008D002026747500000000667265714D487A0071
S31500008D10207B667265714B487A3A256C7D000000AF
S31500008D20207B66726571487A3A256C7D00000000EA
S31500008D307B264E20526164696F206368616E6E65A2
S31500008D406C202674680000006368616E6E656C00B6
S31500008D507B264E20526164696F206368616E6E6582
S31500008D606C20267468202826746420696E20267478
S31500008D70642900006368616E000000007061676529
S31500008D80000000005074694368616E007B264E2027
S31500008D9053657474696E67206368616E6E656C20D6
S31500008DA0616E642063616C6962726174696E6720CA
S31500008DB0286173206E6565646564292E2E2E000079
S31500008DC02674687D0D0A00007B264E202674647D7D
S31500008DD00D0A00002026746400000000205B383075
S31500008DE0322E31352E3420756E6974735D000000A5
S31500008DF0205B64426D5D00007B264E202674682051
S31500008E005B696E76616C6964206368616E6E656C21
S31500008E105D7D0D0A0000000052535349000000001A
S31500008E206D696E5253534900617667525353490038
S31500008E306D617852535349007B264E202674642078
S31500008E4064426D7D0D0A00004343412054687265FB
S31500008E5073686F6C640000007B264E7D0D0A00006F
S31500008E6080B5002005F08EF8BDE8014005F0BCBCD9
S31500008E7010B5DFF81441607DDFF81031012218715A
S31500008E80E0694FF47A7105F058FE01001CBF01211C
S31500008E90217510BDDFF8F010C861887DDFF8EC1091
S31500008EA04871E5E770B58EB00C460CA805F03CFE9F
S31500008EB0054605F071FE064605F032FEBDF8361091
S31500008EC00FF24C020A920B91BDF834100FF24802D1
S31500008ED008920991BDF83210BDF830300FF2400209
S31500008EE00791069205930FF2400103950FF2400297
S31500008EF0049102920FF24005034601960095DFF8B1
S31500008F00902021460FF23800FCF7D2FD0EB070BD5E
S31500008F1073757370000000006372697400000000CE
S31500008F206C696D690000000074616C6B00000000E4
S31500008F307573656400000000616363656C00000082
S31500008F407B264E202674752026743268202674648B
S31500008F502F31303025250D0A20202674642F31301C
S31500008F60302525202674642F31303025252026749F
S31500008F70642F3130302525202674642F313030257A
S31500008F80257D0D0A00000000C86301200C6E01203B
S31500008F90948F00006D6F6465000000002DE9F047B6
S31500008FA006468846924605F0E8FDDFF8CC74F87070
S31500008FB00409387818BF641E28B1386B07EB8000A7
S31500008FC0416A491C4162BE700FF24419DFF8B85578
S31500008FD08C2E43D004F0DCFB66B1402E22D0882EC6
S31500008FE018BF892E4DD08C2E38D08D2E34D08F2E92
S31500008FF00CD03BE03869396A401C386164183C6221
S31500009000287D00283DD040F23A5137E0B869396AE8
S31500009010401CB86164183C62287D002831D040F2BB
S315000090203F512BE0F869396A401CF86138786418BA
S315000090303C6260B105F0C6FD032806D1786B401C82
S315000090407863386B80F00100386305F0BDFD287D3C
S31500009050B8B140F24B5111E005F08CFD7869401C27
S315000090607861287D68B140F2525107E04FEA060266
S315000090702DA10120FCF7B7FF40F263514846FCF7EB
S31500009080D9FF87F801A0C7F83C80402E19D138795E
S31500009090012811DD411E38893971C9B2401C388159
S315000090A02A2005F0A1FDE86900224FF47A7105F047
S315000090B044FD064628B929E000212A2005F094FD42
S315000090C003E0002E18BF8F2E1ED0787901281BDDF5
S315000090D07989401E7871491C7981DFF85805017835
S315000090E001290ADDE969DFF85005814205D10278D8
S315000090F0082A02DDC178491CC170688B02F063FA48
S31500009100BDE8F047FFF7B4BE01202875BDE8F0873B
S315000091107068792D636F6D6D6F6E2D74782D746523
S3150000912073742E6300000000656D6265725261649F
S31500009130696F5472616E736D6974436F6D706C659F
S31500009140746549737243616C6C6261636B207374FE
S31500009150617475733A2030782578000080B504F084
S3150000916035F80346DFF8D804D0F8A01408E000006C
S3150000917080B504F03EF80346DFF8C404D0F8C01406
S315000091800FF20C0205A0BDE80050FCF791BC0000F0
S3150000919061637475616C506F776572007B264E2033
S315000091A026746464426D7D003EB50446A1680D6870
S315000091B068B204F01AF800F028F8D0F8B0146BB2D0
S315000091C000F01DF81FA0FCF773FC2046BDE83E40EA
S315000091D0C4E700003EB50446A1680D6828B204F055
S315000091E00DF800F012F8D0F8D0142BB200F007F802
S315000091F014A0FCF75DFC2046BDE83E40B8E70FF240
S3150000920088420FF27440FCF753BC01900FF26041A4
S315000092100091DFF82C047047E0B5DFF814140B8BCF
S315000092200FF2A042009200F1110101930FF27C426D
S315000092300FF2644038E18168DFF8F4330A681A8374
S31500009240EAE700000D0A00002DE9F14F84B08168BD
S315000092504FF0010A0A88511E8941C90F01920291F5
S3150000926004F085FA00B101208DF80100824D68698D
S315000092704FF0000BD846ADF802000198DFF80863FE
S31500009280774F012811D000F006F90299387821B1FC
S315000092900FF25041FBF742FF03E0019A77A1FBF77B
S315000092A03DFF00F0F2F800F0EBF8DFF88C43DFF852
S315000092B09493802249462046FCF72CFCDFF8740381
S315000092C001780129C4BF2078082819DD99F8011012
S315000092D0D04601F0200141F0C10161701821A17052
S315000092E02118029818B101F805BC002004E0019885
S315000092F001F8050C019800122178611801F8040C98
S31500009300D94661E000208DF8000000F0B0F800F0CA
S31500009310C7F85FD09DF800103878642906D100F0B0
S31500009320A1F8049800F11101002007E0442907D1B3
S3150000933000F098F8049800F111010120FFF7B2FD42
S3150000934009F101001FFA80F9DFF8FC12087820B154
S3150000935003F04AFD08B105F04DFC308B02F033F9FD
S31500009360DFF8D0120878A0B1B8F1000F18BF84F862
S3150000937003A0207803280CDD201800F803AC217820
S315000093804FEA2A20611801F8020C0AF101001FFABF
S3150000939080FA002030750121A9702046FFF77AFD7A
S315000093A08346B8B902F09EF98346307D50B9FFF77F
S315000093B057FD02F097F9A0EB0B0080B240F2D17195
S315000093C08842F2D395F802B0029800289AD1019803
S315000093D0814597DB387800F045F8707B40B1AA8A62
S315000093E0BDF802000FF23C31121A3878FBF796FEF0
S315000093F038785A460FF25031FBF790FEDFF84C02F0
S31500009400028838780FF25C31FBF788FE38780FF265
S315000094107431FBF783FE69783878002914BF0FF2A0
S3150000942080310FF28431FBF779FE04F0C1FB28B1DD
S31500009430AA6B38780FF27831FBF770FEEA6B387852
S315000094400FF29831FBF76AFE642002F0BCF89DF833
S31500009450010008B104F0BAF805B0BDE8F08F0000CD
S31500009460746301204A460FF2A021FBF757BE3878F5
S315000094706946FCF791BD00000C6E012025750000C1
S3150000948038780FF2E011FBF749BE328B38780FF2CD
S315000094906021FBF743BE38780FF24021FBF73EBE52
S315000094A09DF8000065287047FCF702FB07BD38B53C
S315000094B000F036F80400DFF89851287818BF012428
S315000094C00FF2A011FBF72AFE04F04FF904F002FB9D
S315000094D002E02878FFF7CCFFFFF7E2FFF9D104F0AE
S315000094E008FB19E038B500F01BF80400DFF86051FE
S315000094F0287818BF01240FF26C11FBF70FFE04F059
S3150000950034F904F005FB02E02878FFF7B1FFFFF716
S31500009510C7FFF9D104F018FB0CB104F057F831BDC0
S3150000952000208DF8000004F022B92DE9F041DFF8A3
S31500009530204120780FF2D4210026FBF7EFFD0FF231
S31500009540DC250FF2D028DFF8FC7015E0BA5D207834
S315000095504146FBF7E3FD711006EB91729210B6EBF4
S31500009560820007D139788E4204DA207832462946BD
S31500009570FBF7D4FD761CF6B23878401C8642E5DB54
S31500009580BDE8F08100000000C86301208068DFF8B4
S31500009590B4200168117070472DE9F8430446A068AD
S315000095A00027DFF8AC5006680FF27C28DFF89490AD
S315000095B0761CF6B2802E06DAA06800EB87014868B2
S315000095C009F8060005E028787B1C721E4146FBF769
S315000095D0A5FD7F1C042FEBDBBDE8F18319481421A0
S315000095E0017001214A1E4254491C8029FAD3704752
S315000095F010B512480021016141618161C1610162BA
S31500009600144B1960144C216001814181134A116089
S3150000961010BD8068064A0078010018BF01210228A3
S3150000962051730F490CBF01200020087070470000DD
S31500009630C8630120F26701208C6D01200C6E0120A9
S3150000964084E201000C6D0120F36701207E7A01207F
S3150000965074630120E0790120DC790120807A012001
