S00F00006E6F6465746573742E7333377F
S3150000000098E70020418B0100416A0000698A0100DF
S31500000010A70A0A010001000004180FACA067A70197
S3150000002000000000000000000000000000000000CA
S315000000300000000000A60100000000000000000013
S315000000400000000000000000FFFFFFFFFFFFFFFFB2
S31500000050FFFFFFFF00E007000000000000000000B7
S31500000060FFFFFFFFFFFFFFFF010000000000000091
S31500000070000000000000000000000000000000007A
S31500000080000000000000000048FD002048FD0020A0
S3150000009098E700206ED101005A8B010038DE00205F
S311000000A0541100200000080000000000C1
S3150000010098E70020418B0100416A0000698A0100DE
S3150000011071C800006D8A0100718A010000000000AC
S315000001200000000000000000000000008B1400002A
S31500000130758A0100531400007B190000DF5C000083
S31500000140F1C90000BB1101008B1900007D8A010076
S31500000150810C0100F7110100C1110100C31101005A
S31500000160BD1101007341010011ED000089EF00008F
S31500000170036100007D8A01007D8A01004D8801002F
S315000001804F6800007D8A01001FED00007D8A010096
S315000001907D8A01007D8A01007D8A01007D8A010039
S315000001A07D8A01007D8A01007D8A01007D8A010029
S315000001B0F9110100BF110100918A01008D4801006B
S315000001C0291201007D8A0100818A01007D8A0100D1
S315000001D07D8A01007D8A01007D8A01007D8A0100F9
S315000001E07D8A0100276900003F6A00007D8A0100C0
S315000001F07D8A01007D8A0100000000000056034848
S31500000200016830BF41F000410160704700BF4C31CA
S315000002100E400F48816B89B201B1012141F671325E
S31500000220826346F21A32036843F001030360C26434
S315000002304FF4807343604269D307FCD40022C26442
S31500000240C9B203685B085B00036001B182630020EA
S31500000250704708000E400000704700002DE9F04787
S31500000260DFF8204823A10FF260590FF26C5ADFF82D
S3150000027018880646207800F043FE0027AAA512E05B
S31500000280294600F03DFE0CE093681268494600F0EE
S3150000029037FE306800F0A8FAF2D00FF2345100F0C1
S315000002A02FFE7F1CBFB2306800EB07122078516822
S315000002B049B14145E8D15169002918BF4145F0D0FF
S315000002C012685146EBE700BF29A100F019FE20781D
S315000002D031A100F015FE20783BA100F011FE207838
S315000002E044A100F00DFE20782946BDE8F04700F055
S315000002F007BE0000434F4D4D414E44205B504152D6
S31500000300414D45544552535D205B2D204445534392
S3150000031052495054494F4E5D0D0A20207768657248
S31500000320653A20623D6275666665722C2073313DC2
S31500000330696E74385F742C2073323D696E74313681
S315000003405F742C2075313D75696E74385F742C208E
S3150000035075323D75696E7431365F742C2075343D87
S3150000036075696E7433325F740D0A0D0A0000000061
S3150000037020202120202D20526563616C6C7320742F
S3150000038068652070726576696F757320636F6D6D31
S31500000390616E640D0A00000020205B7461625D20BE
S315000003A02D20417474656D70747320746F207461B0
S315000003B06220636F6D706C65746520636F6D6D612F
S315000003C06E640D0A00000000202020202A2A204EFC
S315000003D04F54453A20616C6C20696E7075742076B6
S315000003E0616C7565732061726520696E2068657839
S315000003F0210D0A00202020202A2A20436F6D6D61DE
S315000004006E647320617265204E4F5420636173657C
S315000004102073656E7369746976650D0A00000000C5
S31500000420A0F141011A293CBF2030C0B2704700003C
S315000004302DE9F84F8046DFF85416D8F80800006812
S315000004400A68DFF84066C3B2002412F8039000255C
S31500000450B9F1200F06DD307834A1BDE8F84F20222F
S3150000046000F04EBDC0B200F06BFD8246A34607E029
S315000004701AF80B00FFF7D4FF0AF80B000BF1010B7B
S31500000480CB45F5DB4FEA090239A1504600F0CFFF14
S3150000049030B9012504E0307837A13A4600F030FD46
S315000004A0D8F800202101101D405800283AD0DFF866
S315000004B0D8B5641C5845A4B2F2D15758002DEAD1DC
S315000004C0384600F0C7FF4845EAD14A465146384605
S315000004D000F0A2FF0028E3D1404625460FF2DC28B3
S315000004E00FF2EC290FF2980A044621682F01081D25
S315000004F0C059B8B1584515D0C81983680268307814
S31500000500514600F0FDFC2068C019C26830781AB95F
S31500000510414600F0F5FC02E0494600F0F1FC6D1C96
S31500000520ADB2E2E7BDE8F18F0D0A00004572726FC9
S31500000530723A206C69737420617267756D656E74AA
S3150000054020746F6F206C6F6E672C207765206F6E3E
S315000005506C7920737570706F727420757020746F6B
S315000005602025752062797465732E0D0A000000003F
S315000005706D6F64756C65730025700D0A00000000D0
S31500000580257020257000000070B5044688B0A0686C
S31500000590016801B10121DFF8F8542970406800B103
S315000005A00120DFF8F064307016A001F073F9A0683E
S315000005B0C16801B10121DFF8E0241170006900B1C2
S315000005C00120DFF8D81400BF18A30870049312782E
S315000005D091F800000FF25C0118A3059207900691AE
S315000005E001203278009376A103900291019204F1E2
S315000005F011012B780FF24C0214A001F04BF908B050
S3150000060070BD00005475726E696E67206F66662055
S3150000061074616773206E6F742079657420737570CA
S31500000620706F727465640D0A0000000064656C6981
S315000006306D0000007465787400000000636F6D6DD6
S31500000640616E640068656164657200007B264E20F9
S31500000650566572626F73697479206F7074696F6E14
S31500000660732073657420746F3A0D0A2674750D0A2B
S315000006702674750D0A2674750D0A2674750D0A26DC
S3150000068074757D0D0A000000DFF81414007CDFF895
S31500000690F43351F82020187801A100F031BC000095
S315000006A04349204572726F723A2025700D0A000088
S315000006B038B5DFF8D043207840A5294600F020FC65
S315000006C094F800000CA100F01BFC2078294600F0ED
S315000006D017FC207811A100F013FC207839A100F056
S315000006E00FFC207810A100F00BFC207811A1BDE8CA
S315000006F0344000F005BC0000456D626572204E6F07
S3150000070064652054657374204170706C696361740C
S31500000710696F6E2076312E3000000000417567202B
S31500000720313820323032310031333A33373A3238C9
S31500000730000000000D0A0D0A000000002DE9F24F2E
S31500000740054692462E6B002712E01CA100F0D8FB4E
S315000007500BE08B681CA1CB4C00F0D2FB286800F0A4
S3150000076043F8F2D01AA100F0CBFB7F1CBFB21036C3
S31500000770706808B3D6F80080DDF8009000240BE01E
S3150000078019F8010BFFF74CFE834618F8010BFFF72B
S3150000079047FE8345E9D1641CA0B25045F0D3B94B5E
S315000007A0286800EB071118784C68B74B0A689C421A
S315000007B0CFD100BF08A1D6E7BDE8F18F0D0A000032
S315000007C0746167002C200000202025702025700011
S315000007D0202D2025700D0A002D2D2D2D2025702071
S315000007E02D2D2D2D0D0A000000EB0710C268207874
S315000007F0002A70472DE9F043ADF5017D0DF10400A7
S31500000800A9A14FF4807201F075F84FF000098DF838
S315000008100190A52001F0EFF801F038F900F0E9F9B0
S31500000820002001F07BFA804628B100F0DDF90020B7
S3150000083001F074FA804600F0DCF9012001F06EFA4E
S31500000840070005D000F0D0F9012001F067FA07464D
S3150000085000F0CFF9022001F061FA060005D000F0A1
S31500000860C3F9022001F05AFA064601F0E7FAB8F198
S31500000870000F844D0AD0002F68D0002E00F06B8048
S315000008804FF40171C8A001F0DFFA03E0002F18BF92
S31500000890002E5CD085F80090281D01F00CFC281D68
S315000008A0FFF706FFDFF8FC01C3A60FF2143801F0CC
S315000008B084FE00F0ACF928780FF2743100F020FBCA
S315000008C06DA700F0A8F9281D02F0C6F800F09FF900
S315000008D028780FF2683100F013FB00F09CF9281D10
S315000008E003F03AFE00F093F928780FF25C3100F03D
S315000008F007FB00F090F9281D03F04CFE00F087F985
S3150000090028780FF2503100F0FBFA00F084F9281D28
S3150000091003F062FE00F07BF928780FF2443100F014
S31500000920EFFA00F078F9281D03F06BFE00F06FF97E
S3150000093095F80000A4A100F0E3FA00F06CF9281D78
S3150000094004F0ECFD4DA64EA741AC91E0002E64D01C
S3150000095001202870A0E7022129709DE728780DF173
S315000009600103FF2241A901F022FA002846D001F036
S315000009703FF801F08AF904F007FA9DF8010010B378
S3150000098041A9084410F8011C09291CD100F043F9BB
S315000009909DF80100411E8DF8011041A99DF8012026
S315000009A0281DFFF7CBFE9DF801100020605400F0D3
S315000009B02AF9002004E000F021F99DF80000401C0F
S315000009C000F00AF9F7D39DF804012128C6D100F0FA
S315000009D022F94A4601A941A800F0D0FCA9F101007C
S315000009E08DF8010000F00FF9002000F0F5F8B5D2FF
S315000009F000F004F99DF80000401CF6E700218DF890
S31500000A0000109DF80020A05C511C0A2818BF0D2874
S31500000A1018BF0028F3D116E02E702878FF289CD145
S31500000A2000266946F0B201F0BDF938B99DF800001C
S31500000A300D2818BF0A2818BF2A28EDD0761CF1B257
S31500000A400329EEDBE9E70D20A0548DF8001041A93B
S31500000A509DF80020281D01F03BFB9DF8002041A9D0
S31500000A6001A800F08BFC9DF8009000218DF8011084
S31500000A7000F0C9F872E700005D0D0A00256300006A
S31500000A800D0A0000F0E70020590200008CE8002063
S31500000A90EEEB0020EFEB0020F0EB0020F1EB002066
S31500000AA0B0E900209BA7E9310D000000000000001E
S31500000AB00000000000000000000000000000000030
S31500000AC00000000000000000000000000000000020
S31500000AD00000000000000000000000000000000010
S31500000AE00000000000000000000000000000000000
S31500000AF000000000000000000000000000000000F0
S31500000B0000000000000000000000000000000000DF
S31500000B1000000000000000000000000000000000CF
S31500000B2000000000000000000000000000000000BF
S31500000B3000000000000000000000000000000000AF
S31500000B40000000000000000000000000000000009F
S31500000B50000000000000000000000000000000008F
S31500000B60000000000000000000000000000000007F
S31500000B70000000000000000000000000000000006F
S31500000B80000000000000000000000000000000005F
S31500000B90000000000000000000000000000000004F
S31500000BA00000000000000000706C6174666F726DDA
S31500000BB0746573742E6300005B494E49542000002F
S31500000BC00D0A3E200000000073657450657254657E
S31500000BD073745478000000008DF800009DF8011031
S31500000BE09DF8000088427047012300224FF4164109
S31500000BF07047012300224FF4E1317047225C2878C8
S31500000C00314600F07DB94146287800F079B9287858
S31500000C10314600F075B92878394600F071B980B5CB
S31500000C2004F0EEFDBDE802400020E3E50020704739
S31500000C30696E6974546F6B656E73000063726173DD
S31500000C4068696E666F00000072657365747374720E
S31500000C50696E6700696E6974526164696F000000AD
S31500000C6073656564506E72670000000070B51346C8
S31500000C701044DCB264B101F00F060909451E0A2EC4
S31500000C80ACBF37243024A41928462C705B1EF0E72D
S31500000C90104470BDF0B5002341B1002806D52D23C0
S31500000CA013700123B0F1004F18BF40420021002409
S31500000CB09AA5002601E0C01B761C55F82470B842A0
S31500000CC0F9D2F7B20FB90F0004D0D9B23036565464
S31500000CD05B1C0121641C092CEBDBD9B2303050546B
S31500000CE05B1CD8B2F0BD2DE9F84F824696B04FF0A6
S31500000CF0000914A8884617461D4604ACCB46019049
S31500000D0012E04FF0010B074600E0044601988442CA
S31500000D1009D39DF80020A41A00F0D4F8002851D178
S31500000D2059FA84F904AC7F1C04A88DF800009DF8DC
S31500000D3000003978201A00290FD0252905D05FEA4E
S31500000D400B0208BF04F8011BE0D05FEA0B0114BFD9
S31500000D504FF0000B7F1C39780A0000F0A680B1F135
S31500000D60250216D00B3A092A40F28080283A75D01F
S31500000D700A3A12D0521E3CD0521E57D0083A55D0CD
S31500000D80121F39D0D21E37D0921E4FD0D21E65D038
S31500000D90BCE7252004F8010BB8E729686A680391C7
S31500000DA02046083502920024029A9442ADD2039955
S31500000DB0095D0222FFF75AFF0199884206D300F027
S31500000DC085F800287AD159FA86F904A80299491EAD
S31500000DD08C423CBF202200F8012B0199884206D3A1
S31500000DE000F074F8002869D159FA86F904A8641C41
S31500000DF0DAE755F8040BCDE755F8046B044600F026
S31500000E0061F800285AD159FA84F9314604AC0646ED
S31500000E1000E0761CF0B2085C0028FAD1F2B2404637
S31500000E20D04700284AD159FA86F96FE76C290AD1CA
S31500000E307A7855F8040B752A0EBF00210121642A21
S31500000E4007D17F1C05E0752955F8040B0CBF00215E
S31500000E5001212246FFF71EFF241857E755F8041B09
S31500000E600222C9B22046FFF701FF4EE778787828BC
S31500000E7018BF58284FF0010BEFD17F1C781E32297E
S31500000E804FF0000B04D155F8040B81B20422E9E7B8
S31500000E9034297FF436AF55F8046B0422310C204612
S31500000EA0FFF7E4FE0422B1B2DDE70546EAB200F040
S31500000EB00AF818B9A9445FFA89F000E0002017B0D3
S31500000EC0BDE8F08FE2B204A9404650479DF80020E5
S31500000ED0861AF2B204A94046504708A110E00CB4A5
S31500000EE038B5044604AA00F013F8054603A12046C7
S31500000EF000F006F8284632BC5DF80CFB0D0A00002F
S31500000F000CB480B502AA00F003F802BC5DF80CFB35
S31500000F1080B505F073FBC0B202BD000000CA9A3B63
S31500000F2000E1F5058096980040420F00A08601007A
S31500000F3010270000E8030000640000000A0000001B
S31500000F40DFF808140A6802EB40107047DFF8002447
S31500000F501368195470472DE9F0415FEA000831D053
S31500000F6005F06CFCDFF8EC23DFF8EC131678DFF8FD
S31500000F70EC53FF23FE2E19D10027DFF8E463DFF8D8
S31500000F80E4C3177034782C7007E07C1C0EF8074019
S31500000F90DCF800E00EF80730E7B23478D1F800E06C
S31500000FA0A742F2DB0EEB040606F8013C2E78464516
S31500000FB00AD205F049FC052005F080FC00211B2023
S31500000FC005F000FDFF2020E0A6EB08062E70157840
S31500000FD0DFF894631778D6F800E001240EF807408E
S31500000FE0A8F10108D1F800C01CF8074014705FFA98
S31500000FF088F4002CEED1DFF858230CF807300021D6
S315000010001368595505F020FC2846BDE8F081F8B56F
S31500001010044600F031F8054605F010FCDFF83433DD
S31500001020DFF83873DFF830C3DFF83CE301E02C4625
S31500001030FF25FF2C1CD022460FE0DCF80010895C4F
S315000010400026A6543C78641C3C70FF29DCF800603E
S315000010501C78B4541A70EAD00A46DEF800108C5C8C
S31500001060661E8E54DEF80040A15C11F07F0FE4D0BE
S31500001070BDE8F24005F0E8BB10B5DFF8EC120A68EF
S31500001080145C210605D5DFF8C42213684001185CFC
S3150000109010BDFF2010BD7CB504460D4605F11F00AE
S315000010A00004400DC0B2FFF756FFFF2806460DD0DC
S315000010B0DFF89C0201688D553CB1012000902B465B
S315000010C000223146204600F002F8304676BDF3B5E0
S315000010D0054681B0DFF87802016817469DF80820BA
S315000010E01E468B5CF419A34203DA4FF4B77100F085
S315000010F0E0F830000CD0089C394602A800F0DDF874
S3150000110002469DF8081000943346284600F001F880
S31500001110F7BD2DE9F047089DDFF83C62DFF82CA209
S315000011208046894614461F460DE02900224612BF16
S3150000113041460146404600F021F930683F1BA04475
S3150000114010F809900024F8B270B1DAF800002146D0
S3150000115000EB4913581851FA87F12029B2BFFCB2A7
S31500001160C4F12004E4B2E0E7BDE8F0872DE9FC41D4
S315000011700746DFF8DC0188460168CC5D15461E4649
S315000011802919CBB2A34206DB28000DD0C9B23846D6
S3150000119000F05BF808B1182007E000962B462246BF
S315000011A039464046FFF793FF0020BDE8F68101234C
S315000011B0DCE70A4600E0521C1378002BFBD1521ADA
S315000011C00123D2B2D2E72DE9F041804601F11F0496
S315000011D002F11F00E404C004240E000E04B9012429
S315000011E000B9012084422AD0DFF86C5119DA001BBD
S315000011F0C0B2FFF7B0FE0746FF2808BF00201FD089
S31500001200641E00F01FF82E68305CFF2804D000F042
S3150000121019F8305CFFF7FBFE00F014F829680F544C
S315000012200DE08A420BD2411EC9B200F00CF804460A
S315000012302868005DFFF7EBFE2968FF2008550120AE
S31500001240BDE8F081E1B2404610E070B5DFF800611C
S31500001250336805460C46595D2246FFF7B4FF18B1C0
S3150000126030684455002070BD182070BD04E0DFF8DA
S31500001270E8201368185C491ECAB2002AF7D17047E5
S3150000128031B50C46DFF8C8100A68155CAC4203D3CA
S3150000129040F2052100F00DF82146684600F00DF8F1
S315000012A0DFF8A8109DF800300A6802EB43110844E5
S315000012B032BD0FF2B80000F0C7BD38B504460D4682
S315000012C0C9042078090EFFF7D1FF207005F01F0032
S315000012D032BD80B5FFF7D4FF007802BD10B51446C5
S315000012E0FFF7CEFF047010BDFDB5089C20000D462B
S315000012F01E461BD1F7BD154B9DF804001B6803EB7A
S315000013004010C2F12002D2B2BA42B8BF17468119C4
S315000013109DF8000003EB40133A46581900F02EF8EA
S31500001320E41B7D19BE19A0B200B9F7BDA9B2684683
S31500001330FFF7C3FF0546B1B201A8FFF7BEFF064699
S31500001340B542A7B2B4BF32462A46D4E788E80020A1
S315000013508CE80020FCEB002094E80020F8EB00204D
S31500001360F7EB002098E8002090E800207061636B9E
S3150000137065742D6275666665722E630070B581426E
S3150000138024D210441144401E491E10E011F80139C0
S3150000139000F80139121F11F8014900F8014911F846
S315000013A0015900F8015911F8016900F8016993B271
S315000013B0042BEBDA93B2002B1EBF11F8013900F8AB
S315000013C00139521EF6D170BD00F00DF893B2042B10
S315000013D0FADA93B2002B1EBF11F8013B00F8013B6D
S315000013E0521EF6D170BD11F8013B00F8013B121FE9
S315000013F011F8014B00F8014B11F8015B00F8015B95
S3150000140011F8016B00F8016B7047130003D00A4610
S31500001410194605F0E1BA704710B5034600E0521EC2
S3150000142090B218B100F00FF8F9D0001B10BD10B53E
S31500001430034600E0521E90B220B100F004F8F9D045
S31500001440001B40B210BD13F8010B11F8014BA0426E
S315000014507047704700F10103810704D010F8011BA3
S31500001460820781B1FAD10268A2F10131914311F0EC
S31500001470803104BF50F8042FF6E709BAB1FA81F1BA
S3150000148000EBD100401CC01A7047FEE738B5044691
S31500001490651D206A2368451B2079EAB2611D9847BD
S315000014A008B1002032BD94F829002D18611D84F87A
S315000014B029502162012032BD38B50446002500E0DE
S315000014C06D1CE8B2085C0028FAD120792368EAB2DC
S315000014D0984730B994F829002D1884F8295001202E
S315000014E032BD002032BD2DE9FF4B07460C46781D64
S315000014F0386207F1150179620020904687F82900C5
S31500001500DFF8C05315E02AB1791D396201E01100F8
S31500001510F9D1044626B100F09DF97D2001F8010DB0
S31500001520386A796A884203D300F09AF9002867D0AE
S31500001530641C2178002900F06B812529687818BF82
S3150000154026290ED07B291CBF7D29232907D10028F7
S31500001550E6D03A6A521C3A6202F8011DE0E7A87822
S31500001560F5E714F8013F252B18BF262B04D100F010
S3150000157071F901F8013DD3E726290BD150B10126B7
S315000015806E2B18BF4E2B11D000F064F97B2001F8AA
S31500001590010D00E00026217800224E2906D05429AC
S315000015A023D06E2902D074291FD032E0287858F84B
S315000015B004BB0028B4D036B1386A7B210170821C86
S315000015C03A622823437000F04BF9002818D000F047
S315000015D036F9002814D0002EA2D0386A29210170CD
S315000015E0821C3A627D2343709AE700F037F900289F
S315000015F006D000F024F9002802D000F031F90028C6
S3150000160000F0828000F026F93A2001F8010D01224F
S31500001610641C207894F801E0A0F13003DBB2981E38
S31500001620052835D2BEF1640F18BFBEF1750F2FD154
S3150000163058F8040B012180B2BEF1640F4FF0000C84
S31500001640814606D15FEA004E03D5C043401C8C4656
S3150000165080B248B14FF00A0E90FBFEF080B200282F
S315000016600CF1010CF6D10BE00CF1010C08E0D7F8F7
S3150000167020E00EF1010EC7F820E020200EF8010D43
S31500001680604600F1010CC0B29842F0DB641C00E039
S31500001690002194F800C0601EBCF1000F3FF437AF84
S315000016A0BCF1320F18BFBCF1340F00F08D80BCF1D5
S315000016B0480F0AD0BCF1580F16D0BCF1630F15D0F5
S315000016C0BCF1640F24D0BCF1680F72D0BCF16C0F72
S315000016D051D0BCF1700F18BFBCF1730F0DD0BCF127
S315000016E0750F15D0BCF1780F65D00CE7386A411C30
S315000016F0396258F8041B01700CE700F0AFF818B116
S3150000170000F09DF80028F7D1002004B0BDE8F08B6A
S31500001710002912BF1FFA89F058F8040B80B228B9C5
S3150000172000F098F8302001F8010DF3E60023BCF133
S31500001730640F0ED101040CD53A6A521C3A622D216F
S31500001740B0F5004F02F8011D03D0404280B20028D8
S3150000175066D04FF00A0C90FBFCFC0A2101FB1C0032
S31500001760D9B25B1C0DF801001FFA8CF0EFE7D8B276
S3150000177000F078F854E058F8040B0028D0D0002286
S3150000178000280AD500F066F82D23B0F1004F01F8C5
S31500001790013D02D04042002848D00A23B0FBF3F3B3
S315000017A00A2101FB1300D1B2521C0DF801001846A4
S315000017B0F1E700F047F8022258F8041B386AC9B26C
S315000017C0FFF754FA3862A5E614F8010F682818BF27
S315000017D048280BD100F036F814F8011C386A322973
S315000017E00AD158F8041B042289B2E9E7782818BF01
S315000017F05828F1D0641E8DE658F804BB04224FEA3F
S315000018001B41FFF733FA386204221FFA8BF1D7E740
S3150000181000F026F800283FF477AF97F8290074E720
S315000018201846431EC0B20028A1D173E61046421ED8
S31500001830C0B20028F9D0D0B200F014F8F6E7594645
S31500001840384639E6386A30210170821C3A627823BC
S3150000185043707047396A491C3962704758F804BBAF
S31500001860384613E6396A1DF80000491C39623030E3
S3150000187001F8010D70470EB410B5134A01461078F1
S315000018808BB0002428B1114A00F013F800B90124E6
S3150000189020460AE00EB410B50C4A8BB0014600F0A3
S315000018A008F8002400B9012420460BB010BC5DF8EE
S315000018B010FB0748137800908DF804300DAA68468F
S315000018C011E60000EFEB0020EEEB0020F0E7002031
S315000018D02966000062B38B0708D0521E11F8013B3F
S315000018E000F8013B00F024808B07F6D1830740F017
S315000018F0208000BF103A07D330B4B1E83810103A50
S31500001900A0E83810F9D230BC530724BFB1E808105C
S31500001910A0E8081044BF51F8043B40F8043BD20746
S3150000192024BF31F8022B20F8022B44BF0B7803703A
S315000019307047121F17D35B0009D151F8043B20F8FA
S31500001940023B1B0C121F20F8023BF6D20BE051F8AB
S31500001950043B00F8013B1B0A20F8023B1B0C121F3C
S3150000196000F8013BF3D238BF121D521E24BF11F8F6
S31500001970013B00F8013BF8D87047FEE7890001EB10
S31500001980401101F184410868704705F059B800001C
S315000019907FB50121344805F03DF9012201210120DE
S315000019A005F00CFC0421072005F064FD34A292E842
S315000019B038006946032281E838000D218DF80810A9
S315000019C001268DF809208DF800608DF807606946BC
S315000019D0264C204605F0DEFD25490420086002223B
S315000019E0244962620860A26A42F00202A2627FBDD6
S315000019F01E4805F0C3BDA52803D100211B4805F0EC
S31500001A00A4BD70471948006800F0010070471A49E4
S31500001A1008680028FCD1704738B504460D4600F02A
S31500001A2016F804F00F01034624052A46200E01B0DD
S31500001A30BDE8304005F05DBE00F00F010005000E68
S31500001A4030220E4B50431A1802F11C0096E700F0A4
S31500001A500F010005000E3022084B50431A1802F100
S31500001A600C008BE70000000030253E0000200540FA
S31500001A7080E200E000E100E00820054000A0004010
S31500001A8001000000000000010F00000080B50121E8
S31500001A90894805F0BFF8894801210160002005F05A
S31500001AA0E4FD012304220221052005F022FE012087
S31500001AB004F0CEFE00F00FF804F0FBFE05F00FFF79
S31500001AC001234022DFF8F81190A005F0D3FE7D49EE
S31500001AD00860C00F02BD70B501220121042005F087
S31500001AE06DFB7948794C0168794D7A4E41F00101D8
S31500001AF001600021C26842F08072C260022276480C
S31500001B00206029603160754875490A6005F0B9F8AA
S31500001B107449754A754B0818B0FBF2F0401E186000
S31500001B20002129644FF48072714872492065316042
S31500001B30714802602B6843F480732B6070BD80B5DA
S31500001B4064480168CA070ED56C490B6823F44063E4
S31500001B500B60016849084900016002681102FCD463
S31500001B60642005F0D8FE00220021042005F026FBA3
S31500001B705B49614B0020086018605349086001BD4D
S31500001B805148006800B10120C0B27047D1220270EE
S31500001B904170090A81705A490A78C2700420521CA1
S31500001BA00A7070472DE9F14F5649DFF85CA10A68C3
S31500001BB0DFF81C81444E82B0002500904FF6FF7975
S31500001BC0145C05F019FF641DE4B201901FE0A91E24
S31500001BD09DF80800C9B2FFF77CFB0746494605F0A9
S31500001BE03FFF81465D463B480168CA070FD5F0684E
S31500001BF040F08070F060D8F8001041F48071C8F8A9
S31500001C000010DAF800000028F1D08AF80070316878
S31500001C10EFB249B3A74227DA05F0EEFE0199401A62
S31500001C2080B240F2F51290421EDAE8B210B95B2794
S31500001C300125D8E7012805D13248009A01688F5C52
S31500001C400225D0E7E01E874205F1010B08BF4F468B
S31500001C50C8D0A11E8F4208BF4FEA1927C2D0601E06
S31500001C608742B4D15D27BDE7A7420CBF0020012003
S31500001C70BDE8FE8F10B523490A68145C042C01DA0E
S31500001C80012010BDBDE810408CE710B50D4B18685B
S31500001C9090B04022694605F0D7FD58B1C1B26846FA
S31500001CA0FFF7F9F904462146122005F0A7FF204662
S31500001CB0FFF7ADF910B010BD00350A0010881442C8
S31500001CC0A4F6002084E80020F0ED00E0B00F00E06C
S31500001CD0000E00E0800E00E055CEACC506000E00FA
S31500001CE0F00004E0FCAC0600F8590D00100004E01A
S31500001CF0FF0300400D000100040304E0001000E0B3
S31500001D003FFD00208CE80020200000E073696C6134
S31500001D1062737675617274646F776E002DE9F041B7
S31500001D2004469046012522008AB00F461E4606D07C
S31500001D30012C1DD0102C02D0202C19D01FE0002120
S31500001D4004F045FA0546012C18BF202C08D0022CB9
S31500001D5018BF212C04D0032C1CBF222C232C1BD1F2
S31500001D60012E0197ADF80C800BD14FF480500CE09A
S31500001D704FEA0D0027A12822FFF7BCFDE3E701206B
S31500001D800BE0022E03D14FF44050ADF80A0069462D
S31500001D90204604F01CFA0546E8B20AB0BDE8F08118
S31500001DA004F0DBBA80B504F0E3FAC0B202BD80B538
S31500001DB004F02DFBC0B202BD7CB5044600200D46E2
S31500001DC016468DF8000001E0FFF712FE6B4632461C
S31500001DD029462046FFF7EBFF0028F5D176BD80B5F2
S31500001DE004F09CFBC0B202BD80B504F0B3FCC0B2E7
S31500001DF002BD0CB480B50A46014602AB0348FEF7A5
S31500001E0072FF02BC00205DF80CFB0000F3660000C8
S31500001E10704700000000014000C2010000000010F1
S31500001E2000000000030002000300000000000000A4
S31500001E30000000001E1E000010001000002080F3AD
S31500001E401188704742DE704738B504460D4606F0E5
S31500001E5053FBFFF7CDFD07F0AAF92946204605F00A
S31500001E6011FE2B464FEA040276A10120FFF7C1FFBF
S31500001E7029462046BDE83440E4E769482DE9F843A1
S31500001E80684E0168B1654FF42068026A6649F265DA
S31500001E900B68336649687166426AB266816AF166A2
S31500001EA0C26A3267016B7167806B96F83810B0674B
S31500001EB048074CBF346CF46B07F0B6F90022326564
S31500001EC08442DFF868E1014624BFAEF12007A7424D
S31500001ED0A146716506F19002554BDFF858C118D33B
S31500001EE0A0697064E469B464B56DC5F30805062D90
S31500001EF013D1604511D398420FD200884DF6426443
S31500001F00A0420AD17068B4685060946040F20178CB
S31500001F1003E000247464B46481464748814238BFB4
S31500001F200146084670456AD20C68B4F1CD3F08BF39
S31500001F30091DF6D063E0062C09D1C4B2002C0CBFF3
S31500001F400520401E06F17C04C5B244F82510F14573
S31500001F5020D25EF8041D6145F9D39942F7D2CC0729
S31500001F60F5D5002406F17C0555F824708F42E2D0A1
S31500001F70641C062CF8D3DEE7F16F002306F17C051E
S31500001F8006EB8304D4F8804045F823405B1C042B01
S31500001F90F6D911600146481EC9B20029ECD1B06DD0
S31500001FA0C0F30800032810D0042811D0052812D049
S31500001FB0062813D00C2817D0122818D11F480268FB
S31500001FC0910719D540F2025816E040F6012813E0B1
S31500001FD040F6022810E040F603280DE0B8F5206F21
S31500001FE00AD140F6042807E040F6052804E018B1B7
S31500001FF03F2838BF40F607284046BDE8F28310491F
S31500002000081AF0640021002006F17C04C5B2401CC9
S31500002010C7B244F82510062FF8D3002097E7000032
S3150000202004ED00E00000002000E300E098E7002057
S315000020305A8B0100580200009C0000201C2005401D
S3150000204098E700200D0A5B4153534552543A2570D8
S315000020503A25645D0D0A00002DE9F8438146DFF854
S31500002060C403016811F8095000260027E90748BF94
S3150000207000201ED400240FF2D448E0B2A84213DA9E
S31500002080E1B24846FFF725F918F8002002F00F02E2
S31500002090E00758BF170105D53A43F1B24846FFF7A6
S315000020A01DF9761C641CE8E7F1B24846FEF74EFFC0
S315000020B00120BDE8F28300F12401FF228A7000238B
S315000020C0C373C3830B7083730068C86070470000D6
S315000020D02DE9F74F82B0054600208DF8010005F185
S315000020E0240608E0687B70720122EA7329469DF88F
S315000020F0000000F0A9F903980027002460BB9DF8B2
S3150000210010006946FFF74EFE002839D0262826D053
S315000021100121284600F08AF978208DF80000A046B3
S31500002120102700218DF80110E97B0829E3D8DFE8A4
S3150000213011F00A004B008E00EA00EA0041014D0151
S31500002140AD009E00D7E7102FCCD09DF800002328C5
S3150000215036D10821E973CEE79DF8100020B99DF825
S31500002160010005B0BDE8F08F0398401C039010F8FD
S31500002170011D9DF810008DF80010411E8DF81010FD
S31500002180A0469DF8000067280FD29DF800100FF2B8
S31500002190BC30405C00F0300700F00F08400607D561
S315000021A0717A884504DA012402E07B2838BF1027BB
S315000021B09DF800000A2818BF0D28B2D10121B1E709
S315000021C0202F98D0032027E1102F1CBF9DF8000078
S315000021D05F2800D01CB130780C28F3DA86E7202F70
S315000021E018BF302F3FD1327805F1110100208854F5
S315000021F04FF00009F06801900DE01AF8010B00F0AD
S315000022001CF91BF8011B81420CD0019800F110014A
S3150000221009F1010901910199486820B3D1F800A09C
S3150000222005F1110B9BF800000028E6D19AF8001082
S315000022300029EAD1A5F81E90F068E98B00EB01129F
S31500002240002190682862A97331700222EA73002C7B
S31500002250687B70722FD02B203072C6F80480042160
S31500002260687B707276E70321284600F0DFF89DF858
S315000022700100002809D0287C20B1696828468847D3
S31500002280002028742846FFF716FF34E79DF8010062
S3150000229018B1284600F0E4F8F4E79DF8000023287A
S315000022A005D1284600F0DCF80820E87323E7202F44
S315000022B0FCD00420B0E09DF800002D2818BF2B2884
S315000022C004D13072002171600321C9E722280AD1A6
S315000022D00120FEF740FEFF28B0700BD00021FEF76C
S315000022E035FE0520E1E77B28D0D10120FEF733FE3D
S315000022F0FF28B07000F08F800021FEF727FE102027
S315000023007072062126E744B17068717A042201FBD7
S315000023100088EA73C6F80480EDE69DF80000782888
S3150000232018BF582804D1706810B910217172E2E6FE
S315000023309DF80000742818BF542803D1706808B9A6
S315000023400A21F3E7032956D0202F18BF302F52D188
S31500002350296A08784A78337A71682D2B08BF494272
S31500002360752808D1342A1AD00020312A14BF4FF616
S31500002370FF72FF220FE0732808D1312A07BF6FF0E2
S315000023807F007F22284847F6FF7204E00421284692
S3150000239000F04CF86BE78142A8BF8A4208DB0222B4
S315000023A0284600F07CF80028F4D00220E8734EE7B7
S315000023B00621ECE79DF8000022281ED100212846C0
S315000023C000F082F80028B2D002206EE79DF80000E7
S315000023D07D280DD1B078FFF73FFE0446012128463F
S315000023E000F072F808B10220E873002C9FD102E0D9
S315000023F0202F9CD00CB907200EE00A49B0780A6855
S31500002400145CFF2C08BF082006D001226946FEF79F
S31500002410CEFE00288BD002208DF800009DF800101B
S3150000242022E700008CE800200080FFFF027C1AB93A
S315000024300823C37301745DE07047A0F141011A29B6
S315000024403CBF2030C0B2704738B50C4694F82450D3
S31500002450FFF7F3FF61196D1C487484F8245031BDF1
S3150000246010B50446216A087830B162280CBF0120F5
S315000024700220085C2A2807D1216BE28B01EB0213AC
S3150000248020465968884706E0042020742046616883
S315000024908847002020742046BDE810402AE010B589
S315000024A0837B047BA34201D105211FE0846844F8A5
S315000024B02310817B491C8173016A8B5C2A2B1CBF0C
S315000024C089180162012010BD10B500F120021368C1
S315000024D01C78622C01D0042108E09379FF249471C2
S315000024E00122BDE8104003EB0121D8E7FFF79EFF6C
S315000024F0002010BD70B50446206BE18B00EB011285
S3150000250000269568A17BF0B2884212D2287862280C
S3150000251018BF022007D1A168F2B251F82200C0B25A
S31500002520FEF775FD0120295C2A2918BF2D18761C97
S31500002530E8E70020A07394F82600FF2804D0FEF7F1
S3150000254066FDFF2084F8260070BD00000000000034
S3150000255000000000002020202020000000000000D5
S3150000256000000000000000000000000020003030E5
S3150000257000000000000000300030000040414243EF
S31500002580444546474849000000000000005A5B5C8D
S315000025905D5E5F101010101010101010101010104B
S315000025A0101010101010103000000000005A5B5C74
S315000025B05D5E5F0000B10C30704706F04DBE38B569
S315000025C00D460446002103F019F92946204606F077
S315000025D08CFF08B1002032BD204632BD70B50D001B
S315000025E0064614BF012400241F21204608F052FA93
S315000025F0284606F050FE002086F8C400F066B56650
S315000026001F21204608F046FA4FF6FF740020E968BD
S3150000261088420CD2AA68182111FB00F11144C9891D
S31500002620A14201DA0C0002D0401CC0B2EFE7DFF88D
S31500002630B0020021016041603046214600F097F863
S31500002640204670BD704710B5044606F0E9FF002C21
S315000026500CBF002004F10C00406F0100DFF880126F
S3150000266008BFDFF88002886010BD38B500F079F940
S31500002670054607F085F8012801D0022032BD214623
S315000026802846BDE8344007F01CB8DFF8540200685D
S31500002690704710B50C4607F027F81CB107F070F824
S315000026A00128FBD110BD00002DE9F04BC26E1AB116
S315000026B003898AB29A4251D0846E002C1CBFA2684C
S315000026C0002A01D0E26812B90320BDE8F08B00258C
S315000026D0D0F87C80A9460F46CB4606460021E06826
S315000026E081453ED2A26802EB0B00BAB2C3899A4278
S315000026F022BF028ABBB29A4218D305465FEA080097
S31500002700B5F9122003D0B6F9F600824229DAFF2085
S3150000271047F6FF739A4205D096F8A810A6F10C006A
S3150000272008F0C4F93279904201461AD209F101093A
S315000027300BF1180BD3E75FEA080004D000232A4602
S3150000274000213046C04706F1B8032A46B9B23046E2
S3150000275007F0C4FC3781F56686F8B4400020BDE872
S31500002760F08B002D0C46E6D10120BDE8F08BF0B5CC
S3150000277081B004460D4608F0FDF90646A9B220468A
S31500002780FFF792FF070006D100230022A9B22046D8
S3150000279000F007F80746304608F0F0F9384601B071
S315000027A0F0BD2DE9F84F06460F46904608F01CF995
S315000027B04B4DB5F80CB0002408F040F94FF0000A74
S315000027C0A14618B16C6008F034F903E05FFA88F0AE
S315000027D000B16C60F06E6968884205D120B1B8B26C
S315000027E0584508BF002075D006F0CAFF012803D05F
S315000027F001210120FFF74DFF2868E0B1B26E90423B
S3150000280009D1696839B1F36E994204D1B8B28345EA
S315000028101BD0012419E0016869B1126891420AD1FE
S31500002820F16E0A6869684FF0010911B109689142B1
S315000028300BD0416805E0F06EB16E026809684FF092
S315000028400109304607F062FF8246D6F87CC0BCF12B
S31500002850000F0BD1317996F8B4009DF80020814223
S3150000286088BF0146304607F0E3FB04E06B460022D2
S3150000287000213046E047BAF1000F5FFA88F814D11C
S31500002880B06E286044EA0804F16E696059EA0404EF
S315000028900BD049EA0800411E8941BFB2C943EF6027
S315000028A0C90F304607F04BFC824659EA080010D0A3
S315000028B0BAF101008041C00F332108F0EBF89DF812
S315000028C00010304607F02EFFF16EAA68A6F10C0044
S315000028D09047504601B0BDE8F08F00897047000070
S315000028E0D8E900204526000001281CBF042802283C
S315000028F001D1012070470020704738B500F02DF84F
S3150000290040B16878FFF7F0FF20B129786878014375
S31500002910490701D5012032BD29462046BDE834408D
S3150000292007F0D9BA10B500F01CF82146BDE81040F2
S31500002930E3E738B500F011F838B16878FFF7D4FF4F
S3150000294000281CBF6878042801D1012032BD294621
S315000029502046BDE8344007F0E4BA0D460446287820
S31500002960C2E70C4626E610B5FFF7FBFF2146BDE899
S315000029701040DEE7FEB5DDE9086714461D46FFF7A1
S3150000298019FECDE9006722462B4606F00CFEFEBD79
S3150000299010B5FFF7E6FF2146BDE8104007F09CBEE4
S315000029A02DE91040DFF8684705A12078FEF7A8FA60
S315000029B094F8000006A1BDE81040FEF7A1BA000099
S315000029C0286C6974746C6520656E6469616E0000BC
S315000029D02C20616C6C206461746120726570726574
S315000029E073656E7465642061732062797465206115
S315000029F072726179290D0A0001460878A0F1300348
S31500002A000A2B38BF30380AD3A0F14103062B38BF52
S31500002A10373804D3A0F16102062A02D257380001E2
S31500002A2000E000204978A1F130030A2B02D24018B9
S31500002A3030380EE0A1F14103062B02D24018373898
S31500002A4007E0A1F16102062A39BF4018573800068F
S31500002A50000FC0B27047000010B508F0CFF80200B2
S31500002A6018D0DFF8AC462078042A08BF0FF22801F8
S31500002A7007D0062A08BF0FF26C0102D0072A03D13D
S31500002A8029A1FEF73DFA02E039A1FEF739FA2078CE
S31500002A9044A190E710BD000068616C537461636BDC
S31500002AA0496E6974546F6B656E73204641494C4597
S31500002AB044207769746820454D4245525F4545502C
S31500002AC0524F4D5F4D46475F535441434B5F56450A
S31500002AD05253494F4E5F4D49534D415443480D0A99
S31500002AE00000000068616C537461636B496E697421
S31500002AF0546F6B656E73204641494C454420776997
S31500002B00746820454D4245525F454550524F4D5FD2
S31500002B104D46475F56455253494F4E5F4D49534DBB
S31500002B20415443480D0A000068616C537461636B3D
S31500002B30496E6974546F6B656E73204641494C4506
S31500002B4044207769746820454D4245525F4545509B
S31500002B50524F4D5F535441434B5F56455253494F75
S31500002B604E5F4D49534D415443480D0A0000000045
S31500002B7068616C537461636B496E6974546F6B65FD
S31500002B806E73204641494C45442077697468204558
S31500002B906D6265725374617475733A2025580D0A17
S31500002BA000000000546F6B656E73206172652073C0
S31500002BB074696C6C20616374697665207768656EEC
S31500002BC0207573696E672074686973206170706C14
S31500002BD069636174696F6E2E0D0A00002DE9F84F66
S31500002BE0C0B08068DFF828750568FFF7D9FEA8B27F
S31500002BF008F075F88046A8B208F044FA0446A8B270
S31500002C0008F022FB8346002C38781ABF4FF6FF7275
S31500002C1090450FF2045128D02346AAB20FF2D811DC
S31500002C20FEF76EF900250FF270290FF2702A06E002
S31500002C3000F01CF8761CF0B2A042F9DB6D1CE8B27D
S31500002C40584510DABBF1010F234603D17F2201F06C
S31500002C509DF906E0EAB201F099F938785146FEF797
S31500002C604FF90026E7E7387851465BE01DF800206B
S31500002C7038784946FEF744B92DE9F84F0446C0B006
S31500002C80A168DFF88C740E68B0B208F0FBF98046D4
S31500002C90B0B208F024F88346B0B208F0D5FA06467A
S31500002CA0B8F1000FAFA006D104F11101FEF7F2FD55
S31500002CB00FF2B42135E04FF6FF72934504F111018E
S31500002CC004D1FEF7E7FD0FF2C4212AE0FEF7E2FD8C
S31500002CD097F8000016A14246FEF712F900240FF2FB
S31500002CE0B8190FF2B81A06E0FFF7C0FF6D1CE8B27C
S31500002CF04045F9DB641CE0B2B04211DA012E4346CE
S31500002D0004D17F22594601F042F907E0E2B2594662
S31500002D1001F03DF938785146FEF7F2F80025E6E76E
S31500002D2008A13878FEF7ECF841B0BDE8F08F000056
S31500002D307B73697A653A25647D7B76616C75653A45
S31500002D40000000007D7D0D0A000000002DE9F0471F
S31500002D50C0B0806807684468DFF8B463FFF720FEF8
S31500002D60B8B208F08FF98046B8B207F0B8FF8146CE
S31500002D70B8B208F069FA0546B8F1000F30781ABF04
S31500002D804FF6FF7291450FF2903130D0A5F1010A4E
S31500002D9015B1E1B28A450BDA0FF28831FEF7B0F8C9
S31500002DA030780FF2B83153460022FEF7A9F820E03A
S31500002DB04346BAB210A1FEF7A3F8012D08BF7F243F
S31500002DC04346E2B2494601F0E2F834A53078294696
S31500002DD0FEF796F8002430A704E01DF8012001F064
S31500002DE0E3F8641CE1B230784145F6DB2946FEF78C
S31500002DF087F840B0BDE8F0875B2532785D2825640A
S31500002E0029203D002DE9F847C1B08068C04F06680B
S31500002E10FFF7C6FDB0B208F035F98046B0B207F04C
S31500002E205EFF8246B0B208F00FFAB8F1000F1CBF81
S31500002E304FF6FF718A45064605D138780FF2D8213C
S31500002E40FEF75EF827E000240FF234391FE016FB88
S31500002E5008F338785B1E08FB04524946FEF750F823
S31500002E60387803226946FEF7A7FF6846FFF7C4FDD8
S31500002E7001A948556D1C4545E9DB012E434601AACB
S31500002E8014BFE1B27F21504607F0F8FE641CB4423D
S31500002E90B8BF0025EFDB61E0202558000D0A0000D1
S31500002EA02DE9F0470646C2B0B0689A4907684068FF
S31500002EB00A688DF80400B8B29DF80430D45C08F0B6
S31500002EC0E1F80546B8B207F00AFF8246B8B208F044
S31500002ED0BBF9814628008E4F0FF2880804D100F016
S31500002EE0BDF800BF20A136E04FF6FF718A4503D139
S31500002EF000F0B4F825A12EE0EA2D05DD00F0AEF8CD
S31500002F005FF0EA022BA106E0AC4208D000F0A6F87A
S31500002F104FEA05023AA13878FDF7F2FF1EE00020DD
S31500002F2000902B469DF80410002202A8FEF7CFF869
S31500002F300024E0B248450BDAB9F1010F2B4602AA8C
S31500002F4014BFE1B27F21504607F098FE641CF0E7FB
S31500002F5000F084F83DA13878FDF7D2FF42B0BDE815
S31500002F60F08700007B264E007B72657475726E3AA0
S31500002F70317D7B746F6B656E2073697A652069732A
S31500002F80207A65726F7D7D0D0A0000007B72657484
S31500002F9075726E3A317D7B696E76616C69642074F8
S31500002FA06F6B656E20616464726573737D7D0D0A57
S31500002FB0000000007B72657475726E3A317D7B6F1E
S31500002FC06E6C7920746F6B656E73206F6620736903
S31500002FD07A6520757020746F2025644220617265C1
S31500002FE020737570706F72746564206279207468DE
S31500002FF0697320636F6D6D616E647D7D0D0A0000DF
S315000030007B72657475726E3A317D7B746865206576
S315000030106E74657265642062756666657220646F9B
S315000030206573206E6F74206D6174636820746869BF
S315000030307320746F6B656E27732073697A65202819
S31500003040256442297D7D0D0A000000007B726574AF
S3150000305075726E3A307D7D0D0A00000006F1110191
S315000030604046FEF717BC00002DE9F847C1B080685E
S3150000307004684668DFF8D85DFFF792FCA0B208F056
S3150000308001F88046A0B207F02AFE8246A0B208F0F8
S31500003090DBF80446B8F1000F28781CBF4FF6FF7224
S315000030A0924503D11CA1FDF72BFF30E0671E14B13A
S315000030B0F1B28F420ADA00BF1AA1FDF721FF287884
S315000030C026A13B460022FDF71BFF20E000270FF25A
S315000030D0B00911E02878A8F101033A464946FDF700
S315000030E00FFF287803226946FEF766FE6846FFF75B
S315000030F083FC01A9C8557F1C4745EBDB012C08BFA3
S315000031007F26434601AAF1B2504607F0B7FD25E7F0
S31500003110F0E700208CE800206E6F7420666F756EF5
S31500003120640D0A004552524F523A20446573697243
S31500003130656420696E646578206973206F757420F4
S315000031406F662072616E676520666F7220746869AB
S315000031507320746F6B656E0D0A000000202020201E
S3150000316020202056616C69642072616E6765206953
S315000031707320255820746872752025580D0A0000A2
S315000031806461746120627974655B2564206F6620D2
S3150000319025645D3A000000002DE9F043A5B0DFF894
S315000031A0B05CDFF8B09CFFF7FBFB28784EF2455287
S315000031B0FFF75FFD2878DFF8A01CFEF710FEDFF8AA
S315000031C09C0C0188082300F0E7FE0024E1A700F02C
S315000031D0E7FE00F0CFFEFAD30FF27C3800F0E7FEF0
S315000031E028784CF25632FFF744FD2878DFF8701C39
S315000031F0FEF7F5FD0124DFF86C0C00F0CBFE9DF820
S31500003200002000F0D0FE9DF8012000F0CCFE641EE8
S31500003210F1D100F0CCFE28784EF24532FFF729FDB9
S3150000322028780FF65841FEF7DAFDDFF83C0C0188E6
S31500003230082300F0B1FE00F0B3FE00F09BFEFAD3C7
S3150000324000F0B5FE28784EF67352FFF712FD287887
S315000032500FF63C41FEF7C3FDDFF8100C0188102382
S3150000326000F09AFE002400F09BFE00F08BFEFAD3DD
S3150000327000F09DFE28784CF24E22FFF7FAFC2878E3
S315000032800FF61841FEF7ABFDDFF8E40B01881023BB
S3150000329000F082FE002400F083FE00F073FEFAD3F5
S315000032A000F085FE28784CF64412FFF7E2FC2878F9
S315000032B00FF6F831FEF793FD0124DFF8B80B00F0A6
S315000032C069FE9DF8002000F06EFE9DF8012000F0DA
S315000032D06AFE641EF1D100F06AFE28784DF24302C0
S315000032E0FFF7C7FC28780FF6D431FEF778FD0124E6
S315000032F0DFF8840B00F04EFE9DF8002000F053FE30
S315000033009DF8012000F04FFE641EF1D100F04FFE43
S3150000331028784CF24312FFF7ACFC28780FF6AC3154
S31500003320FEF75DFDDFF8900C01880223E2B200F0A3
S315000033302EFE9DF8002000F036FE9DF8012000F0DC
S3150000334032FE641C60B21428ECDB00F030FE2878F4
S315000033504DF64322FFF78DFC28780FF68031FEF7F5
S315000033603EFDDFF8580C0188012300F015FE9DF89C
S31500003370002000F018FE00F01AFE28784DF64822CC
S31500003380FFF777FC28780FF66C31FEF728FDDFF89B
S31500003390300C0188012300F0FFFD9DF8002000F0AD
S315000033A002FE00F004FE28784DF65222FFF761FC7B
S315000033B028780FF65831FEF712FDDFF8080C018861
S315000033C0102300F0E9FD002400F0EAFD00F0DAFD2C
S315000033D0FAD300F0ECFD28784DF24E32FFF749FCA7
S315000033E028780FF64831FEF7FAFCDFF8DC0B018887
S315000033F0102300F0D1FD002400F0D2FD00F0C2FD44
S31500003400FAD300F0D4FD28784DF24632FFF731FCAE
S3150000341028780FF62C31FEF7E2FC0124DFF8AC0B1E
S3150000342000F0B8FD9DF8002000F0BDFD9DF80120DC
S3150000343000F0B9FD641EF1D100F0B9FD28784CF218
S315000034404332FFF716FC28780FF60C31FEF7C7FC5F
S315000034500124DFF87C0B00F09DFD9DF8002000F0B4
S31500003460A2FD9DF8012000F09EFD641EF1D100F042
S315000034709EFD28784CF65352FFF7FBFB28780FF693
S31500003480B431FEF7ACFCDFF84C0B0188082300F0E2
S3150000349083FD00F085FD00F06DFDFAD300F087FD99
S315000034A028784CF25432FFF7E4FB28780FF698316F
S315000034B0FEF795FC0124DFF8200B00F06BFD9DF86C
S315000034C0002000F070FD9DF8012000F06CFD641EE8
S315000034D0F1D100F06CFD28784DF65402FFF7C9FBD8
S315000034E028780FF67031FEF77AFC0124DFF8EC0A33
S315000034F000F050FD9DF8002000F055FD9DF80120DC
S3150000350000F051FD641EF1D100F051FD28784CF613
S315000035105442FFF7AEFB28780FF64431FEF75FFC06
S31500003520DFF8BC0A0188012300F036FD9DF8002073
S3150000353000F039FD00F03BFD28784DF25702FFF709
S3150000354098FB28780FF62831FEF749FCDFF8940A35
S3150000355004E000BF202558000D0A00000188102352
S3150000356000F01AFD00F01CFD00F00CFDFAD300F08F
S315000035701EFD28784CF25732FFF77BFB28780FF6B2
S315000035800431FEF72CFCDFF8600A0188042300F002
S3150000359003FD002400F004FD00F0F0FCFAD300F077
S315000035A006FD28784CF65752FFF763FB28780FF68E
S315000035B0E821FEF714FCDFF8340A0188042300F042
S315000035C0EBFC002400F0ECFC00F0D8FCFAD300F091
S315000035D0EEFC28784DF25752FFF74BFB28780FF692
S315000035E0CC21FEF7FCFBDFF8080A0188042300F073
S315000035F0D3FC002400F0D4FC00F0C0FCFAD300F0A9
S31500003600D6FC28784CF25742FFF733FB28780FF6A2
S31500003610B021FEF7E4FBDFF8DC090188042300F0A3
S31500003620BBFC002400F0BCFC00F0A8FCFAD300F0C0
S31500003630BEFC28784CF24B22FFF71BFB28780FF6CE
S315000036409421FEF7CCFBDFF8B0090188102300F0C7
S31500003650A3FC002400F0A4FC00F094FCFAD300F0D4
S31500003660A6FC28784CF24232FFF703FB28780FF6C7
S315000036707C21FEF7B4FBDFF8840901885C2300F0A7
S315000036808BFC002400F08CFC641CE0B25C28F9D3AF
S3150000369000F08DFC28784CF64312FFF7EAFA2878FA
S315000036A00FF65821FEF79BFBDFF854090188142317
S315000036B000F072FC002400F073FC641CE0B21428D5
S315000036C0F9D300F074FC28784DF24332FFF7D1FAB3
S315000036D028780FF64021FEF782FB0124DFF8240943
S315000036E000F058FC9DF8002000F05DFC9DF80120DC
S315000036F000F059FC641EF1D100F059FC28784DF217
S315000037004232FFF7B6FA28780FF61C21FEF767FB60
S31500003710DFF8F4080188102300F03EFC00F040FCBE
S3150000372000F030FCFAD300F042FC28784CF2453227
S31500003730FFF79FFA28780FF60C21FEF750FBDFF80B
S31500003740CC080188942300F027FC002400F028FC14
S31500003750641CE0B29428F9D300F029FC28784DF2D5
S315000037605832FFF786FA28780FF6EC11FEF737FB8A
S31500003770DFF89C080188202300F00EFC002400F0EE
S315000037800FFC00F0F3FBFAD300F011FC28784DF2A1
S315000037905932FFF76EFA28780FF6D811FEF71FFB9D
S315000037A0DFF870080188202300F0F6FB002400F003
S315000037B0F7FB00F0DBFBFAD300F0F9FB28784CF6B8
S315000037C04B22FFF756FA28780FF6C411FEF707FBCF
S315000037D0DFF844080188222300F0DEFB002400F015
S315000037E0DFFB641CE0B22228F9D300F0E0FB287866
S315000037F04DF65022FFF73DFA28780FF6A811FEF78E
S31500003800EEFADFF818080188202300F0C5FB002433
S3150000381000F0C6FB00F0AAFBFAD300F0C8FB28783C
S315000038204DF65522FFF725FA28780FF68411FEF794
S31500003830D6FADFF8EC070188202300F0ADFB002460
S3150000384000F0AEFB00F092FBFAD300F0B0FB287854
S315000038504DF65122FFF70DFA28780FF66011FEF7A4
S31500003860BEFADFF8C00701885A2300F095FB002452
S3150000387000F096FB641CE0B25A28F9D300F097FBDF
S3150000388028784CF64B62FFF7F4F928780FF63C11CE
S31500003890FEF7A5FADFF890070188102300F07CFBFD
S315000038A0002400F07DFB00F06DFBFAD300F07FFBF7
S315000038B028784DF64922FFF7DCF928780FF6201113
S315000038C0FEF78DFADFF864070188012300F064FB38
S315000038D09DF8002000F067FB00F069FB28784BF2AA
S315000038E03462FFF7C6F928780FF60811FEF777FA63
S315000038F0DFF83C070188082300F04EFB002400F0A7
S315000039004FFB00F037FBFAD300F051FB28784FF657
S315000039100172FFF7AEF928780FF6E401FEF75FFAB9
S31500003920012402237F22002100F031FB9DF80020B4
S3150000393000F039FB9DF8012000F035FB641EF0D144
S3150000394000F035FB28784EF22312FFF792F928781B
S315000039500FF6C401FEF743FA04237F22012100F08B
S3150000396016FB00F01DFB00F009FBFAD300F01FFB6D
S3150000397028784EF27542FFF77CF928780FF6B001E9
S31500003980FEF72DFA11237F22022100F000FB00240E
S3150000399000F006FB00F0F6FAFAD900F008FB2878EA
S315000039A04EF26322FFF765F928780FF69801FEF7C5
S315000039B016FA04237F22032100F0E9FA002400F01E
S315000039C0EFFA00F0DBFAFAD300F0F1FA28784EF2BB
S315000039D06352FFF74EF928780FF67C01FEF7FFF9E0
S315000039E004237F22042100F0D2FA002400F0D8FA42
S315000039F000F0C4FAFAD300F0DAFA28784EF262122E
S31500003A00FFF737F928780FF66401FEF7E8F9012485
S31500003A1002237F22052100F0BAFA9DF8002000F06B
S31500003A20C2FA9DF8012000F0BEFA641EF0D100F043
S31500003A30BEFA28784EF67932FFF71BF928780FF68A
S31500003A404401FEF7CCF911237F22062100F09FFAEC
S31500003A5000F0A6FA00F096FAFAD900F0A8FA28784B
S31500003A604EF66462FFF705F928780FF62401FEF793
S31500003A70B6F910237F22072100F089FA002400F00E
S31500003A808FFA00F07FFAFAD300F091FA28784EF216
S31500003A902412FFF7EEF828780FF60401FEF79FF9D7
S31500003AA01A237F22082100F072FA002400F078FA27
S31500003AB0641CE0B21A28F9D300F079FA28784EF29D
S31500003AC02512FFF7D6F828780FF2E871FEF787F986
S31500003AD008237F22092100F05AFA002400F060FA38
S31500003AE000F048FAFAD300F062FA28784EF226126D
S31500003AF0FFF7BFF828780FF2D871FEF770F90A239E
S31500003B007F220A2100F043FA002400F049FA641CDF
S31500003B10E0B20A28F9D300F04AFA28784EF22712C2
S31500003B20FFF7A7F828780FF2BC71FEF758F90124C1
S31500003B3002237F220B2100F02AFA9DF8002000F0D4
S31500003B4032FA9DF8012000F02EFA641EF0D100F042
S31500003B502EFA28784EF22812FFF78BF828780FF203
S31500003B60A471FEF73CF918237F220C2100F00FFA0E
S31500003B7000F016FA641CE0B21828F9D300F017FA20
S31500003B8028784EF22912FFF774F828780FF2907110
S31500003B90FEF725F901237F220D2100F0F8F99DF8A3
S31500003BA0002000F000FA00F002FA28784EF2102207
S31500003BB0FFF75FF828780FF28071FEF710F900F032
S31500003BC0F6F928784EF21122FFF753F828780FF20B
S31500003BD08471FEF704F900F0EAF928784EF2122211
S31500003BE0FFF747F828780FF28C71FEF7F8F800F027
S31500003BF0DEF928784EF21322FFF73BF828780FF209
S31500003C009871FEF7ECF800F0D2F928784EF21422FB
S31500003C10FFF72FF828780FF2A471FEF7E0F800F00E
S31500003C20C6F928784EF21522FFF723F828780FF206
S31500003C30B471FEF7D4F800F0BAF928784EF22022D3
S31500003C40FFF717F828780FF2BC71FEF7C8F80423BF
S31500003C507F22142100F09BF9002400F0A1F900F066
S31500003C608DF9FAD300F0A3F928784EF22122FFF756
S31500003C7000F828780FF2B071FEF7B1F800F097F966
S31500003C8028784EF27422FEF7F4FF28780FF2C471FA
S31500003C90FEF7A5F800F08BF928784FF60D72FEF7BF
S31500003CA0E8FF28780FF2C071FEF799F800240B237D
S31500003CB0E2B2172100F06BF90026F1B200F071F9BB
S31500003CC0761CF0B20A28F8D9641C61B20529EEDD2B
S31500003CD000F06DF928784EF25642FEF7CAFF2878B2
S31500003CE00FF29871FEF77BF800F061F928784FF42F
S31500003CF06542FEF7BEFF28780FF29071FEF76FF867
S31500003D0000F055F928784EF20352FEF7B2FF2878F4
S31500003D100FF29071FEF763F800240123E2B21A2134
S31500003D2000F035F99DF8002000F03DF9641C60B202
S31500003D300528F2DD00F03BF928784EF20152FEF735
S31500003D4098FF28780FF27871FEF749F810237F2242
S31500003D501B2100F01CF9002400F022F900F012F9F2
S31500003D60FAD300F024F928784EF20252FEF781FFCA
S31500003D7028780FF25C71FEF732F828237F221C2187
S31500003D8000F005F9002400F00BF9641CE0B22828C5
S31500003D90F9D300F00CF928784EF25822FEF769FFA5
S31500003DA028780FF24071FEF71AF812237F221D21A0
S31500003DB000F0EDF8002400F0F3F8641CE0B21128DE
S31500003DC0F9D900F0F4F828784EF25922FEF751FF9F
S31500003DD028780FF22071FEF702F800243423E2B2AD
S31500003DE01E2100F0D4F80026F1B200F0DAF8761CB5
S31500003DF0F0B23428F8D3641C61B20529EEDB00F07A
S31500003E00D6F828784EF25B22FEF733FF28780FF2B9
S31500003E10FC61FDF7E4FF00F0CAF828784EF25A225A
S31500003E20FEF727FF28780FF2FC61FDF7D8FF00F0B8
S31500003E30BEF828784EF25C22FEF71BFF28780FF2B8
S31500003E40F861FDF7CCFF00F0B2F825B0BDE8F083CD
S31500003E50F0E7002098A50100A0A50100F8CF010019
S31500003E60B4A50100FACF0100FCCF0100FECF01008E
S31500003E7000D0010002D0010004D001004D46475F8A
S31500003E80435553544F4D5F4555495F363400000046
S31500003E904D46475F535452494E4700004D46475FD3
S31500003EA0424F4152445F4E414D4500004D46475FEB
S31500003EB04D414E55465F4944000000004D46475F60
S31500003EC05048595F434F4E46494700004D46475FAD
S31500003ED04153485F434F4E46494700004D46475FB2
S31500003EE05A574156455F434F554E5452595F4652B5
S31500003EF0455100004D46475F5A574156455F485762
S31500003F005F56455253494F4E000000004D46475FED
S31500003F105A574156455F50534555444F5F52414E9F
S31500003F20444F4D5F4E554D42455200004D46475F4A
S31500003F3053455249414C5F4E554D42455200000093
S31500003F404D46475F53594E54485F465245515F4F61
S31500003F5046465345540000004D46475F4343415F84
S31500003F605448524553484F4C44000000641CE0B28C
S31500003F7020287047641CE0B208287047641CE0B231
S31500003F8004287047641CE0B2102870474146684612
S31500003F9006F056BE018802237F22684606F050BE10
S31500003FA0E1B21DF8012028783946FCF7A9BF287828
S31500003FB04146FCF7A5BF000006D0010008D001006D
S31500003FC00AD001000CD001000ED0010010D0010073
S31500003FD012D0010014D0010016D0010018D0010043
S31500003FE01AD001001CD001001ED0010020D0010013
S31500003FF022D0010024D0010026D0010028D00100E3
S315000040002AD001002CD001002ED0010030D00100B2
S3150000401032D0010034D0010036D0010038D0010082
S315000040203AD001003CD001003ED0010040D0010052
S3150000403042D001004D46475F455A53505F53544F97
S3150000404052414745000000004D46475F4354554ED8
S31500004050450000004D46475F584F5F54554E45009A
S315000040604D46475F4C46584F5F54554E450000003D
S315000040704D46475F4C4F434B424954535F504C5754
S31500004080000000004D46475F4C4F434B4249545396
S315000040905F434C57300000004D46475F4C4F434B43
S315000040A0424954535F4D4C57000000004D46475F50
S315000040B04C4F434B424954535F554C570000000048
S315000040C04D46475F4C4F434B424954535F444C5710
S315000040D0000000004D46475F424F4F544C4F41444D
S315000040E05F4145535F4B4559000000004D46475F11
S315000040F043424B455F444154410000004D46475FF3
S31500004100494E5354414C4C4154494F4E5F434F44E2
S31500004110450000004D46475F5345435552495459A3
S315000041205F434F4E464947004D46475F534543550B
S3150000413052455F424F4F544C4F414445525F4B45A9
S31500004140590000004D46475F43424B455F323833C6
S315000041504B315F44415441004D46475F5349474EFA
S3150000416045445F424F4F544C4F414445525F4B4587
S31500004170595F58004D46475F5349474E45445F4295
S315000041804F4F544C4F414445525F4B45595F590080
S315000041904D46475F5448524541445F4A4F494E5F3A
S315000041A04B4559004D46475F5A575F50524B0000EA
S315000041B04D46475F5A575F50554B00004D46475F87
S315000041C05A575F51525F434F444500004D46475F83
S315000041D04E564D335F43525950544F5F4B4559002D
S315000041E04D46475F5A575F494E495449414C495AD3
S315000041F0454400004D46475F4555495F363400004B
S31500004200535441434B5F4E56444154415F564552C9
S3150000421053494F4E00000000535441434B5F4150F9
S31500004220535F4652414D455F434F554E54455200EC
S31500004230535441434B5F414C5445524E4154455FA4
S315000042404B455900535441434B5F424F4F545F43D4
S315000042504F554E5445520000535441434B5F4E4F09
S315000042604E43455F434F554E5445520053544143C8
S315000042704B5F414E414C595349535F5245424F4F54
S3150000428054000000535441434B5F4B4559530000C3
S31500004290535441434B5F4E4F44455F4441544100A4
S315000042A0535441434B5F54525553545F43454E5408
S315000042B045520000535441434B5F4E4554574F52AD
S315000042C04B5F4D414E4147454D454E540000000061
S315000042D0535441434B5F504152454E545F494E46FD
S315000042E04F000000535441434B5F504152454E54DA
S315000042F05F4144444954494F4E414C5F494E464FF5
S3150000430000000000535441434B5F4D554C54495FE8
S315000043105048595F4E574B5F494E464F00000000CC
S31500004320535441434B5F4D494E5F524543454956B1
S3150000433045445F52535349004D554C54495F4E45D1
S3150000434054574F524B5F535441434B5F4B45595360
S31500004350000000004D554C54495F4E4554574F528E
S315000043604B5F535441434B5F4E4F44455F4441546A
S31500004370410000004D554C54495F4E4554574F522D
S315000043804B5F535441434B5F414C5445524E41544D
S31500004390455F4B45590000004D554C54495F4E450D
S315000043A054574F524B5F535441434B5F54525553EE
S315000043B0545F43454E544552000000004D554C5441
S315000043C0495F4E4554574F524B5F535441434B5FE1
S315000043D04E4554574F524B5F4D414E4147454D4513
S315000043E04E5400004D554C54495F4E4554574F525C
S315000043F04B5F535441434B5F504152454E545F49C6
S315000044004E464F004D554C54495F4E4554574F52FA
S315000044104B5F535441434B5F4E4F4E43455F434FB3
S31500004420554E5445520000004D554C54495F4E457B
S3150000443054574F524B5F535441434B5F5041524583
S315000044404E545F4144444954494F4E414C5F494E96
S31500004450464F0000535441434B5F42494E44494E38
S31500004460475F5441424C4500535441434B5F4348D8
S31500004470494C445F5441424C45000000535441436B
S315000044804B5F4B45595F5441424C450053544143A1
S315000044904B5F43455254494649434154455F544155
S315000044A0424C4500535441434B5F414444495449AF
S315000044B04F4E414C5F4348494C445F444154410090
S315000044C0535441434B5F5A4C4C5F444154410000A6
S315000044D0535441434B5F5A4C4C5F534543555249E5
S315000044E054590000535441434B5F47505F44415475
S315000044F041000000535441434B5F47505F50524FB9
S3150000450058595F5441424C45000000005354414302
S315000045104B5F47505F494E434F4D494E475F4643B9
S3150000452000000000535441434B5F47505F53494ED0
S315000045304B5F5441424C4500535441434B5F4750F7
S315000045405F494E434F4D494E475F46435F494E5F75
S3150000455053494E4B0000000010B506F047FF40F2ED
S31500004560A174C440E0070BD5064C207806F05EFF28
S31500004570207807F003F82078BDE8104007F0CEB8A1
S3150000458010BD00BFF0E700205FF02A010AA0FDF78A
S315000045905BBC000010B501F041FB044601F034FBA2
S315000045A002462346DFF80C0007A10078BDE810405C
S315000045B0FCF7A6BCF0E7002072657365742D746580
S315000045C073742E630000000052455345543A25701B
S315000045D02D25700D0A00000010B50446002004F0D9
S315000045E087F9002004F09EF902F09EF9012004F0FC
S315000045F0F1F8204607F0D5FD2046BDE8104000F052
S3150000460097BF80B5022100F02FF9009807F01AFF36
S3150000461001BD8068DFF8B81402680A7008780228BD
S31500004620A8BF0FF2F04305DA002814BF0FF2F043DB
S315000046300FF2F443DFF89C140FF2C842D1F81013BE
S31500004640FFE70FF2B440FDF725B90000F8B504F016
S3150000465028F8DFF884440FF2645204EB8000C36844
S31500004660DFF87004D0F850130FF23450FDF712F94A
S31500004670DFF86804006807F029FF0528054614D806
S31500004680DFE800F003100E090C060FF2E8420EE018
S315000046900FF2D4420BE00FF2C44208E079A206E022
S315000046A079A204E00FF2AC4201E00FF2D4420FF21D
S315000046B0E8410FF2DC400FF2D047FDF7EBF8002699
S315000046C0F0B254F8201005F001023846FDF7E2F882
S315000046D0761C6D08F0B20228F2D9BDE8F2408FE0F0
S315000046E038B50446DFF8EC23A0680568D2F86013F5
S315000046F00FF2D440FDF7CEF8EDB215B1012D07D07B
S315000047000CE00FF2CC40FDF7C5F803F0F5FE05E02E
S315000047100FF2D040FDF7BEF803F0C1FF0FF2D44010
S31500004720FDF7B8F82046BDE832408FE7F8B50746F2
S315000047300D4684B0284603F07EFB0446284603F067
S315000047402EFD06460FF228523CB92B4607F1110101
S315000047500FF20450FDF79EF810E00FF248500FF2EA
S315000047603C510290009105F01F00019003942B46E6
S3150000477007F111010FF20050FDF78CF8AE420FF26F
S31500004780A84405D032460FF224512046FDF782F8A0
S31500004790284603F0EBFC10F1010F0FF260430FF215
S315000047A0644102D10FF2644202E018B90FF264428A
S315000047B018460BE0DFF82823DFF82413B0FBF2F2EB
S315000047C001FB120129B90FF268412046FDF762F894
S315000047D013E0DFF8102313784FF47A74B0FBF4F289
S315000047E0214601FB120100290EBF0FF24C41024681
S315000047F00FF254411846FCF783FB05B0BDE8F040C4
S3150000480094A0FDF747B810B5044603F071FC0146C5
S315000048102046BDE8104089E738B5054603F041FF5C
S315000048200400DFF8B002D0F830130FF2884018BF4A
S315000048300124FDF72FF803F032FFA8680068C0B224
S3150000484003F05EFB02460FF204310FF29C40FDF7C7
S3150000485021F80CB103F050FE03F04AFC014628464D
S31500004860BDE8344062E70121684603F046BA10B558
S31500004870044604F0FCF804F11101BDE810400346BB
S3150000488087A231E154780000527800002DE9F84FF4
S3150000489084B007460C4615461E4603F002FF01008B
S315000048A018BF01218DF8031003F01CFF002D8DF8B1
S315000048B0020016D10125022003F017FF642003F041
S315000048C02AF803F015FC8DF800000397029664B9E8
S315000048D09DF80060012006F01F0400FA04F4002190
S315000048E009E0E8D56D420020E6E7E00E4601F6B2A3
S315000048F024F078440121019115E0039800F111019B
S3150000490033464A460FF21840FCF7C4FF04E0FCF7B2
S31500004910C1FF50A0FCF7BEFF9DF8010001218140B8
S31500004920641A761CF6B2002C69D006F01F008DF8CA
S31500004930010024FA00F2D007F3D503F0D9FB864232
S315000049400FF2583904D0304603F0DAFA0028D4D1F1
S315000049504FF07F0A6FF07F080027AB460DE08020FE
S3150000496002F0D9FF03F0B5FFC7198045B8BF8046EE
S315000049705045B8BF8246ABF1010BBBF1000FEEDC30
S315000049809DF8400097FBF5F758B1504603F02AFC16
S31500004990824678B203F026FC0746404603F022FC26
S315000049A08046039800F1110147A0FCF773FF0198B8
S315000049B028B1324649460FF2D010FCF76BFF029839
S315000049C00FF2383920B1014652464846FCF762FFDD
S315000049D00E9820B101463AB24846FCF75BFF0F98A5
S315000049E020B1014642464846FCF754FF9DF8400078
S315000049F0002814BF0FF20C300FF21C3087E79DF829
S31500004A000000864218BF03F07BFA9DF8020003F00F
S31500004A106CFE9DF8030020B105B0BDE8F04F03F031
S31500004A206BBD05B0BDE8F08FE0B5002102910191A4
S31500004A30009101220FF2083308E0E0B501210022BF
S31500004A4002910192009221A301220021FFF71EFF8D
S31500004A5007BD00007D0D0A003EB58368847B1A6899
S31500004A600FF2EC250021022CA8BF596800230293FF
S31500004A7000950FF2E4240FF2D0230194FFF706FF0E
S31500004A8037BD80B504F06FF8034612480FF2E022F6
S31500004A90D0F8B0130FF2C820BDE80050FCF7FABEFC
S31500004AA04343410010B50B4AD2F8C01304460FF237
S31500004AB0D020FCF7EFFEA068016848B204F01CF8AD
S31500004AC02046BDE81040DCE77B264E00454400004A
S31500004AD0F2EB0020389F010028E80020D0EC0020EF
S31500004AE040420F00F0E7002081A0FCF7D3BE8168AA
S31500004AF00968C9B21AE600007B264E202674737D2B
S31500004B000D0A00005045522054657374204D6F64A1
S31500004B1065000000656E61626C65642D6E657700E8
S31500004B20656E61626C65640064697361626C65647C
S31500004B300000000061736C65657000006177616B51
S31500004B4065000000656E65726779000073746174B4
S31500004B507573000049646C6500000000527841637B
S31500004B60746976650000000054784163746976655F
S31500004B7000000000496E61637469766500000000FC
S31500004B80556E6B6E6F776E0020267468000000000D
S31500004B902026747300000000526653746174650029
S31500004BA07B264E20526164696F20706F7765722094
S31500004BB0737461746520267473000000706F7765E6
S31500004BC072207374617465007B264E20000000001D
S31500004BD0536C656570696E6720726164696F2E2E0D
S31500004BE02E00000057616B696E6720726164696F01
S31500004BF02E2E2E00646F6E657D0D0A0020267470C1
S31500004C00000000006672657100000000696C6C654A
S31500004C1067616C0050657252616D526164696F43E1
S31500004C206F6E66696700000020267475000000003C
S31500004C30667265714D487A00207B667265714B48D5
S31500004C407A3A256C7D000000207B66726571487A91
S31500004C503A256C7D000000007B264E205261646977
S31500004C606F206368616E6E656C20267468000000B4
S31500004C706368616E6E656C007B264E2052616469C6
S31500004C806F206368616E6E656C2026746820282626
S31500004C90746420696E202674642900006368616E5E
S31500004CA000000000706167650000000050746943F1
S31500004CB068616E007B264E2053657474696E6720AA
S31500004CC06368616E6E656C20616E642063616C69F9
S31500004CD062726174696E6720286173206E6565640F
S31500004CE06564292E2E2E00002674687D0D0A0000AC
S31500004CF07B264E202674647D0D0A000020267464EF
S31500004D0000000000205B3830322E31352E342075FD
S31500004D106E6974735D000000205B64426D5D000087
S31500004D207B264E20267468205B696E76616C69640A
S31500004D30206368616E6E656C5D7D0D0A0000000083
S31500004D4052535349000000006D696E525353490097
S31500004D5061766752535349006D6178525353490047
S31500004D607B264E202674642064426D7D0D0A000069
S31500004D70434341205468726573686F6C6400000099
S31500004D807B264E7D0D0A000080B5002004F08AF8CF
S31500004D90BDE8014007F07ABA10B5DFF81441DFF834
S31500004DA01431607D18710122E0694FF47A7107F0C1
S31500004DB016FC01001CBF0121217510BDDFF8F010A3
S31500004DC0C861887DDFF8EC104871E5E770B58EB0F4
S31500004DD00C460CA807F0FAFB054607F02FFC064622
S31500004DE007F0F0FBBDF836100FF24C02BDF830307C
S31500004DF00B910A92059303950346BDF834100FF202
S31500004E0040020FF244050FF24800099108920196FC
S31500004E100095BDF832100FF28002079106920FF24C
S31500004E2080010FF28402049102922146DFF8882065
S31500004E30FCF730FD0EB070BD737573700000000096
S31500004E406372697400000000616363656C000000B2
S31500004E507B264E20267475202674326820267464BC
S31500004E602F31303025250D0A20202674642F31304D
S31500004E70302525202674642F3130302525202674D0
S31500004E80642F3130302525202674642F31303025AB
S31500004E90257D0D0A000000006C696D6900000000A8
S31500004EA074616C6B0000000075736564000000009F
S31500004EB044E80020B4F10020C44E0000387869466A
S31500004EC0FCF770BF6D6F6465000000002DE9F047C8
S31500004ED006468846924607F0A2FBDFF8E074F870B3
S31500004EE00409387818BF641E28B1386B07EB8000B8
S31500004EF0416A491C41628C2EBE700FF24419DFF8DC
S31500004F00645543D003F0DBFB66B1402E22D0882ED9
S31500004F1018BF892E4DD08C2E38D08D2E34D08F2EA2
S31500004F200CD03BE03869396A401C386164183C6231
S31500004F30287D00283DD040F23A5137E0B869396AF9
S31500004F40401CB86164183C62287D002831D040F2CC
S31500004F503F512BE0F869396A401CF86164183878CB
S31500004F603C6260B107F06EFB032806D1786B401CEB
S31500004F707863386B80F00100386307F065FB287DA5
S31500004F80B8B140F24B5111E007F046FB7869401C7E
S31500004F907861287D68B140F2525107E04FEA060277
S31500004FA02DA10120FCF725FF40F263514846FCF78E
S31500004FB04BFF402E87F801A0C7F83C8019D13879FD
S31500004FC0012811DD411E38893971401C3881C9B26A
S31500004FD02A2007F045FBE86900224FF47A7107F0B2
S31500004FE0FEFA064628B929E000212A2007F038FBF8
S31500004FF003E0002E18BF8F2E1ED0787901281BDD06
S31500005000401E79897871491C7981DFF86405017839
S3150000501001290ADDE969DFF85C05814205D10278DC
S31500005020082A02DDC178491CC170688B02F073FC46
S31500005030BDE8F047FFF7B0BE01202875BDE8F08750
S315000050407068792D636F6D6D6F6E2D74782D746534
S3150000505073742E6300000000656D626572526164B0
S31500005060696F5472616E736D6974436F6D706C65B0
S31500005070746549737243616C6C6261636B2073740F
S31500005080617475733A2030782578000080B503F096
S3150000509033F800F017F8D0F8A01407E080B503F055
S315000050A03EF800F00FF8D0F8C01400BF02A0BDE82B
S315000050B00050FCF7EFBB00007B264E20267464648C
S315000050C0426D7D004FEA0003DFF8B00400A270478E
S315000050D061637475616C506F776572003EB5044606
S315000050E0A1680D6868B203F016F801906BB200F083
S315000050F02DF8D0F8B0140FF24400FCF7CBFB22A039
S31500005100FCF7C8FB2046BDE83E40BFE73EB5044677
S31500005110A1680D6828B203F007F8CDF804002BB299
S3150000512000F014F8D0F8D01404A0FCF7B3FB16A0D6
S31500005130FCF7B0FB2046BDE83E40AFE77B264E209D
S3150000514026746464426D202674647D000FF260410B
S31500005150DFF828040FF2604200917047E0B5DFF8EF
S3150000516020140FF290420B8B0092019300F1110173
S315000051700FF268420FF2504038E18168DFF80034E0
S315000051800A681A83EAE700000D0A00002DE9F14FCC
S3150000519084B081680A880192511E8941C90F029123
S315000051A04FF0010A03F07DFA00B101208DF80100ED
S315000051B04FF0000B814DDFF8AC6268697B4FADF8AC
S315000051C00200D8460198012811D000F006F9387877
S315000051D0029921B10FF23C41FBF792FE03E0019ADE
S315000051E077A1FBF78DFE00F0F2F800F0EBF8DFF8A0
S315000051F08443DFF89093802249462046FCF77AFBE9
S31500005200DFF86C0301780129C4BF2078082819DD6E
S3150000521099F8011001F0200141F0C1016170D046FA
S315000052201821A1702118029818B101F805BC0020B8
S3150000523004E0019801F8050C019800122178611824
S3150000524001F8040CD94663E000208DF80000694699
S315000052503878FCF7A7FD00F0C5F85FD09DF8001080
S315000052603878642906D100F0A3F8049800F11101FA
S31500005270002007E0442907D100F09AF8049800F1CD
S3150000528011010120FFF7A2FD09F10100DFF8F81274
S315000052901FFA80F9087820B102F03EFD08B107F048
S315000052A0E5F9308B02F037FBDFF8C4120878A0B1BD
S315000052B0B8F1000F18BF84F803A0207803280CDD8E
S315000052C0201800F803AC4FEA2A202178611801F86B
S315000052D0020C0AF101001FFA80FA00203075012144
S315000052E0A9702046FFF76AFD8346B8B902F084FB31
S315000052F08346307D50B9FFF747FD02F07DFBA0EBFA
S315000053000B0080B240F2D1718842F2D395F802B018
S315000053100298002898D10198814595DB38780FF2DC
S3150000532018314A46FBF7ECFD707B40B1AA8ABDF8FE
S3150000533002000FF22031121A3878FBF7E1FD3878B7
S315000053400FF234315A46FBF7DBFDDFF840020FF26D
S31500005350443102883878FBF7D3FD38780FF25431A0
S31500005360FBF7CEFD69783878002914BF0FF260315B
S315000053700FF26431FBF7C4FD03F0ACFB28B1AA6B56
S3150000538038780FF25C31FBF7BBFDEA6B38780FF229
S315000053907C31FBF7B5FD642002F0BDFA9DF80100F3
S315000053A008B103F0A9F805B0BDE8F08FF0E70020DA
S315000053B04A460FF28421FBF7A3BD0000B4F100209A
S315000053C02575000038780FF2DC11FBF799BD328B9A
S315000053D038780FF24C21FBF793BD38780FF22C2169
S315000053E0FBF78EBD9DF8000065287047FCF752FA62
S315000053F007BD38B500F038F800F02CF818BF0124C6
S31500005400FBF77EFD03F04BF903F0F8FA02E028788B
S31500005410FFF755FDFFF7E6FFF9D103F000FB15E0B6
S3150000542038B500F021F800F015F818BF0124FBF795
S3150000543067FD03F034F903F001FB02E02878FFF77B
S315000054403EFDFFF7CFFFF9D103F010FB0CB103F0DF
S3150000545053F831BDDFF838510FF2481104002878AF
S315000054607047000044E8002000208DF8000003F09B
S3150000547018B92DE9F041DFF818410FF2C021207864
S315000054800FF2C8250FF2BC28DFF8F870FBF738FDDD
S31500005490002615E0BA5D20784146FBF731FD711014
S315000054A006EB91729210B6EB820007D139788E42E4
S315000054B004DA207832462946FBF722FD761CF6B23E
S315000054C03878401C8642E5DBBDE8F0818068DFF86D
S315000054D0B4200168117070472DE9F843044600278F
S315000054E0A068DFF8AC5006680FF26C28DFF89490DD
S315000054F0761CF6B2802E06DAA06800EB87014868B3
S3150000550009F8060005E028787B1C721E4146FBF769
S31500005510F7FC7F1C042FEBDBBDE8F183194814214F
S31500005520017001214A1E4254491C8029FAD3704752
S3150000553010B51148174B184C184A002101614161FA
S315000055408161C1610162196021600181418111603F
S3150000555010BD80680A4A0078010018BF0121517306
