S03C0000626F6F746C6F616465722D756172742D62676170695F65667233326D673231613031306631303234696D33325F62726434313831622E7333371B
S113000020130020952D0000AB0500008D12000088
S113001097060000DB0700000F0800000000000046
S11300200000000000000000400000006F2B0000F2
S11300303B2C0000740000004B2C0000AF2C00008F
S113004007B0CD5E0100000003000A01942E0000F9
S11300500040000000001000F000100051140000E7
S113006055140000CB1B0000B32D0000E52D00004B
S11300700000000013B779FAC925DDB7ADF3CFE06E
S1130080F1B614B80101000000000000902E000039
S11300904000000003000A0100000000000000000E
S11300A0000000000000000000000000000000004C
S11300B00000000038B5012087490860874C40F6ED
S11300C0AA62E260002020600021616541F205001F
S11300D06060A16061616164814A824B1A60824DF3
S11300E02960A9612961A960E960606020682060D5
S11300F000F03AF97D49096801230422C1F3802103
S1130100491CB0FBF1F04FF4E111400100F561200E
S1130110B0FBF1F17648203900EAC10060610521A5
S1130120002000F071F9012301220621002000F0D3
S11301306BF9142028604FF4A021A9614FF4C02268
S11301402A61012304220421032000F05DF9052023
S1130150E0606848012101604FF0F05242600023E2
S113016003624363C363036563494FF480220A60F7
S11301706DA2C3650024920884659200C2665F4B39
S11301804B605F494C600C6003215E4A116001249E
S1130190446402205C49086031BD70B50E460546D2
S11301A01446802E02D341F2031070BD00F025F8EE
S11301B010B941F2062070BD0020544902E02A5CC7
S11301C00A54401CB042FAD3D1F88000761E0222B1
S11301D066F30E10C1F88000803189084C4889000C
S11301E0816502603CB100F008F80028FBD0494862
S11301F001688A06FBD5002070BD4749CA6841489A
S1130200930703D502220A60026004E049688A0762
S113021003D40221016001207047002070473F4849
S1130220006840F20111884208BF002007D040F264
S1130230022188420EBF4FF480703949401A394A6E
S11302401168814201D10020704701D2401A7047E1
S1130250C1F50071401870472DE9F0410746884602
S1130260154600268BB1069C2CB100F00BF9002139
S1130270204600F020F9FFF7D2FF404505D2002CBC
S1130280F9D000F02FF90028F5D0FFF7C8FF80451A
S113029005D8404603E000230B600221116086422A
S11302A012D220490B681E4AD45C5B1C164ABC550A
S11302B0761C0B60B3F5007FEDD0B3F5807FEED1F3
S11302C00121EBE7BDE8F08105B12E60464534BF5E
S11302D041F204200020F5E7049005400880054021
S11302E0FFFF010048A00540ACC5034070800040FA
S11302F0F8FF7F00040004400040044002000400B2
S11303008C0004403420044010100440800000207D
S11303104800044018800540280004406C00044054
S11303201001002018030020F00F10032480054062
S1130330100100201300000009000000000100006B
S11303400202000013000000F00F10032480054097
S11303501002002013000000090000000002000049
S113036001010000D3FFFFFF10B51449086800F035
S11303700700032808BF124A18D0124B1868C0F3AC
S11303800440112828BF104A10D200BF11A2125CE9
S11303900E480F4C4243A24208D11B68012022465A
S11303A01B0E03F003039840B2FBF0F20868C0F39D
S11303B00130401CB2FBF0F010BD00007080004022
S11303C000F0490208000140C0EA210140420F0048
S11303D000093D000400000700000D1013001A205E
S11303E026303840500000003022504310B501231D
S11303F0214C04E03022504310B501231F4C03FA72
S113040001F12044016110BDF8B5054617460E46BA
S11304101C46380007D0002C284602D0FFF7EAFF1C
S113042001E0FFF7E1FF2A463020424314498818CF
S11304300F22082E05D24168B30000F015F8416080
S113044006E0A6F10803C1689B0000F00DF8C16046
S11304504FB9002C3146284602D0BDE8F440C9E724
S1130460BDE8F440C0E7F1BD9A4021EA020207FA70
S113047003F111437047000000E0034000D0034043
S113048000C00340F8B5FFF76FFF4FF47A71B0FB7B
S1130490F1F01F4A23A1800A50606846102200F040
S11304A059F840F2FF30ADF802006946194800F0EF
S11304B08DF805B000BD30B5174BDD68144C62688B
S11304C002FB0050ADB260806088A8429241D20F16
S11304D0227011B1D9688142FCD101200F4C2060F7
S11304E0186030BD0A4A10780D4920B10B68D8074E
S11304F006D4002070470868C30701D5012070475F
S11305000869518888428041C043C00F7047000089
S113051010030020008004401880044014A004400C
S113052014800440010000000000000000000000EE
S11305300000000062B38B0708D0521E11F8013B83
S113054000F8013B00F024808B07F6D1830740F0CC
S1130550208000BF103A07D330B4B1E83810103A05
S1130560A0E83810F9D230BC530724BFB1E8081012
S1130570A0E8081044BF51F8043B40F8043BD207FC
S113058024BF31F8022B20F8022B44BF0B780370F0
S11305907047083A07D3B1E80810083A40F8043B1A
S11305A040F804CBF7D25307E4E7FEE73249884228
S11305B01CBF324A904205D0314988421CBF314A9F
S11305C0904201D10120704700207047F8B50446DD
S11305D00D46FFF7EBFF204600F056F8012142F2EA
S11305E03002A150687895F804E00028A87A4FEA10
S11305F00E2E14BF402100210028E87A14BF802267
S113060000220028287B14BF202300230028687BB5
S113061014BF102600260028A87914BF0827002735
S11306200028B5F902004EEA804E687A14BF4FF4F0
S1130630803C4FF0000C40EA0E0001431143194383
S1130640314339434CEA01016160012141F2300236
S1130650A150287808B90221E16000226262697918
S113066001B11021EA792B7A43EA82031943A1608C
S113067008B10120E060F1BD0080044000C00440E6
S11306800000054000400540016BCA0702D501691E
S11306904A06F9D47047FEE780B590B000F012F82E
S11306A0B0F5A02F11B00CBF0B48002000BD80B5E1
S11306B090B000F007F8B0F5A02F11B00CBF0748B8
S11306C0002000BD0023402269464FF4807000F0F2
S11306D04DB80348704700004CE30F006CE30F0073
S11306E086E20F00426812B9416070475268506850
S11306F00128FBD151607047826812B9816070474C
S1130700526850680128FBD151607047C269042ABD
S113071005D200EB8202D160C169491CC1617047F6
S113072010B5C169042909D910BD00EB8203DC6846
S1130730521C0C60C3699A42F7D310BD4FF0984124
S11307400A6CD302FAD5C269121D92000A650268C6
S11307500A6043680B6082680A600022EAE717486F
S11307600168C902FCD5006970470000002B2DE91F
S1130770F84E8BB0074614BF114D124D0E46144669
S113078003A8202100F026F80FA02F4390E8000EC4
S113079003976F4687E8000E009644F000540294D5
S11307A0694603A8FFF7A8FF03A8FFF7B9FFFFF7FF
S11307B0D6FF0CB000F47020BDE8F08E4400004C6D
S11307C001000AFF010008FF000000000100000012
S11307D000000000002200F001B8FEE700B500BFF1
S11307E0130096469446103928BFA0E80C50FAD856
S11307F05FEA417C28BF0CC048BF40F8042BC907FE
S113080028BF20F8022B48BF00F8012B00BDFEE7EB
S113081000281CBF2421FFF7DDBF704770B5050019
S11308200C46164618BF002C02D16FF0210070BD93
S11308302421FFF7CFFF802E1CBFC02EB6F5807F8A
S113084002D06FF01F0070BD2E60F2082146281DF3
S1130850FFF770FE002070BD2DE9F847060014462E
S113086091B00F461D4618BF002C00D015B96FF08B
S1130870210055E03068802818BFC02805D0B0F5A5
S1130880807F18BF6FF01F004AD109A82021FFF70D
S1130890A1FF012F0FF2602191E88C000CBFDFF85B
S11308A04C02DFF84C020990684680E88C00301D49
S11308B0009030680FF24C2206A9C00840F00050A6
S11308C0029092E8884009A881E888400FF240210C
S11308D0069491E8000703AC694684E80007039591
S11308E0FFF700FF06A909A8FFF7FCFE03A909A862
S11308F0FFF702FF316809A800F01EF8102109A8CB
S1130900FFF704FF00F038F950B909A8FFF708FF12
S113091000F009F804F47024002C0CBF00202046D9
S113092012B0BDE8F087DFF8CC010168C902FCD53C
S1130930046900F023B911A8C908FFF7E7BE000055
S1130940002A2DE9F64F99B014BF1468002400263C
S1130950002800904FF0000A1FBFDDF89480B8F122
S1130960000FDDF89890B9F1000F04D01D001CBFF2
S1130970249F002F02D16FF0210099E000680191BB
S113098080281CBFC028B0F5807F04D06FF01F0002
S11309908EE000F090F80198824580F08280002C6F
S11309A0F7D1A0EB0A005FEA101B5DD063A611A883
S11309B05AA12022FFF7CEFD96E80E0008A84FEAC0
S11309C00B1B80E80E000099081D089000990BA8E5
S11309D00A680EA9D20842F000520A925AA292E87A
S11309E0484081E848400E955AA191E84C000DF129
S11309F0140E80E84C000B9559A090E80E0008EB0B
S1130A000A008EE80E0005904BF00051079100BFDC
S1130A1056A393E8414002AA09EB0A0382E8414045
S1130A2000F059F80EA900F059F805A900F056F89D
S1130A3000F04DF80BA900F04BF800980168FFF79F
S1130A407AFF594611A8FFF761FE00F095F80028D7
S1130A502ED111A8FFF764FE00F043F8066900F0F8
S1130A608DF8DA4406F4702616B120E000F023F87D
S1130A700198B0EB0A008ED0002CF7D100983B46C9
S1130A802A460121FFF7E8FE002041422944CA7B9F
S1130A90521CCA73D2B2002AE8D1401C0F28F4D9E0
S1130AA0E4E71A9800B104600EB9002000E0304673
S1130AB01BB0BDE8F08F18F80A10385D641C04F010
S1130AC00F04414009F80A100AF1010A704702A90B
S1130AD011A8FFF711BE0293049108A911A8FFF70A
S1130AE001BE04480168C902FCD570470001000436
S1130AF0000101044400004C00000000010000005B
S1130B0000000000000000000100000010000020B0
S1130B100000000001000000100000200303000496
S1130B2000000000000000000000000000000000C1
S1130B3000000000000000000000000000000000B1
S1130B40010000000000000000000000010000009F
S1130B501000002000000000010000001000002030
S1130B600000000001000000000000000000000080
S1130B7001000000000000000020704700207047C2
S1130B802DE9F84791B006460D4691461F461A9C3A
S1130B900DF124003BA12022FFF7DCFC41A393E8E4
S1130BA007000DF1180A03AB8AE80700CDF8189086
S1130BB03FA090E8004600BF40A2694683E8004693
S1130BC0039592E8280181E8280100971EB1022EBE
S1130BD033D021D336E00998A10140F40070099084
S1130BE009A8FFF793FD00F047F840F014000590C2
S1130BF0029840F01400029003A909A8FFF772FDBF
S1130C0006A909A8FFF76EFD694609A8FFF774FD58
S1130C10FFF7B2FFC0B126E00998A10140F440708B
S1130C20099009A8FFF772FD00F026F840F02000B3
S1130C300590029840F02000DDE70998A10140F4F6
S1130C408060EDE709480EE009A8FFF769FD084850
S1130C500168C902FCD50469FFF790FF14F4702FF2
S1130C600CBF0020034812B0BDE8F08780AFFFFF3F
S1130C704400004C80ADFFFF089840EA84140894B7
S1130C800598704700000103000000000000000008
S1130C900000000000000000000000000000000050
S1130CA0000000000000000001000000000000201F
S1130CB0000000000100000000000020000000000F
S1130CC001000000000000202DE9F84F83460228AF
S1130CD01FD8140055D00B9A9846D2F800C0BCF126
S1130CE03F0F18D85068002818BF5FEA080A13D1CC
S1130CF0BBF1000F04D0BBF1020F07D003D308E00F
S1130D000FF2B01A08E00FF2CC1A05E00FF2E41A61
S1130D1002E04B4836E0C2460CF03F06A444C6F15C
S1130D204005C2F800C0A44502D25068401C50607F
S1130D3089460A9F8EB1AC420FD32A46B819FFF7F1
S1130D40F9FB0120009043463A4651465846FFF7C6
S1130D5017FFC246A944641B00263F2C0BD9A509E2
S1130D60009543464A4651465846FFF709FF09EBAA
S1130D708519A4EB851424B122464946B819FFF716
S1130D80D9FB0020BDE8F28F2DE9F843044686B074
S1130D90884616461F46200003D0022C30D02DD39F
S1130DA030E01425002100200DF1080C57F8203004
S1130DB042429200D21D01EBC3010CF8021002A9B9
S1130DC0114457F82020C91E52098A7057F8202070
S1130DD0520B4A7057F82020520D0A7057F8201011
S1130DE0401C490F0128E1D93A7802F03F02382A21
S1130DF034BFC2F13802C2F1780205E01C25D1E704
S1130E002025CFE70E4817E0DDF8389001970096CB
S1130E104FEA08033FA12046FFF756FF01970096CB
S1130E204346082202A92046FFF74EFF2A464146C0
S1130E304846FFF77FFB002007B0BDE8F0830000C1
S1130E4080AFFFFF00281CBF6C21FFF7C3BC7047B5
S1130E500022002902604260CCBF0121002180F8F9
S1130E606810002070473EB590F86830019000F19A
S1130E702805002B00F10803009514BF0124022467
S1130E802046FFF721FF3EBD80B5034693F8680076
S1130E90009103F12802002803F1080114BF012086
S1130EA0022003E0D4E70000DDE7EDE7FFF76CFF85
S1130EB002BD000067452301EFCDAB8998BADCFE83
S1130EC010325476C3D2E1F00000000000000000AC
S1130ED000000000C1059ED8367CD5073070DD17B0
S1130EE0F70E5939FFC00B316858151164F98FA7F3
S1130EF0BEFA4FA46A09E667BB67AE853C6EF3721F
S1130F00A54FF53A510E527F9B05688C1F83D9ABD0
S1130F105BE0CD198000000000000000000000002C
S1130F2000000000000000000000000000000000BD
S1130F3000000000000000000000000000000000AD
S1130F40000000000000000000000000000000009D
S1130F50000000001CB50123042200F023F8002146
S1130F60009102E00098401C009000986428F9DB8E
S1130F700123022200F017F8002001E00098401C31
S1130F8000900098B0F5FA7FF8DB05490C6801235E
S1130F90002200F007F804F0010484F0010016BDFB
S1130FA044C0034000210120FFF72EBA10B5DFF83A
S1130FB02C21DFF82C41DFF82C311B68234207D1A8
S1130FC003408B420ED0521EF5D16FF0020010BDCB
S1130FD0DFF81401034202D06FF0010010BD4FF09E
S1130FE0FF3010BD002010BD70B5DFF800516860FF
S1130FF0E8680E46410702D54FF0FF3070BD56F841
S1131000040B141F02E056F8040B241FA86044B11B
S113101008210820FFF7CAFF0100F4D00421296049
S113102070BD0420286000212120FFF7BFFF0100CC
S113103004D100212120BDE87040B7E770BD70B530
S113104041F67131294C01222A4BE568E1621A60AC
S1131050606002262660002121202D0CFFF7A6FFE8
S113106005F00105010003D100212120FFF79EFFB7
S113107001211F4A11600DB10021E16270BD2DE90B
S1131080F843184F3D688946144641F6713180464D
S11310902D0C39620122174B002005F001051A605E
S11310A009E0324649464046FFF79EFF01000DD154
S11310B0B044B144A41B4CB108F50056760B76033A
S11310C0A6EB0806B442ECD22646EAE70121084A18
S11310D011600DB100213962BDE8F2838096980059
S11310E0060001001C000340020001001000034040
S11310F00C2003400C100340054909688A0902F0DA
S11311003F0201F03F0382704370090B0170704786
S113111014C007402DE9F04F5FEA00080E4697B06F
S113112017461D4618BF002E00D017B940F20160C3
S11311305DE0209C002D0FA833A116BF002CDFF822
S1131140B490DFF8B4902022FFF704FA49460FA8C0
S1131150FFF7DCFA20210FA8FFF7D8FA32A292E8B1
S113116008500CA9002D81E808500C9531A191E894
S1131170010C0DF1240918BF002C89E8010C099415
S113118005D00CA900F03CF809A900F039F800BF1B
S11311902BA191E81C0006A806A980E81C00CDF844
S11311A0188000F02DF800BF28A191E81C0003A8C6
S11311B06D4680E81C00039627A696E8004303A921
S11311C00FA885E800430097FFF78CFA694600F002
S11311D017F80FA8FFF7A4FA08480168C902FCD55C
S11311E0006910F4702F0CBF002040F2046017B0A7
S11311F0BDE8F08F1F24FC841F2400804400004CB1
S11312000FA8FFF76FBA00000000010600000000FD
S113121000000000000000000000000000000000CA
S113122000000000000000000000000001000000B9
S11312302000002000000000010000002000002029
S11312400000000001000000200000200000000059
S11312500100000020000020000000000100000048
S11312602000002030B5084B01241C6000255D607F
S1131270DA609C6002E010F8014BDC610A46511E02
S1131280002AF8D1186A30BD048008404FF4017078
S113129000F0ACB81CB56846FFF72EFF4848816AD9
S11312A0CA0311D441686FF3162141F4B81141F413
S11312B005414160016821F4704141F440410160FD
S11312C0026842F4E06202609DF80100012804BF54
S11312D09DF80000002807D14FF0005106200A684D
S11312E001F58041401EFAD13648016841F00301FE
S11312F0016000F0ADF800F074F800F0B3F800F00D
S1131300B3F818B14FF4017000F070F800F0CAF8A7
S1131310044600F097F9002C19BF40F20370844290
S113132040F2012000F062F840F2057084421BBFD5
S113133040F206718C4240F203204FF4017000F039
S113134055F8002016BD00001F4838B50168012477
S113135001254A060AD500F063F840F20221401A3A
S113136007D0C01E05D0C01E012802D9FFF7F2FD28
S113137008B10024002544F20400016811F1010FB2
S113138006D14FF40270BDE8324000F023B831BDFD
S11313902DB14FF4804000F018FC0400F1D0002C73
S11313A0F5D04FF4804009490860024610460168B0
S11313B081F3088881F3098840688746FEE70000C6
S11313C030C00040808000409440004008ED00E0C0
S11313D0002070474FF0005108804FF20F00488002
S11313E070474CF23C300B49088070474FF0005175
S11313F008804FF20F004880BFF34F8F06490A68F8
S1131400064802F4E06202430A60BFF34F8F00BF54
S1131410FDE70000020000200CED00E00400FA05E6
S11314204FF0005148884FF20F02904201D10888D2
S11314307047002804BF0888012802D140F2022026
S113144070474FF4007070474FF0005000887047A9
S1131450002070470020704701790122C01C091D3B
S1131460FEF79BBEFEF726BE80B5C2B0FFF7ECFFC9
S1131470B0F5027F06D1684673A100F0DFF8684634
S1131480FFF7EAFF4FEA0D00B1A100F0D7F82821D9
S11314900A680DF10700936803606846FFF7DCFFF4
S11314A043B000BD78B5ADF5806D89B085A80FF265
S11314B0A83100F0C3F80DA80FF2A4411022FFF7E1
S11314C049F802A80FF2A8412C22FFF743F8202381
S11314D011AA2CA93EA800F0EEFD40F6033540F217
S11314E0022608E0012100228DF81A12ADF81B2211
S11314F085A8FFF7B1FF4FF48471C7A8FFF76AF915
S1131500FEF78DFE0028FBD04FF47A700090C7A838
S1131510012301AA0121C01CFEF79EFE9DF81F03B2
S11315202028EDD14FF47A710091012301AA0321FF
S1131530C8A8FEF791FE01980328DCD19DF820434A
S113154074B140F6B8300090C8A8012301AA21461E
S1131550C01CFEF781FE0199A14208BF0028CAD130
S11315609DF821030028C6D19DF822039DF823335A
S11315700328C0D8DFE800F05403041ABBE7B1E73E
S11315800DA90091C9AA02A93EA800F0D7FD022125
S113159000288DF81A121CBF41F20701884212BFBD
S11315A0ADF81B520022ADF81B22A1E703208DF8F1
S11315B01A029DF80A0000281CBF9DF80B000028A1
S11315C085A81ABF0021ADF81B12ADF81B52FFF716
S11315D043FF9DF80A0000281CBF9DF80B0000285B
S11315E089D09DF8080041070CD50C9800F064FBE5
S11315F020B101F091FA00F08FFB7CE73046FFF751
S1131600F5FE78E78107FCD52820026803989168E5
S1131610814204D201F080FA0B9900F015FB6AE7CD
S11316209DF80A0028B19DF80B0010B940F2032080
S1131630E5E7012BE2D040F20120E0E74FF48472A9
S1131640FEF788BF70470000000000A002000103FD
S11316500B0000000000000000000000000000007B
S11316600000000000000000000000000000000076
S11316700000000000000000000000000000000066
S11316800000000000000000000000000000000056
S11316900000000000000000000000000000000046
S11316A00000000000000000000000000000000036
S11316B00000000000000000000000000000000026
S11316C00000000000000000000000000000000016
S11316D00000000000000000000000000000000006
S11316E000000000000000000000000000000000F6
S11316F000000000000000000000000000000000E6
S113170000000000000000000000000000000000D5
S113171000000000000000000000000000000000C5
S113172000000000000000000000000000000000B5
S113173000000000000000000000000000000000A5
S11317400000000000000000000000000000000095
S1131750000000A0040000000000000000000000E1
S11317600000000000000000000000000000000075
S11317700000000000000000000000000000000065
S11317800000000000000000000000000000000055
S11317900000000000000000000000000000000045
S11317A00000000000000000000000000000000035
S11317B00000000000000000000000000000000025
S11317C00000000000000000000000000000000015
S11317D00000000000000000000000000000000005
S11317E000000000000000000000000000000000F5
S11317F000000000000000000000000000000000E5
S113180000000000000000000000000000000000D4
S113181000000000000000000000000000000000C4
S113182000000000000000000000000000000000B4
S113183000000000000000000000000000000000A4
S11318400000000000000000000000000000000094
S11318500000000000000000000000200200000062
S11318600000000000000000000000000000000074
S11318700000000000000000000000000000000064
S11318800000000000000000000000000000000054
S11318900000000000000000000000000000000044
S11318A00000000000000000000000000000000034
S11318B00000000000000000000000000000000024
S11318C00000000000000000000000000000000014
S11318D00000000000000000000000000000000004
S11318E000000000000000000000000000000000F4
S11318F000000000000000000000000000000000E4
S113190000000000000000000000000000000000D3
S113191000000000000000000000000000000000C3
S113192000000000000000000000000000000000B3
S113193000000000000000000000000000000000A3
S11319400000000000000000000000000000000093
S11319500000000000000000000000000000000083
S113196000000000631B0000000000008B1B00004F
S113197000FF000000000000000000000000000064
S11319800000000000000000000000000000000053
S1131990000000000000000000000000F8B504464C
S11319A0600B0D461646B4EB403004BF204601F0F0
S11319B0B8F804F500577F0B7F0304E0384601F0C4
S11319C0B0F807F5005730198742F7D33246294655
S11319D02046BDE8F84001F0ACB838B504460D46E1
S11319E000F00FF850B16069012805D1207C02286D
S11319F002D2A069286002E0002032BD2C600120E0
S1131A0032BD7FB5044668460FF280311022FEF7DE
S1131A10A1FD002046420DEB0605E97B225C9142C4
S1131A2005D1401C1028F5D3012004B070BD00205E
S1131A30FBE72DE9F84FB8B005466E6B01F069F885
S1131A4080463046FFF7DDFF002809D0307C0228AD
S1131A5058D23427D7F800904846FFF7D2FF002821
S1131A607CD043F6C17AD1454CD24FF0000B002410
S1131A7001F047F880B33069010633D0000A1CBF77
S1131A80B06B00282ED03F6804464FF0010B384657
S1131A90FFF7B7FF002835D0574533D2B96B606CD8
S1131AA04A6C90422ED302A801F052F848222146F3
S1131AB002A801F057F802A801F056F8B86B04F137
S1131AC0680200F124010091031D04F1480102A8F9
S1131AD0FFF720FBB0B95C4601A93046FFF77DFF54
S1131AE028B93BE001F00FF80028F4D00AE001988F
S1131AF0D8F81010884228BFA84203D301469B4857
S1131B00814201D3002029E01DA801F021F8019AA7
S1131B1029461DA8521B01F025F81DA801F024F840
S1131B20019D00F0EEFF203548B10CB1B06B01E02F
S1131B30D9F8380000F124010091031D06E0FEF7F6
S1131B40B6FD0446FEF7A8FD0346009401992A4613
S1131B501DA8FFF7DFFA401E8041C00F39B0BDE871
S1131B60F08F70B504460D46164600F0D2FF0169A9
S1131B708C4222BF40693219904205D3324629462D
S1131B802046BDE8704009E770BD2DE9F0410446E8
S1131B908846164600F0BDFF074600F0BDFF251835
S1131BA07019724988420ED23CB900F0B5FF7969C8
S1131BB088423CBF386900F0B4FF324641462846AB
S1131BC0BDE8F041EAE6BDE8F081F8B504462568D1
S1131BD06768666B00F09DFF05F1604564498D42BE
S1131BE029D20069874226D360498F4223D24030EC
S1131BF0864201D38E4205D3FFF7EAFB401E8041A3
S1131C00C00FF2BDFFF7E4FBB8B93046FFF7F9FEA9
S1131C10B8B1307C02280ED2706990B102280CD180
S1131C20B0694FF0FF32001D011B2046FFF71AFB7D
S1131C305049884205D00020F2BD2046BDE8F2405C
S1131C40F7E60120F2BD000070B590B004460D46E1
S1131C504FF0FF32FFF706FB464B984213D168461C
S1131C604EA100F055F800F08DF8294600F08BF8ED
S1131C706846FEF755FD404E3068C002FCD5306919
S1131C8010F4702F02D0002010B070BD40F202207A
S1131C90FFF7A0FB0DF1200048A100F039F800F097
S1131CA06DF8294600F06BF808A8FEF739FD306896
S1131CB0C002FCD53169E6E72DE9F8438CB004464F
S1131CC04FF0FF35009504A844A100F021F800BFAF
S1131CD04AA696E8800301AD01A985E88003CDF802
S1131CE004D004A8FEF708FD04A8FEF719FD224855
S1131CF00168C902FCD5006910F4702F18BF0020D8
S1131D0003D10098A0428041C00F0DB0BDE8F0831C
S1131D102022FEF71FBC000038B590B00446684688
S1131D2039A1FFF7F5FF00F02DF86846FEF7F8FC3F
S1131D30114D2868C002FCD5286910F4702F11D108
S1131D4040F20220FFF746FB0DF1200036A1FFF719
S1131D50DFFF00F013F808A8FEF7E2FC2868C002D1
S1131D60FCD52969002011B030BD0000010010002D
S1131D7001800100E320BBDE4400004C214608A89A
S1131D80FEF7C4BC21466846FEF7C0BCB814B6F1E1
S1131D90E0CFF3ADB7DD25C9FA79B71301000543E8
S1131DA0000000000000000000000000000000002F
S1131DB000000000000000000000000001000643D5
S1131DC0000000000000000000000000000000000F
S1131DD000000000000000000000000000000843B4
S1131DE000000000000000000000000000000000EF
S1131DF000000000000000000000000000000000DF
S1131E000100000004000020000002430000000064
S1131E1000000000000000000000000000000000BE
S1131E200000000000000000000003430000000068
S1131E30000000000000000000000000000000009E
S1131E4000000000000000002DE9F8431E467368FE
S1131E50002B4ED00C4614F0030118BF41F20200CF
S1131E6048D11546074600F050FE396E001D6A1829
S1131E70824221D300F1180399421DD28C46844535
S1131E8005EB010800F1180238BF84469045ACEB1D
S1131E900101ACEB000088BF904604EB0109A8EBFC
S1131EA00C083844424649466830FEF743FBFF229B
S1131EB04146484600F05CFE00F02EFE396E001DDF
S1131EC0884222BF6A18031D9A4209D3411A601836
S1131ED0026807F180010A60FF22042100F048FE35
S1131EE021463368386E74682A46A047386E2D1828
S1131EF03D660020BDE8F28370B54B688C689C4257
S1131F0006D200F140021B1B14781B19412B01D38C
S1131F10002070BD0D6853781478E4188B6804F0C1
S1131F203F04EE5C06558C68641C8C6013785B1C63
S1131F3013708C684B689C42ECD3012070BD90F800
S1131F4040004A6889681018401A70472DE9F0412A
S1131F500C4617461D468046FFF7F1FF08F1400680
S1131F60A84206D221464046FFF7C6FF10B3002020
S1131F704DE000210CE0707818F800207A54737852
S1131F803078491C5B1C03F03F03421E73703270AF
S1131F90307808B1A942EED3A0686268904238BF95
S1131FA0A9420CD22368185C7854A268491C521CBC
S1131FB0A260F1E71520B07141F2020027E0A942C6
S1131FC0F8D1B26C069C29463846FFF74BF9B06449
S1131FD024B1F0682A46394600F0C4FD079838B1A8
S1131FE0F07878B1B0682B463A46394600F016FED0
S1131FF0F07838B1B169F06928188842F06124BFDB
S11320000020F07070692D18756141F20300BDE87D
S1132010F081F8B584B01446002605460196009672
S1132020082302AAFFF792FF41F20306B0423BD114
S113203095F8430005F1480738B100F037F83868DF
S1132040082302AA02A900F0E9FD9DF80A209DF8E0
S11320500B009DF80910120442EA00629DF8080082
S113206042EA0122024322609DF80E009DF80F10FF
S113207000F021FD9DF80D1040EA01209DF80C10A0
S11320800843606095F8430048B9DFF8A8198A420C
S11320901CBFDFF8A409824201D000F007F8606891
S11320A00021F960B860304605B0F0BD78680822B8
S11320B002A900F057BDF8B5064606F14007002016
S11320C00D46B8717870F870387100214FF0FF3008
S11320D014463970797103F02003B8643962796267
S11320E0BB70FF22182106F1680000F041FDFF22B9
S11320F0042106F1800000F03BFDFF22042106F1DB
S1132100840000F035FDBD60FC60882106F190007C
S113211000F094FD002086F8180100F0F0FC00B1F6
S11321201DB100F0EAFC18B114B941F20B00F2BD84
S113213014B1F86800F00CFD0020F2BD2DE9FC4F4D
S1132140B5B005460E4605A800210023002480E80A
S11321501A000592369A08910692486B0990014636
S113216043F6C1708142C0F0068441F2010000E0F0
S1132170002037B0BDE8F08F012089F8010089F80C
S1132180040005F1420999F8040005F1840405F1FD
S11321904808152871D8DFE810F0DD031700F600B1
S11321A0F803A40111024501FB031102000211020C
S11321B04C01110200020F0432044A0316004F03BB
S11321C0240402043204D7E700F066FCB842D0D1FC
S11321D099F8020030B10398DFF85C18884257D1AF
S11321E00E22C6E399F80000C1075DD599F80100F5
S11321F0002859D10398DFF8441888421CBFDFF83F
S1132200401888422AD0DFF83C1888423BD0DFF8D7
S1132210381888421FBFDFF834188842DFF83018B6
S113222088421BD0DFF82C18884227D0DFF8041826
S1132230884200F07F80DFF82018884213D0DFF84E
S11322401C1888420DD0DFF8F01788421DD0DFF843
S1132250101888421CBFDFF80C18884200F09583E0
S11322601AE0102285E3112089F80400D8F8081038
S11322700020C8F81400C8F810107CE300F008FC33
S113228041F2080075E7122061E300F036FC0028F3
S113229040F07B830E205AE300F0FAFB03A800F021
S11322A0D0FC0028ECD060E70398DFF8941788424C
S11322B020D0DFF89017884232D0DFF88C1788429C
S11322C01CD0DFF88817884216D0DFF884178842BC
S11322D016D0DFF86017884228D0DFF85C178842F0
S11322E014D0DFF87C1788420ED0DFF878178842C4
S11322F008D021E00B223CE3042028E306214BE331
S1132300072024E3092147E30D2020E300F0F5FB37
S1132310002804BF99F801000028B9D10E213BE33D
S113232099F801000028B3D1122135E399F801008E
S11323300028ADD113212FE303A800F082FCC8B11B
S113234003981421C8F8440089F80410039800F095
S11323507AFC089099F8000081068ED50898002828
S11323601CBF4168002988D028468847002800F00F
S11323700283FAE699F8010000F08AFB002891D064
S113238041F20400F5E6D8F80C00082880F0DE825B
S1132390002101200191009000F095FBB84209D181
S11323A09AF803000006B0F1407F04D000F087FBE8
S11323B041F20900DDE69AF805009AF8041041EAB2
S11323C000210291C90706D599F8000040F00100E8
S11323D089F8000002E000F092FB30B900F08DFBB8
S11323E00028D0D00298C105CDD400F068FB41F29A
S11323F00A00BEE601200190009000F057FBB842AD
S1132400F7D11C220AA906F10800FEF7A3F83078D8
S113241040F00100307006F1080000F080FB002855
S113242000F03B82D8F80830D8F80C009842E1D389
S1132430E8E2D8F80C00082856D201210191009155
S113244008230CAA00F033FBB842D2D1307840F014
S1132450040030709AF80E009AF80F109AF80C20C5
S113246000F029FB9AF80D1040EA01201043B062F5
S11324707078410731D5EB208DF8280017218AF8B0
S11324800110A6208AF802005E218AF8031005F1E3
S11324905000016821600021C8F81C1099F803005D
S11324A040F0020089F803004098D0F80CC0BCF159
S11324B0000F12D0036804220AA90020E0474098C4
S11324C0DDF800C1082200F0DDFA0CA90830D84775
S11324D0D8F81C001030C8F81C000C2089F804003F
S11324E0A7E7D8F80C00082880F045820121019163
S11324F0009100F0E8FAB84237D1307840F0020099
S113250030709AF802009AF803109DF8282000F021
S1132510D2FA9AF8011040EA012010437060D8F80A
S11325200800083870629AF806009AF807109AF8BA
S1132530042000F0C0FA9AF8051040EA0120104384
S113254040F0238299F80310052089F8040041F033
S1132550010189F803100020C8F81C00C1E701211B
S11325600191009100F0A1FAB8427FF402AE9AF80A
S113257002109AF803009DF82820090441EA00613A
S11325809AF8010041EA002111430291D8F80800A9
S1132590042884BF0298C8F81800D8F80C0004284E
S11325A0DDD30A21F8E10368D8F81C0052460AA9D1
S11325B0E047D8F81C005044C8F81C00D8F80800BC
S11325C0D8F80C10814280F01D82A0EB010ABAF108
S11325D0040F05A9284608D3FFF7B1FC042808D244
S11325E005A92846FFF788FCC2E5FFF7A8FC50457B
S11325F0F6D3BAF1410F05A9284628BF4FF0400A87
S1132600FFF79DFC504502D200F04BFA8246BAF126
S1132610040F0AAA05A924BF4FEA9A004FEA800AC8
S1132620012001900090534600F042FAB8426DD167
S113263099F80400082805D14098D0F808C0BCF1E6
S1132640000FB0D1CAF1040BBAF1040F06D20AA8E4
S1132650FF225946504400F08BFADA4499F80410EA
S11326600A2906D1409B52460AA92846FFF7ECFBEB
S1132670A4E7052917D17078820714D5409BD86840
S113268088B1D8F81C00042816D80AEB00010729E1
S113269012D30AA9091D081A0168FF222160042126
S11326A000F066FA08E00C2988D17078410785D5D6
S11326B0409AD0680028DBD04098DDF800C152462B
S11326C000F0E0F90AA9D84773E74FF0010B00F0D6
S11326D0E8F9584584D3D8F80800D8F80C10A0EBD2
S11326E0010BBBF1410F05A9284628BF4FF0400B51
S11326F0FFF725FC834502D300F0D3F9834601207C
S1132700019000905B4600F0D1F9B8427FF431ADFE
S113271099F8000081060ED5002C1CBFD4F808C01F
S1132720BCF1000F3FF421AD53465A460AA928468E
S1132730E0470028EAD1D8F80C00D8F808108842FD
S113274080F0648199F800008106BED5002C1CBF7E
S113275021690029B9D0284688478346B7E700F0A5
S1132760CCF910B90120F07002E0F078002843D0D1
S113277099F8030010F0030F1CBFDBF80C70002F56
S113278005D0DBF80030042221460420B847D8F8ED
S1132790181000291CBFDBF8040000282CD04FF0CF
S11327A0FF31029105F180040422214602A800F0C1
S11327B04DFA38B100F0B0F920B1214600F05CF9CF
S11327C0001DA047042205F1680102A800F03EFAAA
S11327D090B100F09AF9DBF80030DBF804401422E1
S11327E005F16C010830A04700F08FF900F044F9BE
S11327F005F16801001DA0470120B0700F2189F880
S11328000410B5E40020012101900091102300F090
S11328104DF9B84245D1FDF75CFF0090802101914C
S1132820D8F8000001230BAA022100F0D4F9D8F84B
S11328300C001028E6D3E5E095F8180100287FF491
S1132840A0ACD8F80C0005F19004042807D200F0DD
S11328504AF9B84225D10AA8016821608BE04428CE
S11328600AD200F036F9B8421BD140220AA905F178
S11328709400FDF75FFE7EE0482813D200F033F9A0
S1132880B8420ED10AA8026805F1D4010A60099879
S1132890806B10B1406C82426DD200F0F9F841F2C5
S11328A00C0066E400F015F9B842FAD105F1D80736
S11328B040220AA93846FDF73DFE1AA800F048F95F
S11328C0482221461AA800F04DF91AA800F04CF944
S11328D0099805F1F80200F0C9F839461AA8FEF77C
S11328E019FC18B9012085F8180130E000F0E7F868
S11328F041F206003DE4D8F8040000F035F995F8FB
S1132900180128B105F1B401009105F194030DE01B
S113291000F0F7F818B1099800F0A8F806E0FDF700
S1132920C6FE0446FDF7B8FE00940346D8F804003A
S113293012AA0AA9FEF7EEFB20B10020F07000F005
S1132940A7F8D5E70120F07089F80200012089F882
S1132950040010E000F0A0F8B842CBD104980021A4
S1132960C8F80C10C8F808000398344988420CD100
S1132970022289F804200798369941F203070DF1E1
S1132980280A8842FFF4FDAB3BE700F098F8F0E436
S11329900020C8F81C00082189F80410EBE799F816
S11329A00000DDF800A181062ED5D8F8440000F01F
S11329B04AF9089040BBDCE4002001900090DDF867
S11329C000B100F072F8B84294D1D8F8400026491A
S11329D088423FF4C4AE152289F8042041F2050070
S11329E088E799F802000028B0D1002101910090F5
S11329F0402300F05BF8B8423FF47DAF7AE741F240
S1132A00070077E70121C7E7089C94E6CDF800A109
S1132A10089499F800108A0698D5002C1CBFE26827
S1132A20002A93D040992846904700287FF4A1AB10
S1132A308CE70000F70A0AF7FC0404FCEB17A60372
S1132A40EB17A65EF30B0BF3F40A0AF4F50909F588
S1132A50F60808F6F70909F7F90707F9FA0606FA76
S1132A60FD0303FDFE0101FEE320BBDE806B00F1EC
S1132A7024010091031D7047DBF80030DBF80440AB
S1132A80042270470368D8F81C00DCF80CB07047C7
S1132A90152189F80410704703AA05A92846FFF7F1
S1132AA0B8BA05A92846FFF74ABA04230AAA05A911
S1132AB02846FFF74BBA000440EA0160704715202E
S1132AC089F80400704708230AAA05A92846FFF7D5
S1132AD03DBA002001210190009140230AAA05A9D2
S1132AE02846FFF733BA0020012101900091042306
S1132AF00AAA05A92846FFF729BA00207047002032
S1132B00704700207047002070472820016808693A
S1132B1070472820006870474FF400407047012038
S1132B20704780B5FEF78BFAFFE7401E8041C00F67
S1132B3002BD10F0030F80B508BF12F0030F01D0DF
S1132B40002002BD0AB9012002BDFEF798FAECE7A5
S1132B5010B50446FEF776F920460021BDE8104082
S1132B60FEF7A0B9FEF7A0B90146FEF79EB9FEE74D
S1132B7062F30F2262F31F42401810F0030308D0DF
S1132B80C91A1FD3DB0748BF00F8012D28BF20F85E
S1132B90022D130030B414461546103928BF20E91D
S1132BA03C00FAD8490728BF20E90C0048BF40F888
S1132BB0042D890028BF20F8022D48BF00F8012DFC
S1132BC030BC7047C91818BF00F8012DCB0728BFC7
S1132BD000F8012D70472DE9F84380460E469146D2
S1132BE01C46089D099FFDF713FE29463A464046B8
S1132BF0FDF714FE08F124000021016006750C2283
S1132C00494608F13900FDF795FC08F14500210C0F
S1132C10220A017042708470BDE8F1833EB51C46FF
S1132C200292019100F12805009500F1380300F1AA
S1132C3024022146FDF784FE37BDFEE70022FFF79C
S1132C409BBF0020704700207047FEE70300002070
S1132C5013F0030F09D0521E22BF13F8010B11F811
S1132C6001CBB0EB0C00F3D07047121F22BF53F816
S1132C70040B51F804CB6045F7D0121D0AD200BAF8
S1132C809CFA8CFCB0EB0C0038BF6FF0000088BFDE
S1132C9001207047521E22BF13F8010B11F801CB1B
S1132CA0B0EB0C00F6D0521C08BF10467047FEE78C
S1132CB00448054908600548026842F4700202604D
S1132CC0704700000000000008ED00E088ED00E01F
S1132CD04EF68851CEF20001086840F47000086096
S1132CE0BFF34F8FBFF36F8F4FF00070E1EE100A08
S1132CF0704730B4002513E050F8042BD30744BFC9
S1132D00A9F101039A18091F042942F8045BFAD2B5
S1132D1013468C0744BF15809B1CC90748BF1D7010
S1132D2050F8041B0029E7D130BC704700F00DF8BF
S1132D30002801D000F00CF8AFF300800020AFF3BE
S1132D400080FEF7A7FA00F017F801207047000092
S1132D5010B5074979441831064C7C44163404E014
S1132D600A68081D114488470146A142F8D110BDE4
S1132D70E80000000401000000F000B807463846EF
S1132D8000F002F8FBE70000202109032631182097
S1132D90ABBEF9E780B5FFF78BFFFEF7D5FABDE8C8
S1132DA0014000F000B8AFF30080FFF791FFFFF798
S1132DB0BDFF10B50446B1F5037F02D240F20520F1
S1132DC010BD4FF40371FDF705FD0020607004F59C
S1132DD0C87204F5A47104F12C000023BDE810406E
S1132DE0FFF769B91CB504460091214604F12C0093
S1132DF0FFF7A4F90028C4F808021CBF41F2070138
S1132E0088420BD1A07838B1E07810B140F20320A9
S1132E1016BD40F2022016BD40F2012016BD30B5A9
S1132E20016884684218416802EB5103C9070BD555
S1132E304C4409E012F9011B12F8015B002904F863
S1132E40015B05D5491CF9D19A42F3D10C3030BD50
S1132E50491EF1D5F8E700009BFEFFFF0C020000BD
S1132E601001002000000000B7FFFFFF0C0000006D
S1132E70240000008000002081000C00F07F10304E
S1132E80800000203C800540FC00000000000000A1
S9032DA728
